:100000000C94F4040C9408050C9408050C94080551
:100010000C9408050C9408050C9408050C9408052C
:100020000C9408050C9481100C944C320C94080527
:100030000C9408050C9408050C9408050C9408050C
:100040000C9408050C9411290C9408050C940805CF
:100050000C9408050C9408050C9408050C942E2BA0
:100060000C9408050C9408050C9408050C940805DC
:100070000C9408050C9408050C9408050C940805CC
:100080000C9408050C9408050C9408050C940805BC
:100090000C9408050C9408050C9408050C940805AC
:1000A0000C9408050C9408050C9408050C9408059C
:1000B0000C9408050C9408050C9408050C9408058C
:1000C0000C9408050C9408050C9408050C9408057C
:1000D0000C9408050C9408050C9408050C9408056C
:1000E0000C9408051508F90FF90F1F082C0839089A
:1000F0004608F90F4A08F90F5808F90F62086C080A
:100100009D08F90FF90FF90F760883089008BD0EC6
:10011000CE0EED0ECE0EF10E040FF70EFD0E190FE2
:100120001F0F2E0F450F690F730F7F0F890F8F2041
:10013000922097209A209D20A020A320A620A920CD
:10014000AC20AF20BB20BB20BB20BB20BB20BB20F2
:10015000BB20BB20B520B220B820022105210821F8
:100160000B210E21112114211721732779277C27B8
:100170007F2784278C2796270228022802289E277B
:10018000A127AA27B327022802280228022802282A
:100190000228BB27C527D127D927DC27E527EE274B
:1001A000F427084AD73B3BCE016E84BCBFFDC12F6C
:1001B0003D6C74319ABD56833DDA3D00C77F11BE58
:1001C000D9E4BB4C3E916BAAAABE000000803F055B
:1001D000A84CCDB2D44EB93836A9020C50B991868C
:1001E00088083CA6AAAA2ABE000000803F000C9402
:1001F0008C270C944A080C9479270C94B2200C9408
:10020000F90F0C94A3200C9490080C947F0F0C947D
:10021000CE0E0C94BD0E0C94890F0C9462080C94B5
:1002200008210C9484270C9458080C940E210C94EB
:10023000AF200C9402210C9414210C9402280C94ED
:100240007F270C9492200C94A0200C94040F0C9403
:100250009E270C94BB270C9446080C94B5200C9454
:10026000C5270C94A9200C949D080C94B3270C94DA
:10027000EE270C94450F0C94190F0C9405210C9447
:100280009D200C94A6200C94AA270C94A1270C94D2
:1002900076080C9439080C947C270C942E0F0C943F
:1002A00096270C9497200C94F10E0C94F70E0C9456
:1002B000DC270C94F4270C9417210C94690F0C94F0
:1002C0000B210C948F200C94730F0C941F080C942A
:1002D000ED0E0C9473270C942C080C94B8200C94FD
:1002E00015080C94AC200C94E5270C9483080C940E
:1002F000FD0E0C94BB200C94D9270C94D1270C94A0
:100300001F0F0C946C080C9411210C949A203E0D34
:100310000A002C4C696D3A002C52583A002C427558
:10032000663A002C002C57506F733A002C002C4D6D
:10033000506F733A003C446F6F72003C43686563D2
:100340006B003C416C61726D003C486F6D65003C18
:10035000486F6C64003C52756E003C49646C6500EB
:100360005D0D0A005B302E396A2E3230313630375F
:1003700032363A000D0A003D00244E005D0D0A00A1
:10038000205300204600205400204D3800204D39D5
:1003900000204D3500204D3400204D3300204D32DB
:1003A00000204D3100204D300020473934002047D7
:1003B0003933002047393100204739300020473297
:1003C0003000204732310020473139002047313892
:1003D0000020473137002047004733382E00473888
:1003E00030004733004732004731004730005B00A0
:1003F0005D0D0A005B544C4F3A005D0D0A002C0065
:100400005B4739323A005D0D0A002C003A00333068
:10041000003238005B47005D0D0A003A002C005B9B
:100420005052423A00290D0A00206D617820747202
:100430006176656C2C206D6D0020616363656C2CAA
:10044000206D6D2F7365635E3200206D61782072C0
:100450006174652C206D6D2F6D696E002C20737496
:1004600065702F6D6D007A00790078002028003DBE
:100470000024002028686F6D696E672070756C6CB1
:100480002D6F66662C206D6D290D0A002028686F7F
:100490006D696E67206465626F756E63652C206D93
:1004A000736563290D0A2432373D002028686F6D7B
:1004B000696E67207365656B2C206D6D2F6D696E9D
:1004C000290D0A2432363D002028686F6D696E6759
:1004D00020666565642C206D6D2F6D696E290D0A8F
:1004E0002432353D00290D0A2432343D002028688D
:1004F0006F6D696E672064697220696E76657274CB
:10050000206D61736B3A002028686F6D696E6720FB
:100510006379636C652C20626F6F6C290D0A24323D
:10052000333D00202868617264206C696D697473C2
:100530002C20626F6F6C290D0A2432323D00202876
:10054000736F6674206C696D6974732C20626F6FB1
:100550006C290D0A2432313D0020287265706F72BB
:100560007420696E636865732C20626F6F6C290D4F
:100570000A2432303D00202861726320746F6C655C
:1005800072616E63652C206D6D290D0A2431333D37
:100590000020286A756E6374696F6E2064657669E1
:1005A0006174696F6E2C206D6D290D0A2431323D06
:1005B00000290D0A2431313D0020287374617475BF
:1005C00073207265706F7274206D61736B3A0020D6
:1005D0002870726F62652070696E20696E76657230
:1005E000742C20626F6F6C290D0A2431303D00207D
:1005F000286C696D69742070696E7320696E766508
:1006000072742C20626F6F6C290D0A24363D002015
:10061000287374657020656E61626C6520696E7602
:100620006572742C20626F6F6C290D0A24353D00B1
:10063000290D0A24343D00202864697220706F72ED
:100640007420696E76657274206D61736B3A00294F
:100650000D0A24333D0020287374657020706F727A
:100660007420696E76657274206D61736B3A002038
:1006700028737465702069646C652064656C6179A9
:100680002C206D736563290D0A24323D00202873E8
:100690007465702070756C73652C207573656329A3
:1006A0000D0A24313D0024303D00242420287669A1
:1006B0006577204772626C2073657474696E677326
:1006C000290D0A242320287669657720232070616C
:1006D00072616D6574657273290D0A24472028764E
:1006E00069657720706172736572207374617465D7
:1006F000290D0A2449202876696577206275696C7E
:100700006420696E666F290D0A244E20287669657B
:1007100077207374617274757020626C6F636B7391
:10072000290D0A24783D76616C7565202873617601
:1007300065204772626C2073657474696E67290D59
:100740000A244E783D6C696E6520287361766520B9
:100750007374617274757020626C6F636B290D0A1B
:1007600024432028636865636B2067636F6465209A
:100770006D6F6465290D0A245820286B696C6C2004
:10078000616C61726D206C6F636B290D0A244820C7
:100790002872756E20686F6D696E67206379636C6F
:1007A00065290D0A7E20286379636C652073746166
:1007B0007274290D0A2120286665656420686F6CB3
:1007C00064290D0A3F202863757272656E74207368
:1007D0007461747573290D0A6374726C2D78202806
:1007E0007265736574204772626C290D0A000D0AE8
:1007F0004772626C20302E396A205B2724272066DE
:100800006F722068656C705D0D0A005D0D0A005204
:100810006573746F72696E672064656661756C7468
:10082000730050676D20456E6400436865636B20FC
:10083000446F6F720044697361626C656400456E59
:1008400061626C65640043617574696F6E3A20552E
:100850006E6C6F636B656400272448277C272458DF
:100860002720746F20756E6C6F636B005265736523
:100870007420746F20636F6E74696E7565005B0021
:100880000D0A00486F6D696E67206661696C0050E3
:10089000726F6265206661696C0041626F727420DC
:1008A000647572696E67206379636C6500536F6667
:1008B00074206C696D69740048617264206C696DA4
:1008C000697400414C41524D3A20000D0A00496EB6
:1008D00076616C69642067636F64652049443A00FF
:1008E000556E646566696E65642066656564207230
:1008F00061746500556E737570706F7274656420F5
:10090000636F6D6D616E64004D6F64616C20677222
:100910006F75702076696F6C6174696F6E004C69D9
:100920006E65206F766572666C6F7700486F6D69D3
:100930006E67206E6F7420656E61626C6564004145
:100940006C61726D206C6F636B004E6F7420696414
:100950006C6500454550524F4D20726561642066BC
:1009600061696C2E205573696E67206465666175D8
:100970006C74730056616C7565203C203320757370
:1009800065630053657474696E672064697361629E
:100990006C65640056616C7565203C203000496EC2
:1009A00076616C69642073746174656D656E740042
:1009B000426164206E756D62657220666F726D6152
:1009C0007400457870656374656420636F6D6D6154
:1009D0006E64206C6574746572006572726F723A31
:1009E00020006F6B0D0A000011241FBECFEFD1E273
:1009F000DEBFCDBF00E00CBF27E0A0E0B2E001C049
:100A00001D92AE3CB207E1F70E94FA120C94A9388D
:100A10000C940000439808953B9A0C940A05823088
:100A200011F4439A08950C940A05CF93DF931F9213
:100A3000CDB7DEB79091A306923049F089830E942A
:100A4000682089810F90DF91CF910C940F050F9052
:100A5000DF91CF910895F999FECF92BD81BD81E0DC
:100A60008FBB80B50895F894F999FECF92BD81BDF2
:100A700081E08FBB40B54627842F992787FD90954D
:100A8000262F30E082239323892B39F06F3F19F012
:100A900060BD84E006C084E104C0442321F060BD51
:100AA00084E28FBBF99A789408959F92AF92BF9297
:100AB000CF92DF92EF92FF920F931F93CF93DF932A
:100AC0008C017A016B01C40ED51EEB01912C5C01E7
:100AD000A61AB70ACE018A0D9B1DCC15DD0591F033
:100AE000911009C0692D772767FD7095272F221F68
:100AF0002227221F01C021E06991922E960E0E94AA
:100B00003305E8CF692DC8018E0D9F1DDF91CF9170
:100B10001F910F91FF90EF90DF90CF90BF90AF901B
:100B20009F900C9433059F92AF92BF92CF92DF9229
:100B3000EF92FF920F931F93CF93DF938B017A0174
:100B40006C01C40ED51EEC01912C5B01A81AB90AE8
:100B5000C5018C0F9D1FCC15DD0591F00E942B0562
:100B6000911009C0292D332727FD3095232F221FEF
:100B70002227221F01C021E0922E980E8993E8CFF0
:100B8000C8018E0D9F1D0E942B0521E030E09816B4
:100B900011F020E030E0C901DF91CF911F910F915A
:100BA000FF90EF90DF90CF90BF90AF909F9008950F
:100BB0008FE3EAE2F6E0DF011D928A95E9F76DE442
:100BC00076E080E00E94D326811103C087E00C9478
:100BD0007920089566EA76E081E496E00C943C344E
:100BE0002F923F924F925F926F927F928F929F923D
:100BF000AF92BF92CF92DF92EF92FF920F931F932B
:100C0000CF93DF93CDB7DEB7AB970FB6F894DEBFC7
:100C10000FBECDBF98A38F8F89E3E9E6F6E0DF0131
:100C20001D928A95E9F78AE0EAE2F6E0AAE6B6E0E4
:100C300001900D928A95E1F71D8E212C312CA12C6B
:100C4000B12C19A2512C1E8E66246394712C08E0DD
:100C5000402E9924939485E0882E8D8DEF8DF8A1F8
:100C6000E80FF11D0081002309F48AC29FEB900F69
:100C70009A3110F00C94EB0F8F5F8D8FAE01475EB1
:100C80005F4FBE01635E7F4F8F8D98A10E94BF179B
:100C9000882311F40C94ED0FC98CDA8CEB8CFC8C4E
:100CA000C701B6010E943C380E94A435162F70E09F
:100CB00080E090E00E94D2359B01AC01C701B601F3
:100CC0000E94563420E030E048EC52E40E946E3737
:100CD0000E94D1370E94A435073421F00D3409F465
:100CE00050C192C1183209F432C1E8F4143160F4F1
:100CF000113108F0D7C0143009F45AC008F48EC07E
:100D00001A30D9F10C94F90F1C31B9F128F41631CD
:100D100008F4F7C00C94F90F1E3179F1163209F47A
:100D20007DC00C94F90F1D3309F40BC1A8F41533E1
:100D300009F461C040F41B3209F4ECC0113309F42A
:100D4000E9C00C94F90F1C3310F00C94F90F1653F2
:100D50001093700689E000C11C3540F41A3508F084
:100D6000B0C0103509F49BC00C94F90F1C3529F064
:100D70001F3508F4BDC00C94F90F6115710531F4ED
:100D8000BE8DB1110C94EF0FE1E0EE8F1C3199F0A4
:100D900038F4143069F01A3009F0DBC082E02CC05E
:100DA000153349F11C3559F11E3109F0D2C013C079
:100DB00090926906CEC06115710549F06A307105DF
:100DC00011F00C94F90F24E02093690609C0F3E0B8
:100DD000F093690605C06115710521F480926906DA
:100DE00080E0BFC06A30710511F00C94F90F36E055
:100DF00030936906F5CF87E080936906AAC0611534
:100E0000710549F06A30710511F00C94F90F99E001
:100E100090936906E5CF40926906E2CFAE8DA111AD
:100E20000C94EF0FB2E0BE8F123089F028F411233A
:100E300059F0113081F08FC0163281F0103579F100
:100E4000133009F088C007C010926A0684C0EE8D86
:100E5000E0936A0680C010936A067DC06E3171050A
:100E6000B1F048F46431710511F00C94F90FF4E01D
:100E7000F0936A0612C06832710561F06233710541
:100E800011F00C94F90F37E030936A0606C0809297
:100E90006A0603C026E020936A0681E062C04092A1
:100EA0006A0659C0123129F0133139F010926E06DA
:100EB00002C090926E0682E04FC082E080936E0680
:100EC0004BC06115710549F41A3519F410926D067D
:100ED00002C090926D0683E044C06A30710511F043
:100EE0000C94F90F1A3511F40C94F90F84E039C001
:100EF0001D3519F490926B0602C010926B0685E0C6
:100F00002BC0143119F490926C0602C010926C063A
:100F100086E022C08E8D81110C94EF0F113331F4D5
:100F200010926F0688E093E09E8F1BC06A307105B7
:100F300011F00C94F90F90926F0688E0A3E0AE8F49
:100F400010C0672B11F00C94F90F8AE00AC087E0FB
:100F500003C080E001C081E0672B19F087E10C94A9
:100F60000C10F30102C0EE0FFF1F8A95E2F7CF01CC
:100F70009F012A213B21232B09F443C085E10C94D6
:100F80000C10672B59F7163018F4133058F017C0AF
:100F9000183010F40C94F90F1A3000F11E3159F08A
:100FA0000C94F90F123039F01E3129F0111120C0C4
:100FB000909271061DC082E08093710619C01430B2
:100FC00029F0153039F09092730606C082E08093C4
:100FD000730602C0109273068CE00BC0193021F02A
:100FE00082E08093720602C0109272068DE001C00A
:100FF0008BE0930102C0220F331F8A95E2F7C901EB
:10100000B8CFA82AB92A29CE802F992787FD909595
:10101000A92FB92FFC01E654F109E531F10508F0DB
:10102000E8C7EE58FF4F0C948938C0927406D092EE
:101030007506E0927606F092770680E07FC0C09257
:101040007806D0927906E0927A06F0927B0639A172
:10105000316039A381E072C0C0927C06D0927D06D7
:10106000E0927E06F0927F0689A1826089A382E0E9
:1010700065C0C0928006D0928106E0928206F0920E
:10108000830699A1946099A383E058C010938406C5
:1010900084E054C0C701B6010E949F356093850665
:1010A00070938606809387069093880685E046C0F5
:1010B000C0928906D0928A06E0928B06F0928C0646
:1010C00086E03CC0C0928D06D0928E06E0928F06DC
:1010D000F092900687E032C0C0929106D0929206BC
:1010E000E0929306F092940688E028C0C09296069B
:1010F000D0929706E0929806F0929906A52DA160ED
:101100005A2E8AE01BC0C0929A06D0929B06E092AB
:101110009C06F0929D06B52DB2605B2E8BE00EC052
:10112000C0929E06D0929F06E092A006F092A10681
:10113000E52DE4605E2E8CE001C089E08301082E7D
:1011400002C0000F111F0A94E2F7980122213321F7
:10115000232B09F046C721E633E002C035952795D9
:101160008A95E2F720FF09C020E030E0A901C7011D
:10117000B6010E94303587FD36C7202A312A6DCD51
:10118000552029F03E8D311102C082E08E8F25FE60
:101190000EC08091850690918606A0918706B09139
:1011A000880680389649A849B1050CF01EC7809181
:1011B0006B06813031F4FE8DF230A1F520FE1FC7A1
:1011C00031C080912B0681112DC020FE1BC0809163
:1011D0006C06813039F523E333E34BEC51E4609145
:1011E00074067091750680917606909177060E943C
:1011F0006E376093740670937506809376069093AD
:10120000770610C08091380690913906A0913A0671
:10121000B0913B068093740690937506A093760672
:10122000B093770630FC10C080913406909135065B
:10123000A0913606B091370680939106909392065E
:10124000A0939306B093940680916906813031F49F
:1012500026FC02C08CE1E0C6E89426F880916E0678
:10126000882341F0813061F019A682E088A791E0DF
:101270009FA30BC022E029A731E038A71FA205C019
:10128000A1E0A9A718A6B2E0BFA380916C068130A7
:1012900021F0EE8DE33091F52AC0B6E9EB2EB6E0F1
:1012A000FB2E00E010E0C52CD12CC601002E02C0A0
:1012B000959587950A94E2F780FF10C023E333E306
:1012C0004BEC51E4D7016D917D918D919C910E94E1
:1012D0006E37F70160837183828393830F5F1F4FA3
:1012E000F4E0EF0EF11C03301105F9F6D2CF809136
:1012F0006F06813019F424E0521279C68CE0EDE4D7
:10130000F6E0DE011D9601900D928A95E1F7B1FCA1
:1013100009C0309169063F8F3230B9F0383009F496
:10132000B0C015C180917006873010F08DE174C691
:1013300090913006981769F3BE01635F7F4F0E945A
:10134000D326882309F465C6E4CF511002C08AE190
:1013500063C6C10180759927892B09F47BCF609101
:10136000890670918A0680918B0690918C060E9466
:101370003C380E94A4356730C8F6809184068431D9
:1013800029F0823009F035C627FC33C68FEA2822BF
:10139000662319F061506F8F03C0909170069F8F84
:1013A000BE016F5F7F4F8F8D0E94D326882309F483
:1013B00030C6409084066090650670906606809006
:1013C000670690906806DE0111967D01F6E9CF2E42
:1013D000F6E0DF2EA1E4AA2EA6E0BA2E00E010E08F
:1013E000E52DF0E0FEA3EDA38DA19EA1002E02C08D
:1013F000959587950A94E2F780FF33C0F4E14F1288
:1014000026C0D50158962D913D914D915C915B97E9
:101410006D917D918D919C910E945634F6012081B1
:101420003181428153810E945634D7016D937D935F
:101430008D939C9313970230A1F4A40193010E9411
:101440005634F70160837183828393830AC0F60167
:1014500080819181A281B381F70180839183A283EE
:10146000B3830F5F1F4FF4E0EF0EF11C24E0C20EB8
:10147000D11C34E0A30EB11C0330110509F0B4CF28
:101480000FC1552009F463CF609065067090660621
:10149000809067069090680606E916E0E1E4CE2E9B
:1014A000E6E0DE2E5E018DE0A80EB11CE12CF12CF1
:1014B000A52DB0E0B8A3AF8F8F8D98A10E2C02C0E0
:1014C000959587950A94E2F780FF26C0F501208163
:1014D000318142815381D6016D917D918D919C9195
:1014E0000E945634F80120813181428153810E944B
:1014F0005634D8016D937D938D939C931397B2E0EE
:10150000EB1214C0A40193010E945634F8016083C9
:101510007183828393830AC0F601808D918DA28DA1
:10152000B38DF80180839183A283B383FFEFEF1A19
:10153000FF0A0C5F1F4F24E0C20ED11C34E0A30E43
:10154000B11C83E0E816F10409F0B6CFA8C09E8D67
:10155000933059F4AF8DA53009F48FC0A73009F44A
:1015600099C0A33009F09BC080C0552099F34090EA
:101570006D068090650690906606A0906706B09014
:10158000680671E4C72E76E0D72E06E916E03E0124
:10159000BDE06B0E711CE12CF12CE52DF0E0FEA3FB
:1015A000EDA38DA19EA10E2C02C0959587950A945E
:1015B000E2F780FD0BC0F60180819181A281B381A9
:1015C000F80180839183A283B3833EC0FF8DF730FF
:1015D000D9F1411028C0D60158962D913D914D91D9
:1015E0005C915B97F30160817181828193810E949C
:1015F0005734D8012D913D914D915C910E94573403
:10160000F8016083718382839383F2E0EF121CC040
:10161000A50194010E945734D8016D937D938D9359
:101620009C93139711C0F60120813181428153812F
:10163000D8016D917D918D919C910E945734F80154
:101640006083718382839383FFEFEF1AFF0A24E0A4
:10165000C20ED11C0C5F1F4F34E0630E711C83E07F
:10166000E816F10409F09DCF75CF511001C01E8E10
:10167000BE016F5F7F4F86E007C0511001C01E8E14
:10168000BE016F5F7F4F87E00E94D326882309F455
:10169000C0C405C080916A06823008F0ACC41F8EB9
:1016A00010916A06183041F4552009F4B3C19E8D9B
:1016B000913009F0A2C48BC2AE8DA23009F0AAC14C
:1016C0001123D9F020E030E0A901609174067091F7
:1016D000750680917606909177060E9430358823B2
:1016E00009F48DC4143028F4123058F4113029F064
:1016F0006EC2183008F44DC16AC2511068C21E8E05
:101700008CC1552009F423CEFFA1EF2FF0E0FEA3FA
:10171000EDA338A5232F30E03BA72AA781E090E076
:101720003C0108A402C0660C771C0A94E2F70FA0E3
:1017300002C0880F991F0A94E2F7682A792A852D3A
:1017400090E086219721892B09F45BC4CF01880F93
:10175000991F880F991FFC01E759F94FDC01A65D1D
:10176000B94F57962D913D914D915C915A9765A532
:1017700076A587A590A90E9456346B017C018AA5A5
:101780009BA5880F991F880F991FFC01E759F94FF6
:10179000DC01A65DB94F57962D913D914D915C911D
:1017A0005A9765A576A587A590A90E9456344B0146
:1017B0005C0127FE40C0E89427F8209196063091FE
:1017C0009706409198065091990660914106709154
:1017D000420680914306909144060E943035811163
:1017E00020C120919A0630919B0640919C06509111
:1017F0009D0660914506709146068091470690913E
:1018000048060E94303581110CC120919E0630910E
:101810009F064091A0065091A106609149067091E3
:101820004A0680914B0690914C060E9430358111FA
:10183000F8C081E2F1C3F9A14F2E512C642075202C
:10184000672809F4E0C321EF222280916C068130E1
:1018500009F45AC00AA51BA5000F111F000F111F84
:101860000359194FD8011B962D913D914D915C91D3
:101870001E97C501B4010E9456342B013C01ADA056
:10188000BEA0AA0CBB1CAA0CBB1CF501E359F94F66
:101890005F012385348545855685C701B6010E94C1
:1018A0005634A30192010E947C186B017C01D8017F
:1018B0001B962D913D914D915C911E97F50163858D
:1018C0007485858596850E947C184B015C01609328
:1018D0008D0670938E0680938F06909390069B01E1
:1018E000AC01C701B6010E9456346B017C01E8943B
:1018F000F7F82AE037ED43EA5BE3C701B6010E943F
:10190000333718164CF163C188E7682E86E0782ECD
:1019100000E010E0C201002E02C0959587950A9460
:10192000E2F780FF10C023E333E34BEC51E4D30133
:101930006D917D918D919C910E946E37F301608332
:101940007183828393830F5F1F4FF4E06F0E711CCE
:1019500003301105F9F67ECF20E030E040E05FE390
:10196000C701B6010E94333718160CF462CF2FE678
:1019700032E143E85AE3C501B4010E946E379B018E
:10198000AC01C701B6010E94333718160CF451CFD1
:101990001EC1552009F4DBCC2091960630919706A4
:1019A00040919806509199066091410670914206C7
:1019B00080914306909144060E943035811107C101
:1019C00020919A0630919B0640919C0650919D066D
:1019D00060914506709146068091470690914806B1
:1019E0000E9430358111F3C020919E0630919F06F0
:1019F0004091A0065091A1066091490670914A0657
:101A000080914B0690914C060E943035882309F452
:101A100010CFDDC02E8D2111DAC0C1018E7D9C7FDB
:101A2000D9C080916C068130B1F423E333E34BECF1
:101A300051E460918D0670918E0680918F06909191
:101A400090060E946E3760938D0670938E06809389
:101A50008F069093900640908D0650908E06609071
:101A60008F067090900620E030E040E850E4C3011B
:101A7000B2010E946E37A30192010E946E372B01C2
:101A80003C01A7019601C701B6010E946E379B0178
:101A9000AC01C301B2010E9456342B013C01A501E7
:101AA0009401C501B4010E946E379B01AC01C301D2
:101AB000B2010E9456342B013C0120E030E0A90124
:101AC0000E94303587FDA7C2C301B2010E94FB37D7
:101AD0002B013C01A5019401C701B6010E947C18AD
:101AE0009B01AC01C301B20190580E9437352B0114
:101AF0003C0180916A06833021F477FA709477F87C
:101B0000709480918D0690918E06A0918F06B09171
:101B1000900689A39AA3ABA3BCA320E030E0A9015F
:101B2000BC01CD010E94303587FF11C077FA709457
:101B300077F8709489A19AA1ABA1BCA1B058809309
:101B40008D0690938E06A0938F06B09390060DA1FC
:101B50001EA1000F111F000F111F0359194FA301E0
:101B60009201C501B4010E946E379B01AC01C7010F
:101B7000B6010E94563420E030E040E05FE30E946E
:101B80006E37D8011B966D937D938D939C931E9712
:101B90000AA51BA5000F111F000F111F0359194F94
:101BA000A3019201C701B6010E946E379B01AC01EF
:101BB000C501B4010E94573420E030E040E05FE30B
:101BC0000E946E37F8016387748785879687C10105
:101BD0008E7D907E892B09F018C2809185069091A8
:101BE0008606A0918706B091880680933D06909363
:101BF0003E06A0933F06B093400680916B0680930B
:101C00002B068091740690917506A0917606B0918E
:101C100077068093380690933906A0933A06B093DE
:101C20003B06C0909106D0909206E0909306F0900B
:101C30009406A70196016091340670913506809153
:101C40003606909137060E9430358823C1F0809186
:101C50003306882321F0B701A6010E949E288091B7
:101C6000910690919206A0919306B091940680936C
:101C7000340690933506A0933606B09337068091CC
:101C8000950680933C0680917306909133069817D1
:101C900071F040913406509135066091360670918E
:101CA00037060E949E2880917306809333068091A8
:101CB000720690913206981731F00E9415058091B6
:101CC00072068093320680916906813051F46091EA
:101CD000890670918A0680918B0690918C060E94ED
:101CE000841680916E0680932E0680916C068093F8
:101CF0002C063E8D3330F9F480916F0680932F06C9
:101D0000813089F480919E0690919F06A091A00653
:101D1000B091A1068093650690936606A09367062E
:101D2000B093680608C0109265061092660610927D
:101D30006706109268068091700690913006981799
:101D400059F0809330068CE0FE013D96ADE4B6E09C
:101D500001900D928A95E1F780916D0680932D0692
:101D60008091690690E0FC013297E830F10508F0B7
:101D70004BC0E957FF4F0C948938BE016F5F7F4F0E
:101D80008F8D0E948725809130069F8D89133CC0DE
:101D90008CE0FE013196ADE4B6E01AC0AE8DAA2308
:101DA00049F020E040E050E060E87FEB86E996E013
:101DB0000E94371320E040E050E060E87FEBCE0166
:101DC00001960E9437138CE0FE013196A1E4B6E043
:101DD00001900D928A95E1F717C061E476E086E004
:101DE00003C061E476E087E00E9487250DC08CE0A7
:101DF000E6E9F6E0A9E5B6E0EBCF8CE0E9E5F6E050
:101E0000DF011D928A95E9F780916A0680932A0680
:101E1000883009F498C0BE8DB23009F094C090E0CB
:101E20008830910508F086C0FC01E157FF4F0C9403
:101E3000893820E040E050E060E87FEB0AC0409144
:101E400038065091390660913A0670913B06209110
:101E50002B0686E996E00E9437136CC0C0903806C6
:101E6000D0903906E0903A06F0903B0600918D063E
:101E700010918E0620918F063091900681E08F930D
:101E8000E9A5EF93F8A5FF9315C0C0903806D09050
:101E90003906E0903A06F0903B0600918D061091CD
:101EA0008E0620918F06309190061F9289A58F9300
:101EB00098A59F938FA0A0902B0648E756E066E96F
:101EC00076E081E496E00E9485130F900F900F90CA
:101ED00031C0409138065091390660913A067091B0
:101EE0003B06E12C0AC040913806509139066091BA
:101EF0003A0670913B06EE24E39400E015C0409151
:101F000038065091390660913A0670913B06E12CF3
:101F10000AC0409138065091390660913A06709196
:101F20003B06EE24E39401E020912B0686E996E03F
:101F30000E94F6168CE0E6E9F6E0A1E4B6E0019036
:101F40000D928A95E1F7809171068093310688237E
:101F500009F45DC00E946820909131068091A3062B
:101F6000913069F48230A1F19FB7F89480912806EE
:101F70008860809328069FBF0E94B71E29C091E009
:101F800090932A0610922E0610922D0610922B0680
:101F90001092300610923306109232068230A9F069
:101FA000BE01635F7F4F80E00E94D326882389F1C2
:101FB0008CE0FE013D96ADE4B6E001900D928A956D
:101FC000E1F70E9439280E940A0587E00E94F1206B
:101FD000109231061CC081E01FC082E01DC088E164
:101FE0001BC089E119C084E017C08BE115C085E2F0
:101FF00013C084E111C08EE10FC08FE10DC086E1F6
:102000000BC080E209C083E207C084E205C080E023
:1020100003C087E001C082E2AB960FB6F894DEBF42
:102020000FBECDBFDF91CF911F910F91FF90EF9029
:10203000DF90CF90BF90AF909F908F907F906F90E8
:102040005F904F903F902F900895EBE6F0E08081F5
:10205000897E8083E8E6F0E080818E7F808308952A
:1020600084B1897E84B985B1866185B98091BE07C6
:1020700083FF0BC080916B00866180936B00809121
:10208000680081608093680008950C942510CF92B9
:10209000DF92FF920F931F93CF93DF931F92CDB7E1
:1020A000DEB793B196718091BE0786FD02C086E1CE
:1020B00098279923D9F0C12CD12CF12C01E010E004
:1020C0008C2D99830E942F289981892339F09801BA
:1020D0000C2C01C0220F0A94EAF7F22A8FEFC81ADB
:1020E000D80AE3E0CE16D10459F701C0F12C8F2DA8
:1020F0000F90DF91CF911F910F91FF90DF90CF90C4
:1021000008951F920F920FB60F9211240BB60F92E3
:102110002F933F934F935F936F937F938F939F93EF
:10212000AF93BF93EF93FF938091A306813071F03B
:102130008091270681110AC00E9494179FB7F894D6
:10214000809127068360809327069FBFFF91EF91C0
:10215000BF91AF919F918F917F916F915F914F91BF
:102160003F912F910F900BBE0F900FBE0F901F90BD
:1021700018952F923F924F925F926F927F928F921B
:102180009F92AF92BF92CF92DF92EF92FF920F9306
:102190001F93CF93DF93CDB7DEB767970FB6F89451
:1021A000DEBF0FBECDBF582E8091A2068111A1C106
:1021B00025EAA22E27E0B22E9E01235F3F4F190190
:1021C00000E010E0C12CD12C7601652C712C802F01
:1021D0000E941B28D1018D931D01C301002E02C056
:1021E000959587950A94E2F780FF1AC020E030E0C9
:1021F00040EC5FEBF50160817181828193810E94E7
:102200006E37688B472E4C01262F372FAC01C70144
:10221000B6010E94333718161CF0C888D42C7401FC
:102220000F5F1F4FF4E0AF0EB11C0330110579F6BC
:102230008090C4079090C507A090C607B090C707CC
:1022400024E0288B01E066EA76E0CE0101960E9448
:102250003C342090BF07312CFE01319686EA96E08F
:102260009F8B8E8B80E090E0412C10E0B701A6019F
:1022700070589301082E02C0359527950A94E2F70D
:1022800020FF28C04394AE89BF891D921D921D92E4
:102290001C9213979101082E02C0359527950A9438
:1022A000E2F720FF03C0002319F007C0002329F044
:1022B000C082D182E282F38204C040835183628370
:1022C00073832DE030E02C0F3D1F280F391FD901FB
:1022D0002C91122B019634962E893F892C5F3F4F0B
:1022E0003F8B2E8B8330910521F6642D70E080E0CA
:1022F00090E00E94D0350E94FB379B01AC01C501E4
:10230000B4010E946E37AB01BC011093BF064A8B2B
:102310005B8B6C8B7D8B0E940D1D20E04A895B8955
:102320006C897D89CE0101960E94141A0E94F02BBF
:102330000E94C6280023E9F00E944710FE013D9646
:1023400020E030E090E06191462F412359F0AC014C
:10235000022E02C0559547950A94E2F740FF02C04D
:10236000609516232F5F3F4F2330310561F710939F
:10237000BF060E94F02B809128068473C1F08091E3
:102380002806807329F00E9494170E94B71EB1C0DE
:102390000111AAC00E9447108521A9F79FB7F894A0
:1023A000809128068B7F809328069FBF04C0812FD1
:1023B0008C7109F0BFCF0E94802B0E94BD198091C3
:1023C000C8079091C9070E94711831E00327C9F02E
:1023D00020E030E040EA50E46091CA077091CB07FA
:1023E0008091CC079091CD070E946E376B017C01E4
:1023F0008090C0079090C107A090C207B090C3071B
:1024000010C0C090CA07D090CB07E090CC07F090E6
:10241000CD078090C4079090C507A090C607B090E4
:10242000C70788898150888B81110DCF8091BF07A4
:10243000A82FB0E0B98BA88BC090CA07D090CB076B
:10244000E090CC07F090CD071601270157FA509481
:1024500057F8509481E8A82E87E0B82E96EA892E86
:1024600096E0992E00E010E0C301002E02C0959581
:1024700087950A94E2F780FF29C088899989002E00
:1024800002C0959587950A94E2F7F50180FF0EC08A
:1024900024A135A146A157A1C701B6010E94573416
:1024A000D5012D913D914D915C9106C020813181E6
:1024B00042815381C201B1010E946E370E943E37B2
:1024C000D4016D937D938D939C9313970F5F1F4F52
:1024D000B4E08B0E911CE4E0AE0EB11C033011058C
:1024E00019F60E940D1D05C08091280682FF56CF67
:1024F0004ACF67960FB6F894DEBF0FBECDBFDF910F
:10250000CF911F910F91FF90EF90DF90CF90BF90F0
:10251000AF909F908F907F906F905F904F903F9083
:102520002F900895BF92CF92DF92EF92FF920F9378
:102530001F93CF93DF938C01C5EAD7E0BB24B394FC
:10254000F801C190D190E190F1908F0120E030E04E
:10255000A901C701B6010E94333718164CF0288133
:1025600039814A815B81C701B6010E94303587FD00
:10257000B092A5068091A506882361F18091A306FB
:102580008830A9F00E9494179FB7F894809127068D
:102590008560809327069FBFDF91CF911F910F9198
:1025A000FF90EF90DF90CF90BF900C94B71E9FB735
:1025B000F894809128068860809328069FBF0E9427
:1025C000B71E8091A20681110BC08091A3068111D4
:1025D000F6CFD8CF2496F7E0C13BDF0709F0B0CFA4
:1025E000DF91CF911F910F91FF90EF90DF90CF90EF
:1025F000BF9008950E942C250E940E280E94AC2BAB
:102600000E943B328EE1E2EAF6E0DF011D928A95FC
:10261000E9F781E08093A20678948091BE0784FF59
:1026200003C081E08093A3060E9472250E942021AE
:102630000E94D8050E943F280E940C050E9430107D
:102640000E94831E0E94BD190E94802B0E940D1DB6
:102650000E94EA051092A206109228061092270600
:102660001092A4061092A5060E94E61FDDCFEF92FD
:10267000FF921F93CF93DF9300D01F92CDB7DEB7A9
:102680007C01122F8091BE0785FF0BC0C7014983D3
:102690005A836B837C830E9492127C816B815A8166
:1026A00049818091A306823031F149835A836B833B
:1026B0007C830E94B71E8091A20681111CC00E94DB
:1026C0000C1A49815A816B817C81882339F00E94E0
:1026D000DD1F49815A816B817C81E7CF212FC701A2
:1026E0000F900F900F900F90DF91CF911F91FF905F
:1026F000EF900C94141A0F900F900F900F90DF91A1
:10270000CF911F91FF90EF9008952F923F924F929B
:102710005F926F927F928F929F92AF92BF92CF9271
:10272000DF92EF92FF920F931F93CF93DF93CDB77A
:10273000DEB7E7970FB6F894DEBF0FBECDBF9C8B18
:102740008B8B1B013A0109871A872B873C87AF8A3D
:102750002E961FAD2E972F962FAD2F97298B609613
:102760003FAD60973D8B84E0889EA00111245A8381
:102770004983AB89BC89A40FB51FB98FA88F460DBB
:10278000571D5B8F4A8FFA0180809180A280B380B1
:102790002D913D914D915C91C501B4010E9457343A
:1027A0006C8F7D8F8E8F9F8FF4E01F9F800111248F
:1027B0002B893C89200F311F39A328A3A301400F87
:1027C000511F5BA34AA3DA014D905D906D907C9000
:1027D000F9012081318142815381C301B2010E94FC
:1027E00057346CA37DA38EA39FA3A50194015058D9
:1027F0002D873E874F87588BD301C201B0588D83F8
:102800009E83AF83B887E981FA81E20DF31D2C8D99
:102810003D8D4E8D5F8D60817181828193810E949B
:1028200056342B013C01F101E00FF11F2CA13DA119
:102830004EA15FA160817181828193810E94563493
:102840004B015C01A30192016D857E858F8598897E
:102850000E946E3769837A838B839C83A5019401E0
:102860006D817E818F8198850E946E379B01AC01BE
:1028700069817A818B819C810E94573469837A8334
:102880008B839C83A50194016D857E858F859889B6
:102890000E946E374B015C01A30192016D817E8124
:1028A0008F8198850E946E379B01AC01C501B401F0
:1028B0000E94563429813A814B815C810E94CA343E
:1028C0002B013C019D89992399F02DEB37E346E0DC
:1028D00055EBC301B2010E94333787FD1DC02BEDBC
:1028E0003FE049EC50E4C301B2010E94563412C0EB
:1028F0002DEB37E346E055E3C301B2010E943035CA
:10290000181654F02BED3FE049EC50E4C301B2013E
:102910000E9457342B013C018090BA079090BB076E
:10292000A090BC07B090BD0729853A854B855C8592
:10293000CA01B9010E945734A50194010E9456347E
:102940009B01AC01C501B4010E946E370E94FB37A8
:102950004B015C0120E030E040E05FE3C301B201E5
:102960000E946E3729853A854B855C850E946E37BB
:102970009F77A50194010E9437350E940D360E9471
:10298000A4357E8B6D8BDB01AB2B09F486C14B012B
:10299000A12CB12CBF89BB2361F0C501B4010E94F9
:1029A000D0359B01AC01C701B6010E946E376B01A7
:1029B0007C01C501B4010E94D0354B015C019B0133
:1029C000AC01C301B2010E94373569877A878B87D2
:1029D0009C87F989E4E0FE9FC00111242B893C8982
:1029E000280F391F3A8B298BF101E80FF91FD90104
:1029F0002D913D914D915C91608171818281938196
:102A00000E945634A50194010E9437356CAB7DAB12
:102A10008EAB9FAB29853A854B855C85CA01B90190
:102A20000E946E379B01AC0160E070E080E090E4B2
:102A30000E9456344B015C012BEA3AEA4AE25EE31B
:102A400069857A858B859C850E946E372B013C01B8
:102A500020E030E040E850E4C501B4010E94573462
:102A60009B01AC01C301B2010E946E3768A779A730
:102A70008AA79BA720E030E040E05FE3C501B401F6
:102A80000E946E376CA77DA78EA79FA7198201E0D1
:102A900010E0ED89FE890E171F0709F4FEC0B98109
:102AA000BC3008F04AC02CA53DA54EA55FA56D81A0
:102AB0007E818F8198850E946E374B015C0128A52D
:102AC00039A54AA55BA56D857E858F8598890E946D
:102AD0006E37A50194010E945734B62EA72E982E6A
:102AE000892E2CA53DA54EA55FA56D857E858F857C
:102AF00098890E946E372B013C0128A539A54AA56B
:102B00005BA56D817E818F8198850E946E379B01C8
:102B1000AC01C301B2010E9456346D877E878F8756
:102B2000988BE981EF5FE9838B2D9A2DA92DB82D24
:102B30008D839E83AF83B8876EC0B80180E090E03C
:102B40000E94D03529853A854B855C850E946E3779
:102B50004B015C010E9434356D837E838F8398879F
:102B6000C501B4010E94F1374B015C01EA8DFB8D78
:102B700080819181A281B3819C01AD01505829834C
:102B80003A834B835C83AAA1BBA18D919D910D904B
:102B9000BC91A02D88AB99ABAAABBBAB2D813E817C
:102BA0004F81588569817A818B819C810E946E3723
:102BB0002B013C01A501940168A979A98AA99BA9C7
:102BC0000E946E379B01AC01C301B2010E945734D1
:102BD0006D877E878F87988BA501940169817A81A3
:102BE0008B819C810E946E374B015C012D813E815F
:102BF0004F81588568A979A98AA99BA90E946E3737
:102C00009B01AC01C501B4010E9456346D837E83E3
:102C10008F83988719822D853E854F8558896C8DC5
:102C20007D8D8E8D9F8D0E945734E88DF98D608348
:102C30007183828393832D813E814F8158856CA15E
:102C40007DA18EA19FA10E945734A8A1B9A16D9327
:102C50007D938D939C9313972CA93DA94EA95FA9B1
:102C6000E989FA8960817181828193810E94573458
:102C7000A989BA896D937D938D939C9313972F891E
:102C8000B701A6018B899C890E9437138091A20607
:102C9000811121C00F5F1F4FFCCE2F89B701A60104
:102CA000C101E7960FB6F894DEBF0FBECDBFDF912E
:102CB000CF911F910F91FF90EF90DF90CF90BF9039
:102CC000AF909F908F907F906F905F904F903F90CC
:102CD0002F900C943713E7960FB6F894DEBF0FBE13
:102CE000CDBFDF91CF911F910F91FF90EF90DF90BB
:102CF000CF90BF90AF909F908F907F906F905F909C
:102D00004F903F902F9008958F929F92AF92BF92D5
:102D1000CF92DF92EF92FF924B015C018091A3066C
:102D2000823009F447C020E030E040EA51E4C501B8
:102D3000B4010E946E370E940D360E94A4356B01CB
:102D40007C010E94682020E030E04AE754E4C5019D
:102D5000B4010E946E374B015C0182E38C9DB0018F
:102D60008D9D700D112480E090E00E94D0359B0174
:102D7000AC01C501B4010E9456340E940D360E9478
:102D8000A435CB010E947118C114D10499F00E949E
:102D9000B71E21E0C21AD1088091A20681110AC093
:102DA0008FEF90E722E0815090402040E1F700C093
:102DB0000000EACFFF90EF90DF90CF90BF90AF90F0
:102DC0009F908F9008950E94251084E00E94B91072
:102DD00083E00E94B9100E94B71E8091A206811163
:102DE00004C00E94EA050C9430100895CF92DF923F
:102DF000EF920F93CF93DF9300D01F921F92CDB726
:102E0000DEB76C018091A306823009F481C02D8366
:102E100049835A836B837C830E9468201092BE068C
:102E2000802F0E94861E0E94981E2D8149815A8102
:102E30006B817C818823A1F09FB7F894809127064D
:102E40008061809327069FBF2D8349835A836B83BC
:102E50007C830E94B71E7C816B815A8149812D81C0
:102E60008091A206811154C0C6010E94371381E0EF
:102E7000809329069FB7F8948091280682608093FA
:102E800028069FBF0E94B71E8091A206811140C0F4
:102E90008091A3068111F6CF809129068130A9F493
:102EA000EE2051F08CE0E6EAF6E0A2EBB6E001900D
:102EB0000D928A95E1F70CC09FB7F8948091270690
:102EC0008061809327069FBF03C081E08093BE0688
:102ED000109229060E94B71E8091A206811118C087
:102EE0000E94802B0E94BD190E940D1D66EA76E0AB
:102EF000C6010E943C340F900F900F900F900F90DE
:102F0000DF91CF910F91EF90DF90CF900C948922B9
:102F10000F900F900F900F900F90DF91CF910F9126
:102F2000EF90DF90CF9008958091280684FD26C011
:102F30009FB7F894809128068061809328069FBFF0
:102F40000E9439280E940A058091A306982F9C7040
:102F500021F49091A406913089F49FB7843029F42C
:102F6000F89480912706806204C0F8948091270627
:102F70008860809327069FBF0C94E62808956F927F
:102F80007F928F929F92AF92BF92CF92DF92EF92F9
:102F9000FF920F931F93CF93DF937C018B016A0104
:102FA000FB018081F701E80FF11D2081EF012D3237
:102FB00029F4229621816624639407C02B3211F0F4
:102FC000219602C022962181612CA12CB12C712C5A
:102FD00060E070E0CB01FE0130ED932E920E29E00F
:102FE0002915C8F0B39428E02B1588F0A1107A9425
:102FF000A5E0B0E09B01AC010E948F38660F771FFF
:10300000881F991F690D711D811D911D0BC0A11095
:1030100009C0739407C02EEF921207C0A11005C01B
:10302000AA24A39421962081D6CFBB2009F449C0BD
:103030000E94D0354B015C0120E030E0A9010E94E4
:103040003035882361F18FEF78166CF42AE037ED84
:1030500043E25CE3C501B4010E946E374B015C01A1
:1030600073947394F0CF78120BC02DEC3CEC4CECC5
:103070005DE3C501B4010E946E374B015C010FC0D6
:10308000772069F020E030E040E251E4C501B4016E
:103090000E946E374B015C017A9417149CF36620F2
:1030A00021F0B7FAB094B7F8B094F601808291821B
:1030B000A282B382CE19DF09C150F801C08381E03A
:1030C00001C080E0DF91CF911F910F91FF90EF90B1
:1030D000DF90CF90BF90AF909F908F907F906F9038
:1030E0000895009741F0EFE9FFE03197F1F700C054
:1030F00000000197F6CF08958F929F92AF92BF92F2
:10310000CF92DF92EF92FF9269017A019B01AC01AD
:103110000E946E374B015C01A7019601C701B60101
:103120000E946E379B01AC01C501B4010E94573467
:10313000FF90EF90DF90CF90BF90AF909F908F90D7
:103140000C94FB374F925F926F927F928F929F9277
:10315000AF92BF92CF92DF92EF92FF920F931F93A5
:10316000CF93DF9310911E02111101C012E1115093
:1031700000911C02101709F4EFC089E2189FE001CA
:103180001124C05EDD4F8D889E88AF88B88C69A100
:103190007AA18BA19CA19B01AC010E9457342DA167
:1031A0003EA14FA158A50E946E376B017C019B0187
:1031B000AC01B401C5010E94303587FF02C0640133
:1031C0007501A601B701498B5A8B6B8B7C8B111152
:1031D00001C012E177247A94710E701619F029E279
:1031E000622E27C080911F02081351C00E94CE2B6F
:1031F0004EC0679C80011124005E1D4F711002C0FB
:1032000092E1792E7A9480911F02781202C00E9476
:10321000CE2BF801C588D688E788F08CA7019601E7
:1032200061897289838994890E943035811106C031
:10323000E80180911C027812DCCF29C0F80161A15D
:1032400072A183A194A19B01AC010E945734F801A3
:1032500025A136A147A150A50E946E3729893A8938
:103260004B895C890E9457344B015C01A701960190
:103270000E943035F80187FF05C0818A928AA38AAF
:10328000B48AD6CFC18AD28AE38AF48AD1CF609039
:103290001C02F9E26F9E80011124005E1D4F77240D
:1032A0007394760C82E1781201C0712C50901E024A
:1032B00089E2482E751409F44DC0479CE0011124A1
:1032C000C05EDD4FF80181889288A388B488C988E0
:1032D000DA88EB88FC88A7019601C501B4010E9439
:1032E000303587FF23C0F80161A172A183A194A1A9
:1032F0009B01AC010E945734F80125A136A147A1DA
:1033000050A50E946E379B01AC01C501B4010E941B
:1033100057344B015C01A70196010E94303587FFAD
:1033200005C0898A9A8AAB8ABC8A672C2D893E8916
:103330004F89588D69897A898B899C890E9430359B
:10334000811101C0672C7394F2E17F1201C0712CCE
:103350008E01B0CF60921C02DF91CF911F910F912F
:10336000FF90EF90DF90CF90BF90AF909F908F90A5
:103370007F906F905F904F9008958CE1E0E0F2E0D5
:10338000DF011D928A95E9F710921F0210921E022A
:1033900081E080931D0210921C02089590911F02FB
:1033A00080911E02891769F081E0890F823109F44A
:1033B00080E020911C02921302C080931C02809333
:1033C0001F02089580911F0290911E02981739F0F4
:1033D00029E2829FC0011124805E9D4F089580E004
:1033E00090E00895E0911F02EF5FE23109F4E0E020
:1033F00080911E02E81761F089E2E89FF001112434
:10340000E05EFD4F61897289838994890C94FB3752
:1034100060E070E0CB01089581E020911F0290915F
:103420001D02291380E008952F923F924F925F92E0
:103430006F927F928F929F92AF92BF92CF92DF92C4
:10344000EF92FF920F931F93CF93DF93CDB7DEB729
:10345000AD970FB6F894DEBF0FBECDBF142F052F6A
:103460006B8F7C8F822E20911E0239E2239F1001E8
:103470001124F101E05EFD4F1F01158616861786A7
:10348000108A15A216A217A210A6108249E956E7C3
:1034900066E97EE741A352A363A374A35C0141E8FC
:1034A000E42E47E0F42E9E01235F3F4F38A32F8F79
:1034B00080E092E09E8F8D8F6F01FE013196FAA31E
:1034C000E9A3912CF50161917191819191915F0135
:1034D000F70120813181428153810E946E370E9421
:1034E0003E37EF8DF8A16193719381939193F8A387
:1034F000EF8FED8DFE8D4190519061907190FE8F18
:10350000ED8F64197509860997092B013C0197FF16
:1035100007C0442455243201461A570A680A790A1A
:10352000F6014182528263827482F10125853685DB
:1035300047855089421653066406750610F4290122
:103540003A01F101458656866786708A0E94D23517
:10355000F70120813181428153810E9437352B014F
:103560003C01E9A1FAA16193719381939193FAA32C
:10357000E9A320E030E0A9010E94303587FF0AC0AE
:10358000F1019081892D9DA70E9425289DA5892B59
:10359000F1018083A3019201C301B2010E946E3741
:1035A000F10125A136A147A150A50E945734F10190
:1035B00065A376A387A390A79394F4E0EF0EF11C84
:1035C00024E0C20ED11C33E093127CCF0E94FB3763
:1035D0006B017C01F10165A376A387A390A7858584
:1035E0009685A785B089892B8A2B8B2B09F4FCC182
:1035F00020E030E0A901612F702F8B8D9C8D0E94FF
:10360000303587FD21C0882061F0A7019601612F28
:10361000702F8B8D9C8D0E946E37162F072F8B8FEE
:103620009C8F20E030E040E85FE3612F702F8B8DAE
:103630009C8D0E94303587FF0DC010E000E030E81F
:103640003B8F8FE38C8F06C019E906E7F6E9FB8F05
:103650002EE72C8FA701960160E070E080E89FE3E1
:103660000E94373569A77AA78BA79CA7ECE0F2E008
:10367000FAA3E9A32DE837E038A32F8FCE010D96EA
:103680009A8F898FFE013196FE8FED8FC12CD12C40
:103690007601ED8DFE8D80809180A280B38020E048
:1036A00030E0A901C501B4010E943035882309F436
:1036B0007FC029A53AA54BA55CA5C501B4010E9410
:1036C0006E374B015C01ED8DFE8D608371838283CB
:1036D00093839B01AC0160E070E080E89FE30E946F
:1036E00037352B013C01E89477F8EF8DF8A1208164
:1036F000318142815381C301B2010E946E376BA3B5
:103700007CA38DA39EA39B01AC01612F702F8B8D99
:103710009C8D0E94303587FF06C01BA30CA3FB8D38
:10372000FDA32C8D2EA3F101F1A1FB8FF101F2A1DC
:10373000FC8FF101F3A1FFA3F101F4A1F8A7EF8D34
:10374000F8A12485358546855785C301B2010E94BD
:103750006E373B018C019B01AC016B8D7C8D8FA181
:1037600098A50E94303587FF04C06B8C7C8C0FA11C
:1037700018A5C301D801F10181A392A3A3A3B4A307
:10378000E9A1FAA12081318142815381C501B401AF
:103790000E946E379B01AC01C701B6010E945634EE
:1037A0006B017C011BA10CA1FDA1FB8F2EA12C8F15
:1037B0008D8D9E8D04969E8F8D8FE9A1FAA13496F2
:1037C000FAA3E9A32F8D38A12C5F3F4F38A32F8F89
:1037D000E98DFA8D8E179F0709F05BCF90911E023D
:1037E00080911F02981306C0F101118A128A138A70
:1037F000148A0BC02FEE3FEF4FE75FE3C701B6011E
:103800000E943337181634F4F101118E128E138E84
:10381000148E5BC02FEE3FEF4FE75FEBC701B601A1
:103820000E943337181644F03FEEC32EDD24DA949D
:103830003FE7E32E3FEBF32EA701960160E070E037
:1038400080E89FE30E94563420E030E040E05FE3F0
:103850000E946E370E94FB376B017C012091B607F6
:103860003091B7074091B8075091B907F10161A1B4
:1038700072A183A194A10E946E37A70196010E94B4
:103880006E374B015C01A701960160E070E080E8B3
:103890009FE30E9456349B01AC01C501B4010E9414
:1038A00037356B017C0120E030E0A9010E94303502
:1038B00087FF04C0C12CD12CE12CF12CA601B7014B
:1038C000F101418F528F638F748F212F302F4B8DD9
:1038D0005C8D612F702F8B8D9C8D0E946E37162F03
:1038E000072FF82EE92E862F902FAF2DBE2DF10138
:1038F000858F968FA78FB0A3A18CB28CC38CD48CEC
:10390000609018027090190280901A0290901B0229
:103910009301A401612F702F8F2D9E2D0E943035B1
:1039200087FD0BC09301A401B501C6010E9430358B
:1039300087FD11C0530164010EC0212F302F4F2D80
:103940005E2DB501C6010E94303587FD04C0A12E51
:10395000B02ECF2CDE2CC501D601F101858B968BC4
:10396000A78BB08F8CE0FE013196ACE0B2E0019005
:103970000D928A95E1F7812F902FAF2DBE2D809368
:10398000180290931902A0931A02B0931B028CE0C4
:10399000FE013D96A0E0B2E001900D928A95E1F71C
:1039A00080911D0280931E028F5F823109F480E0B6
:1039B00080931D02AD960FB6F894DEBF0FBECDBF4B
:1039C000DF91CF911F910F91FF90EF90DF90CF90FB
:1039D000BF90AF909F908F907F906F905F904F902F
:1039E0003F902F900C94A218AD960FB6F894DEBFBE
:1039F0000FBECDBFDF91CF911F910F91FF90EF9040
:103A0000DF90CF90BF90AF909F908F907F906F90FE
:103A10005F904F903F902F9008958091A6069091CF
:103A2000A706A091A806B091A906809300029093E2
:103A30000102A0930202B09303028091AA06909122
:103A4000AB06A091AC06B091AD06809304029093B2
:103A50000502A0930602B09307028091AE069091F2
:103A6000AF06A091B006B091B10680930802909382
:103A70000902A0930A02B0930B02089580911E02DE
:103A800090911F02891708F48E5E891B08950E9489
:103A9000CE2B80911F0280931C020C94A218CF930E
:103AA000DF93EC018991882319F00E944225FACF17
:103AB000DF91CF910895CF93DF93FC018491EF01C3
:103AC0002196882321F00E944225FE01F7CFDF9145
:103AD000CF910895EF92FF920F931F93CF93DF93AF
:103AE0001F92CDB7DEB7262FEDB6FEB66DB77EB707
:103AF000641B71090FB6F8947EBF0FBE6DBF0DB782
:103B00001EB70F5F1F4F302FF8019E2F931B941786
:103B100028F4622F0E945B389193F7CF442361F021
:103B2000F801E40FF11D31978081805D49830E9487
:103B3000422549814150F2CF0FB6F894FEBE0FBE28
:103B4000EDBE0F90DF91CF911F910F91FF90EF90FD
:103B5000089548E062E00C946A1D8A3020F08436B3
:103B600020F442E003C041E001C043E06AE00C946D
:103B70006A1D8F929F92AF92BF92CF92DF92EF9287
:103B8000FF920F931F93CF93DF93CDB7DEB72A97A2
:103B90000FB6F894DEBF0FBECDBF6B017C01142FB2
:103BA00020E030E0A9010E94303587FF07C08DE298
:103BB0000E944225F7FAF094F7F8F094012F0230B2
:103BC00060F020E030E048EC52E4C701B6010E940A
:103BD0006E376B017C010250F2CF10FF0AC020E06B
:103BE00030E040E251E4C701B6010E946E376B013C
:103BF0007C0120E030E040E05FE3C701B6010E94B5
:103C000057340E949F35E1E0F0E0EC0FFD1FE10F1B
:103C1000F11D2EE22083D12C5AE0852E912CA12C6F
:103C2000B12C6115710581059105A9F0D11201C072
:103C3000D394EE24E394F12CEC0EFD1EED0CF11C5C
:103C4000A50194010E946738605DF7016083B901A6
:103C5000CA01D394E6CF80E3D11648F4E1E0F0E066
:103C6000EC0FFD1FED0DF11D8083D394F5CF8D2D4D
:103C7000D1120BC0D394D3948F5FE1E0F0E0EC0F4E
:103C8000FD1FE80FF11D80E38083DD2041F0FE0180
:103C9000ED0DF11D80810E944225DA94F6CF2A961F
:103CA0000FB6F894DEBF0FBECDBFDF91CF911F914D
:103CB0000F91FF90EF90DF90CF90BF90AF909F90CB
:103CC0008F9008952091BE0720FF08C02BE832E4B2
:103CD00041E25DE30E946E3744E001C043E00C9492
:103CE000B91D2091BE0720FF08C02BE832E441E255
:103CF0005DE30E946E3741E001C040E00C94B91DC5
:103D000043E00C94B91D3D98459A08951092C00661
:103D10009091BE0797FD03C090E29093C006882360
:103D200031F08091C00690E289278093C006089503
:103D300086B180729091C0068927089580912906E6
:103D40008130A1F40E94981E882381F010922906E8
:103D50008CE0E6EAF6E0A2EBB6E001900D928A95DF
:103D6000E1F7809128068064809328060895EF92F9
:103D7000FF920F931F93CF93DF93D1E008E080E28F
:103D8000F82E10E190E4E92EC0912706CC2389F1AA
:103D9000D093A306C1FF02C081E00FC0C2FF02C0E2
:103DA00082E00BC0C3FF02C083E007C0C4FF02C0B3
:103DB00084E003C0C5FF03C085E00E94C720C0FDAA
:103DC00008C08FB7F89490912706109227068FBFEE
:103DD00010C081E00E94F1209FB7F89480912806DE
:103DE0008F7E809328069FBF8091280684FFFCCF9A
:103DF000E8CFC0912806CC2309F4C0C0C4FF04C09A
:103E000081E08093A206D2C0C0FF0AC00E94242491
:103E10009FB7F894809128068E7F809328069FBFD5
:103E20008C2F887609F43CC08091A306882349F042
:103E3000982F9C7769F1883021F40E94CE2BD09383
:103E4000A4068091A306811103C092E09093A4067A
:103E5000C6FF09C0883011F4E092A3068091A40641
:103E600088608093A406C3FF05C08091A30685FFE8
:103E70001093A306C5FF0CC086E00E94F12080913C
:103E8000A40681FDC46084608093A406F092A3061A
:103E90009FB7F894809128068779809328069FBF62
:103EA000C1FF48C08C2F8876E9F58091A30688234E
:103EB00031F08075B9F18091A40681FF33C0809103
:103EC000A40682FF1CC080913306882371F04091C4
:103ED00034065091350660913606709137060E947F
:103EE000432880EA9FE00E9471188091320688235F
:103EF00031F00E940F0588EE93E00E9471180E9435
:103F0000E219892B59F08091A40683FD07C0009324
:103F1000A3060E94F02B0E94C62802C01092A3069E
:103F20001092A4069FB7F894809128068D7F809305
:103F300028069FBFC2FF22C08091A306807391F024
:103F40008091A50681110EC08091A40682FF04C055
:103F50000E9439280E940A058091A40682608093FD
:103F6000A40604C01092A4061092A3069FB7F8946A
:103F7000809128068B7F809328069FBF8091A3069F
:103F80008C7711F00E94F02B8091A306803251F4BF
:103F90008091A40681FF06C00E948932811102C06F
:103FA0001093A3068091A4068111EECEDF91CF91EC
:103FB0001F910F91FF90EF9008959FB7F894809113
:103FC00028068260809328069FBF0895CF93DF93D1
:103FD0000E9420218091A306813021F482E00E947A
:103FE000F1202FC00E948932882341F08091280659
:103FF0008062809328060E94B71E02C01092A3061A
:1040000082E095E00E948B321CC08D3079F0DD2378
:1040100099F1893221F4D13009F04CC0D0E00E94EE
:104020005E258F3F09F448C08A3079F7EC2FF0E025
:10403000EE5FFA4F10820E94B71E8091A20688237D
:1040400011F0C0E0EBCF80910205811103C00E9406
:104050007920F7CF843229F482E095E00E94AA32D9
:10406000F6CF8091A306813011F489E0F0CF82E091
:1040700095E00E94F005EBCF813288F28F3279F221
:104080008832B1F08B33B1F0CF3428F08BE00E944E
:104090007920C0E0C4CF2C2F30E0CF5F9FE9980F8C
:1040A000F901EE5FFA4F9A3108F480528083B7CF5E
:1040B000D1E0B5CFD2E0B3CF0E94DD1F0E94B71E82
:1040C0008091A206882309F4AACFDF91CF910895A9
:1040D0000E94DD1F0E94B71E8091A206811108C0B8
:1040E0000E94E219892BB1F78091A306883091F3E1
:1040F0000895CF93C82F811103C082EE99E044C088
:104100008AED99E00E945B1D4C2F50E0FA01319737
:10411000E631F10580F5E956FF4F0C94893882ECC1
:1041200099E002C080EB99E00E945B1D2BC08EE9F4
:1041300099E0FACF84E999E0F7CF83E899E0F4CFEA
:1041400084E799E0F1CF83E599E0EECF8AE499E046
:10415000EBCF8FE399E0E8CF8CE299E0E5CF8EE1F9
:1041600099E0E2CF88E099E0DFCF84EF98E0DCCF00
:1041700080EE98E0D9CF8EEC98E00E945B1D8C2FEA
:104180000E94AD1D8BEC98E0CF910C945B1DCF93FA
:10419000C82F83EC98E00E945B1DC33091F03CF483
:1041A000C13061F0C230A1F48DEA98E00FC0C43094
:1041B00059F0C53069F483E898E008C088EB98E0CE
:1041C00005C08AE998E002C08FE898E00E945B1D74
:1041D00080E898E00E945B1D84EF91E0CF910C9401
:1041E0007118CF93C82F8EE798E00E945B1D8C2F2B
:1041F00090E0FC013197E830F105E8F4E355FF4F1A
:104200000C9489388CE698E014C088E598E011C0D9
:1042100086E498E00EC08EE398E00BC085E398E05A
:1042200008C08AE298E005C082E298E002C08FE010
:1042300098E00E945B1D8BE098E0CF910C945B1D91
:104240008EEE97E00C945B1D8AEA96E00C945B1D61
:10425000FF920F931F93CF93DF9386EA96E00E941D
:104260005B1D8091B1070E94AD1D8DE896E00E9414
:104270005B1D8091B4070E94AD1D8FE696E00E9401
:104280005B1D8091B2070E94AD1D86E596E00E94FD
:104290005B1D8091B2070E94A91D8FE496E00E94E9
:1042A0005B1D8091B3070E94AD1D87E396E00E94DD
:1042B0005B1D8091B3070E94A91D80E396E00E94D8
:1042C0005B1D8091BE0782FB882780F90E94AD1D8F
:1042D0008FE096E00E945B1D8091BE0786FB8827D9
:1042E00080F90E94AD1D8FEE95E00E945B1D8091CC
:1042F000BE07881F8827881F0E94AD1D8FEC95E0A0
:104300000E945B1D8091B5070E94AD1D89EB95E071
:104310000E945B1D8091B5070E94A91D81EB95E06D
:104320000E945B1D6091B6077091B7078091B80736
:104330009091B9070E94801E81E995E00E945B1D63
:104340006091BA077091BB078091BC079091BD073F
:104350000E94801E86E795E00E945B1D8091BE074B
:1043600081700E94AD1D89E595E00E945B1D8091E2
:10437000BE0785FB882780F90E94AD1D8EE395E07E
:104380000E945B1D8091BE0783FB882780F90E94F5
:10439000AD1D83E295E00E945B1D8091BE07829572
:1043A00081700E94AD1D87E095E00E945B1D8091A9
:1043B000BF070E94AD1D8DEE94E00E945B1D8091B1
:1043C000BF070E94A91D85EE94E00E945B1D6091CD
:1043D000C0077091C1078091C2079091C3070E94E6
:1043E000801E88EC94E00E945B1D6091C407709170
:1043F000C5078091C6079091C7070E94801E8BEA6F
:1044000094E00E945B1D8091C8070E94AD1D8CE85E
:1044100094E00E945B1D6091CA077091CB07809168
:10442000CC079091CD070E94801E83E794E00E9404
:104430005B1D84E6F82E10E0C1E8D7E000E081E7DC
:1044400094E00E945B1D802F8F0D0E94AD1D8FE6B2
:1044500094E00E945B1D123071F01330B9F01130FE
:1044600029F0688179818A819B8117C06C857D855F
:104470008E859F8512C020E030E041E655E4688DCE
:10448000798D8A8D9B8D0E94373507C08CA19DA1A7
:10449000AEA1BFA1BC01CD0190580E94801E8CE648
:1044A00094E00E945B1D013029F0023031F08AE671
:1044B00094E005C088E694E002C086E694E00E949D
:1044C0005B1D123051F0133059F0113019F08CE5AA
:1044D00094E008C08AE494E005C089E394E002C057
:1044E00089E294E00E945B1D85E294E00E945B1DDE
:1044F0000F5F2496033009F0A2CF8AE0F80E1F5F09
:104500008CE8F81299CFDF91CF911F910F91FF9016
:104510000895CF938FE194E00E945B1DC0E06C2F63
:1045200082EB96E00E9422340E94621EC23021F08B
:104530008DE194E00E945B1DCF5FC33081F78BE17A
:1045400094E00E945B1D8091BE060E94AD1D87E134
:1045500094E0CF910C945B1DEF92FF920F931F9309
:10456000CF93DF93CDB7DEB72C970FB6F894DEBFAD
:104570000FBECDBFF12CBE016F5F7F4F8F2D0E940C
:10458000D326811104C087E00E94792069C084E1AC
:1045900094E00E945B1D86E0F81631F0E7E0FE1221
:1045A00008C08EE094E002C081E194E00E945B1DAF
:1045B00004C086E38F0D0E94AD1D8CE094E00E9444
:1045C0005B1D8E010F5F1F4FE12CF801619171910E
:1045D000819191918F010E94621EF2E0EF1619F015
:1045E0008AE094E002C086E094E00E945B1DE394C0
:1045F00083E0E812EACFF394E8E0FE12BCCF80E05B
:1046000094E00E945B1D09E516E0F12CF801619130
:104610007191819191918F010E94621EF2E0FF16CB
:1046200019F08EEF93E002C08AEF93E00E945B1DC9
:10463000F39483E0F812EACF84EF93E00E945B1DCD
:104640006091650670916606809167069091680694
:104650000E94621E80EF93E00E945B1D0E948922EF
:104660002C960FB6F894DEBF0FBECDBFDF91CF9171
:104670001F910F91FF90EF9008958EEE93E00E94AE
:104680005B1D80912A06823091F038F4882361F016
:104690008130A9F488EE93E00CC0833069F0883053
:1046A00071F48EED93E005C08BEE93E002C085EED1
:1046B00093E00E945B1D0CC082EE93E0FACF89ED7F
:1046C00093E00E945B1D80912A0682500E94AD1DDE
:1046D00086ED93E00E945B1D809130068A5C0E940B
:1046E000AD1D80912E06813049F028F0823051F4C2
:1046F00087EC93E005C081ED93E002C08CEC93E081
:104700000E945B1D80912C06811103C082EC93E016
:1047100002C08DEB93E00E945B1D80912D068111FC
:1047200003C088EB93E002C083EB93E00E945B1D23
:1047300080912B06813019F48EEA93E002C089EA59
:1047400093E00E945B1D80913106813049F028F092
:10475000823051F48DE993E005C085EA93E002C010
:1047600081EA93E00E945B1D80913306813031F035
:1047700040F0823051F485E993E005C089E993E087
:1047800002C081E993E00E945B1D8091320688237C
:1047900029F0823039F489E893E002C08DE893E093
:1047A0000E945B1D86E893E00E945B1D80913C06A1
:1047B0000E94AD1D83E893E00E945B1D6091380666
:1047C0007091390680913A0690913B060E94711EC5
:1047D00080E893E00E945B1D60913406709135067D
:1047E00080913606909137060E94711E8CE793E007
:1047F0000C945B1D1F93CF93DF93182FEB0189E778
:1048000093E00E945B1D812F0E94AD1D87E793E01E
:104810000E945B1DCE010E944F1D84E793E0DF9153
:10482000CF911F910C945B1DCF93DF93EC0184E635
:1048300093E00E945B1DCE010E944F1D80E693E035
:10484000DF91CF910C945B1DBF92CF92DF92EF92DC
:10485000FF920F931F93CF93DF93CDB7DEB7689787
:104860000FB6F894DEBF0FBECDBF8CE0E6EAF6E0EF
:10487000DE011D9601900D928A95E1F78091A306C5
:104880008430E9F040F48130E9F080F0823009F5BD
:104890008BE393E01CC0803179F018F4883049F044
:1048A00018C0803291F0803421F013C08AE593E083
:1048B0000EC085E593E00BC08FE493E008C089E467
:1048C00093E005C082E493E002C085E393E00E9498
:1048D0005B1D8091B507837039F0BE01635F7F4F28
:1048E000CE0101960E943C348091B50780FD05C041
:1048F0008091B50781FF6DC01FC08EE293E00E94DA
:104900005B1D69817A818B819C810E94621E8CE291
:1049100093E00E945B1D6D817E818F8198850E944E
:10492000621E8CE293E00E945B1D69857A858B850F
:104930009C850E94621EDCCF85E293E00E945B1D95
:104940009DE4E92E96E0F92E8E010F5F1F4FB12CEA
:104950006801F70161917191819191917F012085A9
:104960003185428553850E9457349B01AC01F80183
:1049700060817181828193810E945634F801608345
:10498000718382839383F2E0BF120FC0209165068A
:104990003091660640916706509168060E94563431
:1049A000F80160837183828393830C5F1F4FF6014C
:1049B00060817181828193810E94621EF2E0BF1644
:1049C00021F083E293E00E945B1DB39423E0B212D6
:1049D000BFCF8091B50782FF08C08DE193E00E94B0
:1049E0005B1D0E943E1D0E94AD1D8091B50783FF97
:1049F00008C088E193E00E945B1D0E9423250E946D
:104A0000AD1D8091B50784FF0AC082E193E00E944A
:104A10005B1D0E94471043E062E00E946A1D8EE029
:104A200093E00E945B1D68960FB6F894DEBF0FBE40
:104A3000CDBFDF91CF911F910F91FF90EF90DF904D
:104A4000CF90BF9008959091540580915505891796
:104A500008F48058891B0895E0ECF0E080818260C2
:104A600080831092C50080E18093C400E1ECF0E007
:104A7000808180618083808188608083808180687C
:104A800080830895E091530591E09E0F903409F4DE
:104A900090E020915205921305C02091280624FF32
:104AA000F8CF0895F0E0EF53F94F808390935305CA
:104AB0008091C10080628093C10008959091540557
:104AC00080915505891761F0E92FF0E0EF5FF84F0D
:104AD00080819F5F903809F490E090935405089589
:104AE0008FEF08958091550580935405089521E531
:104AF000829FC001112440E550E09D5F0C94550554
:104B000040E550E0BC018EEA93E00C9455052DE0A1
:104B1000829FC00111244CE050E09E5F0C9455052B
:104B200069E080E090E00E9433054DE450E061E8E8
:104B300077E081E090E00C945505EF92FF920F939F
:104B40001F93CF93DF93CDB7DEB72C970FB6F894B2
:104B5000DEBF0FBECDBF182F80FFC1C08AE080939B
:104B6000B10789E18093B4071092B2071092B3079E
:104B700083E08093B5078AE097EDA3E2BCE38093DE
:104B8000B6079093B707A093B807B093B9078FE61D
:104B900092E1A3E0BBE38093BA079093BB07A09395
:104BA000BC07B093BD071092BF0780E090E0A8EC6F
:104BB000B1E48093C0079093C107A093C207B0935C
:104BC000C30740E050E06AEF73E44093C40750939A
:104BD000C5076093C6077093C7078AEF90E090936C
:104BE000C9078093C80780E090E0A0E8BFE3809306
:104BF000CA079093CB07A093CC07B093CD07109230
:104C0000BE0780E090E0AAE7B3E480938107909329
:104C10008207A0938307B0938407809385079093BE
:104C20008607A0938707B09388078093890790939E
:104C30008A07A0938B07B0938C0740938D075093FE
:104C40008E0760938F07709390074093910750935E
:104C5000920760939307709394074093950750933E
:104C60009607609397077093980740E050EA6CE0CE
:104C700077E44093990750939A0760939B0770934A
:104C80009C0740939D0750939E0760939F077093E6
:104C9000A0074093A1075093A2076093A3077093C6
:104CA000A40740E050E068E473EC4093A5075093FC
:104CB000A6076093A7077093A8074093A90750938E
:104CC000AA076093AB077093AC074093AD0750936E
:104CD000AE076093AF077093B0070E94902511FF55
:104CE00010C0CE0101967C018CE0F70111928A95EB
:104CF000E9F700E0B701802F0E9487250F5F083099
:104D0000C9F712FF0AC060E080E093E00E9433051B
:104D100060E081E593E00E94330513FF05C060E089
:104D20008EEA93E00E9433052C960FB6F894DEBF0E
:104D30000FBECDBFDF91CF911F910F91FF90EF90EC
:104D400008951F93CF93DF93182FEB0181E5189FF0
:104D5000B00111247D5F40E550E0CE010E94930533
:104D6000892B39F41882BE01812F0E94772580E0BB
:104D700001C081E0DF91CF911F910895CF93DF9320
:104D8000EC0140E550E06EEA73E00E949305892B48
:104D900031F41882CE010E94802580E001C081E0BC
:104DA000DF91CF9108951F93CF93DF93182FEB01DD
:104DB0008DE0189FB00111247E5F4CE050E0CE01E1
:104DC0000E949305892B59F48CE0FE0111928A957B
:104DD000E9F7BE01812F0E94872580E001C081E0B4
:104DE000DF91CF911F91089580E090E00E942B0504
:104DF000893059F44DE450E061E070E081E897E0DB
:104E00000E94930521E0892B09F420E0822F089568
:104E1000CF92DF92EF92FF92CF93DF93C82F6A0178
:104E20007B0120E030E0A901C701B6010E943035C6
:104E300087FDE6C0C43608F445C02CE92C0F80E09D
:104E40002330B8F530E0823079F0F901EE0FFF1F22
:104E5000EE0FFF1F833011F1813019F0EF57F84F3B
:104E600023C0E357F84F20C0E901CC0FDD1FCC0F62
:104E7000DD1FC756D84F20E030E040E752E4C701BD
:104E8000B6010E946E3720E030E040E752E40E9415
:104E90006E37688379838A839B83AEC0EB55F84F66
:104EA000F7FAF094F7F8F094C082D182E282F382AC
:104EB000A3C08F5F2A3008F4A5C0843009F4A2C0D3
:104EC0002A50BECFC701B6010E943C380E94A435CB
:104ED0008C2F90E08C31910508F094C0FC01EB54CC
:104EE000FF4F0C948938633008F48EC06093B1078B
:104EF00083C06093B40780C06093B20702C0609320
:104F0000B3070E94442B78C08091BE07662311F03E
:104F1000846007C08B7F05C08091BE07662321F0A7
:104F200080648093BE0768C08F7BFBCF8091BE07F3
:104F3000662311F08068F5CF8F77F3CF6093B507C4
:104F40005BC0C092B607D092B707E092B807F09264
:104F5000B90752C0C092BA07D092BB07E092BC0713
:104F6000F092BD0749C08091BE07662311F08160B1
:104F7000D8CF8E7FD6CF8091BE07662321F084FFE5
:104F800045C08062CECF8F7DCCCF8091BE07662397
:104F900011F0886001C0877F8093BE070E943010A7
:104FA0002BC08091BE07662311F08061BACF8F7C41
:104FB000B8CF6093BF0720C0C092C007D092C1078E
:104FC000E092C207F092C30717C0C092C407D09204
:104FD000C507E092C607F092C7070EC070E0709355
:104FE000C9076093C80708C0C092CA07D092CB0710
:104FF000E092CC07F092CD070E94902580E007C098
:1050000084E005C083E003C086E001C08AE0DF9150
:10501000CF91FF90EF90DF90CF9008950E94F426FB
:10502000811108C087E00E9479208FEF0E949D25A2
:105030000C9428210895882321F0813021F488E000
:10504000089584E0089580E10895882321F0813057
:1050500021F480E4089580E2089580E8089588238B
:1050600021F0813021F484E0089582E0089580E108
:105070000895E0EBF0E080818F7780830895239A94
:10508000259A0C943928CF92DF92EF92FF926A0111
:105090007B01811106C0FF90EF90DF90CF900C94C0
:1050A0003928813011F42D9801C02D9A83E880931E
:1050B000B0008091B100887F82608093B10020E0D1
:1050C00030E0A901C701B6010E94303518161CF75F
:1050D00020E030E0A901C701B6010E94303587FD0C
:1050E00011C020E030E04AE754E4C701B6010E9455
:1050F0003337181654F4C12CD12C8AE7E82E84E4F7
:10510000F82E03C0C12CD12C76012CE53FE842E8F3
:105110005EE3C701B6010E946E3720E030E040E058
:105120005FE30E9457340E940D360E94A4356093BD
:10513000B300FF90EF90DF90CF900895CF93DF936F
:1051400000D01F921F92CDB7DEB79091A306923088
:10515000A9F04A835B836C837D8389830E946820E6
:105160004A815B816C817D8189810F900F900F90C6
:105170000F900F90DF91CF910C9443280F900F90D8
:105180000F900F900F90DF91CF9108958091BE07FF
:1051900082FF02C0289A01C028988091A3068C70D3
:1051A000A1F08091860580939A0580918705809370
:1051B00099058091B107880F845081958093980557
:1051C00080916F00826080936F00089580916F00DE
:1051D0008D7F80936F0080918100887F81608093B4
:1051E0008100109285058091B4078F3F21F4909142
:1051F0002706992349F09091A306943029F090E076
:105200000E94711881E001C080E09091BE0792FF7A
:1052100002C091E08927882311F0289A08952898E0
:1052200008951F920F920FB60F9211240BB60F9292
:105230002F933F934F935F936F937F938F939F939E
:10524000AF93BF93CF93DF93EF93FF938091850547
:105250008111EFC19BB180919A05807E9F71892B4E
:105260008BB98BB1837E90919905892B8BB98091F5
:10527000980586BD82E085BD81E0809385057894A0
:105280008091AC059091AD05892B09F0A4C0809167
:105290008A0590918905981709F492C0E0918A05D2
:1052A00086E0E89FF0011124E255FA4FF093AD0536
:1052B000E093AC058381948190938900809388006A
:1052C000808191819093A8058093A705A281809108
:1052D000A9058A1771F1A093A90581E1A89FD001C2
:1052E0001124AE52BA4FB093AB05A093AA051D96F8
:1052F0008D919D910D90BC91A02DB695A7959795F8
:1053000087958093930590939405A0939505B0930A
:10531000960580938F0590939005A0939105B09387
:10532000920580938B0590938C05A0938D05B09387
:105330008E05C091AA05D091AB0580918605988114
:10534000892780939A05258189819A81AB81BC81C7
:10535000022E04C0B695A795979587950A94D2F723
:1053600080939B0590939C05A0939D05B0939E050B
:105370008D819E81AF81B885022E04C0B695A79518
:10538000979587950A94D2F780939F059093A005EF
:10539000A093A105B093A20589859A85AB85BC85AC
:1053A00004C0B695A795979587952A95D2F78093CF
:1053B000A3059093A405A093A505B093A6050BC0E3
:1053C0000E94E6289FB7F894809128068460809315
:1053D00028069FBF2EC10E949E1E109299058091A3
:1053E0009B0590919C05A0919D05B0919E054091D3
:1053F0008B0550918C0560918D0570918E05840F01
:10540000951FA61FB71F80938B0590938C05A093C3
:105410008D05B0938E05E091AA05F091AB05458509
:10542000568567857089481759076A077B0768F5AD
:1054300024E0209399054585568567857089841BEE
:10544000950BA60BB70B80938B0590938C05A093BF
:105450008D05B0938E0520818091A6069091A706B8
:10546000A091A806B091A90625FF04C00197A10943
:10547000B10903C00196A11DB11D8093A6069093AA
:10548000A706A093A806B093A90680919F059091C6
:10549000A005A091A105B091A20540918F05509162
:1054A00090056091910570919205840F951FA61F3C
:1054B000B71F80938F0590939005A0939105B093AB
:1054C00092054585568567857089481759076A078B
:1054D0007B0778F5209199052860209399054585EB
:1054E000568567857089841B950BA60BB70B809337
:1054F0008F0590939005A0939105B093920520811C
:105500008091AA069091AB06A091AC06B091AD0631
:1055100026FF04C00197A109B10903C00196A11D8E
:10552000B11D8093AA069093AB06A093AC06B093EE
:10553000AD068091A3059091A405A091A505B09119
:10554000A605409193055091940560919505709141
:105550009605840F951FA61FB71F80939305909300
:105560009405A0939505B093960545855685678566
:105570007089481759076A077B0778F520919905C4
:105580002061209399054585568567857089841B20
:10559000950BA60BB70B8093930590939405A0935E
:1055A0009505B093960520818091AE069091AF0647
:1055B000A091B006B091B10627FF04C00197A109E0
:1055C000B10903C00196A11DB11D8093AE06909351
:1055D000AF06A093B006B093B1068091A3068430C5
:1055E00039F48091BF06909199058923809399059C
:1055F0008091A7059091A80501979093A8058093A5
:10560000A705892B69F41092AD051092AC05809125
:105610008A058F5F80938A05863011F410928A057F
:10562000809187059091990589278093990510921B
:105630008505FF91EF91DF91CF91BF91AF919F9140
:105640008F917F916F915F914F913F912F910F902B
:105650000BBE0F900FBE0F901F9018951F920F92C8
:105660000FB60F9211248F939F939BB18091870562
:105670008C71937E892B8BB915BC9F918F910F9064
:105680000FBE0F901F901895FF920F931F93CF930B
:10569000DF931092870510928605C0E0D0E00C2FB2
:1056A0001C2F2091B20730E08C2F0C2E02C03595B4
:1056B00027950A94E2F720FF07C0F09087050E9423
:1056C0001B288F29809387052091B30730E002C003
:1056D000359527951A95E2F720FF08C010918605A9
:1056E000802F0E942528812B809386052196C33028
:1056F000D105A9F6DF91CF911F910F91FF900895E9
:105700000E94E6288BE2E6E5F5E0DF011D928A952E
:10571000E9F783E2EBE8F5E0DF011D928A95E9F70E
:10572000109284051092830510928A0510928905C3
:1057300081E080938805109285050E94442B8BB1EF
:10574000837E90918705892B8BB98BB18F71909156
:105750008605892B8BB908958AB18C618AB9209A04
:105760008AB1806E8AB9E1E8F0E080818F7E808323
:10577000808188608083E0E8F0E080818C7F808396
:1057800080818F708083EEE6F0E08081887F808367
:1057900014BC15BC8081816080830895CF93DF9312
:1057A000C0918305D09184052097B9F081E0809362
:1057B000570560916D0570916E0580916F05909110
:1057C00070059B01AC010E946E37698B7A8B8B8BC5
:1057D0009C8B1092840510928305DF91CF910895E0
:1057E0002F923F924F925F926F927F928F929F92F1
:1057F000AF92BF92CF92DF92EF92FF920F931F93DF
:10580000CF93DF93CDB7DEB7E5970FB6F894DEBF41
:105810000FBECDBF8091A306807709F40AC220E0B5
:1058200030E0A90160916D0570916E0580916F0562
:10583000909170050E9430358111FBC103C68091A3
:10584000830590918405892B09F4FAC1809189051B
:10585000F6E0F89FF0011124E255FA4FFE83ED8344
:1058600080915605828320918305309184053E877F
:105870002D87D9019596BC91BCA7F901F6A1FDA78A
:10588000D9019796BC91BEA7F901F0A5FFA7209179
:1058900060053091610540916205509163056CA5EA
:1058A0007DA58B2F9F2F0E94563468A779A78AA7C2
:1058B0009BA720E030E0A9010E94303587FF04C09B
:1058C00018A619A61AA61BA620917905288F309133
:1058D0007A05398F40917B054A8F50917C055B8F0B
:1058E000809171058C8F909172059D8FA0917305A9
:1058F000AE8FB0917405BF8FE0917D05E8A3F09164
:105900007E05F9A320917F052AA3309180053BA352
:10591000409169054CA350916A055DA380916B0588
:105920008EA390916C059FA320917505309176050B
:10593000409177055091780528AB39AB4AAB5BAB0A
:1059400030916D05398340916E05498720906F0530
:1059500030907005509168055F878CA58C8B9DA554
:105960009D8BAEA5AE8BBFA5BF8B3EE3C32E33ECA4
:10597000D32E3EE2E32E39E3F32E188A198A1A8ACF
:105980001B8A26013701EF85E111B4C3AD85BE85C1
:1059900091962D913D914D915C919497C701B601DF
:1059A0000E946E374B015C0120E030E040E05FE395
:1059B0000E946E379B01AC0169817985C1010E940B
:1059C00057349B01AC01C701B6010E946E379B01A1
:1059D000AC016C897D898E899F890E9456348B0128
:1059E0008DAB9CAB288D398D4A8D5B8D0E943035F7
:1059F00087FF86C3288D398D4A8D5B8D6CA57DA56B
:105A00008EA59FA50E9456349B01AC010E9457347D
:105A10006B017C012C8D3D8D4E8D5F8D698179856B
:105A2000C1010E9457349B01AC01C701B6010E941D
:105A300037356B017C0128A139A14AA15BA1688D92
:105A4000798D8A8D9B8D0E943035882309F455C34A
:105A5000B1E0BF87FC8DF9832D8D29872E8C3F8C7B
:105A6000088D198D3A8D3DAB4B8D4CABA70196013E
:105A7000688979898A899B890E945734688B798BD8
:105A80008A8B9B8BA30192010E94303587FDF2C364
:105A900028A539A54AA55BA5B8018DA99CA90E9496
:105AA000333718160CF4DCC389819985D1018093B2
:105AB0006D0590936E05A0936F05B0937005FF85FB
:105AC000F093680540905C0550905D0560905E0520
:105AD00070905F0598014DA95CA9C301B2010E94B5
