:100000000C94BF050C94D3050C94D3050C94D30524
:100010000C94D3050C94D3050C94D3050C94D30500
:100020000C94D3050C94BA110C94D3050C9485341C
:100030000C94D3050C94D3050C94D3050C94D305E0
:100040000C94D3050C94422B0C94D3050C94D3053B
:100050000C94D3050C94D3050C94D3050C945F2D0C
:100060000C94D3050C94FB260C94B9260C94D30560
:100070000C94D3050C94D3050C94D3050C94D305A0
:100080000C94D3050C94D3050C94D3050C94D30590
:100090000C94D3050C94D3050C94D3050C94D30580
:1000A0000C94D3050C94D3050C94D3050C94D30570
:1000B0000C94D3050C94D3050C94D3050C9405062D
:1000C0000C94D3050C94D3050C94D3050C94D30550
:1000D0000C94D3050C94D3050C94D3050C94D30540
:1000E0000C94D3054C093211321156096309700979
:1000F0007D093211810932118F0932119909A30941
:10010000D409321132113211AD09BA09C709F60FFB
:100110000710261007102A103D103010361052100C
:10012000581067107E10A210AC10B810C210CC216D
:10013000CF21D421D721DA21DD21E021E321E621DD
:10014000E921EC21FB21FB21FB21FB21FB21FB21F0
:10015000FB21FB21F221EF21F521FB21FB21FB21DA
:10016000FB21FB21FB21FB21FB21FB21FB21FB21AF
:10017000FB21FB21FB21FB21F82118221B221E223F
:100180002122242227222A2248224B224E22512297
:10019000542257225A225D22612967296A296D2932
:1001A00072297A298429F629F629F6298C298F299A
:1001B0009829A129F629F629F629F629F629F629FA
:1001C000A929B329BF29C729CA29D329DC29E229AA
:1001D000EB29084AD73B3BCE016E84BCBFFDC12F43
:1001E0003D6C74319ABD56833DDA3D00C77F11BE28
:1001F000D9E4BB4C3E916BAAAABE000000803F052B
:10020000A84CCDB2D44EB93836A9020C50B991865B
:1002100088083CA6AAAA2ABE000000803F08000069
:1002200000BE922449123EABAAAA2ABECDCCCC4C29
:100230003E00000080BEABAAAAAA3E00000000BF9C
:10024000000000803F0000000000084178D3BB435D
:1002500087D1133D190E3CC3BD4282AD2B3E68ECE5
:100260008276BED98FE1A93E4C80EFFFBE01C4FF6C
:100270007F3F0000000000000C94E9210C945A22FA
:100280000C9481090C94EB290C94A9290C94AD09C8
:100290000C94D4090C946D290C94D7210C94512200
:1002A0000C942A220C94A3090C94C7090C94C21034
:1002B0000C944B220C942A100C9470090C949909FC
:1002C0000C94E6210C94D4210C94A1290C943010A8
:1002D0000C9426100C94F2210C9407100C94A2108C
:1002E0000C94C7290C9467290C948F290C947E10C8
:1002F0000C9498290C94E2290C94DC290C94482243
:100300000C943D100C9456090C948F090C943211E6
:100310000C941B220C945D220C947D090C942422D5
:100320000C9458100C944C090C94F6290C94CF2181
:100330000C94CC210C9418220C947A290C945722FA
:100340000C941E220C94BF290C9436100C94E021BE
:100350000C94AC100C94DD210C944E220C94BA0930
:100360000C94EC210C94B3290C9454220C94B810E6
:100370000C9427220C9472290C9461290C9452102D
:100380000C94CA290C94F8210C9484290C94E32130
:100390000C94F60F0C94EF210C94DA210C94671056
:1003A0000C948C290C9421220C946A290C94D32946
:1003B0000C94FB210C9463090C94F5213E0D0A006A
:1003C0002C4C696D3A002C54454D503A002C525833
:1003D0003A002C4275663A002C002C57506F733A45
:1003E000002C002C4D506F733A003C446F6F72002C
:1003F0003C436865636B003C416C61726D003C4836
:100400006F6D65003C486F6C64003C52756E003C3B
:1004100049646C65005D0D0A005B302E396A2E322E
:10042000303136303732363A000D0A003D00244E66
:10043000005D0D0A00205300204600205400204D8E
:100440003800204D3900204D3500204D3400204D1E
:100450003300204D3200204D3100204D3000204728
:1004600039340020473933002047393100204739DB
:1004700030002047323000204732310020473139E8
:1004800000204731380020473137002047004733EC
:10049000382E0047383000473300473200473100DC
:1004A0004730005B005D0D0A005B544C4F3A005D25
:1004B0000D0A002C005B4739323A005D0D0A002C12
:1004C000003A003330003238005B47005D0D0A000F
:1004D0003A002C005B5052423A00290D0A00206D70
:1004E00061782074726176656C2C206D6D002061DE
:1004F0006363656C2C206D6D2F7365635E32002025
:100500006D617820726174652C206D6D2F6D696E40
:10051000002C20737465702F6D6D007A007900785F
:10052000002028003D00240020286C6173657220A3
:10053000706F7765722064697669736F722C2025FD
:1005400029202D2D204E4F542053415645440D0A4D
:10055000002028686F6D696E672070756C6C2D6F58
:1005600066662C206D6D290D0A2432383D00202846
:10057000686F6D696E67206465626F756E63652C68
:10058000206D736563290D0A2432373D00202868E9
:100590006F6D696E67207365656B2C206D6D2F6DB7
:1005A000696E290D0A2432363D002028686F6D6976
:1005B0006E6720666565642C206D6D2F6D696E29F0
:1005C0000D0A2432353D00290D0A2432343D002025
:1005D00028686F6D696E672064697220696E766540
:1005E0007274206D61736B3A002028686F6D696EBC
:1005F00067206379636C652C20626F6F6C290D0A2C
:100600002432333D00202868617264206C696D6972
:1006100074732C20626F6F6C290D0A2432323D00F6
:100620002028736F6674206C696D6974732C206266
:100630006F6F6C290D0A2432313D002028726570DD
:100640006F727420696E636865732C20626F6F6CC3
:10065000290D0A2432303D00202861726320746F16
:100660006C6572616E63652C206D6D290D0A2431F5
:10067000333D0020286A756E6374696F6E2064656F
:1006800076696174696F6E2C206D6D290D0A2431B5
:10069000323D00290D0A2431313D00202873746158
:1006A000747573207265706F7274206D61736B3A2C
:1006B00000202870726F62652070696E20696E7606
:1006C0006572742C20626F6F6C290D0A2431303DE5
:1006D0000020286C696D69742070696E7320696EE2
:1006E000766572742C20626F6F6C290D0A24363D7A
:1006F0000020287374657020656E61626C652069E6
:100700006E766572742C20626F6F6C290D0A243529
:100710003D00290D0A24343D0020286469722070B0
:100720006F727420696E76657274206D61736B3AB6
:1007300000290D0A24333D00202873746570207051
:100740006F727420696E76657274206D61736B3A96
:10075000002028737465702069646C652064656C82
:1007600061792C206D736563290D0A24323D0020C8
:1007700028737465702070756C73652C20757365B3
:1007800063290D0A24313D0024303D002424202813
:1007900076696577204772626C2073657474696E40
:1007A0006773290D0A242320287669657720232082
:1007B000706172616D6574657273290D0A2447203A
:1007C0002876696577207061727365722073746131
:1007D0007465290D0A244920287669657720627599
:1007E000696C6420696E666F290D0A244E20287694
:1007F000696577207374617274757020626C6F63C1
:100800006B73290D0A24783D76616C756520287319
:10081000617665204772626C2073657474696E67D7
:10082000290D0A25783D76616C75652028736574FD
:10083000204772626C2073657474696E67202D2086
:100840004E4F54205341564544290D0A244E783DBD
:100850006C696E65202873617665207374617274AB
:10086000757020626C6F636B290D0A244320286326
:100870006865636B2067636F6465206D6F646529CD
:100880000D0A245820286B696C6C20616C61726DB4
:10089000206C6F636B290D0A2448202872756E2026
:1008A000686F6D696E67206379636C65290D0A2432
:1008B0005253543D782028726573746F72652078A6
:1008C0003D243A2064656661756C742076616C75B0
:1008D00065732C20783D233A20706172616D6574D8
:1008E0006572732C20783D2A3A20616C6C290D0AC0
:1008F0002453202864697361626C65207374657089
:10090000706572290D0A7E20286379636C652073F7
:1009100074617274290D0A21202866656564206857
:100920006F6C64290D0A3F202863757272656E74BE
:1009300020737461747573290D0A6374726C2D7859
:1009400020287265736574204772626C290D0A0055
:100950000D0A4772626C20302E396A205B272427EB
:1009600020666F722068656C705D0D0A005D0D0A6F
:1009700000526573746F72696E6720646566617595
:100980006C74730050676D20456E64004368656346
:100990006B20446F6F720044697361626C65640020
:1009A000456E61626C65640043617574696F6E3A8F
:1009B00020556E6C6F636B656400272448277C2785
:1009C00024582720746F20756E6C6F636B0052651E
:1009D00073657420746F20636F6E74696E75650043
:1009E0005B000D0A0054656D70206C6173657220A8
:1009F000746F6F206869676800436F6F6C616E7415
:100A0000204F464600486F6D696E67206661696CCD
:100A10000050726F6265206661696C0041626F729E
:100A20007420647572696E67206379636C65005326
:100A30006F6674206C696D69740048617264206C23
:100A4000696D697400414C41524D3A20000D0A0015
:100A5000496E76616C69642067636F646520494400
:100A60003A00496E76616C6964206C61736572202E
:100A7000706F77657200556E646566696E65642097
:100A800066656564207261746500556E737570707B
:100A90006F7274656420636F6D6D616E64004D6F7D
:100AA00064616C2067726F75702076696F6C617419
:100AB000696F6E004C696E65206F766572666C6F4B
:100AC0007700486F6D696E67206E6F7420656E6188
:100AD000626C656400416C61726D206C6F636B00C9
:100AE0004E6F742069646C6500454550524F4D202F
:100AF00072656164206661696C2E205573696E674A
:100B00002064656661756C74730056616C75652050
:100B10003C203320757365630053657474696E6798
:100B20002064697361626C65640056616C75652050
:100B30003C203000496E76616C6964207374617486
:100B4000656D656E7400426164206E756D626572DC
:100B500020666F726D6174004578706563746564BA
:100B600020636F6D6D616E64206C657474657200D6
:100B70006572726F723A20006F6B0D0A00001124CB
:100B80001FBECFEFD1E2DEBFCDBF00E00CBF2EE134
:100B9000A0E0B2E001C01D92A23AB207E1F70E94C4
:100BA00033140C94133C0C940000F8941092200120
:100BB0008BE080932101E3E7F0E080818360808314
:100BC00088EA91E6909329018093280110922B01E5
:100BD00010922A0110922501109224011092F81C03
:100BE0001092F91C1092FA1C1092FB1C7894089534
:100BF0002091F81C3091F91C4091FA1C5091FB1C7B
:100C0000A4E6B0E00E94E53B08951F920F920FB654
:100C10000F9211248F939F93AF93BF93109225014E
:100C2000109224018091F81C9091F91CA091FA1C5B
:100C3000B091FB1C0196A11DB11D8093F81C9093EF
:100C4000F91CA093FA1CB093FB1CBF91AF919F912C
:100C50008F910F900FBE0F901F901895E2E0F1E07A
:100C600080818F7D8083109203020895E1E0F1E09E
:100C70008081806280830C942E06823049F481E06A
:100C800080930302809102018062809302010895A3
:100C90000C942E06CF93DF931F92CDB7DEB79091C1
:100CA000771D923049F089830E94A52189810F9098
:100CB000DF91CF910C943D060F90DF91CF91089575
:100CC000F999FECF92BD81BD81E08FBB80B50895BB
:100CD000F894F999FECF92BD81BD81E08FBB40B5FC
:100CE0004627842F992787FD9095262F30E0822371
:100CF0009323892B39F06F3F19F060BD84E006C063
:100D000084E104C0442321F060BD84E28FBBF99AE2
:100D1000789408959F92AF92BF92CF92DF92EF9214
:100D2000FF920F931F93CF93DF938C017A016B0196
:100D3000C40ED51EEB01912C5C01A61AB70ACE0198
:100D40008A0D9B1DCC15DD0591F0911009C0692D10
:100D5000772767FD7095272F221F2227221F01C0AA
:100D600021E06991922E960E0E946806E8CF692DC7
:100D7000C8018E0D9F1DDF91CF911F910F91FF90A4
:100D8000EF90DF90CF90BF90AF909F900C9468064B
:100D90009F92AF92BF92CF92DF92EF92FF920F930A
:100DA0001F93CF93DF938B017A016C01C40ED51E84
:100DB000EC01912C5B01A81AB90AC5018C0F9D1F8B
:100DC000CC15DD0591F00E946006911009C0292D17
:100DD000332727FD3095232F221F2227221F01C0F2
:100DE00021E0922E980E8993E8CFC8018E0D9F1DA9
:100DF0000E94600621E030E0981611F020E030E01B
:100E0000C901DF91CF911F910F91FF90EF90DF907B
:100E1000CF90BF90AF909F90089580E4ECEFFCE1FD
:100E2000DF011D928A95E9F760E27DE180E00E9492
:100E3000C528811103C087E00C94B62108956AE7A4
:100E40007DE184E19DE10C9484362F923F924F9294
:100E50005F926F927F928F929F92AF92BF92CF924A
:100E6000DF92EF92FF920F931F93CF93DF93CDB753
:100E7000DEB7AC970FB6F894DEBF0FBECDBF9EA312
:100E80008DA38AE3ECE3FDE1DF011D928A95E9F78A
:100E90008BE0ECEFFCE1ADE3BDE101900D928A95B2
:100EA000E1F71D8E212C312CA12CB12C19A2512C33
:100EB00018A266246394712C57E0952E882483949D
:100EC00064E0462E8D8DEDA1FEA1E80FF11DB081ED
:100ED000BE8FBB2309F48FC29E8D91549A3110F0BE
:100EE0000C9424118F5F8D8FAE01475E5F4FBE0162
:100EF000635E7F4F8DA19EA10E94F118882311F49B
:100F00000C942611C98CDA8CEB8CFC8CC701B601D1
:100F10000E947E3B0E94A138162F70E080E090E096
:100F20000E94CF389B01AC01C701B6010E94533724
:100F300020E030E048EC52E40E94B03A0E94133BBB
:100F40000E94A138BE8DB73421F0BD3409F442C1EE
:100F500091C1183209F434C1E8F4143160F411314C
:100F600008F0D9C0143009F45CC008F490C01A30FD
:100F7000D9F10C9432111C31B9F128F4163108F46E
:100F8000F9C00C9432111E3179F1163209F47FC088
:100F90000C9432111D3309F40DC1A8F4153309F472
:100FA00063C040F41B3209F4EEC0113309F4EBC006
:100FB0000C9432111C3310F00C9432111653109310
:100FC000431D09E002C11C3540F41A3508F0B2C0D7
:100FD000103509F49CC00C9432111C3529F01F35D2
:100FE00008F4BFC00C9432116115710531F4E8A109
:100FF000E1110C942811F1E0F8A31C31A9F048F498
:10100000143079F01A3009F0DDC082E080933C1D85
:10101000D9C0153349F11C3551F11E3109F0D2C048
:1010200012C080923C1DCEC06115710541F06A303E
:10103000710511F00C94321140923C1D0AC023E05E
:1010400020933C1D06C06115710529F485E080934D
:101050003C1D00E0CDC06A30710511F00C943211D6
:1010600096E090933C1DF5CF90923C1DABC061156E
:10107000710549F06A30710511F00C943211B9E034
:10108000B0933C1DE6CFA8E0A0933C1DE2CFE8A1C1
:10109000E1110C942811F2E0F8A3123089F028F441
:1010A000112359F0113081F08FC0163281F01035C4
:1010B00071F1133009F088C007C010923D1D84C043
:1010C00028A120933D1D80C010933D1D7DC06E3131
:1010D0007105A1F040F46431710511F00C943211E6
:1010E00040923D1D12C06832710561F06233710596
:1010F00011F00C94321190923D1D07C085E0809351
:101100003D1D03C096E090933D1D01E071C0A8E035
:10111000A0933D1D59C0123129F0133131F01092C6
:10112000411D06C08092411D03C082E08093411D95
:1011300002E04BC06115710549F41A3519F410929B
:10114000401D02C08092401D03E052C06A3071050C
:1011500011F00C9432111A3511F40C94321104E090
:1011600047C01D3519F480923E1D02C010923E1DED
:1011700005E02BC0143119F480923F1D02C010927B
:101180003F1D06E022C0B8A1B1110C942811113303
:1011900031F41092421D08E0E3E0E8A329C06A3070
:1011A000710511F00C9432118092421D08E0F3E0B9
:1011B000F8A31EC0672B11F00C9432110AE018C07E
:1011C00007E003C000E001C001E0672B89F087E180
:1011D0000C944511672BD9F71A30C8F01E3141F134
:1011E00010F40C9432111456123010F00C94321189
:1011F000C301002E02C0880F991F0A94E2F79C01D8
:101200002A213B21232B99F185E10C9445111830BB
:1012100010F5133020F0163078F00C9432111230A3
:1012200039F01E3129F0111120C08092441D1DC0DB
:1012300082E08093441D19C0143029F0153039F034
:101240008092461D06C082E08093461D02C0109227
:10125000461D0CE0CDCF193021F082E08093451D72
:1012600002C01092451D0DE0C3CF0BE0C1CFA82AEC
:10127000B92A28CE2E8D822F992787FD9095A92FE8
:10128000B92FFC01E654F109E531F10508F0EAC790
:10129000EE58FF4F0C94DF3BC092481DD092491D81
:1012A000E0924A1DF0924B1D00E07FC0C0924C1DA1
:1012B000D0924D1DE0924E1DF0924F1D89A181608C
:1012C00089A301E072C0C092501DD092511DE092DE
:1012D000521DF092531D99A1926099A302E065C03E
:1012E000C092541DD092551DE092561DF092571D8C
:1012F000A9A1A460A9A303E058C01093581D04E05D
:1013000054C0C701B6010E949C386093591D709368
:101310005A1D80935B1D90935C1D05E046C0C092F2
:101320005D1DD0925E1DE0925F1DF092601D06E093
:101330003CC0C092611DD092621DE092631DF0928C
:10134000641D07E032C0C092651DD092661DE09218
:10135000671DF092681D08E028C0C0926A1DD092F7
:101360006B1DE0926C1DF0926D1DB52DB1605B2E72
:101370000AE01BC0C0926E1DD0926F1DE092701DDE
:10138000F092711DE52DE2605E2E0BE00EC0C09262
:10139000721DD092731DE092741DF092751DF52D93
:1013A000F4605F2E0CE001C009E0C301002E02C012
:1013B000880F991F0A94E2F79F8F8E8F82219321C5
:1013C000892B09F047C781E693E0002E02C095956E
:1013D00087950A94E2F780FF09C020E030E0A90178
:1013E000C701B6010E942D3887FD36C7AE8DBF8D6F
:1013F0002A2A3B2A67CD552029F0E8A1E11102C035
:10140000F2E0F8A325FE0EC08091591D90915A1D5F
:10141000A0915B1DB0915C1D80389649A849B1052B
:101420000CF01CC780913E1D813031F488A18230C0
:10143000A1F520FE1DC731C08091FD1C81112DC07A
:1014400020FE1BC080913F1D813039F523E333E33B
:101450004BEC51E46091481D7091491D80914A1DEB
:1014600090914B1D0E94B03A6093481D7093491DA6
:1014700080934A1D90934B1D10C080910B1D90913D
:101480000C1DA0910D1DB0910E1D8093481D9093D1
:10149000491DA0934A1DB0934B1D30FC10C0809194
:1014A000071D9091081DA091091DB0910A1D809300
:1014B000651D9093661DA093671DB093681D809174
:1014C0003C1D813031F426FC02C08CE1DEC6E8947C
:1014D00026F88091411D882341F0813061F01AA6E1
:1014E000B2E0B9A7E1E0EDA30BC092E09AA7A1E0BA
:1014F000A9A71DA205C0F1E0FAA719A622E02DA315
:1015000080913F1D813021F088A1833091F52AC060
:101510003AE6E32E3DE1F32E00E010E0C52CD12C9D
:10152000C601002E02C0959587950A94E2F780FFC8
:1015300010C023E333E34BEC51E4D7016D917D916F
:101540008D919C910E94B03AF701608371838283F0
:1015500093830F5F1F4FF4E0EF0EF11C0330110572
:10156000F9F6D2CF8091421D813019F424E0521255
:1015700077C68CE0E0E2FDE1DE011D9601900D9260
:101580008A95E1F7B1FC09C080913C1D8E8F8230B5
:10159000B9F0883009F4B0C015C18091431D87307F
:1015A00010F08DE172C69091021D981769F3BE018B
:1015B000635F7F4F0E94C528882309F463C6E4CF88
:1015C000511002C08AE161C6C10180759927892B3B
:1015D00009F47BCF60915D1D70915E1D80915F1D50
:1015E0009091601D0E947E3B0E94A1386730C8F632
:1015F0008091581D843129F0823009F033C627FCD0
:1016000031C69FEA2922662319F061506E8F03C00C
:10161000A091431DAE8FBE016F5F7F4F8E8D0E94E4
:10162000C528882309F42EC64090581D6090381DA7
:101630007090391D80903A1D90903B1DFE013196AF
:101640007F019AE6C92E9DE1D92E24E1A22E2DE13B
:10165000B22E00E010E0852D90E098A78FA38FA117
:1016600098A5002E02C0959587950A94E2F780FF11
:1016700033C094E1491226C0D50158962D913D9171
:101680004D915C915B976D917D918D919C910E94A4
:101690005337F60120813181428153810E945337B3
:1016A000D7016D937D938D939C9313970230A1F492
:1016B000A40193010E945337F701608371838283F1
:1016C00093830AC0F60180819181A281B381F701E1
:1016D00080839183A283B3830F5F1F4FF4E0EF0EEB
:1016E000F11C24E0C20ED11C84E0A80EB11C033012
:1016F000110509F0B4CF0FC1552009F463CF6090F4
:10170000381D7090391D80903A1D90903B1D0AE65F
:101710001DE184E1C82E8DE1D82E5E019DE0A90E69
:10172000B11CE12CF12CA52DB0E0BF8FAE8F8E8DBA
:101730009F8D0E2C02C0959587950A94E2F780FF45
:1017400026C0F5012081318142815381D6016D91FE
:101750007D918D919C910E945337F80120813181B8
:10176000428153810E945337D8016D937D938D93AD
:101770009C931397B2E0EB1214C0A40193010E9452
:101780005337F80160837183828393830AC0F60123
:10179000808D918DA28DB38DF80180839183A2837A
:1017A000B383FFEFEF1AFF0A0C5F1F4F24E0C20E56
:1017B000D11C84E0A80EB11C93E0E916F10409F0F5
:1017C000B6CFA8C0A8A1A33059F4BE8DB53009F496
:1017D0008FC0B73009F499C0B33009F09BC080C006
:1017E000552099F34090401D8090381D9090391DF0
:1017F000A0903A1DB0903B1D04E1C02E0DE1D02E0B
:101800000AE61DE13E01EDE06E0E711CE12CF12CAB
:10181000852D90E098A78FA38FA198A50E2C02C0CC
:10182000959587950A94E2F780FD0BC0F6018081BB
:101830009181A281B381F80180839183A283B383D4
:101840003EC0FE8DF730D9F1411028C0D601589620
:101850002D913D914D915C915B97F3016081718178
:10186000828193810E945437D8012D913D914D91F1
:101870005C910E945437F801608371838283938363
:10188000F2E0EF121CC0A50194010E945437D80168
:101890006D937D938D939C93139711C0F6012081D6
:1018A000318142815381D8016D917D918D919C91BF
:1018B0000E945437F8016083718382839383FFEF22
:1018C000EF1AFF0A24E0C20ED11C0C5F1F4F84E008
:1018D000680E711C93E0E916F10409F09DCF75CFF5
:1018E000511001C018A2BE016F5F7F4F86E007C094
:1018F000511001C018A2BE016F5F7F4F87E00E94A8
:10190000C528882309F4BEC405C080913D1D8230DE
:1019100008F0AAC41E8E10913D1D183041F45520C8
:1019200009F4B2C1A8A1A13009F0A0C489C2B8A12C
:10193000B23009F0A9C11123D9F020E030E0A901AB
:101940006091481D7091491D80914A1D90914B1DD9
:101950000E942D38882309F48BC4143028F41230E7
:1019600058F4113029F06CC2183008F44CC168C228
:10197000511066C218A28BC1552009F423CEFDA1D7
:10198000EF2FF0E0F8A7EFA399A5892F90E09CA78F
:101990008BA781E090E03C0109A402C0660C771C93
:1019A0000A94E2F70DA002C0880F991F0A94E2F78B
:1019B000682A792A852D90E086219721892B09F4C0
:1019C00059C4EE0FFF1FEE0FFF1FE45CF24EAFA1F4
:1019D000B8A5AA0FBB1FAA0FBB1FAC5EB24E2D91BC
:1019E0003D914D915C9166A577A580A991A90E9432
:1019F00053376B017C01EBA5FCA5EE0FFF1FEE0F2B
:101A0000FF1FE45CF24EABA5BCA5AA0FBB1FAA0F3B
:101A1000BB1FAC5EB24E2D913D914D915C9166A580
:101A200077A580A991A90E9453374B015C0127FE3D
:101A300040C0E89427F820916A1D30916B1D4091B9
:101A40006C1D50916D1D6091141D7091151D80913C
:101A5000161D9091171D0E942D3881111CC12091D7
:101A60006E1D30916F1D4091701D5091711D6091E0
:101A7000181D7091191D80911A1D90911B1D0E94B7
:101A80002D38811108C12091721D3091731D409134
:101A9000741D5091751D60911C1D70911D1D8091CC
:101AA0001E1D90911F1D0E942D388111F4C081E2EE
:101AB000ECC3F9A14F2E512C64207520672809F43E
:101AC000DBC321EF222280913F1D813009F456C0F3
:101AD0000BA51CA5000F111F000F111F045B124E58
:101AE000D8012D913D914D915C91C501B4010E94A9
:101AF00053372B013C01AFA0B8A4AA0CBB1CAA0C05
:101B0000BB1CF501E45BF24E5F0120813181428113
:101B10005381C701B6010E945337A30192010E946D
:101B2000AE196B017C01D8012D913D914D915C91D5
:101B3000F50160817181828193810E94AE194B0110
:101B40005C016093611D7093621D8093631D90938F
:101B5000641D9B01AC01C701B6010E9453376B01A4
:101B60007C01E894F7F82AE037ED43EA5BE3C7012C
:101B7000B6010E94303A18164CF162C18CE4682E0E
:101B80008DE1782E00E010E0C201002E02C0959594
:101B900087950A94E2F780FF10C023E333E34BEC10
:101BA00051E4D3016D917D918D919C910E94B03A49
:101BB000F30160837183828393830F5F1F4FF4E08F
:101BC0006F0E711C03301105F9F682CF20E030E072
:101BD00040E05FE3C701B6010E94303A18160CF4EA
:101BE00066CF2FE632E143E85AE3C501B4010E9413
:101BF000B03A9B01AC01C701B6010E94303A1816F9
:101C00000CF455CF1DC1552009F4DCCC20916A1D80
:101C100030916B1D40916C1D50916D1D6091141D94
:101C20007091151D8091161D9091171D0E942D38E1
:101C3000811106C120916E1D30916F1D4091701D64
:101C40005091711D6091181D7091191D80911A1D80
:101C500090911B1D0E942D388111F2C02091721DA0
:101C60003091731D4091741D5091751D60911C1D24
:101C700070911D1D80911E1D90911F1D0E942D3879
:101C8000882309F414CFDCC028A12111D9C0C101D7
:101C90008E7D9C7FD8C080913F1D8130B1F423E3BD
:101CA00033E34BEC51E46091611D7091621D8091B2
:101CB000631D9091641D0E94B03A6093611D709302
:101CC000621D8093631D9093641D4090611D509030
:101CD000621D6090631D7090641D20E030E040E85C
:101CE00050E4C301B2010E94B03AA30192010E94E4
:101CF000B03A2B013C01A7019601C701B6010E9431
:101D0000B03A9B01AC01C301B2010E9453372B01D1
:101D10003C01A5019401C501B4010E94B03A9B01A8
:101D2000AC01C301B2010E9453372B013C0120E0FA
:101D300030E0A9010E942D3887FDA6C2C301B2017F
:101D40000E943D3B2B013C01A5019401C701B60156
:101D50000E94AE199B01AC01C301B20190580E94D0
:101D600034382B013C0180913D1D833021F477FAFA
:101D7000709477F870948091611D9091621DA0918C
:101D8000631DB091641D89A39AA3ABA3BCA320E0FB
:101D900030E0A901BC01CD010E942D3887FF11C0A0
:101DA00077FA709477F8709489A19AA1ABA1BCA13D
:101DB000B0588093611D9093621DA093631DB093F2
:101DC000641D0FA118A5000F111F000F111F045B48
:101DD000124EA3019201C501B4010E94B03A9B01C9
:101DE000AC01C701B6010E94533720E030E040E06B
:101DF0005FE30E94B03AD8016D937D938D939C93DD
:101E000013970BA51CA5000F111F000F111F045BDA
:101E1000124EA3019201C701B6010E94B03A9B0184
:101E2000AC01C501B4010E94543720E030E040E02D
:101E30005FE30E94B03AF8016083718382839383E9
:101E4000C1018E7D907E892B09F018C28091591DA9
:101E500090915A1DA0915B1DB0915C1D8093101D47
:101E60009093111DA093121DB093131D80913E1DE0
:101E70008093FD1C8091481D9091491DA0914A1DA1
:101E8000B0914B1D80930B1D90930C1DA0930D1DC5
:101E9000B0930E1DC090651DD090661DE090671D2B
:101EA000F090681DA70196016091071D7091081DB3
:101EB0008091091D90910A1D0E942D388823C1F040
:101EC0008091051D882321F0B701A6010E94B02A48
:101ED0008091651D9091661DA091671DB091681D50
:101EE0008093071D9093081DA093091DB0930A1DB0
:101EF0008091691D80930F1D8091461D9091051D55
:101F0000981771F04091071D5091081D6091091DAF
:101F100070910A1D0E94B02A8091461D8093051D74
:101F20008091451D9091041D981731F00E944A063A
:101F30008091451D8093041D80913C1D813051F49A
:101F400060915D1D70915E1D80915F1D9091601D7F
:101F50000E94B8178091411D8093001D80913F1D04
:101F60008093FE1C88A18330F9F48091421D8093F8
:101F7000011D813089F48091721D9091731DA09193
:101F8000741DB091751D8093381D9093391DA093D9
:101F90003A1DB0933B1D08C01092381D1092391D98
:101FA00010923A1D10923B1D8091431D9091021D8D
:101FB000981759F08093021D8CE0FE013D96A0E237
:101FC000BDE101900D928A95E1F78091401D8093CB
:101FD000FF1C80913C1D90E0FC013297E830F10538
:101FE00008F04BC0E957FF4F0C94DF3BBE016F5F19
:101FF0007F4F8E8D0E9472278091021D9E8D8913C6
:102000003CC08CE0FE013196A0E2BDE11AC0A8A15F
:10201000AA2349F020E040E050E060E87FEB8AE648
:102020009DE10E946B1420E040E050E060E87FEB0F
:10203000CE0101960E946B148CE0FE013196A4E162
:10204000BDE101900D928A95E1F717C064E17DE151
:1020500086E003C064E17DE187E00E9472270DC045
:102060008CE0EAE6FDE1ACE2BDE1EBCF8CE0ECE236
:10207000FDE1DF011D928A95E9F780913D1D809376
:10208000FC1C883009F498C0B8A1B23009F094C0A3
:1020900090E08830910508F086C0FC01E157FF4FC1
:1020A0000C94DF3B20E040E050E060E87FEB0AC0AA
:1020B00040910B1D50910C1D60910D1D70910E1DD6
:1020C0002091FD1C8AE69DE10E946B146CC0C090BB
:1020D0000B1DD0900C1DE0900D1DF0900E1D009179
:1020E000611D1091621D2091631D3091641D81E07E
:1020F0008F93EAA5EF93F9A5FF9315C0C0900B1D30
:10210000D0900C1DE0900D1DF0900E1D0091611DF2
:102110001091621D2091631D3091641D1F928AA54C
:102120008F9399A59F938DA0A090FD1C4CE45DE139
:102130006AE67DE184E19DE10E94B9140F900F9061
:102140000F9031C040910B1D50910C1D60910D1DE1
:1021500070910E1DE12C0AC040910B1D50910C1D79
:1021600060910D1D70910E1DEE24E39400E015C0EA
:1021700040910B1D50910C1D60910D1D70910E1D15
:10218000E12C0AC040910B1D50910C1D60910D1D5A
:1021900070910E1DEE24E39401E02091FD1C8AE66F
:1021A0009DE10E942A188CE0EAE6FDE1A4E1BDE190
:1021B00001900D928A95E1F78091441D8093031D53
:1021C000882309F45DC00E94A5219091031D809190
:1021D000771D913069F48230A1F19FB7F894809116
:1021E00001028860809301029FBF0E94F11F29C0F5
:1021F00091E09093FC1C1092001D1092FF1C109215
:10220000FD1C1092021D1092051D1092041D8230BB
:10221000A9F0BE01635F7F4F80E00E94C52888233C
:1022200089F18CE0FE013D96A0E2BDE101900D92A6
:102230008A95E1F70E94322A0E942E0687E00E94CA
:1022400037221092031D1CC081E01FC082E01DC018
:1022500088E11BC089E119C084E017C08BE115C07B
:1022600085E213C084E111C08EE10FC08FE10DC083
:1022700086E10BC080E209C083E207C084E205C0AA
:1022800080E003C087E001C082E2AC960FB6F8940C
:10229000DEBF0FBECDBFDF91CF911F910F91FF9099
:1022A000EF90DF90CF90BF90AF909F908F907F90F6
:1022B0006F905F904F903F902F900895EBE6F0E085
:1022C00080818F788083E8E6F0E080818E7F808354
:1022D000089584B18F7884B985B1806785B980917C
:1022E000921E83FF0BC080916B00806780936B0010
:1022F0008091680081608093680008950C945E115D
:10230000CF92DF92FF920F931F93CF93DF931F9291
:10231000CDB7DEB793B190778091921E86FD02C053
:1023200080E798279923D9F0C12CD12CF12C01E01A
:1023300010E08C2D99830E94282A9981892339F0F5
:1023400098010C2C01C0220F0A94EAF7F22A8FEFB1
:10235000C81AD80AE3E0CE16D10459F701C0F12C0F
:102360008F2D0F90DF91CF911F910F91FF90DF90F4
:10237000CF9008951F920F920FB60F9211240BB6B3
:102380000F922F933F934F935F936F937F938F930E
:102390009F93AF93BF93EF93FF938091771D81300D
:1023A00071F08091000281110AC00E94C8189FB785
:1023B000F894809100028360809300029FBFFF9198
:1023C000EF91BF91AF919F918F917F916F915F91AD
:1023D0004F913F912F910F900BBE0F900FBE0F901A
:1023E0001F9018952F923F924F925F926F927F921B
:1023F0008F929F92AF92BF92CF92DF92EF92FF9215
:102400000F931F93CF93DF93CDB7DEB767970FB6C8
:10241000F894DEBF0FBECDBF582E8091761D81117E
:10242000A1C129E7A22E2EE1B22E9E01235F3F4FCC
:10243000190100E010E0C12CD12C7601652C712C23
:10244000802F0E94142AD1018D931D01C301002EFB
:1024500002C0959587950A94E2F780FF1AC020E0A4
:1024600030E040EC5FEBF501608171818281938106
:102470000E94B03A688B472E4C01262F372FAC01B3
:10248000C701B6010E94303A18161CF0C888D42C37
:1024900074010F5F1F4FF4E0AF0EB11C0330110544
:1024A00079F68090981E9090991EA0909A1EB090F8
:1024B0009B1E24E0288B01E06AE77DE1CE010196B6
:1024C0000E9484362090931E312CFE0131968AE7BB
:1024D0009DE19F8B8E8B80E090E0412C10E0B70156
:1024E000A60170589301082E02C0359527950A94CD
:1024F000E2F720FF28C04394AE89BF891D921D9248
:102500001D921C9213979101082E02C035952795B4
:102510000A94E2F720FF03C0002319F007C000234C
:1025200029F0C082D182E282F38204C040835183C9
:10253000628373832DE030E02C0F3D1F280F391F7D
:10254000D9012C91122B019634962E893F892C5F4C
:102550003F4F3F8B2E8B8330910521F6642D70E029
:1025600080E090E00E94CD380E943D3B9B01AC0191
:10257000C501B4010E94B03AAB01BC011093931D98
:102580004A8B5B8B6C8B7D8B0E943F1E20E04A89BF
:102590005B896C897D89CE0101960E94461B0E9451
:1025A000252E0E94D82A0023E9F00E948011FE0106
:1025B0003D9620E030E090E06191462F412359F0B4
:1025C000AC01022E02C0559547950A94E2F740FFF0
:1025D00002C0609516232F5F3F4F2330310561F70E
:1025E0001093931D0E94252E809101028473C1F0E7
:1025F00080910102807329F00E94C8180E94F11F87
:10260000B1C00111AAC00E9480118521A9F79FB70E
:10261000F894809101028B7F809301029FBF04C0D8
:10262000812F8C7109F0BFCF0E94B12D0E94EF1A4B
:1026300080919C1E90919D1E0E94A31931E003275A
:10264000C9F020E030E040EA50E460919E1E7091B5
:102650009F1E8091A01E9091A11E0E94B03A6B0116
:102660007C018090941E9090951EA090961EB09034
:10267000971E10C0C0909E1ED0909F1EE090A01E7E
:10268000F090A11E8090981E9090991EA0909A1E86
:10269000B0909B1E88898150888B81110DCF8091CD
:1026A000931EA82FB0E0B98BA88BC0909E1ED0902F
:1026B0009F1EE090A01EF090A11E1601270157FA60
:1026C000509457F8509485E5A82E8EE1B82E9AE7DD
:1026D000892E9DE1992E00E010E0C301002E02C07A
:1026E000959587950A94E2F780FF29C08889998992
:1026F000002E02C0959587950A94E2F7F50180FFB8
:102700000EC024A135A146A157A1C701B6010E9460
:102710005437D5012D913D914D915C9106C020819A
:10272000318142815381C201B1010E94B03A0E94BD
:10273000803AD4016D937D938D939C9313970F5F93
:102740001F4FB4E08B0E911CE4E0AE0EB11C0330C1
:10275000110519F60E943F1E05C08091010282FFFB
:1027600056CF4ACF67960FB6F894DEBF0FBECDBFE7
:10277000DF91CF911F910F91FF90EF90DF90CF905D
:10278000BF90AF909F908F907F906F905F904F9091
:102790003F902F900895BF92CF92DF92EF92FF92D9
:1027A0000F931F93CF93DF938C01C9E7DEE1BB2426
:1027B000B394F801C190D190E190F1908F0120E0A5
:1027C00030E0A901C701B6010E94303A18164CF05A
:1027D000288139814A815B81C701B6010E942D3869
:1027E00087FDB092791D8091791D882361F18091D8
:1027F000771D8830A9F00E94C8189FB7F89480917F
:1028000000028560809300029FBFDF91CF911F91EE
:102810000F91FF90EF90DF90CF90BF900C94F11F3D
:102820009FB7F894809101028860809301029FBF56
:102830000E94F11F8091761D81110BC08091771D40
:102840008111F6CFD8CF2496FEE1C538DF0709F015
:10285000B0CFDF91CF911F910F91FF90EF90DF905C
:10286000CF90BF9008950E9487260E94072A0E9459
:10287000DD2D0E9470348EE1E6E7FDE1DF011D925F
:102880008A95E9F781E08093761D78940E945D2710
:102890000E940D070E94D5050E949E360E94462A7E
:1028A0000E9436060E9469110E94B51F0E94EF1A0D
:1028B0000E94B12D0E943F1E0E941F071092761D9C
:1028C00010920102109200021092781D1092791D50
:1028D0000E941D21DBCFEF92FF921F93CF93DF93D6
:1028E00000D01F92CDB7DEB77C01122F8091921ECF
:1028F00085FF0BC0C70149835A836B837C830E9489
:10290000CB137C816B815A8149818091771D823004
:1029100031F149835A836B837C830E94F11F80913C
:10292000761D81111CC00E943E1B49815A816B811A
:102930007C81882339F00E94142149815A816B815E
:102940007C81E7CF212FC7010F900F900F900F9040
:10295000DF91CF911F91FF90EF900C94461B0F9049
:102960000F900F900F90DF91CF911F91FF90EF90FC
:1029700008952F923F924F925F926F927F928F9223
:102980009F92AF92BF92CF92DF92EF92FF920F93FE
:102990001F93CF93DF93CDB7DEB7E7970FB6F894C9
:1029A000DEBF0FBECDBF9C8B8B8B1B013A0109870D
:1029B0001A872B873C87AF8A2E961FAD2E972F96AE
:1029C0002FAD2F97298B60963FAD60973D8B84E0AC
:1029D000889EA00111245A834983AB89BC89A40F26
:1029E000B51FB98FA88F460D571D5B8F4A8FFA010F
:1029F00080809180A280B3802D913D914D915C911A
:102A0000C501B4010E9454376C8F7D8F8E8F9F8FCC
:102A1000F4E01F9F800111242B893C89200F311F76
:102A200039A328A3A301400F511F5BA34AA3DA01D6
:102A30004D905D906D907C90F901208131814281B3
:102A40005381C301B2010E9454376CA37DA38EA3AE
:102A50009FA3A501940150582D873E874F87588B1F
:102A6000D301C201B0588D839E83AF83B887E981BB
:102A7000FA81E20DF31D2C8D3D8D4E8D5F8D6081B1
:102A80007181828193810E9453372B013C01F101B6
:102A9000E00FF11F2CA13DA14EA15FA160817181CA
:102AA000828193810E9453374B015C01A301920103
:102AB0006D857E858F8598890E94B03A69837A8377
:102AC0008B839C83A50194016D817E818F81988584
:102AD0000E94B03A9B01AC0169817A818B819C8113
:102AE0000E94543769837A838B839C83A501940168
:102AF0006D857E858F8598890E94B03A4B015C0177
:102B0000A30192016D817E818F8198850E94B03AE8
:102B10009B01AC01C501B4010E94533729813A8160
:102B20004B815C810E94C7372B013C019D89992311
:102B300099F02DEB37E346E055EBC301B2010E945B
:102B4000303A87FD1DC02BED3FE049EC50E4C30156
:102B5000B2010E94533712C02DEB37E346E055E334
:102B6000C301B2010E942D38181654F02BED3FE03E
:102B700049EC50E4C301B2010E9454372B013C01DF
:102B800080908E1E90908F1EA090901EB090911EEF
:102B900029853A854B855C85CA01B9010E94543765
:102BA000A50194010E9453379B01AC01C501B401FA
:102BB0000E94B03A0E943D3B4B015C0120E030E0B6
:102BC00040E05FE3C301B2010E94B03A29853A8533
:102BD0004B855C850E94B03A9F77A50194010E94C5
:102BE00034380E940A390E94A1387E8B6D8BDB013C
:102BF000AB2B09F486C14B01A12CB12CBF89BB239F
:102C000061F0C501B4010E94CD389B01AC01C70140
:102C1000B6010E94B03A6B017C01C501B4010E946B
:102C2000CD384B015C019B01AC01C301B2010E9494
:102C3000343869877A878B879C87F989E4E0FE9F1F
:102C4000C00111242B893C89280F391F3A8B298B0D
:102C5000F101E80FF91FD9012D913D914D915C9142
:102C600060817181828193810E945337A501940113
:102C70000E9434386CAB7DAB8EAB9FAB29853A8517
:102C80004B855C85CA01B9010E94B03A9B01AC0139
:102C900060E070E080E090E40E9453374B015C01FB
:102CA0002BEA3AEA4AE25EE369857A858B859C8560
:102CB0000E94B03A2B013C0120E030E040E850E4B3
:102CC000C501B4010E9454379B01AC01C301B2019C
:102CD0000E94B03A68A779A78AA79BA720E030E0B6
:102CE00040E05FE3C501B4010E94B03A6CA77DA744
:102CF0008EA79FA7198201E010E0ED89FE890E17CB
:102D00001F0709F4FEC0B981BC3008F04AC02CA5E9
:102D10003DA54EA55FA56D817E818F8198850E941E
:102D2000B03A4B015C0128A539A54AA55BA56D8584
:102D30007E858F8598890E94B03AA50194010E94F2
:102D40005437B62EA72E982E892E2CA53DA54EA51C
:102D50005FA56D857E858F8598890E94B03A2B018D
:102D60003C0128A539A54AA55BA56D817E818F818F
:102D700098850E94B03A9B01AC01C301B2010E9448
:102D800053376D877E878F87988BE981EF5FE98363
:102D90008B2D9A2DA92DB82D8D839E83AF83B88757
:102DA0006EC0B80180E090E00E94CD3829853A8558
:102DB0004B855C850E94B03A4B015C010E94313822
:102DC0006D837E838F839887C501B4010E94333B56
:102DD0004B015C01EA8DFB8D80819181A281B381E1
:102DE0009C01AD01505829833A834B835C83AAA18F
:102DF000BBA18D919D910D90BC91A02D88AB99ABFD
:102E0000AAABBBAB2D813E814F81588569817A8108
:102E10008B819C810E94B03A2B013C01A501940159
:102E200068A979A98AA99BA90E94B03A9B01AC0123
:102E3000C301B2010E9454376D877E878F87988BBC
:102E4000A501940169817A818B819C810E94B03AAD
:102E50004B015C012D813E814F81588568A979A97C
:102E60008AA99BA90E94B03A9B01AC01C501B4019B
:102E70000E9453376D837E838F83988719822D85B7
:102E80003E854F8558896C8D7D8D8E8D9F8D0E94DE
:102E90005437E88DF98D60837183828393832D810C
:102EA0003E814F8158856CA17DA18EA19FA10E947A
:102EB0005437A8A1B9A16D937D938D939C931397DB
:102EC0002CA93DA94EA95FA9E989FA896081718180
:102ED000828193810E945437A989BA896D937D9329
:102EE0008D939C9313972F89B701A6018B899C8999
:102EF0000E946B148091761D811121C00F5F1F4FBE
:102F0000FCCE2F89B701A601C101E7960FB6F89450
:102F1000DEBF0FBECDBFDF91CF911F910F91FF900C
:102F2000EF90DF90CF90BF90AF909F908F907F9069
:102F30006F905F904F903F902F900C946B14E7969A
:102F40000FB6F894DEBF0FBECDBFDF91CF911F91BA
:102F50000F91FF90EF90DF90CF90BF90AF909F9038
:102F60008F907F906F905F904F903F902F9008953B
:102F70008F929F92AF92BF92CF92DF92EF92FF9289
:102F80004B015C018091771D823009F447C020E03D
:102F900030E040EA51E4C501B4010E94B03A0E9419
:102FA0000A390E94A1386B017C010E94A52120E012
:102FB00030E04AE754E4C501B4010E94B03A4B0145
:102FC0005C0182E38C9DB0018D9D700D112480E029
:102FD00090E00E94CD389B01AC01C501B4010E9474
:102FE00053370E940A390E94A138CB010E94A319CD
:102FF000C114D10499F00E94F11F21E0C21AD10836
:103000008091761D81110AC08FEF90E722E08150F8
:1030100090402040E1F700C00000EACFFF90EF9021
:10302000DF90CF90BF90AF909F908F9008950E94B7
:103030005E1184E00E94F21183E00E94F2110E946E
:10304000F11F8091761D811104C00E941F070C940E
:1030500069110895CF92DF92EF920F93CF93DF9390
:1030600000D01F921F92CDB7DEB76C018091771D03
:10307000823009F481C02D8349835A836B837C831A
:103080000E94A5211092921D802F0E94C01F0E94B5
:10309000D11F2D8149815A816B817C818823A1F0C8
:1030A0009FB7F894809100028061809300029FBFD7
:1030B0002D8349835A836B837C830E94F11F7C811B
:1030C0006B815A8149812D818091761D811154C077
:1030D000C6010E946B1481E0809302029FB7F894AE
:1030E000809101028260809301029FBF0E94F11FC4
:1030F0008091761D811140C08091771D8111F6CF9E
:10310000809102028130A9F4EE2051F08CE0EAE7D0
:10311000FDE1A6E8BDE101900D928A95E1F70CC0B2
:103120009FB7F894809100028061809300029FBF56
:1031300003C081E08093921D109202020E94F11F51
:103140008091761D811118C00E94B12D0E94EF1A46
:103150000E943F1E6AE77DE1C6010E9484360F90FF
:103160000F900F900F900F90DF91CF910F91EF90F4
:10317000DF90CF900C94D7230F900F900F900F906B
:103180000F90DF91CF910F91EF90DF90CF90089546
:103190008091010284FD24C09FB7F89480910102C0
:1031A0008061809301029FBF0E94322A8091771D27
:1031B000982F9C7021F49091781D913089F49FB7DD
:1031C000843029F4F89480910002806204C0F8945D
:1031D000809100028860809300029FBF0C94FE2AB9
:1031E00008956F927F928F929F92AF92BF92CF92EB
:1031F000DF92EF92FF920F931F93CF93DF937C01A7
:103200008B016A01FB018081F701E80FF11D20812C
:10321000EF012D3229F4229621816624639407C0A0
:103220002B3211F0219602C022962181612CA12C13
:10323000B12C712C60E070E0CB01FE0130ED932EDB
:10324000920E29E02915C8F0B39428E02B1588F0D8
:10325000A1107A94A5E0B0E09B01AC010E94E53B8F
:10326000660F771F881F991F690D711D811D911DA4
:103270000BC0A11009C0739407C02EEF921207C0B3
:10328000A11005C0AA24A39421962081D6CFBB20EB
:1032900009F449C00E94CD384B015C0120E030E0C8
:1032A000A9010E942D38882361F18FEF78166CF404
:1032B0002AE037ED43E25CE3C501B4010E94B03A75
:1032C0004B015C0173947394F0CF78120BC02DEC1A
:1032D0003CEC4CEC5DE3C501B4010E94B03A4B01FB
:1032E0005C010FC0772069F020E030E040E251E45B
:1032F000C501B4010E94B03A4B015C017A941714E5
:103300009CF3662021F0B7FAB094B7F8B094F601B8
:1033100080829182A282B382CE19DF09C150F80166
:10332000C08381E001C080E0DF91CF911F910F91B8
:10333000FF90EF90DF90CF90BF90AF909F908F90D5
:103340007F906F900895009741F0EFE9FFE031978B
:10335000F1F700C000000197F6CF08958F929F9279
:10336000AF92BF92CF92DF92EF92FF9269017A0102
:103370009B01AC010E94B03A4B015C01A701960190
:10338000C701B6010E94B03A9B01AC01C501B4016E
:103390000E945437FF90EF90DF90CF90BF90AF9096
:1033A0009F908F900C943D3B4F925F926F927F92D3
:1033B0008F929F92AF92BF92CF92DF92EF92FF9245
:1033C0000F931F93CF93DF9310912302111101C02C
:1033D00016E9115000912102101709F4EFC089E29B
:1033E000189FE0011124CB5DDD4F8D889E88AF884A
:1033F000B88C69A17AA18BA19CA19B01AC010E9410
:1034000054372DA13EA14FA158A50E94B03A6B019F
:103410007C019B01AC01B401C5010E942D3887FFDE
:1034200002C064017501A601B701498B5A8B6B8BF1
:103430007C8B111101C016E977247A94710E7016F5
:1034400019F029E2622E27C080912402081351C08E
:103450000E94032E4EC0679C800111240B5D1D4FFE
:10346000711002C096E9792E7A9480912402781224
:1034700002C00E94032EF801C588D688E788F08C28
:10348000A701960161897289838994890E942D38E8
:10349000811106C0E801809121027812DCCF29C099
:1034A000F80161A172A183A194A19B01AC010E94CA
:1034B0005437F80125A136A147A150A50E94B03A82
:1034C00029893A894B895C890E9454374B015C01F8
:1034D000A70196010E942D38F80187FF05C0818A57
:1034E000928AA38AB48AD6CFC18AD28AE38AF48A1E
:1034F000D1CF60902102F9E26F9E800111240B5D13
:103500001D4F77247394760C86E9781201C0712CD4
:103510005090230289E2482E751409F44DC0479C4F
:10352000E0011124CB5DDD4FF80181889288A388EA
:10353000B488C988DA88EB88FC88A7019601C501A0
:10354000B4010E942D3887FF23C0F80161A172A148
:1035500083A194A19B01AC010E945437F80125A1DD
:1035600036A147A150A50E94B03A9B01AC01C5010C
:10357000B4010E9454374B015C01A70196010E94DF
:103580002D3887FF05C0898A9A8AAB8ABC8A672C46
:103590002D893E894F89588D69897A898B899C89C3
:1035A0000E942D38811101C0672C7394F6E97F12B7
:1035B00001C0712C8E01B0CF60922102DF91CF91BA
:1035C0001F910F91FF90EF90DF90CF90BF90AF9041
:1035D0009F908F907F906F905F904F9008958CE1B7
:1035E000E5E0F2E0DF011D928A95E9F710922402EE
:1035F0001092230281E0809322021092210208950A
:103600009091240280912302891769F081E0890F4B
:10361000863909F480E020912102921302C0809340
:103620002102809324020895809124029091230224
:10363000981739F029E2829FC00111248B5D9D4FBC
:10364000089580E090E00895E0912402EF5FE6396C
:1036500009F4E0E080912302E81761F089E2E89F35
:10366000F0011124EB5DFD4F618972898389948992
:103670000C943D3B60E070E0CB01089581E0209127
:10368000240290912202291380E008952F923F9204
:103690004F925F926F927F928F929F92AF92BF9262
:1036A000CF92DF92EF92FF920F931F93CF93DF930E
:1036B000CDB7DEB7AD970FB6F894DEBF0FBECDBF66
:1036C000142F052F6B8F7C8F822E2091230239E2DD
:1036D000239F10011124F101EB5DFD4F1F011586A1
:1036E00016861786108A15A216A217A210A6108297
:1036F00049E956E766E97EE741A352A363A374A3B1
:103700005C0145E5E42E4EE1F42E9E01235F3F4F20
:1037100038A32F8F85E092E09E8F8D8F6F01FE0181
:103720003196FAA3E9A3912CF501619171918191F0
:1037300091915F01F70120813181428153810E9483
:10374000B03A0E94803AEF8DF8A161937193819312
:103750009193F8A3EF8FED8DFE8D41905190619084
:103760007190FE8FED8F64197509860997092B01F9
:103770003C0197FF07C0442455243201461A570ADA
:10378000680A790AF6014182528263827482F101E9
:103790002585368547855089421653066406750689
:1037A00010F429013A01F101458656866786708A30
:1037B0000E94CF38F70120813181428153810E94DC
:1037C00034382B013C01E9A1FAA1619371938193F3
:1037D0009193FAA3E9A320E030E0A9010E942D38DB
:1037E00087FF0AC0F1019081892D9DA70E941E2AA2
:1037F0009DA5892BF1018083A3019201C301B20130
:103800000E94B03AF10125A136A147A150A50E941E
:103810005437F10165A376A387A390A79394F4E0AE
:10382000EF0EF11C24E0C20ED11C33E093127CCFCA
:103830000E943D3B6B017C01F10165A376A387A348
:1038400090A785859685A785B089892B8A2B8B2B98
:1038500009F4FCC120E030E0A901612F702F8B8DAD
:103860009C8D0E942D3887FD21C0882061F0A70122
:103870009601612F702F8B8D9C8D0E94B03A162F70
:10388000072F8B8F9C8F20E030E040E85FE3612FB3
:10389000702F8B8D9C8D0E942D3887FF0DC010E0FE
:1038A00000E030E83B8F8FE38C8F06C019E906E714
:1038B000F6E9FB8F2EE72C8FA701960160E070E000
:1038C00080E89FE30E94343869A77AA78BA79CA75A
:1038D000E1E1F2E0FAA3E9A321E63EE138A32F8F6C
:1038E000CE010D969A8F898FFE013196FE8FED8F56
:1038F000C12CD12C7601ED8DFE8D80809180A2802F
:10390000B38020E030E0A901C501B4010E942D3848
:10391000882309F47FC029A53AA54BA55CA5C5015C
:10392000B4010E94B03A4B015C01ED8DFE8D6083C5
:103930007183828393839B01AC0160E070E080E837
:103940009FE30E9434382B013C01E89477F8EF8D17
:10395000F8A12081318142815381C301B2010E94CB
:10396000B03A6BA37CA38DA39EA39B01AC01612FF6
:10397000702F8B8D9C8D0E942D3887FF06C01BA356
:103980000CA3FB8DFDA32C8D2EA3F101F1A1FB8FC8
:10399000F101F2A1FC8FF101F3A1FFA3F101F4A168
:1039A000F8A7EF8DF8A12485358546855785C30195
:1039B000B2010E94B03A3B018C019B01AC016B8DBE
:1039C0007C8D8FA198A50E942D3887FF04C06B8C39
:1039D0007C8C0FA118A5C301D801F10181A392A38A
:1039E000A3A3B4A3E9A1FAA120813181428153812B
:1039F000C501B4010E94B03A9B01AC01C701B601F8
:103A00000E9453376B017C011BA10CA1FDA1FB8F10
:103A10002EA12C8F8D8D9E8D04969E8F8D8FE9A16A
:103A2000FAA13496FAA3E9A32F8D38A12C5F3F4F5A
:103A300038A32F8FE98DFA8D8E179F0709F05BCF82
:103A40009091230280912402981306C0F101118AFB
:103A5000128A138A148A0BC02FEE3FEF4FE75FE301
:103A6000C701B6010E94303A181634F4F101118EE4
:103A7000128E138E148E5BC02FEE3FEF4FE75FEB7D
:103A8000C701B6010E94303A181644F03FEEC32E2B
:103A9000DD24DA943FE7E32E3FEBF32EA7019601F6
:103AA00060E070E080E89FE30E94533720E030E060
:103AB00040E05FE30E94B03A0E943D3B6B017C0115
:103AC00020918A1E30918B1E40918C1E50918D1E2C
:103AD000F10161A172A183A194A10E94B03AA70152
:103AE00096010E94B03A4B015C01A701960160E08B
:103AF00070E080E89FE30E9453379B01AC01C50151
:103B0000B4010E9434386B017C0120E030E0A9014F
:103B10000E942D3887FF04C0C12CD12CE12CF12C40
:103B2000A601B701F101418F528F638F748F212F4E
:103B3000302F4B8D5C8D612F702F8B8D9C8D0E9453
:103B4000B03A162F072FF82EE92E862F902FAF2D83
:103B5000BE2DF101858F968FA78FB0A3A18CB28C5B
:103B6000C38CD48C60901D0270901E0280901F0246
:103B7000909020029301A401612F702F8F2D9E2D14
:103B80000E942D3887FD0BC09301A401B501C60129
:103B90000E942D3887FD11C0530164010EC0212FF2
:103BA000302F4F2D5E2DB501C6010E942D3887FDA7
:103BB00004C0A12EB02ECF2CDE2CC501D601F10100
:103BC000858B968BA78BB08F8CE0FE013196A1E19F
:103BD000B2E001900D928A95E1F7812F902FAF2DE1
:103BE000BE2D80931D0290931E02A0931F02B093DE
:103BF00020028CE0FE013D96A5E0B2E001900D921E
:103C00008A95E1F780912202809323028F5F8639A3
:103C100009F480E080932202AD960FB6F894DEBFDF
:103C20000FBECDBFDF91CF911F910F91FF90EF900D
:103C3000DF90CF90BF90AF909F908F907F906F90CC
:103C40005F904F903F902F900C94D419AD960FB683
:103C5000F894DEBF0FBECDBFDF91CF911F910F91C2
:103C6000FF90EF90DF90CF90BF90AF909F908F909C
:103C70007F906F905F904F903F902F90089580912C
:103C80007A1D90917B1DA0917C1DB0917D1D80932C
:103C9000050290930602A0930702B0930802809158
:103CA0007E1D90917F1DA091801DB091811D8093FC
:103CB000090290930A02A0930B02B0930C02809128
:103CC000821D9091831DA091841DB091851D8093CC
:103CD0000D0290930E02A0930F02B093100208956C
:103CE0008091230290912402891708F48A56891B37
:103CF00008950E94032E80912402809321020C9447
:103D0000D419CF93DF93EC018991882319F00E9495
:103D10009D26FACFDF91CF910895CF93DF93FC01D9
:103D20008491EF012196882321F00E949D26FE01B7
:103D3000F7CFDF91CF910895EF92FF920F931F93EA
:103D4000CF93DF931F92CDB7DEB7262FEDB6FEB629
:103D50006DB77EB7641B71090FB6F8947EBF0FBEB6
:103D60006DBF0DB71EB70F5F1F4F302FF8019E2F8D
:103D7000931B941728F4622F0E949D3B9193F7CFD9
:103D8000442361F0F801E40FF11D31978081805DDB
:103D900049830E949D2649814150F2CF0FB6F89485
:103DA000FEBE0FBEEDBE0F90DF91CF911F910F9120
:103DB000FF90EF90089548E062E00C949C1E8A30DA
:103DC00020F0843620F442E003C041E001C043E02B
:103DD0006AE00C949C1E8F929F92AF92BF92CF92FA
:103DE000DF92EF92FF920F931F93CF93DF93CDB7A4
:103DF000DEB72A970FB6F894DEBF0FBECDBF6B01BA
:103E00007C01142F20E030E0A9010E942D3887FFAB
:103E100007C08DE20E949D26F7FAF094F7F8F0941F
:103E2000012F023060F020E030E048EC52E4C7019E
:103E3000B6010E94B03A6B017C010250F2CF10FF34
:103E40000AC020E030E040E251E4C701B6010E9420
:103E5000B03A6B017C0120E030E040E05FE3C70155
:103E6000B6010E9454370E949C38E1E0F0E0EC0F6C
:103E7000FD1FE10FF11D2EE22083D12C5AE0852E8B
:103E8000912CA12CB12C6115710581059105A9F02A
:103E9000D11201C0D394EE24E394F12CEC0EFD1E5C
:103EA000ED0CF11CA50194010E94BD3B605DF70182
:103EB0006083B901CA01D394E6CF80E3D11648F4F8
:103EC000E1E0F0E0EC0FFD1FED0DF11D8083D394D8
:103ED000F5CF8D2DD1120BC0D394D3948F5FE1E039
:103EE000F0E0EC0FFD1FE80FF11D80E38083DD2083
:103EF00041F0FE01ED0DF11D80810E949D26DA94B6
:103F0000F6CF2A960FB6F894DEBF0FBECDBFDF9175
:103F1000CF911F910F91FF90EF90DF90CF90BF90C6
:103F2000AF909F908F9008952091921E20FF08C01F
:103F30002BE832E441E25DE30E94B03A44E001C084
:103F400043E00C94EB1E2091921E20FF08C02BE84A
:103F500032E441E25DE30E94B03A41E001C040E05A
:103F60000C94EB1E43E00C94EB1EE7E0F1E0808143
:103F70008F778083E8E0F1E0808180688083089516
:103F80001092941D9091921E97FD03C090E890931B
:103F9000941D882329F08091941D80588093941D4E
:103FA00008958091060180789091941D8927089545
:103FB000809102028130A1F40E94D11F882381F0F8
:103FC000109202028CE0EAE7FDE1A6E8BDE1019073
:103FD0000D928A95E1F7809101028064809301023D
:103FE0000895EF92FF920F931F93CF93DF93D1E049
:103FF00008E080E2F82E10E190E4E92EC091000282
:10400000CC2399F1D093771DC1FF02C081E00FC08E
:10401000C2FF02C082E00BC0C3FF02C083E007C042
:10402000C4FF02C084E003C0C5FF03C085E00E9456
:1040300007220E94322AC0FD08C08FB7F8949091E1
:104040000002109200028FBF10C081E00E94372250
:104050009FB7F894809101028F7E809301029FBFE9
:104060008091010284FFFCCFE8CFC0910102CC23F4
:1040700009F4BBC0C4FF04C081E08093761DCDC0AD
:10408000C0FF0AC00E9472259FB7F8948091010278
:104090008E7F809301029FBF8C2F887609F43EC0EB
:1040A0008091771D882349F0982F9C7779F188308B
:1040B00021F40E94032ED093781D8091771D8111E9
:1040C00003C092E09093781DC6FF09C0883011F4B8
:1040D000E092771D8091781D88608093781DC3FFE2
:1040E00005C08091771D85FF1093771DC5FF0EC019
:1040F0000E94322A86E00E9437228091781D81FD3D
:10410000C46084608093781DF092771D9FB7F89407
:10411000809101028779809301029FBFC1FF44C053
:104120008C2F8876C9F58091771D882331F08075B2
:1041300099F18091781D81FF2FC08091781D82FFB9
:1041400018C08091051D882351F04091071D5091A2
:10415000081D6091091D70910A1D0E94532A8091CB
:10416000041D882331F00E943D0688EE93E00E94F2
:10417000A3190E94141B892B59F08091781D83FD8F
:1041800007C00093771D0E94252E0E94D82A02C0E6
:104190001092771D1092781D9FB7F89480910102BC
:1041A0008D7F809301029FBFC2FF1FC08091771D4A
:1041B000807379F08091791D81110BC08091781DF9
:1041C00082FD0E94322A8091781D82608093781D42
:1041D00004C01092781D1092771D9FB7F8948091BB
:1041E00001028B7F809301029FBF8091771D8C77A6
:1041F00011F00E94252E8091771D803251F480911C
:10420000781D81FF06C00E94C234811102C0109344
:10421000771D8091781D8111F1CEDF91CF911F9193
:104220000F91FF90EF9008959FB7F894809101024D
:104230008260809301029FBF08951F93CF93DF9305
:104240000E9466228091771D813021F482E00E94D5
:10425000372212C00E94C234882341F080910102AB
:104260008062809301020E94F11F02C01092771DAC
:104270008BE29AE10E94C4340E94F805C0E0D0E0CD
:104280000E94E726182F8F3F09F452C00E94F805BC
:104290001A3011F01D3029F5EC2FF0E0E55DF54EF8
:1042A00010820E94F11F8091761D8111E7CF8091CD
:1042B0002B1A811103C00E94B621E0CF84528230B4
:1042C00028F48BE29AE10E94E334F5CF8091771DC8
:1042D000813011F489E0EFCF8BE29AE10E9425074B
:1042E000EACFDD2329F0193259F6D130F9F4C7CFDE
:1042F000113230F21F3221F21832B1F01B33B1F01B
:10430000CF3428F08BE00E94B621C0E0B9CF2C2F2B
:1043100030E0CF5F8FE9810FF901E55DF54E8A311D
:1043200008F410521083ACCFD1E0AACFD2E0A8CFCE
:104330000E9414210E94F11F8091761D882309F4A8
:104340009FCFDF91CF911F9108950E9414210E9469
:10435000F11F8091761D811108C00E94141B892BCA
:10436000B1F78091771D883091F30895CF93C82FCE
:10437000811103C088E79BE047C080E79BE00E9473
:104380008D1E4C2F50E0FA013197E632F10598F579
:10439000E956FF4F0C94DF3B88E59BE002C086E4C2
:1043A0009BE00E948D1E2EC084E39BE0FACF8AE240
:1043B0009BE0F7CF89E19BE0F4CF8AE09BE0F1CF6F
:1043C00089EE9AE0EECF80EE9AE0EBCF85ED9AE0B1
:1043D000E8CF82EC9AE0E5CF84EB9AE0E2CF8EE979
:1043E0009AE0DFCF8AE89AE0DCCF86E79AE0D9CF7F
:1043F00082E69AE0D6CF80E59AE00E948D1E8C2F4F
:104400000E94DF1E8DE49AE0CF910C948D1ECF9315
:10441000C82F85E49AE00E948D1E8C2F90E0FC014D
:104420003197E730F105D0F4E354FF4F0C94DF3BB4
:104430008AE39AE011C08FE29AE00EC08CE19AE024
:104440000BC081E19AE008C085E09AE005C089EFE1
:1044500099E002C085EE99E00E948D1E82EE99E0FF
:104460000E948D1E84EF91E0CF910C94A319CF93FD
:10447000C82F80EE99E00E948D1E8C2F90E0FC01E9
:104480003197E830F105E8F4EC53FF4F0C94DF3B33
:104490008EEC99E014C08AEB99E011C088EA99E0AB
:1044A0000EC080EA99E00BC087E999E008C08CE86B
:1044B00099E005C084E899E002C081E799E00E9494
:1044C0008D1E8DE699E0CF910C948D1E80E599E0CC
:1044D0000C948D1E8CE897E00C948D1EFF920F9328
:1044E0001F93CF93DF9388E897E00E948D1E809101
:1044F000851E0E94DF1E8FE697E00E948D1E809130
:10450000881E0E94DF1E81E597E00E948D1E80912B
:10451000861E0E94DF1E88E397E00E948D1E809118
:10452000861E0E94DB1E81E397E00E948D1E809113
:10453000871E0E94DF1E89E197E00E948D1E8091F8
:10454000871E0E94DB1E82E197E00E948D1E8091F3
:10455000921E82FB882780F90E94DF1E81EF96E081
:104560000E948D1E8091921E86FB882780F90E94F2
:10457000DF1E81ED96E00E948D1E8091921E881FA5
:104580008827881F0E94DF1E81EB96E00E948D1E07
:104590008091891E0E94DF1E8BE996E00E948D1E8D
:1045A0008091891E0E94DB1E83E996E00E948D1E89
:1045B00060918A1E70918B1E80918C1E90918D1E31
:1045C0000E94B21F83E796E00E948D1E60918E1EAE
:1045D00070918F1E8091901E9091911E0E94B21F2B
:1045E00088E596E00E948D1E8091921E81700E9447
:1045F000DF1E8BE396E00E948D1E8091921E85FB4C
:10460000882780F90E94DF1E80E296E00E948D1EBE
:104610008091921E83FB882780F90E94DF1E85E02F
:1046200096E00E948D1E8091921E829581700E945C
:10463000DF1E89EE95E00E948D1E8091931E0E94E0
:10464000DF1E8FEC95E00E948D1E8091931E0E94CC
:10465000DB1E87EC95E00E948D1E6091941E709188
:10466000951E8091961E9091971E0E94B21F8AEA15
:1046700095E00E948D1E6091981E7091991E809108
:104680009A1E90919B1E0E94B21F8DE895E00E9499
:104690008D1E80919C1E0E94DF1E8EE695E00E947A
:1046A0008D1E60919E1E70919F1E8091A01E909104
:1046B000A11E0E94B21F81E595E00E948D1E80918F
:1046C00004020E94DF1E88E295E00E948D1E84E6AF
:1046D000F82E10E0C5E5DEE100E086E295E00E94FC
:1046E0008D1E802F8F0D0E94DF1E84E295E00E94B8
:1046F0008D1E123071F01330B9F0113029F068813D
:1047000079818A819B8117C06C857D858E859F8587
:1047100012C020E030E041E655E4688D798D8A8D45
:104720009B8D0E94343807C08CA19DA1AEA1BFA172
:10473000BC01CD0190580E94B21F81E295E00E9419
:104740008D1E013029F0023031F08FE195E005C077
:104750008DE195E002C08BE195E00E948D1E123044
:1047600051F0133059F0113019F081E195E008C093
:104770008FEF94E005C08EEE94E002C08EED94E0E1
:104780000E948D1E8AED94E00E948D1E0F5F24967C
:10479000033009F0A2CF8AE0F80E1F5F8CE8F81210
:1047A00099CFDF91CF911F910F91FF900895CF93F3
:1047B00084ED94E00E948D1EC0E06C2F86E89DE1A0
:1047C0000E946A360E94941FC23021F082ED94E06C
:1047D0000E948D1ECF5FC33081F780ED94E00E9470
:1047E0008D1E8091921D0E94DF1E8CEC94E0CF9173
:1047F0000C948D1EEF92FF920F931F93CF93DF9334
:10480000CDB7DEB72C970FB6F894DEBF0FBECDBF85
:10481000F12CBE016F5F7F4F8F2D0E94C528811143
:1048200004C087E00E94B62169C089EC94E00E9430
:104830008D1E86E0F81631F0E7E0FE1208C083EC2A
:1048400094E002C086EC94E00E948D1E04C086E3D2
:104850008F0D0E94DF1E81EC94E00E948D1E8E0160
:104860000F5F1F4FE12CF80161917191819191913E
:104870008F010E94941FF2E0EF1619F08FEB94E085
:1048800002C08BEB94E00E948D1EE39483E0E8125B
:10489000EACFF394E8E0FE12BCCF85EB94E00E94EF
:1048A0008D1E0CE21DE1F12CF80161917191819155
:1048B00091918F010E94941FF2E0FF1619F083EB93
:1048C00094E002C08FEA94E00E948D1EF39483E08E
:1048D000F812EACF89EA94E00E948D1E6091381D9B
:1048E0007091391D80913A1D90913B1D0E94941F3B
:1048F00085EA94E00E948D1E0E94D7232C960FB665
:10490000F894DEBF0FBECDBFDF91CF911F910F9105
:10491000FF90EF90089583EA94E00E948D1E8091AD
:10492000FC1C823091F038F4882361F08130A9F4C6
:104930008DE994E00CC0833069F0883071F483E92C
:1049400094E005C080EA94E002C08AE994E00E9405
:104950008D1E0CC087E994E0FACF8EE894E00E94A7
:104960008D1E8091FC1C82500E94DF1E8BE894E01B
:104970000E948D1E8091021D8A5C0E94DF1E809124
:10498000001D813049F028F0823051F48CE794E02A
:1049900005C086E894E002C081E894E00E948D1E84
:1049A0008091FE1C811103C087E794E002C082E77A
:1049B00094E00E948D1E8091FF1C811103C08DE642
:1049C00094E002C088E694E00E948D1E8091FD1C58
:1049D000813019F483E694E002C08EE594E00E94F1
:1049E0008D1E8091031D813049F028F0823051F4F2
:1049F00082E594E005C08AE594E002C086E594E093
:104A00000E948D1E8091051D813031F040F0823072
:104A100051F48AE494E005C08EE494E002C086E498
:104A200094E00E948D1E8091041D882329F082301D
:104A300039F48EE394E002C082E494E00E948D1E7B
:104A40008BE394E00E948D1E80910F1D0E94DF1E5B
:104A500088E394E00E948D1E60910B1D70910C1DE7
:104A600080910D1D90910E1D0E94A31F85E394E07F
:104A70000E948D1E6091071D7091081D8091091D77
:104A800090910A1D0E94A31F81E394E00C948D1E57
:104A90001F93CF93DF93182FEB018EE294E00E94D7
:104AA0008D1E812F0E94DF1E8CE294E00E948D1EDD
:104AB000CE010E94811E89E294E0DF91CF911F9187
:104AC0000C948D1ECF93DF93EC0189E194E00E945A
:104AD0008D1ECE010E94811E85E194E0DF91CF9171
:104AE0000C948D1EBF92CF92DF92EF92FF920F93A4
:104AF0001F93CF93DF93CDB7DEB768970FB6F894C7
:104B0000DEBF0FBECDBF8CE0EAE7FDE1DE011D9602
:104B100001900D928A95E1F78091771D8430E9F03C
:104B200040F48130E9F080F0823009F580EF93E0C5
:104B30001CC0803179F018F4883049F018C08032F8
:104B400091F0803421F013C08FE094E00EC08AE031
:104B500094E00BC084E094E008C08EEF93E005C0C1
:104B600087EF93E002C08AEE93E00E948D1E809151
:104B7000891E837039F0BE01635F7F4FCE010196BD
:104B80000E9484368091891E80FD05C08091891E17
:104B900081FF6DC01FC083EE93E00E948D1E69816E
:104BA0007A818B819C810E94941F81EE93E00E9408
:104BB0008D1E6D817E818F8198850E94941F81EE6C
:104BC00093E00E948D1E69857A858B859C850E9465
:104BD000941FDCCF8AED93E00E948D1E90E2E92EB7
:104BE0009DE1F92E8E010F5F1F4FB12C6801F70177
:104BF00061917191819191917F01208531854285EB
:104C000053850E9454379B01AC01F801608171818A
:104C1000828193810E945337F8016083718382837C
:104C20009383F2E0BF120FC02091381D3091391DDF
:104C300040913A1D50913B1D0E945337F80160830B
:104C40007183828393830C5F1F4FF60160817181B2
:104C5000828193810E94941FF2E0BF1621F088EDBB
:104C600093E00E948D1EB39423E0B212BFCF8091D7
:104C7000891E82FF08C082ED93E00E948D1E0E9473
:104C8000701E0E94DF1E8091891E83FF08C08DEC7C
:104C900093E00E948D1E0E947E260E94DF1E80915E
:104CA000891E85FF09C086EC93E00E948D1E0E943C
:104CB000B73641E00E94EB1E8091891E84FF0AC036
:104CC00080EC93E00E948D1E0E94801143E062E020
:104CD0000E949C1E8CEB93E00E948D1E68960FB67E
:104CE000F894DEBF0FBECDBFDF91CF911F910F9122
:104CF000FF90EF90DF90CF90BF90089590917D1A34
:104D000080917E1A891708F48058891B0895E0EC79
:104D1000F0E08081826080831092C50080E1809302
:104D2000C400E1ECF0E08081806180838081886054
:104D300080838081806880830895E0917C1A91E06F
:104D40009E0F903409F490E020917B1A921305C0D5
:104D50002091010224FFF8CF0895F0E0EB56F24EC7
:104D6000808390937C1A8091C10080628093C100FF
:104D700008951F920F920FB60F9211240BB60F9247
:104D80008F939F93EF93FF9380917B1AE82FF0E02E
:104D9000EB56F24E90819093C6008F5F803409F4F9
:104DA00080E080937B1A90917C1A891305C08091D2
:104DB000C1008F7D8093C100FF91EF919F918F91F2
:104DC0000F900BBE0F900FBE0F901F9018959091F3
:104DD0007D1A80917E1A891761F0E92FF0E0EB527D
:104DE000F24E80819F5F903809F490E090937D1A95
:104DF00008958FEF08951F920F920FB60F9211240E
:104E00000BB60F922F933F934F935F936F937F93C4
:104E10008F939F93AF93BF93EF93FF938091C600BF
:104E20008F33A9F050F4883109F1813211F59FB721
:104E3000F89480910102886015C0803471F08E373B
:104E4000C1F49FB7F8948091010282600BC09FB7B4
:104E5000F89480910102816005C09FB7F894809119
:104E600001028062809301029FBF14C00E94C81893
:104E700011C0E0917E1A91E09E0F903809F490E005
:104E800020917D1A921731F0F0E0EB52F24E8083C0
:104E900090937E1AFF91EF91BF91AF919F918F9167
:104EA0007F916F915F914F913F912F910F900BBE2A
:104EB0000F900FBE0F901F90189580917E1A8093CF
:104EC0007D1A089521E5829FC001112440E550E03C
:104ED0009D5F0C948A0640E550E0BC018EEA93E0A9
:104EE0000C948A062DE0829FC00111244CE050E012
:104EF0009E5F0C948A0669E080E090E00E9468065C
:104F00004DE450E065E57EE181E090E00C948A0696
:104F1000EF92FF920F931F93CF93DF93CDB7DEB73E
:104F20002C970FB6F894DEBF0FBECDBF182F80FFB1
:104F3000C8C08AE08093851E8FEF8093881E1092F0
:104F4000861E1092871E83E28093891E8AE097ED69
:104F5000A3E2BCE380938A1E90938B1EA0938C1EC9
:104F6000B0938D1E8FE692E1A3E0BBE380938E1E8B
:104F700090938F1EA093901EB093911E1092931E3B
:104F800080E090E0A8E4B3E48093941E9093951E93
:104F9000A093961EB093971E80E090E0AAE7B5E438
:104FA0008093981E9093991EA0939A1EB0939B1E77
:104FB0008AEF90E090939D1E80939C1E80E090E08D
:104FC000A0E8BFE380939E1E90939F1EA093A01E17
:104FD000B093A11E81E0809304021092921E81E79B
:104FE0009DEBA6E0B3E48093551E9093561EA093CC
:104FF000571EB093581E8093591E90935A1EA0932B
:105000005B1EB0935C1E80935D1E90935E1EA0930A
:105010005F1EB093601E40E050E066E174E4409390
:10502000611E5093621E6093631E7093641E4093D2
:10503000651E5093661E6093671E7093681E4093B2
:10504000691E50936A1E60936B1E70936C1E40E045
:1050500050E86BEB75E440936D1E50936E1E6093A9
:105060006F1E7093701E4093711E5093721E60935A
:10507000731E7093741E4093751E5093761E60933A
:10508000771E7093781E40E050E068E473EC409324
:10509000791E50937A1E60937B1E70937C1E409302
:1050A0007D1E50937E1E60937F1E7093801E4093E2
:1050B000811E5093821E6093831E7093841E0E94F3
:1050C0007B2711FF10C0CE0101967C018CE0F70117
:1050D00011928A95E9F700E0B701802F0E947227AC
:1050E0000F5F0830C9F712FF0AC060E080E093E06C
:1050F0000E94680660E081E593E00E94680613FF65
:1051000005C060E08EEA93E00E9468062C960FB618
:10511000F894DEBF0FBECDBFDF91CF911F910F91ED
:10512000FF90EF9008951F93CF93DF93182FEB011B
:1051300081E5189FB00111247D5F40E550E0CE016C
:105140000E94C806892B39F41882BE01812F0E9463
:10515000622780E001C081E0DF91CF911F91089527
:10516000CF93DF93EC0140E550E06EEA73E00E94DC
:10517000C806892B31F41882CE010E946B2780E08B
:1051800001C081E0DF91CF9108951F93CF93DF930A
:10519000182FEB018DE0189FB00111247E5F4CE0C9
:1051A00050E0CE010E94C806892B59F48CE0FE0124
:1051B00011928A95E9F7BE01812F0E94722780E043
:1051C00001C081E0DF91CF911F91089580E090E0D0
:1051D0000E946006893011F080E008954DE450E0AF
:1051E00061E070E085E59EE10E94C806892BA1F38D
:1051F00081E0809304020895CF92DF92EF92FF92B4
:105200001F93CF93DF93C82F6A017B01122F20E0F9
:1052100030E0A901C701B6010E942D3887FDE4C026
:10522000C436F0F1C45680E0C33088F5D0E0CC0F2E
:10523000DD1FCC0FDD1F823051F08330E9F081306B
:1052400019F0CB5AD14E1EC0CF59D14E1BC0C359F5
:10525000D14E20E030E040E752E4C701B6010E94A1
:10526000B03A20E030E040E752E40E94B03A688370
:1052700079838A839B83B3C0C758D14EF7FAF094E1
:10528000F7F8F094C882D982EA82FB82A8C08F5FC7
:10529000CA3008F4ABC0843009F4A8C0CA50C4CFE7
:1052A000C701B6010E947E3B0E94A1388C2F90E07E
:1052B0008D31910508F09AC0FC01E453FF4F0C9426
:1052C000DF3B633008F494C06093851E88C0609310
:1052D000881E85C06093861E02C06093871E0E9450
:1052E000752D7DC08091921E662311F0846007C0E9
:1052F0008B7F05C08091921E662321F0806480938D
:10530000921E6DC08F7BFBCF8091921E662311F0A1
:105310008068F5CF8F77F3CF6093891E60C0C0920D
:105320008A1ED0928B1EE0928C1EF0928D1E57C06A
:10533000C0928E1ED0928F1EE092901EF092911E0F
:105340004EC08091921E662311F08160D8CF8E7F6F
:10535000D6CF8091921E662321F084FF4BC08062DD
:10536000CECF8F7DCCCF8091921E662311F08860C6
:1053700001C0877F8093921E0E94691130C0809186
:10538000921E662311F08061BACF8F7CB8CF6093F4
:10539000931E25C0C092941ED092951EE092961E38
:1053A000F092971E1CC0C092981ED092991EE09257
:1053B0009A1EF0929B1E13C070E070939D1E609326
:1053C0009C1E0DC0C0929E1ED0929F1EE092A01EF9
:1053D000F092A11E04C0653678F460930402113087
:1053E00069F40E947B270AC084E009C083E007C0FB
:1053F00086E005C08AE003C086E201C080E0DF915C
:10540000CF911F91FF90EF90DF90CF9008950E9471
:10541000E628811108C087E00E94B6218FEF0E9424
:1054200088270C946E220895882321F0813021F47E
:1054300088E0089584E0089580E10895882321F0AC
:10544000813021F480E4089580E8089580E2089591
:10545000882321F0813021F480E2089580E10895CD
:1054600080E4089510927F1AE0EAF0E080818F7D59
:1054700080831092AB001092AA00E2E0F1E08081FC
:10548000877F8083109203022F980895279A2F9880
:10549000E1E0F1E0808180618083808188608083A9
:1054A0006B9A0C94322ACF92DF92EF92FF926A01AC
:1054B0007B01811106C0FF90EF90DF90CF900C949C
:1054C000322A8091030281111EC021E02093030241
:1054D0002F9A1092AB001092AA0083E08093A00054
:1054E0008091A100807E89618093A10089EF96E080
:1054F0009093A9008093A800809102018860809316
:10550000020120937F1A20E030E0A901C701B60113
:105510000E94303A1816D4F48091A00080628093E3
:10552000A000C701B6010E949C3847E0469F900149
:10553000479F300D11246091040270E0C9010E9460
:10554000A93B7093AB006093AA0005C08091A000B6
:105550008F7D8093A000FF90EF90DF90CF90089513
:10556000CF93DF9300D01F921F92CDB7DEB79091FB
:10557000771D9230A9F04A835B836C837D83898396
:105580000E94A5214A815B816C817D8189810F9078
:105590000F900F900F900F90DF91CF910C94532AA2
:1055A0000F900F900F900F900F90DF91CF91089573
:1055B0008091921E82FF04C080910201806403C02A
:1055C000809102018F7B809302018091771D8C7006
:1055D000A1F08091B01A8093C41A8091B11A80937F
:1055E000C31A8091851E880F845081958093C21ABA
:1055F00080916F00826080936F00089580916F00AA
:105600008D7F80936F0080918100887F816080937F
:1056100081001092AF1A8091881E8F3F21F49091E3
:105620000002992349F09091771D943029F090E081
:105630000E94A31981E001C080E09091921E92FF28
:1056400002C091E08927882321F0809102018064C3
:1056500003C0809102018F7B809302010895EFE6E1
:10566000F0E080818D7F8083E1E8F0E08081887FB9
:10567000816080831092AF1AE2E0F1E08081806463
:10568000808308951F920F920FB60F9211240BB6CC
:105690000F922F933F934F935F936F937F938F93CB
:1056A0009F93AF93BF93CF93DF93EF93FF9380913B
:1056B000AF1A8111EFC198B18091C41A807E9F7199
:1056C000892B88B982B1837E9091C31A892B82B9C4
:1056D0008091C21A86BD82E085BD81E08093AF1AB9
:1056E00078948091D61A9091D71A892B09F0A4C08A
:1056F0008091B41A9091B31A981709F492C0E0916E
:10570000B41A86E0E89FF0011124E852F54EF093B8
:10571000D71AE093D61A838194819093890080935D
:105720008800808191819093D21A8093D11AA281AE
:105730008091D31A8A1771F1A093D31A81E1A89F9F
:10574000D0011124A859B44EB093D51AA093D41AFD
:105750001D968D919D910D90BC91A02DB695A7950C
:10576000979587958093BD1A9093BE1AA093BF1A00
:10577000B093C01A8093B91A9093BA1AA093BB1A27
:10578000B093BC1A8093B51A9093B61AA093B71A27
:10579000B093B81AC091D41AD091D51A8091B01A8A
:1057A000988189278093C41A258189819A81AB8148
:1057B000BC81022E04C0B695A795979587950A944B
:1057C000D2F78093C51A9093C61AA093C71AB093C4
:1057D000C81A8D819E81AF81B885022E04C0B6950E
:1057E000A795979587950A94D2F78093C91A9093B5
:1057F000CA1AA093CB1AB093CC1A89859A85AB8527
:10580000BC8504C0B695A795979587952A95D2F73C
:105810008093CD1A9093CE1AA093CF1AB093D01A3A
:105820000BC00E94FE2A9FB7F89480910102846009
:10583000809301029FBF2EC10E94D81F1092C31AED
:105840008091C51A9091C61AA091C71AB091C81A32
:105850004091B51A5091B61A6091B71A7091B81A62
:10586000840F951FA61FB71F8093B51A9093B61A81
:10587000A093B71AB093B81AE091D41AF091D51A40
:105880004585568567857089481759076A077B07DC
:1058900068F524E02093C31A45855685678570898D
:1058A000841B950BA60BB70B8093B51A9093B61A71
:1058B000A093B71AB093B81A208180917A1D909165
:1058C0007B1DA0917C1DB0917D1D27FF04C0019719
:1058D000A109B10903C00196A11DB11D80937A1DD4
:1058E00090937B1DA0937C1DB0937D1D8091C91A60
:1058F0009091CA1AA091CB1AB091CC1A4091B91AC2
:105900005091BA1A6091BB1A7091BC1A840F951FFE
:10591000A61FB71F8093B91A9093BA1AA093BB1A07
:10592000B093BC1A45855685678570894817590715
:105930006A077B0778F52091C31A28602093C31A61
:105940004585568567857089841B950BA60BB70B1B
:105950008093B91A9093BA1AA093BB1AB093BC1A49
:10596000208180917E1D90917F1DA091801DB0911E
:10597000811D26FF04C00197A109B10903C001964A
:10598000A11DB11D80937E1D90937F1DA093801D4E
:10599000B093811D8091CD1A9091CE1AA091CF1A0B
:1059A000B091D01A4091BD1A5091BE1A6091BF1AA1
:1059B0007091C01A840F951FA61FB71F8093BD1A40
:1059C0009093BE1AA093BF1AB093C01A458556850E
:1059D00067857089481759076A077B0778F5209112
:1059E000C31A20612093C31A45855685678570893F
:1059F000841B950BA60BB70B8093BD1A9093BE1A10
:105A0000A093BF1AB093C01A20818091821D9091FB
:105A1000831DA091841DB091851D25FF04C00197B1
:105A2000A109B10903C00196A11DB11D8093821D7A
:105A30009093831DA093841DB093851D8091771D45
:105A4000843039F48091931D9091C31A89238093F7
:105A5000C31A8091D11A9091D21A01979093D21AB9
:105A60008093D11A892B69F41092D71A1092D61A02
:105A70008091B41A8F5F8093B41A883111F4109218
:105A8000B41A8091B11A9091C31A89278093C31ACE
:105A90001092AF1AFF91EF91DF91CF91BF91AF912B
:105AA0009F918F917F916F915F914F913F912F9136
:105AB0000F900BBE0F900FBE0F901F9018951F9266
:105AC0000F920FB60F9211248F939F9392B18091F2
:105AD000B11A8C71937E892B82B915BC9F918F91DD
