:100000000C94C0050C94E1050C94E1050C94E105F9
:100010000C94E1050C94E1050C94E1050C94E105C8
:100020000C94E1050C94F2110C94E1050C94FE344F
:100030000C94E1050C94E1050C94E1050C94E105A8
:100040000C94E1050C94C72B0C94E1050C94E1058C
:100050000C94E1050C94E1050C94E1050C94D82D69
:100060000C94E1050C9458270C9416270C94E10588
:100070000C94E1050C94E1050C94E1050C94E10568
:100080000C94E1050C94E1050C94E1050C94E10558
:100090000C94E1050C94E1050C94E1050C94E10548
:1000A0000C94E1050C94E1050C94E1050C94E10538
:1000B0000C94E1050C94E1050C94E1050C941006F8
:1000C0000C94E1050C94E1050C94E1050C94E10518
:1000D0000C94E1050C94E1050C94E1050C94E10508
:1000E0000C94E10562096A116A116C0979098609A3
:1000F00093096A1197096A11A5096A11AF09B9092B
:10010000EA096A116A116A11C309D009DD092E10C2
:100110003F105E103F106210751068106E108A104C
:1001200090109F10B610DA10E410F010FA1014229C
:1001300017221C221F222222252228222B222E2295
:1001400031223422432243224322432243224322A8
:10015000432243223A2237223D2243224322432292
:100160004322432243224322432243224322432267
:1001700043224322432243224022602263226622FA
:1001800069226C226F227222902293229622992257
:100190009C229F22A222A522DE29E429E729EA291E
:1001A000EF29F729012A732A732A732A092A0C2AAC
:1001B000152A1E2A732A732A732A732A732A732A0A
:1001C000262A302A3C2A442A472A502A592A5F2ABA
:1001D000682A084AD73B3BCE016E84BCBFFDC12FC5
:1001E0003D6C74319ABD56833DDA3D00C77F11BE28
:1001F000D9E4BB4C3E916BAAAABE000000803F052B
:10020000A84CCDB2D44EB93836A9020C50B991865B
:1002100088083CA6AAAA2ABE000000803F08000069
:1002200000BE922449123EABAAAA2ABECDCCCC4C29
:100230003E00000080BEABAAAAAA3E00000000BF9C
:10024000000000803F0000000000084178D3BB435D
:1002500087D1133D190E3CC3BD4282AD2B3E68ECE5
:100260008276BED98FE1A93E4C80EFFFBE01C4FF6C
:100270007F3F0000000000000C941E2A0C94732A9B
:100280000C9425220C94B9090C9496220C946210BB
:100290000C9479090C949F100C945F2A0C94EA0931
:1002A0000C94AF090C94092A0C9469220C949022A6
:1002B0000C946C220C9499220C948A100C94EF29C3
:1002C0000C942E100C94442A0C94012A0C94A22213
:1002D0000C946E100C94F0100C94DD090C945E10CC
:1002E0000C9486090C9468100C946C090C942E22C2
:1002F0000C94EA290C9493090C94682A0C94932288
:100300000C9437220C949F220C9443220C941C22B0
:100310000C94152A0C94E4100C940C2A0C9463226F
:100320000C946F220C94D0090C9497090C94E42936
:100330000C9472220C94592A0C9422220C94302A88
:100340000C9462090C949C220C9428220C94342264
:100350000C94DA100C9475100C9417220C94472A04
:100360000C943F100C94A5090C943D220C9460222F
:100370000C94C3090C941F220C943C2A0C94262A3A
:100380000C9466220C94E7290C9431220C942B22B5
:100390000C94DE290C943A220C9414220C949010A4
:1003A0000C946A110C94F7290C94502A0C94A522F1
:1003B0000C94B6100C94FA100C9440223E0D0A00D6
:1003C0002C4C696D3A002C54454D503A002C525833
:1003D0003A002C4275663A002C002C57506F733A45
:1003E000002C002C4D506F733A003C446F6F72002C
:1003F0003C436865636B003C416C61726D003C4836
:100400006F6D65003C486F6C64003C52756E003C3B
:1004100049646C65005D0D0A005B302E396A2E322E
:10042000303136303732363A000D0A003D00244E66
:10043000005D0D0A00205300204600205400204D8E
:100440003800204D3900204D3500204D3400204D1E
:100450003300204D3200204D3100204D3000204728
:1004600039340020473933002047393100204739DB
:1004700030002047323000204732310020473139E8
:1004800000204731380020473137002047004733EC
:10049000382E0047383000473300473200473100DC
:1004A0004730005B005D0D0A005B544C4F3A005D25
:1004B0000D0A002C005B4739323A005D0D0A002C12
:1004C000003A003330003238005B47005D0D0A000F
:1004D0003A002C005B5052423A00290D0A00206D70
:1004E00061782074726176656C2C206D6D002061DE
:1004F0006363656C2C206D6D2F7365635E32002025
:100500006D617820726174652C206D6D2F6D696E40
:10051000002C20737465702F6D6D0061007A007976
:100520000078002028003D00240020286C617365BD
:100530007220706F7765722064697669736F722CB0
:10054000202529202D2D204E4F542053415645441F
:100550000D0A002028686F6D696E672070756C6CDD
:100560002D6F66662C206D6D290D0A2432383D00F2
:100570002028686F6D696E67206465626F756E63B1
:10058000652C206D736563290D0A2432373D0020E8
:1005900028686F6D696E67207365656B2C206D6DC3
:1005A0002F6D696E290D0A2432363D002028686FB0
:1005B0006D696E6720666565642C206D6D2F6D69B1
:1005C0006E290D0A2432353D00290D0A2432343DAE
:1005D000002028686F6D696E672064697220696EFB
:1005E00076657274206D61736B3A002028686F6DB8
:1005F000696E67206379636C652C20626F6F6C296C
:100600000D0A2432333D00202868617264206C6931
:100610006D6974732C20626F6F6C290D0A2432325D
:100620003D002028736F6674206C696D6974732CAB
:1006300020626F6F6C290D0A2432313D0020287230
:1006400065706F727420696E636865732C20626FC9
:100650006F6C290D0A2432303D002028617263201E
:10066000746F6C6572616E63652C206D6D290D0A67
:100670002431333D0020286A756E6374696F6E20E3
:10068000646576696174696F6E2C206D6D290D0A41
:100690002431323D00290D0A2431313D00202873D8
:1006A0007461747573207265706F7274206D6173FC
:1006B0006B3A00202870726F62652070696E206945
:1006C0006E766572742C20626F6F6C290D0A24316E
:1006D000303D0020286C696D69742070696E73204C
:1006E000696E766572742C20626F6F6C290D0A2416
:1006F000363D0020287374657020656E61626C65FC
:1007000020696E766572742C20626F6F6C290D0AF9
:1007100024353D00290D0A24343D002028646972E7
:1007200020706F727420696E76657274206D6173CB
:100730006B3A00290D0A24333D002028737465703C
:1007400020706F727420696E76657274206D6173AB
:100750006B3A002028737465702069646C652064AE
:10076000656C61792C206D736563290D0A24323D17
:10077000002028737465702070756C73652C20756B
:10078000736563290D0A24313D0024303D00242483
:10079000202876696577204772626C2073657474CF
:1007A000696E6773290D0A242320287669657720EE
:1007B0002320706172616D6574657273290D0A245E
:1007C000472028766965772070617273657220739F
:1007D00074617465290D0A2449202876696577209B
:1007E0006275696C6420696E666F290D0A244E205B
:1007F0002876696577207374617274757020626CF5
:100800006F636B73290D0A24783D76616C756520E2
:100810002873617665204772626C20736574746911
:100820006E67290D0A25783D76616C756520287301
:100830006574204772626C2073657474696E6720FA
:100840002D204E4F54205341564544290D0A244E25
:10085000783D6C696E6520287361766520737461DC
:100860007274757020626C6F636B290D0A244320CB
:1008700028636865636B2067636F6465206D6F64D0
:1008800065290D0A245820286B696C6C20616C6105
:10089000726D206C6F636B290D0A244820287275D5
:1008A0006E20686F6D696E67206379636C65290DD2
:1008B0000A245253543D782028726573746F726510
:1008C00020783D243A2064656661756C74207661F9
:1008D0006C7565732C20783D233A20706172616DD0
:1008E00065746572732C20783D2A3A20616C6C29FE
:1008F0000D0A2453202864697361626C6520737447
:100900006570706572290D0A7E20286379636C65B5
:10091000207374617274290D0A212028666565644C
:1009200020686F6C64290D0A3F2028637572726518
:100930006E7420737461747573290D0A6374726C1C
:100940002D7820287265736574204772626C290DBA
:100950000A000D0A4772626C20302E396A205B272C
:10096000242720666F722068656C705D0D0A005D3B
:100970000D0A00526573746F72696E672064656654
:1009800061756C74730050676D20456E6400436838
:1009900065636B20446F6F720044697361626C65BC
:1009A0006400456E61626C65640043617574696FD3
:1009B0006E3A20556E6C6F636B6564002724482780
:1009C0007C2724582720746F20756E6C6F636B0032
:1009D000526573657420746F20636F6E74696E75F1
:1009E00065005B000D0A0054656D70206C617365D5
:1009F0007220746F6F206869676800436F6F6C6165
:100A00006E74204F464600486F6D696E67206661C0
:100A1000696C0050726F6265206661696C004162AA
:100A20006F727420647572696E67206379636C6598
:100A300000536F6674206C696D697400486172645C
:100A4000206C696D697400414C41524D3A20000D93
:100A50000A00496E76616C69642067636F64652083
:100A600049443A00496E76616C6964206C61736533
:100A70007220706F77657200556E646566696E6589
:100A8000642066656564207261746500556E7375D7
:100A900070706F7274656420636F6D6D616E640059
:100AA0004D6F64616C2067726F75702076696F6C32
:100AB0006174696F6E004C696E65206F7665726651
:100AC0006C6F7700486F6D696E67206E6F7420657C
:100AD0006E61626C656400416C61726D206C6F6365
:100AE0006B004E6F742069646C6500454550524F31
:100AF0004D2072656164206661696C2E20557369B2
:100B00006E672064656661756C74730056616C7500
:100B100065203C20332075736563005365747469E8
:100B20006E672064697361626C65640056616C7500
:100B300065203C203000496E76616C6964207374D6
:100B40006174656D656E7400426164206E756D62DE
:100B5000657220666F726D617400457870656374AC
:100B6000656420636F6D6D616E64206C657474657F
:100B700072006572726F723A20006F6B0D0A00008E
:100B800011241FBECFEFD1E2DEBFCDBF00E00CBF0E
:100B900012E0A0E0B2E0ECE1F9E700E00BBF02C038
:100BA00007900D92A030B107D9F720E2A0E0B2E0A3
:100BB00001C01D92AA37B207E1F70E946B140C9492
:100BC0008C3C0C940000F894109220018CE08093EF
:100BD000210110922201109273008AE698E190930D
:100BE000290180932801109225011092240110926E
:100BF000AC1E1092AD1E1092AE1E1092AF1E10923F
:100C0000AB1E789408952091AC1E3091AD1E40919A
:100C1000AE1E5091AF1EA4E6B0E00E945E3C089567
:100C20001F920F920FB60F9211248F939F93AF9341
:100C3000BF938091AC1E9091AD1EA091AE1EB0915D
:100C4000AF1E0196A11DB11D8093AC1E9093AD1EE9
:100C5000A093AE1EB093AF1E8091AB1E91E0980F93
:100C60009093AB1E853031F4809105028093090189
:100C70001092AB1EBF91AF919F918F910F900FBEBD
:100C80000F901F901895E2E0F1E080818F7D8083C6
:100C9000109203020895E1E0F1E080818062808398
:100CA0000C944306823049F481E0809303028091E2
:100CB000020180628093020108950C944306CF9351
:100CC000DF931F92CDB7DEB79091371F923049F076
:100CD00089830E94ED2189810F90DF91CF910C943F
:100CE00052060F90DF91CF910895F999FECF92BDF2
:100CF00081BD81E08FBB80B50895F894F999FECF4E
:100D000092BD81BD81E08FBB40B54627842F9927D6
:100D100087FD9095262F30E082239323892B39F08D
:100D20006F3F19F060BD84E006C084E104C0442335
:100D300021F060BD84E28FBBF99A789408959F9268
:100D4000AF92BF92CF92DF92EF92FF920F931F93D9
:100D5000CF93DF938C017A016B01C40ED51EEB019A
:100D6000912C5C01A61AB70ACE018A0D9B1DCC15E9
:100D7000DD0591F0911009C0692D772767FD709509
:100D8000272F221F2227221F01C021E06991922EC6
:100D9000960E0E947D06E8CF692DC8018E0D9F1D1D
:100DA000DF91CF911F910F91FF90EF90DF90CF9047
:100DB000BF90AF909F900C947D069F92AF92BF9290
:100DC000CF92DF92EF92FF920F931F93CF93DF9317
:100DD0008B017A016C01C40ED51EEC01912C5B01D4
:100DE000A81AB90AC5018C0F9D1FCC15DD0591F01D
:100DF0000E947506911009C0292D332727FD3095D3
:100E0000232F221F2227221F01C021E0922E980E9D
:100E10008993E8CFC8018E0D9F1D0E94750621E0C1
:100E200030E0981611F020E030E0C901DF91CF9159
:100E30001F910F91FF90EF90DF90CF90BF90AF90F8
:100E40009F9008958CE4E0EBFEE1DF011D928A950E
:100E5000E9F768ED7EE180E00E944229811103C03C
:100E600087E00C94FE2108956AE37FE188EC9EE11F
:100E70000C94FD362F923F924F925F926F927F9229
:100E80008F929F92AF92BF92CF92DF92EF92FF929A
:100E90000F931F93CF93DF93CDB7DEB7E4970FB6D1
:100EA000F894DEBF0FBECDBF9EA78DA78AE3ECEFFF
:100EB000FEE1DF011D928A95E9F78BE0E0EBFEE1B0
:100EC000ADEFBEE101900D928A95E1F71DA2212CB4
:100ED000312CA12CB12C19A6912C18A64424439492
:100EE000512C47E0842E7724739456E0652E8DA113
:100EF000EDA5FEA5E80FF11DB081BEA3BB2309F44B
:100F000090C29EA191549A3110F00C945C118F5FA5
:100F10008DA3AE014F5D5F4FBE016B5D7F4F8DA511
:100F20009EA50E942919882311F40C945E11C9A072
:100F3000DAA0EBA0FCA0C701B6010E94F73B0E941B
:100F40001A39162F70E080E090E00E9448399B012A
:100F5000AC01C701B6010E94CC3720E030E048EC7C
:100F600052E40E94293B0E948C3B0E941A39BEA188
:100F7000B73421F0BD3409F442C191C1183209F4EB
:100F800034C1E8F4143160F4113108F0D9C01430E0
:100F900009F45CC008F490C01A30D9F10C946A11BD
:100FA0001C31B9F128F4163108F4F9C00C946A1117
:100FB0001E3179F1163209F47FC00C946A111D3389
:100FC00009F40DC1A8F4153309F463C040F41B32D1
:100FD00009F4EEC0113309F4EBC00C946A111C3310
:100FE00010F00C946A1116531093031F09E002C10C
:100FF0001C3540F41A3508F0B2C0103509F49CC015
:101000000C946A111C3529F01F3508F4BFC00C94EC
:101010006A116115710531F4E8A5E1110C946011B4
:10102000F1E0F8A71C31A9F048F4143079F01A3037
:1010300009F0DDC082E08093FC1ED9C0153349F170
:101040001C3551F11E3109F0D2C013C07092FC1E44
:10105000CEC06115710549F06A30710511F00C942C
:101060006A1184E08093FC1E0AC023E02093FC1EDA
:1010700006C06115710529F495E09093FC1E00E00F
:10108000CCC06A30710511F00C946A116092FC1E9C
:10109000F6CF8092FC1EABC06115710549F06A3035
:1010A000710511F00C946A11B9E0B093FC1EE7CF02
:1010B000A8E0A093FC1EE3CFE8A5E1110C94601119
:1010C000F2E0F8A7123089F028F4112359F011301A
:1010D00081F08FC0163281F0103571F1133009F0B4
:1010E00088C007C01092FD1E84C028A52093FD1E55
:1010F00080C01093FD1E7DC06E317105A9F048F4CB
:101100006431710511F00C946A1184E08093FD1E26
:1011100011C06832710561F06233710511F00C94F1
:101120006A118092FD1E06C095E09093FD1E02C0DC
:101130006092FD1E01E071C0A8E0A093FD1E59C0A1
:10114000123129F0133131F01092011F06C0709254
:10115000011F03C082E08093011F02E04BC06115B4
:10116000710549F41A3519F41092001F02C07092EB
:10117000001F03E052C06A30710511F00C946A112F
:101180001A3511F40C946A1104E047C01D3519F4A6
:101190007092FE1E02C01092FE1E05E02BC014319C
:1011A00019F47092FF1E02C01092FF1E06E022C0CA
:1011B000B8A5B1110C946011113331F41092021FD3
:1011C00008E0E3E0E8A729C06A30710511F00C944B
:1011D0006A117092021F08E0F3E0F8A71EC0672BA7
:1011E00011F00C946A110AE018C007E003C000E097
:1011F00001C001E0672B89F087E10C947D11672B1A
:10120000D9F71A30C8F01E3141F110F40C946A116C
:101210001456123010F00C946A11C201002E02C054
:10122000880F991F0A94E2F79C012A213B21232B66
:1012300099F185E10C947D11183010F5133020F0F0
:10124000163078F00C946A11123039F01E3129F002
:10125000111120C07092041F1DC082E08093041FF2
:1012600019C0143029F0153039F07092061F06C0ED
:1012700082E08093061F02C01092061F0CE0CDCFC3
:10128000193021F082E08093051F02C01092051FE3
:101290000DE0C3CF0BE0C1CFA82AB92A28CE2EA1DA
:1012A000822F992787FD9095A92FB92FFC01E6542D
:1012B000F109E531F10510F00C946A11EE58FF4F79
:1012C0000C94583CC092081FD092091FE0920A1F4C
:1012D000F0920B1F00E07FC0C0920C1FD0920D1F38
:1012E000E0920E1FF0920F1F89A5816089A701E08F
:1012F00072C0C092101FD092111FE092121FF09284
:10130000131F99A5926099A702E065C0C092141FAF
:10131000D092151FE092161FF092171FA9A5A46086
:10132000A9A703E058C01093181F04E054C0C701D8
:10133000B6010E9415396093191F70931A1F80938C
:101340001B1F90931C1F05E046C0C0921D1FD0922A
:101350001E1FE0921F1FF092201F06E03CC0C092AB
:10136000211FD092221FE092231FF092241F07E03A
:1013700032C0C092251FD092261FE092271FF09204
:10138000281F08E028C0C0922A1FD0922B1FE0928D
:101390002C1FF0922D1FB92DB1609B2E0AE01BC0AF
:1013A000C0922E1FD0922F1FE092301FF092311F5B
:1013B000E92DE2609E2E0BE00EC0C092321FD0924B
:1013C000331FE092341FF092351FF92DF4609F2EE9
:1013D0000CE001C009E0C201002E02C0880F991F75
:1013E0000A94E2F79FA38EA382219321892B09F00F
:1013F00069C781E693E0002E02C0959587950A940F
:10140000E2F780FF09C020E030E0A901C701B60182
:101410000E94A63887FD58C7AEA1BFA12A2A3B2A41
:1014200066CD992029F0E8A5E11102C0F2E0F8A705
:1014300025FE0EC08091191F90911A1FA0911B1FAD
:10144000B0911C1F80389649A849B1050CF03EC7E1
:101450008091FE1E813031F488A58230A1F520FEF6
:101460003FC731C08091B11E81112DC020FE1BC02D
:101470008091FF1E813039F523E333E34BEC51E4D7
:101480006091081F7091091F80910A1F90910B1F96
:101490000E94293B6093081F7093091F80930A1FC5
:1014A00090930B1F10C08091BF1E9091C01EA09101
:1014B000C11EB091C21E8093081F9093091FA09374
:1014C0000A1FB0930B1F30FC10C08091BB1E90917F
:1014D000BC1EA091BD1EB091BE1E8093251F90938F
:1014E000261FA093271FB093281F8091FC1E8130D8
:1014F00031F426FC02C08CE100C7E89426F8809104
:10150000011F882341F0813061F01AAAB2E0B9AB23
:10151000E1E0EDA70BC092E09AABA1E0A9AB1DA65C
:1015200005C0F1E0FAAB19AA22E02DA78091FF1EB9
:10153000813021F088A5833091F52AC02AE2E22E7D
:101540002FE1F22E00E010E0C92CD12CC601002EB4
:1015500002C0959587950A94E2F780FF10C023E3B7
:1015600033E34BEC51E4D7016D917D918D919C91CA
:101570000E94293BF70160837183828393830F5F0D
:101580001F4FF4E0EF0EF11C04301105F9F6D2CF35
:101590008091021F813019F424E0921299C680E1F3
:1015A000E8EDFEE1DE01519601900D928A95E1F79A
:1015B000B1FC09C08091FC1E8EA38230B9F0883046
:1015C00009F4B0C00FC18091031F873010F08DE186
:1015D00094C69091B61E981769F3BE016F5E7F4F57
:1015E0000E944229882309F485C6E4CF911002C0E5
:1015F0008AE183C6C10180759927892B09F47BCFC5
:1016000060911D1F70911E1F80911F1F9091201FC0
:101610000E94F73B0E941A396730C8F68091181F64
:10162000843129F0823009F055C627FC53C69FEA61
:101630002922662319F061506EA303C0A091031FF5
:10164000AEA3BE016F5F7F4F8EA10E944229882307
:1016500009F450C68090181F4090F81E5090F91E53
:101660006090FA1E7090FB1EFE0131967F018AE2A7
:10167000A82E8FE1B82E98ECC92E9EE1D92E00E05D
:1016800010E0892D90E098AB8FA78FA598A9002E28
:1016900002C0959587950A94E2F780FF33C094E1E4
:1016A000891226C0D60190962D913D914D915C9165
:1016B00093976D917D918D919C910E94CC37F5010E
:1016C00020813181428153810E94CC37D7016D93B3
:1016D0007D938D939C9313970230A1F4A301920103
:1016E0000E94CC37F70160837183828393830AC0A1
:1016F000F50180819181A281B381F701808391837B
:10170000A283B3830F5F1F4FF4E0EF0EF11C24E0C0
:10171000A20EB11C84E0C80ED11C0430110509F0E2
:10172000B4CF09C1992009F463CF4090F81E5090BE
:10173000F91E6090FA1E7090FB1E0AE21FE1C12C98
:10174000D12CE12CF12CA92CB12CF601E055F14E55
:10175000C5010E2C02C0959587950A94E2F780FF8B
:101760002AC0A1E1B0E0AC0FBD1FAC0DBD1D2D9195
:101770003D914D915C91608D718D828D938D0E9414
:10178000CC37D8012D913D914D915C910E94CC3781
:10179000F8016083718382839383F2E0EF1214C0B7
:1017A000A30192010E94CC37D8016D937D938D9354
:1017B0009C93139709C080AD91ADA2ADB3ADF80174
:1017C00080839183A283B383FFEFEF1AFF0A0C5F3C
:1017D0001F4F24E0C20ED11C84E0E816F10409F08A
:1017E000B4CFA8C098A5933059F4AEA1A53009F4A0
:1017F0008FC0A73009F499C0A33009F09BC080C006
:10180000992099F38090001F4090F81E5090F91E87
:101810006090FA1E7090FB1E08ECC02E0EE1D02ED8
:101820000AE21FE15E01B1E1AB0EB11CE12CF12C2B
:10183000E92DF0E0F8ABEFA78FA598A90E2C02C018
:10184000959587950A94E2F780FD0BC0F60180819B
:101850009181A281B381F80180839183A283B383B4
:101860003EC0FEA1F730D9F1811028C0D601909674
:101870002D913D914D915C919397F501608171811E
:10188000828193810E94CD37D8012D913D914D9158
:101890005C910E94CD37F8016083718382839383CA
:1018A000F2E0EF121CC0A30192010E94CD37D801D3
:1018B0006D937D938D939C93139711C0F6012081B6
:1018C000318142815381D8016D917D918D919C919F
:1018D0000E94CD37F8016083718382839383FFEF89
:1018E000EF1AFF0A24E0C20ED11C0C5F1F4F84E0E8
:1018F000A80EB11C94E0E916F10409F09DCF75CF54
:10190000911001C018A6BE016F5F7F4F86E007C02F
:10191000911001C018A6BE016F5F7F4F87E00E9443
:101920004229882309F4E6C405C08091FD1E823057
:1019300008F0D2C41EA21091FD1E183041F4992067
:1019400009F4DAC1A8A5A13009F0C8C4B1C2B8A58C
:10195000B23009F0D1C11123D9F020E030E0A90163
:101960006091081F7091091F80910A1F90910B1FB1
:101970000E94A638882309F4B3C4143028F4123026
:1019800058F4113029F094C2183008F460C190C2A4
:1019900091108EC218A6B3C1992009F429CEFDA5D5
:1019A000EF2FF0E0F8ABEFA799A9892F90E09CAB5F
:1019B0008BAB81E090E03C0109A802C0660C771C6B
:1019C0000A94E2F70DA402C0880F991F0A94E2F767
:1019D000682A792A892D90E086219721892B09F49C
:1019E00081C4EE0FFF1FEE0FFF1FE450F14EAFA5B5
:1019F000B8A9AA0FBB1FAA0FBB1FA853B14E2D91A8
:101A00003D914D915C9166A577A580A991A90E9411
:101A1000CC376B017C01EBA9FCA9EE0FFF1FEE0F89
:101A2000FF1FE450F14EABA9BCA9AA0FBB1FAA0F20
:101A3000BB1FA853B14E2D913D914D915C9166A570
:101A400077A580A991A90E94CC374B015C0127FEA4
:101A500054C0E89427F820912A1F30912B1F409101
:101A60002C1F50912D1F6091C81E7091C91E80912E
:101A7000CA1E9091CB1E0E94A638811144C12091AC
:101A80002E1F30912F1F4091301F5091311F6091B8
:101A9000CC1E7091CD1E8091CE1E9091CF1E0E94C3
:101AA000A638811130C12091321F3091331F4091EF
:101AB000341F5091351F6091D01E7091D11E8091BE
:101AC000D21E9091D31E0E94A63881111CC1209174
:101AD000361F3091371F4091381F5091391F609148
:101AE000D41E7091D51E8091D61E9091D71E0E9453
:101AF000A638811108C181E200C4F9A54F2E512CEE
:101B000064207520672809F4EFC321EF2222809119
:101B1000FF1E813009F456C00BA91CA9000F111F2C
:101B2000000F111F045F104ED8012D913D914D9172
:101B30005C91C501B4010E94CC372B013C01AFA4DC
:101B4000B8A8AA0CBB1CAA0CBB1CF501E45FF04EA4
:101B50005F012081318142815381C701B6010E941A
:101B6000CC37A30192010E94E6196B017C01D801D8
:101B70002D913D914D915C91F50160817181828142
:101B800093810E94E6194B015C016093211F7093C1
:101B9000221F8093231F9093241F9B01AC01C70138
:101BA000B6010E94CC376B017C01E894F7F82AE07B
:101BB00037ED43EA5BE3C701B6010E94A93A181664
:101BC0004CF176C18CE0682E8FE1782E00E010E0B9
:101BD000C201002E02C0959587950A94E2F780FF16
:101BE00010C023E333E34BEC51E4D3016D917D91BD
:101BF0008D919C910E94293BF301608371838283C4
:101C000093830F5F1F4FF4E06F0E711C04301105BA
:101C1000F9F682CF20E030E040E05FE3C701B60193
:101C20000E94A93A18160CF466CF2FE632E143E879
:101C30005AE3C501B4010E94293B9B01AC01C701D5
:101C4000B6010E94A93A18160CF455CF31C199205B
:101C500009F4CECC20912A1F30912B1F40912C1FCC
:101C600050912D1F6091C81E7091C91E8091CA1E8F
:101C70009091CB1E0E94A63881111AC120912E1F6F
:101C800030912F1F4091301F5091311F6091CC1E19
:101C90007091CD1E8091CE1E9091CF1E0E94A638CD
:101CA000811106C12091321F3091331F4091341FA2
:101CB0005091351F6091D01E7091D11E8091D21E1F
:101CC0009091D31E0E94A6388111F2C02091361F38
:101CD0003091371F4091381F5091391F6091D41EA9
:101CE0007091D51E8091D61E9091D71E0E94A63865
:101CF000882309F400CFDCC028A52111D9C0C10177
:101D00008E7D9C7FD8C08091FF1E8130B1F423E38B
:101D100033E34BEC51E46091211F7091221F8091BD
:101D2000231F9091241F0E94293B6093211F7093D1
:101D3000221F8093231F9093241F4090211F5090B7
:101D4000221F6090231F7090241F20E030E040E8A5
:101D500050E4C301B2010E94293BA30192010E94F9
:101D6000293B2B013C01A7019601C701B6010E9446
:101D7000293B9B01AC01C301B2010E94CC372B016E
:101D80003C01A5019401C501B4010E94293B9B01BE
:101D9000AC01C301B2010E94CC372B013C0120E011
:101DA00030E0A9010E94A63887FDA6C2C301B20196
:101DB0000E94B63B2B013C01A5019401C701B6016D
:101DC0000E94E6199B01AC01C301B20190580E9428
:101DD000AD382B013C018091FD1E833021F477FA50
:101DE000709477F870948091211F9091221FA09198
:101DF000231FB091241F89A79AA7ABA7BCA720E0F7
:101E000030E0A901BC01CD010E94A63887FF11C0B6
:101E100077FA709477F8709489A59AA5ABA5BCA5BC
:101E2000B0588093211F9093221FA093231FB0933B
:101E3000241F0FA518A9000F111F000F111F045F09
:101E4000104EA3019201C501B4010E94293B9B01E0
:101E5000AC01C701B6010E94CC3720E030E040E081
:101E60005FE30E94293BD8016D937D938D939C93F2
:101E700013970BA91CA9000F111F000F111F045F5E
:101E8000104EA3019201C701B6010E94293B9B019C
:101E9000AC01C501B4010E94CD3720E030E040E044
:101EA0005FE30E94293BF8016083718382839383FF
:101EB000C1018E7D907E892B09F018C28091191F77
:101EC00090911A1FA0911B1FB0911C1F8093C41EDC
:101ED0009093C51EA093C61EB093C71E8091FE1E90
:101EE0008093B11E8091081F9091091FA0910A1F35
:101EF000B0910B1F8093BF1E9093C01EA093C11E74
:101F0000B093C21EC090251FD090261FE090271FBF
:101F1000F090281FA70196016091BB1E7091BC1E16
:101F20008091BD1E9091BE1E0E94A6388823C1F0EC
:101F30008091B91E882321F0B701A6010E94352B9C
:101F40008091251F9091261FA091271FB091281FD7
:101F50008093BB1E9093BC1EA093BD1EB093BE1E6B
:101F60008091291F8093C31E8091061F9091B91EF6
:101F7000981771F04091BB1E5091BC1E6091BD1E20
:101F80007091BE1E0E94352B8091061F8093B91E52
:101F90008091051F9091B81E981731F00E945F063E
:101FA0008091051F8093B81E8091FC1E813051F4F2
:101FB00060911D1F70911E1F80911F1F9091201F07
:101FC0000E94F0178091011F8093B41E8091FF1E24
:101FD0008093B21E88A58330F9F48091021F80930C
:101FE000B51E813089F48091321F9091331FA091EA
:101FF000341FB091351F8093F81E9093F91EA09363
:10200000FA1EB093FB1E08C01092F81E1092F91E23
:102010001092FA1E1092FB1E8091031F9091B61E23
:10202000981759F08093B61E80E1FE017196A8EDD5
:10203000BEE101900D928A95E1F78091001F809397
:10204000B31E8091FC1E90E0FC013297E830F10550
:1020500008F04BC0E957FF4F0C94583CBE016F5F2E
:102060007F4F8EA10E94CF278091B61E9EA189131B
:102070003CC080E1FE013196A8EDBEE11AC0A8A5E2
:10208000AA2349F020E040E050E060E87FEB8AE2DC
:102090009FE10E94A31420E040E050E060E87FEB65
:1020A000CE0101960E94A31480E1FE013196A8ECB6
:1020B000BEE101900D928A95E1F717C068EC7EE1D0
:1020C00086E003C068EC7EE187E00E94CF270DC068
:1020D0008CE0EAE2FFE1A8EEBEE1EBCF80E1E8EEC2
:1020E000FEE1DF011D928A95E9F78091FD1E809344
:1020F000B01E883009F498C0B8A5B23009F094C079
:1021000090E08830910508F086C0FC01E157FF4F50
:102110000C94583C20E040E050E060E87FEB0AC0BF
:102120004091BF1E5091C01E6091C11E7091C21E91
:102130002091B11E8AE29FE10E94A3146CC0C0905E
:10214000BF1ED090C01EE090C11EF090C21E009134
:10215000211F1091221F2091231F3091241F81E005
:102160008F93EAA9EF93F9A9FF9315C0C090BF1E02
:10217000D090C01EE090C11EF090C21E0091211FA1
:102180001091221F2091231F3091241F1F928AA992
:102190008F9399A99F938DA4A090B11E4CE05FE10D
:1021A0006AE27FE188EC9EE10E94F1140F900F90AB
:1021B0000F9031C04091BF1E5091C01E6091C11E52
:1021C0007091C21EE12C0AC04091BF1E5091C01EEA
:1021D0006091C11E7091C21EEE24E39400E015C010
:1021E0004091BF1E5091C01E6091C11E7091C21ED1
:1021F000E12C0AC04091BF1E5091C01E6091C11ECB
:102200007091C21EEE24E39401E02091B11E8AE297
:102210009FE10E9462188CE0EAE2FFE1A8ECBEE1D7
:1022200001900D928A95E1F78091041F8093B71E6B
:10223000882309F45DC00E94ED219091B71E809122
:10224000371F913069F48230A1F19FB7F8948091E3
:1022500001028860809301029FBF0E94392029C03B
:1022600091E09093B01E1092B41E1092B31E109283
:10227000B11E1092B61E1092B91E1092B81E823076
:10228000A9F0BE016F5E7F4F80E00E944229882343
:1022900089F180E1FE017196A8EDBEE101900D92F9
:1022A0008A95E1F70E94B72A0E94430687E00E94C0
:1022B0007F221092B71E1CC081E01FC082E01DC0AB
:1022C00088E11BC089E119C084E017C08BE115C00B
:1022D00085E213C084E111C08EE10FC08FE10DC013
:1022E00086E10BC080E209C083E207C084E205C03A
:1022F00080E003C087E001C082E2E4960FB6F89464
:10230000DEBF0FBECDBFDF91CF911F910F91FF9028
:10231000EF90DF90CF90BF90AF909F908F907F9085
:102320006F905F904F903F902F900895EBE6F0E014
:1023300080818F788083E8E6F0E080818E7F8083E3
:10234000089584B18F7884B985B1806785B980910B
:102350006A2083FF0BC080916B00806780936B00C5
:102360008091680081608093680008950C949611B4
:10237000CF92DF92FF920F931F93CF93DF931F9221
:10238000CDB7DEB793B1907780916A2086FD02C009
:1023900080E798279923D9F0C12CD12CF12C01E0AA
:1023A00010E08C2D99830E94AD2A9981892339F000
:1023B00098010C2C01C0220F0A94EAF7F22A8FEF41
:1023C000C81AD80AE4E0CE16D10459F701C0F12C9E
:1023D0008F2D0F90DF91CF911F910F91FF90DF9084
:1023E000CF9008951F920F920FB60F9211240BB643
:1023F0000F922F933F934F935F936F937F938F939E
:102400009F93AF93BF93EF93FF938091371F8130DA
:1024100071F08091000281110AC00E9400199FB7DB
:10242000F894809100028360809300029FBFFF9127
:10243000EF91BF91AF919F918F917F916F915F913C
:102440004F913F912F910F900BBE0F900FBE0F90A9
:102450001F9018952F923F924F925F926F927F92AA
:102460008F929F92AF92BF92CF92DF92EF92FF92A4
:102470000F931F93CF93DF93CDB7DEB76C970FB653
:10248000F894DEBF0FBECDBF582E8091361F81114C
:10249000A1C12DE4A22E20E2B22E9E012F5E3F4F5D
:1024A000190100E010E0C12CD12C7601652C712CB3
:1024B000802F0E94912AD1018D931D01C301002E0E
:1024C00002C0959587950A94E2F780FF1AC020E034
:1024D00030E040EC5FEBF501608171818281938196
:1024E0000E94293B6D8B472E4C01262F372FAC01C4
:1024F000C701B6010E94A93A18161CF0CD88D42C49
:1025000074010F5F1F4FF4E0AF0EB11C04301105D2
:1025100079F68090702090907120A0907220B090F9
:10252000732024E02D8B01E06AE37FE1CE01019668
:102530000E94FD3620906B20312CFE0131968AE3FB
:102540009FE19C8F8B8F80E090E0412C10E0B701E1
:10255000A60170589301082E02C0359527950A945C
:10256000E2F720FF28C04394AB8DBC8D1D921D92D5
:102570001D921C9213979101082E02C03595279544
:102580000A94E2F720FF03C0002319F007C00023DC
:1025900029F0C082D182E282F38204C04083518359
:1025A0006283738321E130E02C0F3D1F280F391F18
:1025B000D9012C91122B019634962B8D3C8D2C5FDA
:1025C0003F4F3C8F2B8F8430910521F6642D70E0B6
:1025D00080E090E00E9446390E94B63B9B01AC012E
:1025E000C501B4010E94293BAB01BC0110935B1FE4
:1025F0004F8B588F698F7A8F0E94771E20E04F890A
:10260000588D698D7A8DCE0101960E947E1B0E94A5
:102610009E2E0E945D2B0023E9F00E94B811FE015E
:10262000719620E030E090E06191462F412359F00F
:10263000AC01022E02C0559547950A94E2F740FF7F
:1026400002C0609516232F5F3F4F2430310561F79C
:1026500010935B1F0E949E2E809101028473C1F033
:1026600080910102807329F00E9400190E94392094
:10267000B1C00111AAC00E94B8118521A9F79FB766
:10268000F894809101028B7F809301029FBF04C068
:10269000812F8F7009F0BFCF0E942A2E0E94271B26
:1026A00080917420909175200E94DB1931E00327FE
:1026B000C9F020E030E040EA50E46091762070916B
:1026C000772080917820909179200E94293B6B019E
:1026D0007C0180906C2090906D20A0906E20B09036
:1026E0006F2010C0C0907620D0907720E0907820A6
:1026F000F09079208090702090907120A0907220AE
:10270000B09073208D8981508D8B81110DCF809178
:102710006B20A82FB0E0BE8BAD8BC0907620D09000
:102720007720E0907820F09079201601270157FA61
:10273000509457F850948DE1A82E80E2B82E9AE379
:10274000892E9FE1992E00E010E0C301002E02C007
:10275000959587950A94E2F780FF29C08D899E8917
:10276000002E02C0959587950A94E2F7F50180FF47
:102770000EC020A931A942A953A9C701B6010E94E0
:10278000CD37D5012D913D914D915C9106C02081B1
:10279000318142815381C201B1010E94293B0E94D3
:1027A000F93AD4016D937D938D939C9313970F5FAA
:1027B0001F4FB4E08B0E911CE4E0AE0EB11C043050
:1027C000110519F60E94771E05C08091010282FF53
:1027D00056CF4ACF6C960FB6F894DEBF0FBECDBF72
:1027E000DF91CF911F910F91FF90EF90DF90CF90ED
:1027F000BF90AF909F908F907F906F905F904F9021
:102800003F902F900895BF92CF92DF92EF92FF9268
:102810000F931F93CF93DF938C01CDE4D0E2BB24C1
:10282000B394F801C190D190E190F1908F0120E034
:1028300030E0A901C701B6010E94A93A18164CF070
:10284000288139814A815B81C701B6010E94A6387F
:1028500087FDB092391F8091391F882361F18091E3
:10286000371F8830A9F00E9400199FB7F894809113
:1028700000028560809300029FBFDF91CF911F917E
:102880000F91FF90EF90DF90CF90BF900C94392084
:102890009FB7F894809101028860809301029FBFE6
:1028A0000E9439208091361F81110BC08091371F03
:1028B0008111F6CFD8CF2496F0E2CD35DF0709F0AD
:1028C000B0CFDF91CF911F910F91FF90EF90DF90EC
:1028D000CF90BF9008950E94E4260E94842A0E940F
:1028E000562E0E94E93486E2E6E3FFE1DF011D9205
:1028F0008A95E9F781E08093361F78940E94BA2781
:102900000E9422070E94E3050E9417370E94CB2AEB
:102910000E944B060E94A1110E94FD1F0E94271BCE
:102920000E942A2E0E94771E0E9434071092361FA2
:1029300010920102109200021092381F1092391F5B
:102940000E946521DBCFEF92FF921F93CF93DF931D
:1029500000D01F92CDB7DEB77C01122F80916A2084
:1029600085FF0BC0C70149835A836B837C830E9418
:1029700003147C816B815A8149818091371F823099
:1029800031F149835A836B837C830E943920809183
:10299000361F81111CC00E94761B49815A816B81B0
:1029A0007C81882339F00E945C2149815A816B81A6
:1029B0007C81E7CF212FC7010F900F900F900F90D0
:1029C000DF91CF911F91FF90EF900C947E1B0F90A1
:1029D0000F900F900F90DF91CF911F91FF90EF908C
:1029E00008952F923F924F925F926F927F928F92B3
:1029F0009F92AF92BF92CF92DF92EF92FF920F938E
:102A00001F93CF93DF93CDB7DEB7E7970FB6F89458
:102A1000DEBF0FBECDBF9C8B8B8B1B013A0109879C
:102A20001A872B873C87AF8A2E961FAD2E972F963D
:102A30002FAD2F97298B60963FAD60973D8B84E03B
:102A4000889EA00111245A834983AB89BC89A40FB5
:102A5000B51FB98FA88F460D571D5B8F4A8FFA019E
:102A600080809180A280B3802D913D914D915C91A9
:102A7000C501B4010E94CD376C8F7D8F8E8F9F8FE3
:102A8000F4E01F9F800111242B893C89200F311F06
:102A900039A328A3A301400F511F5BA34AA3DA0166
:102AA0004D905D906D907C90F90120813181428143
:102AB0005381C301B2010E94CD376CA37DA38EA3C5
:102AC0009FA3A501940150582D873E874F87588BAF
:102AD000D301C201B0588D839E83AF83B887E9814B
:102AE000FA81E20DF31D2C8D3D8D4E8D5F8D608141
:102AF0007181828193810E94CC372B013C01F101CD
:102B0000E00FF11F2CA13DA14EA15FA16081718159
:102B1000828193810E94CC374B015C01A301920119
:102B20006D857E858F8598890E94293B69837A838C
:102B30008B839C83A50194016D817E818F81988513
:102B40000E94293B9B01AC0169817A818B819C8128
:102B50000E94CD3769837A838B839C83A50194017E
:102B60006D857E858F8598890E94293B4B015C018C
:102B7000A30192016D817E818F8198850E94293BFE
:102B80009B01AC01C501B4010E94CC3729813A8177
:102B90004B815C810E9440382B013C019D89992327
:102BA00099F02DEB37E346E055EBC301B2010E94EB
:102BB000A93A87FD1DC02BED3FE049EC50E4C3016D
:102BC000B2010E94CC3712C02DEB37E346E055E34B
:102BD000C301B2010E94A638181654F02BED3FE055
:102BE00049EC50E4C301B2010E94CD372B013C01F6
:102BF0008090662090906720A0906820B090692017
:102C000029853A854B855C85CA01B9010E94CD377B
:102C1000A50194010E94CC379B01AC01C501B40110
:102C20000E94293B0E94B63B4B015C0120E030E052
:102C300040E05FE3C301B2010E94293B29853A8548
:102C40004B855C850E94293B9F77A50194010E94DA
:102C5000AD380E9483390E941A397E8B6D8BDB015F
:102C6000AB2B09F486C14B01A12CB12CBF89BB232E
:102C700061F0C501B4010E9446399B01AC01C70156
:102C8000B6010E94293B6B017C01C501B4010E9481
:102C900046394B015C019B01AC01C301B2010E94AA
:102CA000AD3869877A878B879C87F989E4E0FE9F36
:102CB000C00111242B893C89280F391F3A8B298B9D
:102CC000F101E80FF91FD9012D913D914D915C91D2
:102CD00060817181828193810E94CC37A50194012A
:102CE0000E94AD386CAB7DAB8EAB9FAB29853A852E
:102CF0004B855C85CA01B9010E94293B9B01AC014F
:102D000060E070E080E090E40E94CC374B015C0111
:102D10002BEA3AEA4AE25EE369857A858B859C85EF
:102D20000E94293B2B013C0120E030E040E850E4C8
:102D3000C501B4010E94CD379B01AC01C301B201B2
:102D40000E94293B68A779A78AA79BA720E030E0CB
:102D500040E05FE3C501B4010E94293B6CA77DA759
:102D60008EA79FA7198201E010E0ED89FE890E175A
:102D70001F0709F4FEC0B981BC3008F04AC02CA579
:102D80003DA54EA55FA56D817E818F8198850E94AE
:102D9000293B4B015C0128A539A54AA55BA56D859A
:102DA0007E858F8598890E94293BA50194010E9408
:102DB000CD37B62EA72E982E892E2CA53DA54EA533
:102DC0005FA56D857E858F8598890E94293B2B01A3
:102DD0003C0128A539A54AA55BA56D817E818F811F
:102DE00098850E94293B9B01AC01C301B2010E945E
:102DF000CC376D877E878F87988BE981EF5FE9837A
:102E00008B2D9A2DA92DB82D8D839E83AF83B887E6
:102E10006EC0B80180E090E00E94463929853A856D
:102E20004B855C850E94293B4B015C010E94AA38BE
:102E30006D837E838F839887C501B4010E94AC3B6C
:102E40004B015C01EA8DFB8D80819181A281B38170
:102E50009C01AD01505829833A834B835C83AAA11E
:102E6000BBA18D919D910D90BC91A02D88AB99AB8C
:102E7000AAABBBAB2D813E814F81588569817A8198
:102E80008B819C810E94293B2B013C01A50194016F
:102E900068A979A98AA99BA90E94293B9B01AC0139
:102EA000C301B2010E94CD376D877E878F87988BD3
:102EB000A501940169817A818B819C810E94293BC3
:102EC0004B015C012D813E814F81588568A979A90C
:102ED0008AA99BA90E94293B9B01AC01C501B401B1
:102EE0000E94CC376D837E838F83988719822D85CE
:102EF0003E854F8558896C8D7D8D8E8D9F8D0E946E
:102F0000CD37E88DF98D60837183828393832D8122
:102F10003E814F8158856CA17DA18EA19FA10E9409
:102F2000CD37A8A1B9A16D937D938D939C931397F1
:102F30002CA93DA94EA95FA9E989FA89608171810F
:102F4000828193810E94CD37A989BA896D937D933F
:102F50008D939C9313972F89B701A6018B899C8928
:102F60000E94A3148091361F811121C00F5F1F4F53
:102F7000FCCE2F89B701A601C101E7960FB6F894E0
:102F8000DEBF0FBECDBFDF91CF911F910F91FF909C
:102F9000EF90DF90CF90BF90AF909F908F907F90F9
:102FA0006F905F904F903F902F900C94A314E796F2
:102FB0000FB6F894DEBF0FBECDBFDF91CF911F914A
:102FC0000F91FF90EF90DF90CF90BF90AF909F90C8
:102FD0008F907F906F905F904F903F902F900895CB
:102FE0008F929F92AF92BF92CF92DF92EF92FF9219
:102FF0004B015C018091371F823009F447C020E00B
:1030000030E040EA51E4C501B4010E94293B0E942E
:1030100083390E941A396B017C010E94ED2120E066
:1030200030E04AE754E4C501B4010E94293B4B015A
:103030005C0182E38C9DB0018D9D700D112480E0B8
:1030400090E00E9446399B01AC01C501B4010E9489
:10305000CC370E9483390E941A39CB010E94DB19B8
:10306000C114D10499F00E94392021E0C21AD1087C
:103070008091361F81110AC08FEF90E722E08150C6
:1030800090402040E1F700C00000EACFFF90EF90B1
:10309000DF90CF90BF90AF909F908F9008950E9447
:1030A000961184E00E942A1283E00E942A120E9454
:1030B00039208091361F811104C00E9434070C947E
:1030C000A1110895CF92DF92EF920F93CF93DF93E8
:1030D00000D01F921F92CDB7DEB76C018091371FD1
:1030E000823009F481C02D8349835A836B837C83AA
:1030F0000E94ED2110925A1F802F0E9408200E94EA
:1031000019202D8149815A816B817C818823A1F00E
:103110009FB7F894809100028061809300029FBF66
:103120002D8349835A836B837C830E9439207C8161
:103130006B815A8149812D818091361F811154C044
:10314000C6010E94A31481E0809302029FB7F89405
:10315000809101028260809301029FBF0E9439200A
:103160008091361F811140C08091371F8111F6CFA9
:10317000809102028130A9F4EE2051F080E1EAE36F
:10318000FFE1AAE4BFE101900D928A95E1F70CC03E
:103190009FB7F894809100028061809300029FBFE6
:1031A00003C081E080935A1F109202020E943920CE
:1031B0008091361F811118C00E942A2E0E94271B61
:1031C0000E94771E6AE37FE1C6010E94FD360F90E0
:1031D0000F900F900F900F90DF91CF910F91EF9084
:1031E000DF90CF900C9437240F900F900F900F909A
:1031F0000F90DF91CF910F91EF90DF90CF900895D6
:103200008091010284FD24C09FB7F894809101024F
:103210008061809301029FBF0E94B72A8091371F6F
:10322000982F9C7021F49091381F913089F49FB7AA
:10323000843029F4F89480910002806204C0F894EC
:10324000809100028860809300029FBF0C94832BC2
:1032500008956F927F928F929F92AF92BF92CF927A
:10326000DF92EF92FF920F931F93CF93DF937C0136
:103270008B016A01FB018081F701E80FF11D2081BC
:10328000EF012D3229F4229621816624639407C030
:103290002B3211F0219602C022962181612CA12CA3
:1032A000B12C712C60E070E0CB01FE0130ED932E6B
:1032B000920E29E02915C8F0B39428E02B1588F068
:1032C000A1107A94A5E0B0E09B01AC010E945E3CA5
:1032D000660F771F881F991F690D711D811D911D34
:1032E0000BC0A11009C0739407C02EEF921207C043
:1032F000A11005C0AA24A39421962081D6CFBB207B
:1033000009F449C00E9446394B015C0120E030E0DD
:10331000A9010E94A638882361F18FEF78166CF41A
:103320002AE037ED43E25CE3C501B4010E94293B8A
:103330004B015C0173947394F0CF78120BC02DECA9
:103340003CEC4CEC5DE3C501B4010E94293B4B0110
:103350005C010FC0772069F020E030E040E251E4EA
:10336000C501B4010E94293B4B015C017A941714FA
:103370009CF3662021F0B7FAB094B7F8B094F60148
:1033800080829182A282B382CE19DF09C150F801F6
:10339000C08381E001C080E0DF91CF911F910F9148
:1033A000FF90EF90DF90CF90BF90AF909F908F9065
:1033B0007F906F900895009741F0EFE9FFE031971B
:1033C000F1F700C000000197F6CF08958F929F9209
:1033D000AF92BF92CF92DF92EF92FF9269017A0192
:1033E0009B01AC010E94293B4B015C01A7019601A6
:1033F000C701B6010E94293B9B01AC01C501B40184
:103400000E94CD37FF90EF90DF90CF90BF90AF90AC
:103410009F908F900C94B63B4F925F926F927F92E9
:103420008F929F92AF92BF92CF92DF92EF92FF92D4
:103430000F931F93CF93DF9310912C02111101C0B2
:1034400010E9115000912A02101709F4EFC08DE223
:10345000189FE0011124C25DDD4F898C9A8CAB8CE2
:10346000BC8C6DA17EA18FA198A59B01AC010E948F
:10347000CD3729A53AA54BA55CA50E94293B6B0138
:103480007C019B01AC01B401C5010E94A63887FFF5
:1034900002C064017501A601B7014D8B5E8B6F8B75
:1034A000788F111101C010E977247A94710E70168B
:1034B00019F02DE2622E27C080912D02081351C011
:1034C0000E947C2E4EC0679C80011124025D1D4F1E
:1034D000711002C090E9792E7A9480912D027812B1
:1034E00002C00E947C2EF801C18CD28CE38CF48C3B
:1034F000A7019601658976898789908D0E94A638F3
:10350000811106C0E80180912A027812DCCF29C01F
:10351000F80165A176A187A190A59B01AC010E944D
:10352000CD37F80121A532A543A554A50E94293B1A
:103530002D893E894F89588D0E94CD374B015C0102
:10354000A70196010E94A638F80187FF05C0858A69
:10355000968AA78AB08ED6CFC58AD68AE78AF08E99
:10356000D1CF60902A02FDE26F9E80011124025D9E
:103570001D4F77247394760C80E9781201C0712C6A
:1035800050902C028DE2482E751409F44DC0479CD2
:10359000E0011124C25DDD4FF80185889688A78877
:1035A000B08CCD88DE88EF88F88CA7019601C50124
:1035B000B4010E94A63887FF23C0F80165A176A157
:1035C00087A190A59B01AC010E94CD37F80121A5F0
:1035D00032A543A554A50E94293B9B01AC01C5011E
:1035E000B4010E94CD374B015C01A70196010E94F6
:1035F000A63887FF05C08D8A9E8AAF8AB88E672C51
:10360000298D3A8D4B8D5C8D6D897E898F89988D42
:103610000E94A638811101C0672C7394F0E97F12D3
:1036200001C0712C8E01B0CF60922A02DF91CF9140
:103630001F910F91FF90EF90DF90CF90BF90AF90D0
:103640009F908F907F906F905F904F90089584E24D
:10365000E6E0F2E0DF011D928A95E9F710922D0273
:1036600010922C0281E080932B0210922A0208957E
:1036700090912D0280912C02891769F081E0890FC9
:10368000803909F480E020912A02921302C08093CD
:103690002A0280932D02089580912D0290912C0290
:1036A000981739F02DE2829FC0011124825D9D4F51
:1036B000089580E090E00895E0912D02EF5FE039F9
:1036C00009F4E0E080912C02E81761F08DE2E89FB8
:1036D000F0011124E25DFD4F658976898789908D1F
:1036E0000C94B63B60E070E0CB01089581E020913E
:1036F0002D0290912B02291380E008952F923F9282
:103700004F925F926F927F928F929F92AF92BF92F1
:10371000CF92DF92EF92FF920F931F93CF93DF939D
:10372000CDB7DEB7E5970FB6F894DEBF0FBECDBFBD
:10373000142F052F6BA37CA3822E20912C023DE237
:10374000239F10011124F101E25DFD4F1F01118A39
:10375000128A138A148A11A612A613A614A610821E
:1037600049E956E766E97EE745A356A367A370A734
:103770005C014DE1E42E40E2F42E9E012F5E3F4FAE
:1037800038A72FA386E092E09EA38DA36F01FE01D0
:103790003196FAA7E9A7912CF50161917191819178
:1037A00091915F01F70120813181428153810E9413
:1037B000293B0E94F93AEFA1F8A561937193819397
:1037C0009193F8A7EFA3EDA1FEA1419051906190D4
:1037D0007190FEA3EDA364197509860997092B0161
:1037E0003C0197FF07C0442455243201461A570A6A
:1037F000680A790AF6014182528263827482F10179
:103800002189328943895489421653066406750614
:1038100010F429013A01F101418A528A638A748ABB
:103820000E944839F70120813181428153810E94F1
:10383000AD382B013C01E9A5FAA561937193819301
:103840009193FAA7E9A720E030E0A9010E94A638E9
:1038500087FF0AC0F1019081892D9DAB0E949F2AAC
:103860009DA9892BF1018083A3019201C301B201BB
:103870000E94293BF10121A532A543A554A50E9430
:10388000CD37F10161A772A783A794A79394F4E0C1
:10389000EF0EF11C24E0C20ED11C34E093127CCF59
:1038A0000E94B63B6B017C01F10161A772A783A75F
:1038B00094A781899289A389B489892B8A2B8B2B20
:1038C00009F4FCC120E030E0A901612F702F8BA129
:1038D0009CA10E94A63887FD21C0882061F0A70125
:1038E0009601612F702F8BA19CA10E94293B162F5E
:1038F000072F8BA39CA320E030E040E85FE3612F1B
:10390000702F8BA19CA10E94A63887FF0DC010E0EC
:1039100000E030E83BA38FE38CA306C019E906E77B
:10392000F6E9FBA32EE72CA3A701960160E070E067
:1039300080E89FE30E94AD3869AB7AAB8BAB9CAB60
:10394000E6E1F2E0FAA7E9A72DE230E238A72FA3DB
:10395000CE0141969AA389A3FE013196FEA3EDA361
:10396000C12CD12C7601EDA1FEA180809180A28096
:10397000B38020E030E0A901C501B4010E94A6385F
:10398000882309F47FC029A93AA94BA95CA9C501DC
:10399000B4010E94293B4B015C01EDA1FEA16083B3
:1039A0007183828393839B01AC0160E070E080E8C7
:1039B0009FE30E94AD382B013C01E89477F8EFA11A
:1039C000F8A52081318142815381C301B2010E9457
:1039D000293B6BA77CA78DA79EA79B01AC01612FFC
:1039E000702F8BA19CA10E94A63887FF06C01BA741
:1039F0000CA7FBA1FDA72CA12EA7F101F5A1FBA30C
:103A0000F101F6A1FCA3F101F7A1FFA7F101F0A5D7
:103A1000F8ABEFA1F8A52089318942895389C30108
:103A2000B2010E94293B3B018C019B01AC016BA1BF
:103A30007CA18FA598A90E94A63887FF04C06BA01F
:103A40007CA00FA518A9C301D801F10185A396A3F5
:103A5000A7A3B0A7E9A5FAA52081318142815381AE
:103A6000C501B4010E94293B9B01AC01C701B6010D
:103A70000E94CC376B017C011BA50CA5FDA5FBA307
:103A80002EA52CA38DA19EA104969EA38DA3E9A58E
:103A9000FAA53496FAA7E9A72FA138A52C5F3F4FC6
:103AA00038A72FA3E9A1FAA18E179F0709F05BCFD2
:103AB00090912C0280912D02981306C0F101158A75
:103AC000168A178A108E0BC02FEE3FEF4FE75FE389
:103AD000C701B6010E94A93A181634F4F101158EF7
:103AE000168E178E10A25BC02FEE3FEF4FE75FEBF5
:103AF000C701B6010E94A93A181644F03FEEC32E42
:103B0000DD24DA943FE7E32E3FEBF32EA701960185
:103B100060E070E080E89FE30E94CC3720E030E076
:103B200040E05FE30E94293B0E94B63B6B017C01B1
:103B30002091622030916320409164205091652053
:103B4000F10165A176A187A190A50E94293BA7015B
:103B500096010E94293B4B015C01A701960160E0A0
:103B600070E080E89FE30E94CC379B01AC01C50167
:103B7000B4010E94AD386B017C0120E030E0A90166
:103B80000E94A63887FF04C0C12CD12CE12CF12C57
:103B9000A601B701F101458F568F678F70A3212FC2
:103BA000302F4BA15CA1612F702F8BA19CA10E9493
:103BB000293B162F072FF82EE92E862F902FAF2D99
:103BC000BE2DF10181A392A3A3A3B4A3A58CB68CAF
:103BD000C78CD0A0609026027090270280902802A7
:103BE000909029029301A401612F702F8F2D9E2D9B
:103BF0000E94A63887FD0BC09301A401B501C60140
:103C00000E94A63887FD11C0530164010EC0212F08
:103C1000302F4F2D5E2DB501C6010E94A63887FDBD
:103C200004C0A12EB02ECF2CDE2CC501D601F1018F
:103C3000818F928FA38FB48F80E1FE013196A6E130
:103C4000B2E001900D928A95E1F7812F902FAF2D70
:103C5000BE2D8093260290932702A0932802B09352
:103C6000290280E1FE017196A6E0B2E001900D927A
:103C70008A95E1F780912B0280932C028F5F803927
:103C800009F480E080932B02E5960FB6F894DEBF2E
:103C90000FBECDBFDF91CF911F910F91FF90EF909D
:103CA000DF90CF90BF90AF909F908F907F906F905C
:103CB0005F904F903F902F900C940C1AE5960FB6A2
:103CC000F894DEBF0FBECDBFDF91CF911F910F9152
:103CD000FF90EF90DF90CF90BF90AF909F908F902C
:103CE0007F906F905F904F903F902F9008958091BC
:103CF0003A1F90913B1FA0913C1FB0913D1F8093B4
:103D0000060290930702A0930802B09309028091E3
:103D10003E1F90913F1FA091401FB091411F809383
:103D20000A0290930B02A0930C02B0930D028091B3
:103D3000421F9091431FA091441FB091451F809353
:103D40000E0290930F02A0931002B0931102809183
:103D5000461F9091471FA091481FB091491F809323
:103D6000120290931302A0931402B09315020895C7
:103D700080912C0290912D02891708F48057891B9D
:103D800008950E947C2E80912D0280932A020C942B
:103D90000C1ACF93DF93EC018991882319F00E94CC
:103DA000FA26FACFDF91CF910895CF93DF93FC01EC
:103DB0008491EF012196882321F00E94FA26FE01CA
:103DC000F7CFDF91CF910895EF92FF920F931F935A
:103DD000CF93DF931F92CDB7DEB7262FEDB6FEB699
:103DE0006DB77EB7641B71090FB6F8947EBF0FBE26
:103DF0006DBF0DB71EB70F5F1F4F302FF8019E2FFD
:103E0000931B941728F4622F0E94163C9193F7CFCE
:103E1000442361F0F801E40FF11D31978081805D4A
:103E200049830E94FA2649814150F2CF0FB6F89497
:103E3000FEBE0FBEEDBE0F90DF91CF911F910F918F
:103E4000FF90EF90089548E062E00C94E41E8A3001
:103E500020F0843620F442E003C041E001C043E09A
:103E60006AE00C94E41E8F929F92AF92BF92CF9221
:103E7000DF92EF92FF920F931F93CF93DF93CDB713
:103E8000DEB72A970FB6F894DEBF0FBECDBF6B0129
:103E90007C01142F20E030E0A9010E94A63887FFA2
:103EA00007C08DE20E94FA26F7FAF094F7F8F09432
:103EB000012F023060F020E030E048EC52E4C7010E
:103EC000B6010E94293B6B017C010250F2CF10FF2A
:103ED0000AC020E030E040E251E4C701B6010E9490
:103EE000293B6B017C0120E030E040E05FE3C7014B
:103EF000B6010E94CD370E941539E1E0F0E0EC0FE9
:103F0000FD1FE10FF11D2EE22083D12C5AE0852EFA
:103F1000912CA12CB12C6115710581059105A9F099
:103F2000D11201C0D394EE24E394F12CEC0EFD1ECB
:103F3000ED0CF11CA50194010E94363C605DF70177
:103F40006083B901CA01D394E6CF80E3D11648F467
:103F5000E1E0F0E0EC0FFD1FED0DF11D8083D39447
:103F6000F5CF8D2DD1120BC0D394D3948F5FE1E0A8
:103F7000F0E0EC0FFD1FE80FF11D80E38083DD20F2
:103F800041F0FE01ED0DF11D80810E94FA26DA94C8
:103F9000F6CF2A960FB6F894DEBF0FBECDBFDF91E5
:103FA000CF911F910F91FF90EF90DF90CF90BF9036
:103FB000AF909F908F90089520916A2020FF08C0B5
:103FC0002BE832E441E25DE30E94293B44E001C07A
:103FD00043E00C94331F20916A2020FF08C02BE897
:103FE00032E441E25DE30E94293B41E001C040E050
:103FF0000C94331F43E00C94331FE7E0F1E0808121
:104000008F778083E8E0F1E0808180688083089585
:1040100010925C1F90916A2097FD03C090E89093E6
:104020005C1F882329F080915C1F805880935C1F5F
:10403000089580910601807890915C1F89270895EA
:10404000809102028130A1F40E941920882381F01E
:104050001092020280E1EAE3FFE1AAE4BFE10190ED
:104060000D928A95E1F780910102806480930102AC
:104070000895EF92FF920F931F93CF93DF93D1E0B8
:1040800008E080E2F82E10E190E4E92EC0910002F1
:10409000CC2399F1D093371FC1FF02C081E00FC03C
:1040A000C2FF02C082E00BC0C3FF02C083E007C0B2
:1040B000C4FF02C084E003C0C5FF03C085E00E94C6
:1040C0004F220E94B72AC0FD08C08FB7F894909184
:1040D0000002109200028FBF10C081E00E947F2278
:1040E0009FB7F894809101028F7E809301029FBF59
:1040F0008091010284FFFCCFE8CFC0910102CC2364
:1041000009F4BBC0C4FF04C081E08093361FCDC05A
:10411000C0FF0AC00E94D2259FB7F8948091010287
:104120008E7F809301029FBF8C2F887609F43EC05A
:104130008091371F882349F0982F9C7779F1883038
:1041400021F40E947C2ED093381F8091371F81115B
:1041500003C092E09093381FC6FF09C0883011F465
:10416000E092371F8091381F88608093381FC3FF0B
:1041700005C08091371F85FF1093371FC5FF0EC004
:104180000E94B72A86E00E947F228091381F81FD1D
:10419000C46084608093381FF092371F9FB7F894F3
:1041A000809101028779809301029FBFC1FF44C0C3
:1041B0008C2F8876C9F58091371F882331F0807560
:1041C00099F18091381F81FF2FC08091381F82FFA5
:1041D00018C08091B91E882351F04091BB1E5091A8
:1041E000BC1E6091BD1E7091BE1E0E94D82A809197
:1041F000B81E882331F00E94520688EE93E00E9498
:10420000DB190E944C1B892B59F08091381F83FDCC
:1042100007C00093371F0E949E2E0E945D2B02C094
:104220001092371F1092381F9FB7F89480910102A7
:104230008D7F809301029FBFC2FF1FC08091371FF7
:10424000807379F08091391F81110BC08091381FE4
:1042500082FD0E94B72A8091381F82608093381FA8
:1042600004C01092381F1092371F9FB7F8948091A6
:1042700001028B7F809301029FBF8091371F8C7753
:1042800011F00E949E2E8091371F803251F4809150
:10429000381F81FF06C00E943B35811102C0109378
:1042A000371F8091381F8111F1CEDF91CF911F917F
:1042B0000F91FF90EF9008959FB7F89480910102BD
:1042C0008260809301029FBF08951F93CF93DF9375
:1042D0000E94AE228091371F813021F482E00E943B
:1042E0007F2212C00E943B35882341F08091010259
:1042F0008062809301020E94392002C01092371F11
:104300008EE79BE10E943D350E940306C0E0D0E0AD
:104310000E944427182F8F3F09F452C00E940306C1
:104320001A3011F01D3029F5EC2FF0E0E258F44E70
:1043300010820E9439208091361F8111E7CF809131
:104340007E1B811103C00E94FE21E0CF8452823087
:1043500028F48EE79BE10E945C35F5CF8091371FF2
:10436000813011F489E0EFCF8EE79BE10E943A079C
:10437000EACFDD2329F0193259F6D130F9F4C7CF4D
:10438000113230F21F3221F21832B1F01B33B1F08A
:10439000CF3428F08BE00E94FE21C0E0B9CF2C2F53
:1043A00030E0CF5F8FE9810FF901E258F44E8A3196
:1043B00008F410521083ACCFD1E0AACFD2E0A8CF3E
:1043C0000E945C210E9439208091361F882309F4C5
:1043D0009FCFDF91CF911F9108950E945C210E9491
:1043E00039208091361F811108C00E944C1B892BF7
:1043F000B1F78091371F883091F30895CF93C82F7C
:10440000811103C08AE79BE047C082E79BE00E94DE
:10441000D51E4C2F50E0FA013197E632F10598F5A0
:10442000E956FF4F0C94583C8AE59BE002C088E4B3
:104430009BE00E94D51E2EC086E39BE0FACF8CE263
:104440009BE0F7CF8BE19BE0F4CF8CE09BE0F1CFDA
:104450008BEE9AE0EECF82EE9AE0EBCF87ED9AE01A
:10446000E8CF84EC9AE0E5CF86EB9AE0E2CF80EAF1
:104470009AE0DFCF8CE89AE0DCCF88E79AE0D9CFEA
:1044800084E69AE0D6CF82E59AE00E94D51E8C2F72
:104490000E94271F8FE49AE0CF910C94D51ECF93F2
:1044A000C82F87E49AE00E94D51E8C2F90E0FC0173
:1044B0003197E730F105D0F4E354FF4F0C94583CAA
:1044C0008CE39AE011C081E39AE00EC08EE19AE09D
:1044D0000BC083E19AE008C087E09AE005C08BEF4B
:1044E00099E002C087EE99E00E94D51E84EE99E023
:1044F0000E94D51E84EF91E0CF910C94DB19CF93ED
:10450000C82F82EE99E00E94D51E8C2F90E0FC010E
:104510003197E830F105E8F4EC53FF4F0C94583C28
:1045200080ED99E014C08CEB99E011C08AEA99E023
:104530000EC082EA99E00BC089E999E008C08EE8D4
:1045400099E005C086E899E002C083E799E00E94FF
:10455000D51E8FE699E0CF910C94D51E82E599E0A7
:104560000C94D51E8EE897E00C94D51EDF92EF9246
:10457000FF920F931F93CF93DF938AE897E00E94F7
:10458000D51E80915D200E94271F81E797E00E9441
:10459000D51E809160200E94271F83E597E00E942E
:1045A000D51E80915E200E94271F8AE397E00E941B
:1045B000D51E80915E200E94231F83E397E00E9416
:1045C000D51E80915F200E94271F8BE197E00E94FB
:1045D000D51E80915F200E94231F84E197E00E94F6
:1045E000D51E80916A2082FB882780F90E94271FB0
:1045F00083EF96E00E94D51E80916A2086FB882773
:1046000080F90E94271F83ED96E00E94D51E8091BD
:104610006A20881F8827881F0E94271F83EB96E047
:104620000E94D51E809161200E94271F8DE996E08F
:104630000E94D51E809161200E94231F85E996E08B
:104640000E94D51E60916220709163208091642049
:10465000909165200E94FA1F85E796E00E94D51E82
:104660006091662070916720809168209091692008
:104670000E94FA1F8AE596E00E94D51E80916A206A
:1046800081700E94271F8DE396E00E94D51E8091C5
:104690006A2085FB882780F90E94271F82E296E026
:1046A0000E94D51E80916A2083FB882780F90E9492
:1046B000271F87E096E00E94D51E80916A20829590
:1046C00081700E94271F8BEE95E00E94D51E80917D
:1046D0006B200E94271F81ED95E00E94D51E8091DE
:1046E0006B200E94231F89EC95E00E94D51E6091EB
:1046F0006C2070916D2080916E2090916F200E94AF
:10470000FA1F8CEA95E00E94D51E6091702070918E
:10471000712080917220909173200E94FA1F8FE87F
:1047200095E00E94D51E809174200E94271F80E78B
:1047300095E00E94D51E609176207091772080913F
:104740007820909179200E94FA1F83E595E00E94DD
:10475000D51E809104020E94271F8AE295E00E94E4
:10476000D51E84E6D82EF12C0DE110E2CDE3D0E287
:10477000E12C88E295E00E94D51E8E2D8D0D0E94C1
:10478000271F86E295E00E94D51E82E0F81691F080
:10479000E3E0FE16D1F0F1E0FF1631F0F8016081A0
:1047A00071818281938118C0F80160897189828941
:1047B000938912C020E030E041E655E468817981B8
:1047C0008A819B810E94AD3807C088899989AA890E
:1047D000BB89BC01CD0190580E94FA1F83E295E08D
:1047E0000E94D51EF2E0EF1661F083E0E81661F05A
:1047F000E1E0EE1619F081E295E008C08FE195E066
:1048000005C08DE195E002C08BE195E00E94D51EC8
:10481000F2E0FF1661F083E0F81661F0E1E0FE16C9
:1048200019F081E195E008C08FEF94E005C08EEEAD
:1048300094E002C08EED94E00E94D51E8AED94E0D3
:104840000E94D51EE3940C5F1F4F2496F4E0EF12F4
:1048500090CF8AE0D80EF394ECE8DE1285CFDF919A
:10486000CF911F910F91FF90EF90DF900895CF931C
:1048700084ED94E00E94D51EC0E06C2F8AE49FE195
:104880000E94E3360E94DC1FC33021F082ED94E0E9
:104890000E94D51ECF5FC43081F780ED94E00E9466
:1048A000D51E80915A1F0E94271F8CEC94E0CF9157
:1048B0000C94D51EEF92FF920F931F93CF93DF932B
:1048C000CDB7DEB760970FB6F894DEBF0FBECDBF91
:1048D000F12CBE016F5F7F4F8F2D0E944229811105
:1048E00004C087E00E94FE2169C089EC94E00E9428
:1048F000D51E86E0F81631F0E7E0FE1208C083EC22
:1049000094E002C086EC94E00E94D51E04C086E3C9
:104910008F0D0E94271F81EC94E00E94D51E8E010E
:104920000F5F1F4FE12CF80161917191819191917D
:104930008F010E94DC1FF3E0EF1619F08FEB94E07B
:1049400002C08BEB94E00E94D51EE39484E0E81251
:10495000EACFF394E8E0FE12BCCF85EB94E00E942E
:10496000D51E08EE1EE1F12CF80161917191819143
:1049700091918F010E94DC1FF3E0FF1619F083EB89
:1049800094E002C08FEA94E00E94D51EF39484E084
:10499000F812EACF89EA94E00E94D51E6091F81ED1
:1049A0007091F91E8091FA1E9091FB1E0E94DC1FEF
:1049B00085EA94E00E94D51E0E94372460960FB6C7
:1049C000F894DEBF0FBECDBFDF91CF911F910F9145
:1049D000FF90EF90089583EA94E00E94D51E8091A5
:1049E000B01E823091F038F4882361F08130A9F450
:1049F0008DE994E00CC0833069F0883071F483E96C
:104A000094E005C080EA94E002C08AE994E00E9444
:104A1000D51E0CC087E994E0FACF8EE894E00E949E
:104A2000D51E8091B01E82500E94271F8BE894E013
:104A30000E94D51E8091B61E8A5C0E94271F80911D
:104A4000B41E813049F028F0823051F48CE794E0B4
:104A500005C086E894E002C081E894E00E94D51E7B
:104A60008091B21E811103C087E794E002C082E703
:104A700094E00E94D51E8091B31E811103C08DE683
:104A800094E002C088E694E00E94D51E8091B11E99
:104A9000813019F483E694E002C08EE594E00E9430
:104AA000D51E8091B71E813049F028F0823051F434
:104AB00082E594E005C08AE594E002C086E594E0D2
:104AC0000E94D51E8091B91E813031F040F08230B5
:104AD00051F48AE494E005C08EE494E002C086E4D8
:104AE00094E00E94D51E8091B81E882329F0823060
:104AF00039F48EE394E002C082E494E00E94D51E73
:104B00008BE394E00E94D51E8091C31E0E94271F54
:104B100088E394E00E94D51E6091BF1E7091C01E74
:104B20008091C11E9091C21E0E94EB1F85E394E00C
:104B30000E94D51E6091BB1E7091BC1E8091BD1E4F
:104B40009091BE1E0E94EB1F81E394E00C94D51E51
:104B50001F93CF93DF93182FEB018EE294E00E9416
:104B6000D51E812F0E94271F8CE294E00E94D51E43
:104B7000CE010E94C91E89E294E0DF91CF911F917E
:104B80000C94D51ECF93DF93EC0189E194E00E9451
:104B9000D51ECE010E94C91E85E194E0DF91CF9120
:104BA0000C94D51EBF92CF92DF92EF92FF920F939B
:104BB0001F93CF93DF93CDB7DEB7A0970FB6F894CE
:104BC000DEBF0FBECDBF80E1EAE3FFE1DE0151961B
:104BD00001900D928A95E1F78091371F8430E9F0BA
:104BE00040F48130E9F080F0823009F580EF93E005
:104BF0001CC0803179F018F4883049F018C0803238
:104C000091F0803421F013C08FE094E00EC08AE070
:104C100094E00BC084E094E008C08EEF93E005C000
:104C200087EF93E002C08AEE93E00E94D51E809148
:104C30006120837039F0BE016F5E7F4FCE01019617
:104C40000E94FD368091612080FD05C08091612029
:104C500081FF6AC01CC083EE93E00E94D51E8E01C6
:104C60000F5F1F4FF12CF80161917191819191912A
:104C70008F010E94DC1FF3E0FF1621F081EE93E02C
:104C80000E94D51EF39424E0F212EDCFDFCF8AED1F
:104C900093E00E94D51E98EDE92E9EE1F92E8E013B
:104CA0000F5F1F4FB12C6801F701619171918191E4
:104CB00091917F0124853585468557850E94CD37A2
:104CC0009B01AC01F80160817181828193810E9416
:104CD000CC37F8016083718382839383F2E0BF1243
:104CE0000FC02091F81E3091F91E4091FA1E50918C
:104CF000FB1E0E94CC37F80160837183828393830B
:104D00000C5F1F4FF60160817181828193810E9447
:104D1000DC1FF3E0BF1621F088ED93E00E94D51E62
:104D2000B39424E0B212BFCF8091612082FF08C00B
:104D300082ED93E00E94D51E0E94B81E0E94271F9C
:104D40008091612083FF08C08DEC93E00E94D51E06
:104D50000E94DB260E94271F8091612085FF09C0E9
:104D600086EC93E00E94D51E0E94303741E00E94FD
:104D7000331F8091612084FF0AC080EC93E00E9481
:104D8000D51E0E94B81144E062E00E94E41E8CEB44
:104D900093E00E94D51EA0960FB6F894DEBF0FBE1A
:104DA000CDBFDF91CF911F910F91FF90EF90DF90DA
:104DB000CF90BF9008959091D01B8091D11B8917FF
:104DC00008F48058891B0895E0ECF0E0808182604F
:104DD00080831092C50080E18093C400E1ECF0E094
:104DE0008081806180838081886080838081806809
:104DF00080830895E091CF1B91E09E0F903409F4D9
:104E000090E02091CE1B921305C02091010224FF57
:104E1000F8CF0895F0E0E35AF04E80839093CF1BD3
:104E20008091C10080628093C10008951F920F920B
:104E30000FB60F9211240BB60F928F939F93EF939F
:104E4000FF938091CE1BE82FF0E0E35AF04E908163
:104E50009093C6008F5F803409F480E08093CE1B6E
:104E60009091CF1B891305C08091C1008F7D8093E5
:104E7000C100FF91EF919F918F910F900BBE0F900A
:104E80000FBE0F901F9018959091D01B8091D11B51
:104E9000891761F0E92FF0E0E356F04E80819F5FC3
:104EA000903809F490E09093D01B08958FEF089507
:104EB0001F920F920FB60F9211240BB60F922F93E1
:104EC0003F934F935F936F937F938F939F93AF9392
:104ED000BF93EF93FF938091C6008F33A9F050F4F6
:104EE000883109F1813211F59FB7F8948091010260
:104EF000886015C0803471F08E37C1F49FB7F89484
:104F00008091010282600BC09FB7F89480910102EA
:104F1000816005C09FB7F894809101028062809300
:104F200001029FBF14C00E94001911C0E091D11B63
:104F300091E09E0F903809F490E02091D01B9217D9
:104F400031F0F0E0E356F04E80839093D11BFF9157
:104F5000EF91BF91AF919F918F917F916F915F91F1
:104F60004F913F912F910F900BBE0F900FBE0F905E
:104F70001F9018958091D11B8093D01B089521E537
:104F8000829FC001112440E550E09D5F0C949F0674
:104F900040E550E0BC018EEA93E00C949F0621E1CD
:104FA000829FC001112440E150E09E5F0C949F0657
:104FB00069E080E090E00E947D064DE550E06DE103
:104FC00070E281E090E00C949F06EF92FF920F93C5
:104FD0001F93CF93DF93CDB7DEB760970FB6F894EA
:104FE000DEBF0FBECDBF182F80FFE8C08AE08093E0
:104FF0005D208FEF8093602010925E2010925F20E2
:1050000083E2809361208AE097EDA3E2BCE3809382
:10501000622090936320A0936420B09365208FE674
:1050200092E1A3E0BBE38093662090936720A09376
:105030006820B093692010926B2080E090E0A8E493
:10504000B3E480936C2090936D20A0936E20B09376
:105050006F2080E090E0AAE7B5E480937020909301
:105060007120A0937220B09373208AEF90E0909308
:1050700075208093742080E090E0A0E8BFE38093E7
:10508000762090937720A0937820B093792081E0C8
:105090008093040210926A2081E79DEBA6E0B3E4BE
:1050A00080931D2090931E20A0931F20B09320205A
:1050B0008093212090932220A0932320B09324203A
:1050C0008093252090932620A0932720B09328201A
:1050D0008093292090932A20A0932B20B0932C20FA
:1050E00040E050E066E174E440932D2050932E2080
:1050F00060932F20709330204093312050933220C2
:1051000060933320709334204093352050933620A1
:1051100060933720709338204093392050933A2081
:1051200060933B2070933C2040E050E86BEB75E4CB
:1051300040933D2050933E2060933F207093402049
:105140004093412050934220609343207093442029
:105150004093452050934620609347207093482009
:105160004093492050934A2060934B2070934C20E9
:1051700040E050E068E473EC40934D2050934E20A3
:1051800060934F20709350204093512050935220B1
:105190006093532070935420409355205093562091
:1051A00060935720709358204093592050935A2071
:1051B00060935B2070935C200E94D82711FF10C081
:1051C000CE0101967C0180E1F70111928A95E9F701
:1051D00000E0B701802F0E94CF270F5F0830C9F78A
:1051E00012FF0AC060E080E093E00E947D0660E06C
:1051F00081E593E00E947D0613FF05C060E08EEA22
:1052000093E00E947D0660960FB6F894DEBF0FBE55
:10521000CDBFDF91CF911F910F91FF90EF90089537
:105220001F93CF93DF93182FEB0181E5189FB001F7
:1052300011247D5F40E550E0CE010E94DD06892B00
:1052400039F41882BE01812F0E94BF2780E001C07F
:1052500081E0DF91CF911F910895CF93DF93EC010F
:1052600040E550E06EEA73E00E94DD06892B31F4E0
:105270001882CE010E94C82780E001C081E0DF9142
:10528000CF9108951F93CF93DF93182FEB0181E106
:10529000189FB00111247E5F40E150E0CE010E94D2
:1052A000DD06892B59F480E1FE0111928A95E9F718
:1052B000BE01812F0E94CF2780E001C081E0DF91F5
:1052C000CF911F91089580E090E00E94750689308B
:1052D00011F080E008954DE550E061E070E08DE16F
:1052E00090E20E94DD06892BA1F381E08093040205
:1052F0000895CF92DF92EF92FF921F93CF93DF93A7
:10530000C82F6A017B01122F20E030E0A901C701FC
:10531000B6010E94A63887FDE4C0C436F0F1C45639
:1053200080E0C43088F5D0E0CC0FDD1FCC0FDD1F4E
:10533000823051F08330E9F0813019F0C35EDF4DE7
:105340001EC0C35DDF4D1BC0C35CDF4D20E030E0FD
:1053500040E752E4C701B6010E94293B20E030E05B
:1053600040E752E40E94293B688379838A839B83C8
:10537000B3C0C35BDF4DF7FAF094F7F8F094C8823E
:10538000D982EA82FB82A8C08F5FCA3008F4ABC022
:10539000843009F4A8C0CA50C4CFC701B6010E9426
:1053A000F73B0E941A398C2F90E08D31910508F05F
:1053B0009AC0FC01E453FF4F0C94583C633008F44E
:1053C00094C060935D2088C06093602085C0609326
:1053D0005E2002C060935F200E94EE2D7DC0809110
:1053E0006A20662311F0846007C08B7F05C080911E
:1053F0006A20662321F0806480936A206DC08F7BD1
:10540000FBCF80916A20662311F08068F5CF8F77FB
:10541000F3CF6093612060C0C0926220D09263207D
:10542000E0926420F092652057C0C0926620D0922E
:105430006720E0926820F09269204EC080916A2037
:10544000662311F08160D8CF8E7FD6CF80916A20FD
:10545000662321F084FF4BC08062CECF8F7DCCCFFE
:1054600080916A20662311F0886001C0877F809355
:105470006A200E94A11130C080916A20662311F039
:105480008061BACF8F7CB8CF60936B2025C0C0926B
:105490006C20D0926D20E0926E20F0926F201CC0A4
:1054A000C0927020D0927120E0927220F09273200E
:1054B00013C070E070937520609374200DC0C0928B
:1054C0007620D0927720E0927820F092792004C064
:1054D000653678F460930402113069F40E94D8278D
:1054E0000AC084E009C083E007C086E005C08AE006
:1054F00003C086E201C080E0DF91CF911F91FF9051
:10550000EF90DF90CF9008950E946329811108C029
:1055100087E00E94FE218FEF0E94E5270C94B622BF
:105520000895882331F0813031F0833031F488E000
:10553000089581E0089582E0089584E00895882325
:1055400031F0813031F0833031F480E1089580E82A
:10555000089580E4089580E20895882321F0813041
:1055600021F480E2089580E1089580E40895109286
:10557000D21BE0EAF0E080818F7D80831092AB0047
:105580001092AA00E2E0F1E08081877F8083109290
:1055900003022F980895279A2F98E1E0F1E0808187
:1055A000806180838081886080836B9A0C94B72AA5
:1055B000CF92DF92EF92FF926A017B01811106C0C8
:1055C000FF90EF90DF90CF900C94B72A8091030268
:1055D00081111EC021E0209303022F9A1092AB008C
:1055E0001092AA0083E08093A0008091A100807EA9
:1055F00089618093A10089EF96E09093A900809340
:10560000A800809102018860809302012093D21B40
:1056100020E030E0A901C701B6010E94A93A18169E
:10562000D4F48091A00080628093A000C701B601ED
:105630000E94153947E0469F9001479F300D112485
:105640006091040270E0C9010E94223C7093AB009B
:105650006093AA0005C08091A0008F7D8093A00078
:10566000FF90EF90DF90CF900895CF93DF9300D01D
:105670001F921F92CDB7DEB79091371F9230A9F0DD
:105680004A835B836C837D8389830E94ED214A81F9
:105690005B816C817D8189810F900F900F900F90BD
:1056A0000F90DF91CF910C94D82A0F900F900F900C
:1056B0000F900F90DF91CF91089580916A2082FF23
:1056C00004C080910201806403C0809102018F7B3D
:1056D000809302018091371F8C70A1F08091031C90
:1056E0008093171C8091041C8093161C80915D2070
:1056F000880F845081958093151C80916F00826083
:1057000080936F00089580916F008D7F80936F006C
:1057100080918100887F8160809381001092021CBB
:10572000809160208F3F21F490910002992349F0ED
:105730009091371F943029F090E00E94DB1981E0AE
:1057400001C080E090916A2092FF02C091E0892719
:10575000882321F080910201806403C080910201BE
:105760008F7B809302010895EFE6F0E080818D7FCA
:105770008083E1E8F0E08081887F816080831092FF
:10578000021CE2E0F1E080818064808308951F9232
:105790000F920FB60F9211240BB60F920F931F9317
:1057A0002F933F934F935F936F937F938F939F9329
:1057B000AF93BF93CF93DF93EF93FF938091021C3E
:1057C0008111DFC198B18091171C807F9F70892B58
:1057D00088B982B1807F9091161C892B82B9809103
:1057E000151C86BD82E085BD81E08093021C789403
:1057F00080912D1C90912E1C892B09F0A4C08091C2
:10580000071C9091061C981709F492C0E091071CA0
:1058100086E0E89FF0011124E15DF34EF0932E1C29
:10582000E0932D1C8381948190938900809388005C
:10583000808191819093291C8093281CA281809162
:105840002A1C8A1771F1A0932A1C85E1A89FD00118
:105850001124A154B34EB0932C1CA0932B1C519631
:105860008D919D910D90BC91A02DB695A795979582
:1058700087958093101C9093111CA093121CB093D9
:10588000131C80930C1C90930D1CA0930E1CB093C2
:105890000F1C8093081C9093091CA0930A1CB093C2
:1058A0000B1CC0912B1CD0912C1C8091031C988147
:1058B00089278093171C258189819A81AB81BC81BE
:1058C000022E04C0B695A795979587950A94D2F7AE
:1058D0008093181C9093191CA0931A1CB0931B1C46
:1058E0008D819E81AF81B885022E04C0B695A795A3
:1058F000979587950A94D2F780931C1C90931D1C52
:10590000A0931E1CB0931F1C89859A85AB85BC850E
:1059100004C0B695A795979587952A95D2F7809359
:10592000201C9093211CA093221CB093231C0BC01D
:105930000E94832B9FB7F89480910102846080932A
:1059400001029FBF1EC10E9420201092161C409190
:10595000181C5091191C60911A1C70911B1C80918D
:10596000081C9091091CA0910A1CB0910B1C480FB7
:10597000591F6A1F7B1F4093081C5093091C60939A
:105980000A1C70930B1CE0912B1CF0912C1C81893C
:105990009289A389B48984179507A607B70758F594
:1059A00021E02093161C481B590B6A0B7B0B40937C
:1059B000081C5093091C60930A1C70930B1C2081D7
:1059C00040913A1F50913B1F60913C1F70913D1FC9
:1059D00027FF05C0415051096109710904C04F5F9B
:1059E0005F4F6F4F7F4F40933A1F50933B1F609321
:1059F0003C1F70933D1F40911C1C50911D1C6091D9
:105A00001E1C70911F1C00910C1C10910D1C2091EC
:105A10000E1C30910F1C400F511F621F731F4093CB
:105A20000C1C50930D1C60930E1C70930F1C84175C
:105A30009507A607B70768F52091161C22602093EA
:105A4000161C481B590B6A0B7B0B40930C1C509384
:105A50000D1C60930E1C70930F1C208140913E1F03
:105A600050913F1F6091401F7091411F26FF05C05C
:105A7000415051096109710904C04F5F5F4F6F4F79
:105A80007F4F40933E1F50933F1F6093401F709382
:105A9000411F4091201C5091211C6091221C70914B
:105AA000231C0091101C1091111C2091121C30918C
:105AB000131C400F511F621F731F4093101C509303
:105AC000111C6093121C7093131C84179507A60772
:105AD000B70758F52091161C24602093161C481B0C
