:100000000C94C9050C94EA050C94EA050C94EA05D5
:100010000C94EA050C94EA050C94EA050C94EA05A4
:100020000C94EA050C94D0120C94EA050C94C43597
:100030000C94EA050C94EA050C94EA050C94EA0584
:100040000C94EA050C94812C0C94EA050C94EA05B6
:100050000C94EA050C94EA050C94EA050C949E2E87
:100060000C94EA050C943D280C94FB270C94EA05AB
:100070000C94EA050C94EA050C94EA050C94EA0544
:100080000C94EA050C94EA050C94EA050C94EA0534
:100090000C94EA050C94EA050C94EA050C94EA0524
:1000A0000C94EA050C94EA050C94EA050C94EA0514
:1000B0000C94EA050C94EA050C94EA050C94681279
:1000C0000C94EA050C94EA050C94EA050C94EA05F4
:1000D0000C94EA050C94EA050C94EA050C94EA05E4
:1000E0000C94EA052A090E110E11340941094E0932
:1000F0005B090E115F090E116D090E117709810957
:10010000B2090E110E110E118B099809A509D40F11
:10011000E50F0410E50F08101B100E10141030101E
:10012000361045105C1080108A109610A010022323
:1001300005230A230D2310231323162319231C231D
:100140001F23222331233123312331233123312330
:1001500031233123282325232B233123312331231A
:1001600031233123312331233123312331233123EF
:1001700031233123312331232E234E235123542382
:1001800057235A235D2360237E23812384238723DF
:100190008A238D2390239323A32AA92AAC2AAF2A4A
:1001A000B42ABC2AC62A3A2B3A2B3A2BCE2AD12A79
:1001B000DA2AE32A3A2B3A2B3A2B3A2B3A2B3A2BD0
:1001C000EB2AF52A012B092B0C2B152B1E2B242B8C
:1001D0002D2B084AD73B3BCE016E84BCBFFDC12FFF
:1001E0003D6C74319ABD56833DDA3D00C77F11BE28
:1001F000D9E4BB4C3E916BAAAABE000000803F052B
:10020000A84CCDB2D44EB93836A9020C50B991865B
:1002100088083CA6AAAA2ABE000000803F08000069
:1002200000BE922449123EABAAAA2ABECDCCCC4C29
:100230003E00000080BEABAAAAAA3E00000000BF9C
:10024000000000803F0000000000084178D3BB435D
:1002500087D1133D190E3CC3BD4282AD2B3E68ECE5
:100260008276BED98FE1A93E4C80EFFFBE01C4FF6C
:100270007F3F0000000000000C948D230C94A32A03
:100280000C9481090C94E32A0C945F090C941E2BA6
:100290000C9445100C945A230C9431230C94812314
:1002A0000C9436100C945D230C94092B0C94C62AE4
:1002B0000C945C100C94D40F0C948B090C941C239C
:1002C0000C9410230C9480100C948A100C945123DD
:1002D0000C9414100C9419230C94EB2A0C94A5097B
:1002E0000C944E230C942E230C94CE2A0C940E11B5
:1002F0000C948A230C9434090C943A2B0C944E09D8
:100300000C94B2090C945B090C940D230C940A23F1
:100310000C9460230C941F230C9457230C941623E5
:100320000C94BC2A0C940E100C9484230C940C2B6B
:100330000C9493230C94AF2A0C94A0100C9498095D
:100340000C941B100C94012B0C9428230C94E50F97
:100350000C942A090C947E230C9405230C9404100D
:100360000C942B230C9430100C9487230C94F52AB6
:100370000C94A92A0C942D2B0C9422230C94152B4D
:100380000C94242B0C9477090C9490230C94252323
:100390000C9408100C94B42A0C9454230C9402234B
:1003A0000C94D12A0C9441090C9496100C94DA2ADE
:1003B0000C946D090C9413230C94AC2A3E0D0A0086
:1003C0002C4C696D3A002C4C6173657220506F772C
:1003D00065723A002C54454D503A002C52583A0060
:1003E0002C4275663A002C002C57506F733A002C43
:1003F000002C4D506F733A003C446F6F72003C43C9
:100400006865636B003C416C61726D003C486F6DC8
:1004100065003C486F6C64003C52756E003C49645A
:100420006C65005D0D0A005B302E396A2E3230316A
:1004300036303732363A000D0A003D00244E005D5A
:100440000D0A00205300204600205400204D3800A3
:10045000204D3900204D3500204D3400204D330013
:10046000204D3200204D3100204D300020473934DE
:100470000020473933002047393100204739300008
:1004800020473230002047323100204731390020E8
:100490004731380020473137002047004733382E96
:1004A00000473830004733004732004731004730BB
:1004B000005B005D0D0A005B544C4F3A005D0D0A75
:1004C000002C005B4739323A005D0D0A002C003ADF
:1004D000003330003238005B47005D0D0A003A00FF
:1004E0002C005B5052423A00290D0A00206D6178C1
:1004F0002074726176656C2C206D6D0020616363E1
:10050000656C2C206D6D2F7365635E3200206D610C
:100510007820726174652C206D6D2F6D696E002CD2
:1005200020737465702F6D6D007A0079007800205B
:1005300028003D00240020286C6173657220706FD4
:100540007765722064697669736F722C2025292083
:100550002D2D204E4F542053415645440D0A002066
:1005600028686F6D696E672070756C6C2D6F66669C
:100570002C206D6D290D0A2432383D002028686F2B
:100580006D696E67206465626F756E63652C206DA2
:10059000736563290D0A2432373D002028686F6D8A
:1005A000696E67207365656B2C206D6D2F6D696EAC
:1005B000290D0A2432363D002028686F6D696E6768
:1005C00020666565642C206D6D2F6D696E290D0A9E
:1005D0002432353D00290D0A2432343D002028689C
:1005E0006F6D696E672064697220696E76657274DA
:1005F000206D61736B3A002028686F6D696E67200B
:100600006379636C652C20626F6F6C290D0A24324C
:10061000333D00202868617264206C696D697473D1
:100620002C20626F6F6C290D0A2432323D00202885
:10063000736F6674206C696D6974732C20626F6FC0
:100640006C290D0A2432313D0020287265706F72CA
:100650007420696E636865732C20626F6F6C290D5E
:100660000A2432303D00202861726320746F6C656B
:1006700072616E63652C206D6D290D0A2431333D46
:100680000020286A756E6374696F6E2064657669F0
:100690006174696F6E2C206D6D290D0A2431323D15
:1006A00000290D0A2431313D0020287374617475CE
:1006B00073207265706F7274206D61736B3A0020E5
:1006C0002870726F62652070696E20696E7665723F
:1006D000742C20626F6F6C290D0A2431303D00208C
:1006E000286C696D69742070696E7320696E766517
:1006F00072742C20626F6F6C290D0A24363D002025
:10070000287374657020656E61626C6520696E7611
:100710006572742C20626F6F6C290D0A24353D00C0
:10072000290D0A24343D00202864697220706F72FC
:100730007420696E76657274206D61736B3A00295E
:100740000D0A24333D0020287374657020706F7289
:100750007420696E76657274206D61736B3A002047
:1007600028737465702069646C652064656C6179B8
:100770002C206D736563290D0A24323D00202873F7
:100780007465702070756C73652C207573656329B2
:100790000D0A24313D0024303D00242420287669B0
:1007A0006577204772626C2073657474696E677335
:1007B000290D0A242320287669657720232070617B
:1007C00072616D6574657273290D0A24472028765D
:1007D00069657720706172736572207374617465E6
:1007E000290D0A2449202876696577206275696C8D
:1007F0006420696E666F290D0A244E20287669658B
:1008000077207374617274757020626C6F636B73A0
:10081000290D0A24783D76616C7565202873617610
:1008200065204772626C2073657474696E67290D68
:100830000A25783D76616C756520287365742047BC
:1008400072626C2073657474696E67202D204E4F40
:1008500054205341564544290D0A244E783D6C6975
:100860006E6520287361766520737461727475708B
:1008700020626C6F636B290D0A244320286368652E
:10088000636B2067636F6465206D6F6465290D0A73
:10089000245820286B696C6C20616C61726D206C2F
:1008A0006F636B290D0A2448202872756E20686FCB
:1008B0006D696E67206379636C65290D0A24525354
:1008C000543D782028726573746F726520783D24DA
:1008D0003A2064656661756C742076616C75657329
:1008E0002C20783D233A20706172616D65746572C9
:1008F000732C20783D2A3A20616C6C290D0A245310
:100900002028666F7263652064697361626C65207C
:1009100073746570706572290D0A7E20286379638F
:100920006C65207374617274290D0A212028666534
:10093000656420686F6C64290D0A3F202863757216
:1009400072656E7420737461747573290D0A637413
:10095000726C2D7820287265736574204772626C02
:10096000290D0A000D0A4772626C20302E396A2068
:100970005B27242720666F722068656C705D0D0A06
:10098000005D0D0A00526573746F72696E672064B2
:10099000656661756C74730050676D20456E640008
:1009A000436865636B20446F6F72004469736162D2
:1009B0006C656400456E61626C65640043617574CA
:1009C000696F6E3A20556E6C6F636B656400272407
:1009D00048277C2724582720746F20756E6C6F631E
:1009E0006B00526573657420746F20636F6E746959
:1009F0006E7565005B000D0A0054656D70206C61BA
:100A000073657220746F6F206869676800436F6F49
:100A10006C616E74204F464600486F6D696E6720AA
:100A20006661696C0050726F6265206661696C0076
:100A300041626F727420647572696E6720637963B6
:100A40006C6500536F6674206C696D697400486151
:100A50007264206C696D697400414C41524D3A20BA
:100A6000000D0A00496E76616C69642067636F64EB
:100A7000652049443A00496E76616C6964206C6176
:100A800073657220706F77657200556E6465666974
:100A90006E65642066656564207261746500556EDC
:100AA000737570706F7274656420636F6D6D616EC5
:100AB00064004D6F64616C2067726F757020766999
:100AC0006F6C6174696F6E004C696E65206F76653E
:100AD00072666C6F7700486F6D696E67206E6F7419
:100AE00020656E61626C656400416C61726D206CA2
:100AF0006F636B004E6F742069646C6500454550F0
:100B0000524F4D2072656164206661696C2E2055DC
:100B100073696E672064656661756C7473005661F5
:100B20006C7565203C2033207573656300536574D4
:100B300074696E672064697361626C6564005661F4
:100B40006C7565203C203000496E76616C696420CC
:100B500073746174656D656E7400426164206E75B6
:100B60006D62657220666F726D61740045787065A4
:100B70006374656420636F6D6D616E64206C657471
:100B8000746572006572726F723A20006F6B0D0AA5
:100B9000000011241FBECFEFD1E2DEBFCDBF00E0C9
:100BA0000CBF12E0A0E0B2E0E0E2F9E700E00BBF2A
:100BB00002C007900D92A430B107D9F72EE1A4E04E
:100BC000B2E001C01D92A43AB207E1F70E944915B4
:100BD0000C948E3C0C9400008091080281110E94BC
:100BE0004612809102018F7D8093020110920902CA
:100BF0000895E1E0F1E08081806280830C94EC054F
:100C0000823049F481E08093090280910201806280
:100C10008093020108950C94EC05CF93DF931F920B
:100C2000CDB7DEB79091791D923049F089830E944B
:100C3000DB2289810F90DF91CF910C9400060F90F9
:100C4000DF91CF910895F999FECF92BD81BD81E0EA
:100C50008FBB80B50895F894F999FECF92BD81BD00
:100C600081E08FBB40B54627842F992787FD90955B
:100C7000262F30E082239323892B39F06F3F19F020
:100C800060BD84E006C084E104C0442321F060BD5F
:100C900084E28FBBF99A789408959F92AF92BF92A5
:100CA000CF92DF92EF92FF920F931F93CF93DF9338
:100CB0008C017A016B01C40ED51EEB01912C5C01F5
:100CC000A61AB70ACE018A0D9B1DCC15DD0591F041
:100CD000911009C0692D772767FD7095272F221F76
:100CE0002227221F01C021E06991922E960E0E94B8
:100CF0002B06E8CF692DC8018E0D9F1DDF91CF9186
:100D00001F910F91FF90EF90DF90CF90BF90AF9029
:100D10009F900C942B069F92AF92BF92CF92DF923E
:100D2000EF92FF920F931F93CF93DF938B017A0182
:100D30006C01C40ED51EEC01912C5B01A81AB90AF6
:100D4000C5018C0F9D1FCC15DD0591F00E94230677
:100D5000911009C0292D332727FD3095232F221FFD
:100D60002227221F01C021E0922E980E8993E8CFFE
:100D7000C8018E0D9F1D0E94230621E030E09816C9
:100D800011F020E030E0C901DF91CF911F910F9168
:100D9000FF90EF90DF90CF90BF90AF909F9008951D
:100DA00080E4EDEFFCE1DF011D928A95E9F761E255
:100DB0007DE180E00E94072A811103C087E00C9446
:100DC000EC2208956CE77DE185E19DE10C94C33749
:100DD0002F923F924F925F926F927F928F929F924B
:100DE000AF92BF92CF92DF92EF92FF920F931F9339
:100DF000CF93DF93CDB7DEB7AC970FB6F894DEBFD5
:100E00000FBECDBF9EA38DA38AE3EDE3FDE1DF011D
:100E10001D928A95E9F78BE0EDEFFCE1AEE3BDE1D1
:100E200001900D928A95E1F71D8E212C312CA12C79
:100E3000B12C19A2512C18A266246394712C57E08E
:100E4000952E8824839464E0462E8D8DEDA1FEA11D
:100E5000E80FF11DB081BE8FBB2309F4AAC29E8D9D
:100E600091549A3110F00C9400118F5F8D8FAE0168
:100E7000475E5F4FBE01635E7F4F8DA19EA10E94C2
:100E8000071A882311F40C940211C98CDA8CEB8CAC
:100E9000FC8CC701B6010E94213C0E944439162FE8
:100EA00070E080E090E00E9472399B01AC01C701C4
:100EB000B6010E94F63720E030E048EC52E40E9490
:100EC000533B0E94B63B0E944439BE8DB73421F09B
:100ED000BD3409F442C1ACC1183209F434C1E8F49C
:100EE000143160F4113108F0D9C0143009F45CC039
:100EF00008F490C01A30D9F10C940E111C31B9F1DC
:100F000028F4163108F4F9C00C940E111E3179F151
:100F1000163209F47FC00C940E111D3309F40DC173
:100F2000A8F4153309F463C040F41B3209F4EEC091
:100F3000113309F4EBC00C940E111C3310F00C9417
:100F40000E1116531093441D09E002C11C3540F4E4
:100F50001A3508F0B2C0103509F49CC00C940E117B
:100F60001C3529F01F3508F4BFC00C940E11611513
:100F7000710531F4E8A1E1110C940411F1E0F8A33A
:100F80001C31A9F048F4143079F01A3009F0DDC0B2
:100F900082E080933D1DD9C0153349F11C3551F1D4
:100FA0001E3109F0D2C012C080923D1DCEC0611525
:100FB000710541F06A30710511F00C940E114092E8
:100FC0003D1D0AC023E020933D1D06C0611571053B
:100FD00029F485E080933D1D00E0D1C06A307105A1
:100FE00011F00C940E1196E090933D1DF5CF909268
:100FF0003D1DABC06115710549F06A30710511F0F6
:101000000C940E11B9E0B0933D1DE6CFA8E0A0937B
:101010003D1DE2CFE8A1E1110C940411F2E0F8A328
:10102000123089F028F4112359F0113081F08FC06B
:10103000163281F0103571F1133009F088C007C005
:1010400010923E1D84C028A120933E1D80C01093A5
:101050003E1D7DC06E317105A1F040F46431710513
:1010600011F00C940E1140923E1D12C068327105B1
:1010700061F06233710511F00C940E1190923E1DD7
:1010800007C085E080933E1D03C096E090933E1D0F
:1010900001E075C0A8E0A0933E1D59C0123129F0AF
:1010A000133131F01092421D06C08092421D03C0E0
:1010B00082E08093421D02E04BC06115710549F446
:1010C0001A3519F41092411D02C08092411D03E0AF
:1010D00056C06A30710511F00C940E111A3511F4D6
:1010E0000C940E1104E04BC01D3519F480923F1D85
:1010F00002C010923F1D05E02BC0143119F48092FC
:10110000401D02C01092401D06E022C0B8A1B111DE
:101110000C940411113331F41092431D08E0E3E004
:10112000E8A32DC06A30710511F00C940E11809265
:10113000431D08E0F3E0F8A322C0672B11F00C94E4
:101140000E110AE01CC007E003C000E001C001E08E
:10115000672BA9F087E10C942111672BD9F71A307E
:10116000F0F01C3009F459C010F11E31A1F110F457
:101170000C940E111456123010F00C940E11C30181
:10118000002E02C0880F991F0A94E2F79C012A21C1
:101190003B21232B09F449C085E10C94211118301F
:1011A00068F5133078F01630D0F00C940E111A3028
:1011B00079F11B3011F00C940E110E941E128092D6
:1011C000481DDDCF123039F01E3129F011112BC02E
:1011D0008092451D28C082E08093451D24C01430B4
:1011E00029F0153039F08092471D06C082E08093C7
:1011F000471D02C01092471D0CE0C1CF193021F0ED
:1012000082E08093461D02C01092461D0DE0B7CFCC
:101210000E9446121092481DB2CF0E94481182E0EF
:101220008093481DACCF0BE0AACFA82AB92A0DCED7
:101230002E8D822F992787FD9095A92FB92FFC011C
:10124000E654F109E531F10508F0E8C7EE58FF4F23
:101250000C946E3CC092491DD0924A1DE0924B1DE9
:10126000F0924C1D00E07FC0C0924D1DD0924E1DEB
:10127000E0924F1DF092501D89A1816089A301E089
:1012800072C0C092511DD092521DE092531DF09237
:10129000541D99A1926099A302E065C0C092551DAA
:1012A000D092561DE092571DF092581DA9A1A4603E
:1012B000A9A303E058C01093591D04E054C0C7010E
:1012C000B6010E943F3960935A1D70935B1D809355
:1012D0005C1D90935D1D05E046C0C0925E1DD092DE
:1012E0005F1DE092601DF092611D06E03CC0C0925F
:1012F000621DD092631DE092641DF092651D07E0AF
:1013000032C0C092661DD092671DE092681DF092B7
:10131000691D08E028C0C0926B1DD0926C1DE09240
:101320006D1DF0926E1DB52DB1605B2E0AE01BC0E5
:10133000C0926F1DD092701DE092711DF092721DCF
:10134000E52DE2605E2E0BE00EC0C092731DD092C0
:10135000741DE092751DF092761DF52DF4605F2EE0
:101360000CE001C009E0C301002E02C0880F991FE4
:101370000A94E2F79F8F8E8F82219321892B09F0A7
:1013800045C781E693E0002E02C0959587950A94A3
:10139000E2F780FF09C020E030E0A901C701B601F3
:1013A0000E94D03887FD34C7AE8DBF8D2A2A3B2AD4
:1013B0004CCD552029F0E8A1E11102C0F2E0F8A3DC
:1013C00025FE0EC080915A1D90915B1DA0915C1D61
:1013D000B0915D1D80389649A849B1050CF01AC737
:1013E00080913F1D813031F488A18230A1F520FE2B
:1013F0001BC731C08091FE1C81112DC020FE1BC077
:101400008091401D813039F523E333E34BEC51E407
:101410006091491D70914A1D80914B1D90914C1D0A
:101420000E94533B6093491D70934A1D80934B1D4E
:1014300090934C1D10C080910C1D90910D1DA0919A
:101440000E1DB0910F1D8093491D90934A1DA093CE
:101450004B1DB0934C1D30FC10C08091081D909125
:10146000091DA0910A1DB0910B1D8093661D9093DC
:10147000671DA093681DB093691D80913D1D81304B
:1014800031F426FC02C08CE1DCC6E89426F8809199
:10149000421D882341F0813061F01AA6B2E0B9A75D
:1014A000E1E0EDA30BC092E09AA7A1E0A9A71DA2DD
:1014B00005C0F1E0FAA719A622E02DA38091401DF6
:1014C000813021F088A1833091F52AC03BE6E32EDC
:1014D0003DE1F32E00E010E0C52CD12CC601002E1A
:1014E00002C0959587950A94E2F780FF10C023E328
:1014F00033E34BEC51E4D7016D917D918D919C913B
:101500000E94533BF70160837183828393830F5F53
:101510001F4FF4E0EF0EF11C03301105F9F6D2CFA6
:101520008091431D813019F424E0521275C68CE07D
:10153000E1E2FDE1DE011D9601900D928A95E1F751
:10154000B1FC09C080913D1D8E8F8230B9F088308A
:1015500009F4B0C015C18091441D873010F08DE1B1
:1015600070C69091031D981769F3BE01635F7F4FAA
:101570000E94072A882309F461C6E4CF511002C0F3
:101580008AE15FC6C10180759927892B09F47BCF59
:1015900060915E1D70915F1D8091601D9091611D35
:1015A0000E94213C0E9444396730C8F68091591D41
:1015B000843129F0823009F031C627FC2FC69FEA1A
:1015C0002922662319F061506E8F03C0A091441D3B
:1015D000AE8FBE016F5F7F4F8E8D0E94072A8823DA
:1015E00009F42CC64090591D6090391D70903A1D29
:1015F00080903B1D90903C1DFE0131967F019BE643
:10160000C92E9DE1D92E25E1A22E2DE1B22E00E0BA
:1016100010E0852D90E098A78FA38FA198A5002EAC
:1016200002C0959587950A94E2F780FF33C094E154
:10163000491226C0D50158962D913D914D915C914E
:101640005B976D917D918D919C910E94F637F6018B
:1016500020813181428153810E94F637D7016D93F9
:101660007D938D939C9313970230A1F4A401930171
:101670000E94F637F70160837183828393830AC0E7
:10168000F60180819181A281B381F70180839183EA
:10169000A283B3830F5F1F4FF4E0EF0EF11C24E031
:1016A000C20ED11C84E0A80EB11C0330110509F054
:1016B000B4CF0FC1552009F463CF6090391D7090ED
:1016C0003A1D80903B1D90903C1D0BE61DE185E18D
:1016D000C82E8DE1D82E5E019DE0A90EB11CE12C33
:1016E000F12CA52DB0E0BF8FAE8F8E8D9F8D0E2C6F
:1016F00002C0959587950A94E2F780FF26C0F50110
:101700002081318142815381D6016D917D918D91EE
:101710009C910E94F637F8012081318142815381EA
:101720000E94F637D8016D937D938D939C93139708
:10173000B2E0EB1214C0A40193010E94F637F80145
:1017400060837183828393830AC0F601808D918DBB
:10175000A28DB38DF80180839183A283B383FFEFC1
:10176000EF1AFF0A0C5F1F4F24E0C20ED11C84E069
:10177000A80EB11C93E0E916F10409F0B6CFA8C099
:10178000A8A1A33059F4BE8DB53009F48FC0B7308D
:1017900009F499C0B33009F09BC080C0552099F37B
:1017A0004090411D8090391D90903A1DA0903B1DA6
:1017B000B0903C1D05E1C02E0DE1D02E0BE61DE1E1
:1017C0003E01EDE06E0E711CE12CF12C852D90E0B8
:1017D00098A78FA38FA198A50E2C02C095958795E9
:1017E0000A94E2F780FD0BC0F60180819181A2810D
:1017F000B381F80180839183A283B3833EC0FE8DC1
:10180000F730D9F1411028C0D60158962D913D915D
:101810004D915C915B97F30160817181828193812D
:101820000E94F737D8012D913D914D915C910E9416
:10183000F737F8016083718382839383F2E0EF12BC
:101840001CC0A50194010E94F737D8016D937D93C8
:101850008D939C93139711C0F601208131814281B1
:101860005381D8016D917D918D919C910E94F737A4
:10187000F8016083718382839383FFEFEF1AFF0A7D
:1018800024E0C20ED11C0C5F1F4F84E0680E711C57
:1018900093E0E916F10409F09DCF75CF511001C016
:1018A00018A2BE016F5F7F4F86E007C0511001C0D4
:1018B00018A2BE016F5F7F4F87E00E94072A88232E
:1018C00009F4BCC405C080913E1D823008F0A8C454
:1018D0001E8E10913E1D183041F4552009F4B2C1FE
:1018E000A8A1A13009F09EC489C2B8A1B23009F004
:1018F000A9C11123D9F020E030E0A9016091491D70
:1019000070914A1D80914B1D90914C1D0E94D038C2
:10191000882309F489C4143028F4123058F41130A3
:1019200029F06CC2183008F44CC168C2511066C26C
:1019300018A28BC1552009F423CEFDA1EF2FF0E0B2
:10194000F8A7EFA399A5892F90E09CA78BA781E02A
:1019500090E03C0109A402C0660C771C0A94E2F7EF
:101960000DA002C0880F991F0A94E2F7682A792A0D
:10197000852D90E086219721892B09F457C4EE0F1D
:10198000FF1FEE0FFF1FE35CF24EAFA1B8A5AA0F39
:10199000BB1FAA0FBB1FAB5EB24E2D913D914D9167
:1019A0005C9166A577A580A991A90E94F6376B0185
:1019B0007C01EBA5FCA5EE0FFF1FEE0FFF1FE35C04
:1019C000F24EABA5BCA5AA0FBB1FAA0FBB1FAB5EF7
:1019D000B24E2D913D914D915C9166A577A580A960
:1019E00091A90E94F6374B015C0127FE40C0E894A4
:1019F00027F820916B1D30916C1D40916D1D509109
:101A00006E1D6091151D7091161D8091171D90918E
:101A1000181D0E94D03881111CC120916F1D30917A
:101A2000701D4091711D5091721D6091191D709132
:101A30001A1D80911B1D90911C1D0E94D038811190
:101A400008C12091731D3091741D4091751D5091F6
:101A5000761D60911D1D70911E1D80911F1D90911E
:101A6000201D0E94D0388111F4C081E2EAC3F9A19F
:101A70004F2E512C64207520672809F4D9C321EF1B
:101A800022228091401D813009F456C00BA51CA56F
:101A9000000F111F000F111F035B124ED8012D9173
:101AA0003D914D915C91C501B4010E94F6372B0127
:101AB0003C01AFA0B8A4AA0CBB1CAA0CBB1CF5012E
:101AC000E35BF24E5F012081318142815381C70186
:101AD000B6010E94F637A30192010E94C41A6B015D
:101AE0007C01D8012D913D914D915C91F501608172
:101AF0007181828193810E94C41A4B015C016093C1
:101B0000621D7093631D8093641D9093651D9B01FE
:101B1000AC01C701B6010E94F6376B017C01E89465
:101B2000F7F82AE037ED43EA5BE3C701B6010E940C
:101B3000D33A18164CF162C18DE4682E8DE1782EEF
:101B400000E010E0C201002E02C0959587950A942E
:101B5000E2F780FF10C023E333E34BEC51E4D30101
:101B60006D917D918D919C910E94533BF301608317
:101B70007183828393830F5F1F4FF4E06F0E711C9C
:101B800003301105F9F682CF20E030E040E05FE35A
:101B9000C701B6010E94D33A18160CF466CF2FE69F
:101BA00032E143E85AE3C501B4010E94533B9B0173
:101BB000AC01C701B6010E94D33A18160CF455CFF8
:101BC0001DC1552009F4DCCC20916B1D30916C1D9A
:101BD00040916D1D50916E1D6091151D7091161DE7
:101BE0008091171D9091181D0E94D038811106C157
:101BF00020916F1D3091701D4091711D5091721D8B
:101C00006091191D70911A1D80911B1D90911C1DD2
:101C10000E94D0388111F2C02091731D3091741D43
:101C20004091751D5091761D60911D1D70911E1D76
:101C300080911F1D9091201D0E94D038882309F4A7
:101C400014CFDCC028A12111D9C0C1018E7D9C7F99
:101C5000D8C08091401D8130B1F423E333E34BECD5
:101C600051E46091621D7091631D8091641D90919B
:101C7000651D0E94533B6093621D7093631D8093AA
:101C8000641D9093651D4090621D5090631D60908F
:101C9000641D7090651D20E030E040E850E4C30111
:101CA000B2010E94533BA30192010E94533B2B01BE
:101CB0003C01A7019601C701B6010E94533B9B015D
:101CC000AC01C301B2010E94F6372B013C01A50112
:101CD0009401C501B4010E94533B9B01AC01C301B7
:101CE000B2010E94F6372B013C0120E030E0A9014F
:101CF0000E94D03887FDA4C2C301B2010E94E03B1C
:101D00002B013C01A5019401C701B6010E94C41A30
:101D10009B01AC01C301B20190580E94D7382B013E
:101D20003C0180913E1D833021F477FA709477F85E
:101D300070948091621D9091631DA091641DB0917B
:101D4000651D89A39AA3ABA3BCA320E030E0A90141
:101D5000BC01CD010E94D03887FF11C077FA709482
:101D600077F8709489A19AA1ABA1BCA1B0588093D7
:101D7000621D9093631DA093641DB093651D0FA118
:101D800018A5000F111F000F111F035B124EA301B6
:101D90009201C501B4010E94533B9B01AC01C701F4
:101DA000B6010E94F63720E030E040E05FE30E9499
:101DB000533BD8016D937D938D939C9313970BA503
:101DC0001CA5000F111F000F111F035B124EA30172
:101DD0009201C701B6010E94533B9B01AC01C501B2
:101DE000B4010E94F73720E030E040E05FE30E945A
:101DF000533BF8016083718382839383C1018E7D9D
:101E0000907E892B09F016C280915A1D90915B1D1E
:101E1000A0915C1DB0915D1D8093111D9093121DCA
:101E2000A093131DB093141D80913F1D8093FE1C41
:101E30008091491D90914A1DA0914B1DB0914C1D60
:101E400080930C1D90930D1DA0930E1DB0930F1D3C
:101E5000C090661DD090671DE090681DF090691DD0
:101E6000A70196016091081D7091091D80910A1DBE
:101E700090910B1D0E94D0388823C1F08091061DDF
:101E8000882321F0B701A6010E94EE2B8091661DE8
:101E90009091671DA091681DB091691D8093081DE8
:101EA0009093091DA0930A1DB0930B1D80916A1D8C
:101EB0008093101D8091471D9091061D981771F019
:101EC0004091081D5091091D60910A1D70910B1DD4
:101ED0000E94EE2B8091471D8093061D8091461D28
:101EE0009091051D981731F00E940D068091461DB6
:101EF0008093051D80913D1D813051F460915E1DE0
:101F000070915F1D8091601D9091611D0E94CE189F
:101F10008091421D8093011D8091401D8093FF1C84
:101F200088A18330F9F48091431D8093021D813094
:101F300089F48091731D9091741DA091751DB091CD
:101F4000761D8093391D90933A1DA0933B1DB0934D
:101F50003C1D08C01092391D10923A1D10923B1D75
:101F600010923C1D8091441D9091031D981759F0CB
:101F70008093031D8CE0FE013D96A1E2BDE101903E
:101F80000D928A95E1F78091411D8093001D80910B
:101F90003D1D90E0FC013297E830F10508F04BC0A0
:101FA000E957FF4F0C946E3CBE016F5F7F4F8E8DE3
:101FB0000E94B4288091031D9E8D89133CC08CE043
:101FC000FE013196A1E2BDE11AC0A8A1AA2349F001
:101FD00020E040E050E060E87FEB8BE69DE10E946E
:101FE000811520E040E050E060E87FEBCE010196F3
:101FF0000E9481158CE0FE013196A5E1BDE10190C2
:102000000D928A95E1F717C065E17DE186E003C096
:1020100065E17DE187E00E94B4280DC08CE0EBE62D
:10202000FDE1ADE2BDE1EBCF8CE0EDE2FDE1DF01F2
:102030001D928A95E9F780913E1D8093FD1C8830A2
:1020400009F498C0B8A1B23009F094C090E088308B
:10205000910508F086C0FC01E157FF4F0C946E3CDF
:1020600020E040E050E060E87FEB0AC040910C1DAA
:1020700050910D1D60910E1D70910F1D2091FE1C41
:102080008BE69DE10E9481156CC0C0900C1DD09024
:102090000D1DE0900E1DF0900F1D0091621D10911E
:1020A000631D2091641D3091651D81E08F93EAA529
:1020B000EF93F9A5FF9315C0C0900C1DD0900D1D96
:1020C000E0900E1DF0900F1D0091621D1091631D98
:1020D0002091641D3091651D1F928AA58F9399A54B
:1020E0009F938DA0A090FE1C4DE45DE16BE67DE129
:1020F00085E19DE10E94CF150F900F900F9031C0A8
:1021000040910C1D50910D1D60910E1D70910F1D81
:10211000E12C0AC040910C1D50910D1D60910E1DC7
:1021200070910F1DEE24E39400E015C040910C1D4A
:1021300050910D1D60910E1D70910F1DE12C0AC074
:1021400040910C1D50910D1D60910E1D70910F1D41
:10215000EE24E39401E02091FE1C8BE69DE10E94B9
:1021600040198CE0EBE6FDE1A5E1BDE101900D92A7
:102170008A95E1F78091451D8093041D882309F419
:102180005BC00E94DB229091041D8091791D9130EB
:1021900069F4823091F19FB7F894809106028860CB
:1021A000809306029FBF0E94072127C091E0909371
:1021B000FD1C1092011D1092001D1092FE1C109229
:1021C000031D1092061D1092051D823099F0BE016C
:1021D000635F7F4F80E00E94072A882379F18CE0BB
:1021E000FE013D96A1E2BDE101900D928A95E1F7D5
:1021F0000E94762B87E00E946D231092041D1CC064
:1022000081E01FC082E01DC088E11BC089E119C0C8
:1022100084E017C08BE115C085E213C084E111C0D2
:102220008EE10FC08FE10DC086E10BC080E209C0D6
:1022300083E207C084E205C080E003C087E001C0FC
:1022400082E2AC960FB6F894DEBF0FBECDBFDF9131
:10225000CF911F910F91FF90EF90DF90CF90BF90A3
:10226000AF909F908F907F906F905F904F903F9036
:102270002F900895F89410927300109220018DE031
:10228000809321017894279A2F9810920402089540
:1022900082E00E940D062F981092B400EBE0F1E06E
:1022A0008081877F808380818D7F80831092080268
:1022B00081E008958091AA009091AB000895CF929B
:1022C000DF92EF92FF9280E00E94E93710921002B5
:1022D00010921102109212021092130210920F0229
:1022E00080910F028A3030F5C0901002D090110218
:1022F000E0901202F090130280E00E94E937BC01E6
:10230000882777FD8095982F0E9472399B01AC0138
:10231000C701B6010E94F737609310027093110253
:10232000809312029093130280910F028F5F80932B
:102330000F02D6CF20E030E040E251E4609110027D
:102340007091110280911202909113020E94D7386D
:102350009B01AC0160E070EC8FE794E40E94D738F9
:1023600020E030E040E85FE30E94F6379B01AC01DB
:1023700060E078E38AE196E40E94D7386093100227
:1023800070931102809312029093130220E030E4C4
:102390004CE156E40E94D7380E94E33A20E030EE48
:1023A00046E755E40E94D7382FE03FEC4BE55BE36E
:1023B0000E94F7379B01AC0160E070E080E89FE38A
:1023C0000E94D73823E333E948E853E40E94F63704
:1023D00060930B0270930C0280930D0290930E0297
:1023E000FF90EF90DF90CF9008951092250110920A
:1023F0002401AB01BC01453051056105710520F098
:1024000044E050E060E070E029E03DE3429FC0011D
:10241000439F900D529F900D11249093290180931A
:10242000280181E08093771D82E080937300809182
:10243000771D8130E1F31092730008950F931F937D
:10244000CF93DF9382E00E940D062F9AC0E0D2E086
:1024500001E010E020910B01C801099002C0880F33
:10246000991F0A94E2F7282B20930B0181E090E05A
:102470000E94F51182E0C330D80761F781E08093B4
:102480000802DF91CF911F910F910895CF93DF93B1
:1024900082E00E940D062F981092B400CBE0D1E0AC
:1024A00087EF888381E090E00E94F5118DEF8883AB
:1024B00081E090E00E94F5118BEF888381E090E04D
:1024C0000E94F5111092080281E0DF91CF910895EA
:1024D0001F920F920FB60F9211241092771D0F903A
:1024E0000FBE0F901F901895EBE6F0E080818F787B
:1024F0008083E8E6F0E080818E7F8083089584B158
:102500008F7884B985B1806785B98091941E83FFE7
:102510000BC080916B00806780936B008091680096
:1025200081608093680008950C947412CF92DF92BA
:10253000FF920F931F93CF93DF931F92CDB7DEB718
:1025400093B190778091941E86FD02C080E7982712
:102550009923D9F0C12CD12CF12C01E010E08C2D65
:1025600099830E946C2B9981892339F098010C2C56
:1025700001C0220F0A94EAF7F22A8FEFC81AD80A8C
:10258000E3E0CE16D10459F701C0F12C8F2D0F9046
:10259000DF91CF911F910F91FF90DF90CF90089521
:1025A0001F920F920FB60F9211240BB60F922F931A
:1025B0003F934F935F936F937F938F939F93AF93CB
:1025C000BF93EF93FF938091791D813071F08091DB
:1025D000050281110AC00E94DE199FB7F89480910C
:1025E00005028360809305029FBFFF91EF91BF9129
:1025F000AF919F918F917F916F915F914F913F919B
:102600002F910F900BBE0F900FBE0F901F9018953B
:102610002F923F924F925F926F927F928F929F92F2
:10262000AF92BF92CF92DF92EF92FF920F931F93E0
:10263000CF93DF93CDB7DEB767970FB6F894DEBFC1
:102640000FBECDBF582E8091781D8111A1C12BE7FF
:10265000A22E2EE1B22E9E01235F3F4F190100E012
:1026600010E0C12CD12C7601652C712C802F0E949A
:10267000582BD1018D931D01C301002E02C09595E9
:1026800087950A94E2F780FF1AC020E030E040EC22
:102690005FEBF50160817181828193810E94533BE0
:1026A000688B472E4C01262F372FAC01C701B6018E
:1026B0000E94D33A18161CF0C888D42C74010F5FFE
:1026C0001F4FF4E0AF0EB11C0330110579F6809076
:1026D0009A1E90909B1EA0909C1EB0909D1E24E080
:1026E000288B01E06CE77DE1CE0101960E94C337A3
:1026F0002090951E312CFE0131968CE79DE19F8B39
:102700008E8B80E090E0412C10E0B701A60170585C
:102710009301082E02C0359527950A94E2F720FF11
:1027200028C04394AE89BF891D921D921D921C92B0
:1027300013979101082E02C0359527950A94E2F768
:1027400020FF03C0002319F007C0002329F0C08236
:10275000D182E282F38204C0408351836283738317
:102760002DE030E02C0F3D1F280F391FD9012C918F
:10277000122B019634962E893F892C5F3F4F3F8B59
:102780002E8B8330910521F6642D70E080E090E07F
:102790000E9470390E94E03B9B01AC01C501B4016D
:1027A0000E94533BAB01BC011093951D4A8B5B8B80
:1027B0006C8B7D8B0E94551F20E04A895B896C8958
:1027C0007D89CE0101960E945C1C0E94642F0E94AC
:1027D000172C0023E9F00E949612FE013D9620E09E
:1027E00030E090E06191462F412359F0AC01022E78
:1027F00002C0559547950A94E2F740FF02C06095E4
:1028000016232F5F3F4F2330310561F71093951D3D
:102810000E94642F809106028473C1F080910602A9
:10282000807329F00E94DE190E940721B1C00111B6
:10283000AAC00E9496128521A9F79FB7F8948091AB
:1028400006028B7F809306029FBF04C0812F8C718C
:1028500009F0BFCF0E94F02E0E94051C80919E1EA1
:1028600090919F1E0E94B91A31E00327C9F020E021
:1028700030E040EA50E46091A01E7091A11E80916A
:10288000A21E9091A31E0E94533B6B017C0180907D
:10289000961E9090971EA090981EB090991E10C002
:1028A000C090A01ED090A11EE090A21EF090A31E8A
:1028B00080909A1E90909B1EA0909C1EB0909D1E92
:1028C00088898150888B81110DCF8091951EA82F0A
:1028D000B0E0B98BA88BC090A01ED090A11EE09054
:1028E000A21EF090A31E1601270157FA509457F824
:1028F000509487E5A82E8EE1B82E9CE7892E9DE1A5
:10290000992E00E010E0C301002E02C09595879536
:102910000A94E2F780FF29C088899989002E02C0B5
:10292000959587950A94E2F7F50180FF0EC024A1E2
:1029300035A146A157A1C701B6010E94F737D501BD
:102940002D913D914D915C9106C020813181428154
:102950005381C201B1010E94533B0E94233BD40129
:102960006D937D938D939C9313970F5F1F4FB4E0EE
:102970008B0E911CE4E0AE0EB11C0330110519F66C
:102980000E94551F05C08091060282FF56CF4ACF94
:1029900067960FB6F894DEBF0FBECDBFDF91CF9123
:1029A0001F910F91FF90EF90DF90CF90BF90AF906D
:1029B0009F908F907F906F905F904F903F902F905F
:1029C0000895BF92CF92DF92EF92FF920F931F93E1
:1029D000CF93DF938C01CBE7DEE1BB24B394F80106
:1029E000C190D190E190F1908F0120E030E0A901F9
:1029F000C701B6010E94D33A18164CF028813981DC
:102A00004A815B81C701B6010E94D03887FDB09230
:102A10007B1D80917B1D882361F18091791D883019
:102A2000A9F00E94DE199FB7F89480910502856095
:102A3000809305029FBFDF91CF911F910F91FF906F
:102A4000EF90DF90CF90BF900C9407219FB7F89440
:102A5000809106028860809306029FBF0E94072132
:102A60008091781D81110BC08091791D8111F6CF65
:102A7000D8CF2496FEE1C738DF0709F0B0CFDF9149
:102A8000CF911F910F91FF90EF90DF90CF90BF906B
:102A900008950E94C9270E944B2B0E941C2F0E9460
:102AA000AF358EE1E8E7FDE1DF011D928A95E9F798
:102AB00081E08093781D78940E949F280E94D00620
:102AC0000E94DD370E94802B0E94F9050E943A1176
:102AD0000E947F120E94CB200E94051C0E94F02EB3
:102AE0000E94551F0E94E2061092781D1092060265
:102AF0001092050210927A1D10927B1D0E9458229E
:102B0000DBCFEF92FF921F93CF93DF9300D01F9202
:102B1000CDB7DEB77C01122F8091941E85FF0BC0CC
:102B2000C70149835A836B837C830E94E1147C81B3
:102B30006B815A8149818091791D823031F14983BD
:102B40005A836B837C830E9407218091781D8111B9
:102B50001CC00E94541C49815A816B817C8188234E
:102B600039F00E944F2249815A816B817C81E7CFE5
:102B7000212FC7010F900F900F900F90DF91CF91F1
:102B80001F91FF90EF900C945C1C0F900F900F9092
:102B90000F90DF91CF911F91FF90EF9008952F92AA
:102BA0003F924F925F926F927F928F929F92AF92DD
:102BB000BF92CF92DF92EF92FF920F931F93CF932A
:102BC000DF93CDB7DEB7E7970FB6F894DEBF0FBE41
:102BD000CDBF9C8B8B8B1B013A0109871A872B87F2
:102BE0003C87AF8A2E961FAD2E972F962FAD2F972D
:102BF000298B60963FAD60973D8B84E0889EA00155
:102C000011245A834983AB89BC89A40FB51FB98F9E
:102C1000A88F460D571D5B8F4A8FFA0180809180E7
:102C2000A280B3802D913D914D915C91C501B4017D
:102C30000E94F7376C8F7D8F8E8F9F8FF4E01F9FE0
:102C4000800111242B893C89200F311F39A328A32F
:102C5000A301400F511F5BA34AA3DA014D905D9081
:102C60006D907C90F9012081318142815381C301B3
:102C7000B2010E94F7376CA37DA38EA39FA3A50189
:102C8000940150582D873E874F87588BD301C2013E
:102C9000B0588D839E83AF83B887E981FA81E20DB6
:102CA000F31D2C8D3D8D4E8D5F8D608171818281F4
:102CB00093810E94F6372B013C01F101E00FF11FD7
:102CC0002CA13DA14EA15FA1608171818281938180
:102CD0000E94F6374B015C01A30192016D857E8550
:102CE0008F8598890E94533B69837A838B839C8369
:102CF000A50194016D817E818F8198850E94533B4F
:102D00009B01AC0169817A818B819C810E94F7379C
:102D100069837A838B839C83A50194016D857E856D
:102D20008F8598890E94533B4B015C01A30192015E
:102D30006D817E818F8198850E94533B9B01AC0100
:102D4000C501B4010E94F63729813A814B815C812B
:102D50000E946A382B013C019D89992399F02DEB43
:102D600037E346E055EBC301B2010E94D33A87FD39
:102D70001DC02BED3FE049EC50E4C301B2010E94BD
:102D8000F63712C02DEB37E346E055E3C301B2013D
:102D90000E94D038181654F02BED3FE049EC50E477
:102DA000C301B2010E94F7372B013C018090901EB5
:102DB0009090911EA090921EB090931E29853A8506
:102DC0004B855C85CA01B9010E94F737A5019401C2
:102DD0000E94F6379B01AC01C501B4010E94533B30
:102DE0000E94E03B4B015C0120E030E040E05FE30B
:102DF000C301B2010E94533B29853A854B855C850E
:102E00000E94533B9F77A50194010E94D7380E94EE
:102E1000AD390E9444397E8B6D8BDB01AB2B09F4FD
:102E200086C14B01A12CB12CBF89BB2361F0C50128
:102E3000B4010E9470399B01AC01C701B6010E9428
:102E4000533B6B017C01C501B4010E9470394B01F9
:102E50005C019B01AC01C301B2010E94D7386987B4
:102E60007A878B879C87F989E4E0FE9FC001112453
:102E70002B893C89280F391F3A8B298BF101E80FE8
:102E8000F91FD9012D913D914D915C916081718126
:102E9000828193810E94F637A50194010E94D73860
:102EA0006CAB7DAB8EAB9FAB29853A854B855C8542
:102EB000CA01B9010E94533B9B01AC0160E070E084
:102EC00080E090E40E94F6374B015C012BEA3AEA7D
:102ED0004AE25EE369857A858B859C850E94533B37
:102EE0002B013C0120E030E040E850E4C501B40192
:102EF0000E94F7379B01AC01C301B2010E94533B12
:102F000068A779A78AA79BA720E030E040E05FE3AD
:102F1000C501B4010E94533B6CA77DA78EA79FA754
:102F2000198201E010E0ED89FE890E171F0709F4F0
:102F3000FEC0B981BC3008F04AC02CA53DA54EA505
:102F40005FA56D817E818F8198850E94533B4B01E7
:102F50005C0128A539A54AA55BA56D857E858F8571
:102F600098890E94533BA50194010E94F737B62E21
:102F7000A72E982E892E2CA53DA54EA55FA56D8563
:102F80007E858F8598890E94533B2B013C0128A5A3
:102F900039A54AA55BA56D817E818F8198850E94A8
:102FA000533B9B01AC01C301B2010E94F6376D8710
:102FB0007E878F87988BE981EF5FE9838B2D9A2D30
:102FC000A92DB82D8D839E83AF83B8876EC0B801BD
:102FD00080E090E00E94703929853A854B855C85B8
:102FE0000E94533B4B015C010E94D4386D837E8369
:102FF0008F839887C501B4010E94D63B4B015C01C9
:10300000EA8DFB8D80819181A281B3819C01AD010C
:10301000505829833A834B835C83AAA1BBA18D912D
:103020009D910D90BC91A02D88AB99ABAAABBBAB89
:103030002D813E814F81588569817A818B819C8168
:103040000E94533B2B013C01A501940168A979A979
:103050008AA99BA90E94533B9B01AC01C301B20109
:103060000E94F7376D877E878F87988BA501940123
:1030700069817A818B819C810E94533B4B015C0169
:103080002D813E814F81588568A979A98AA99BA97C
:103090000E94533B9B01AC01C501B4010E94F6376D
:1030A0006D837E838F83988719822D853E854F851A
:1030B00058896C8D7D8D8E8D9F8D0E94F737E88DA0
:1030C000F98D60837183828393832D813E814F814B
:1030D00058856CA17DA18EA19FA10E94F737A8A160
:1030E000B9A16D937D938D939C9313972CA93DA9C2
:1030F0004EA95FA9E989FA896081718182819381F2
:103100000E94F737A989BA896D937D938D939C931B
:1031100013972F89B701A6018B899C890E9481157D
:103120008091781D811121C00F5F1F4FFCCE2F8928
:10313000B701A601C101E7960FB6F894DEBF0FBE36
:10314000CDBFDF91CF911F910F91FF90EF90DF9056
:10315000CF90BF90AF909F908F907F906F905F9037
:103160004F903F902F900C948115E7960FB6F894EE
:10317000DEBF0FBECDBFDF91CF911F910F91FF90AA
:10318000EF90DF90CF90BF90AF909F908F907F9007
:103190006F905F904F903F902F9008958F929F92E5
:1031A000AF92BF92CF92DF92EF92FF924B015C0100
:1031B0008091791D823009F447C020E030E040EA78
:1031C00051E4C501B4010E94533B0E94AD390E94F5
:1031D00044396B017C010E94DB2220E030E04AE7A9
:1031E00054E4C501B4010E94533B4B015C0182E3EE
:1031F0008C9DB0018D9D700D112480E090E00E94A7
:1032000070399B01AC01C501B4010E94F6370E94E0
:10321000AD390E944439CB010E94B91AC114D104BE
:1032200099F00E94072121E0C21AD1088091781DEF
:1032300081110AC08FEF90E722E08150904020403A
:10324000E1F700C00000EACFFF90EF90DF90CF9051
:10325000BF90AF909F908F9008950E94741284E069
:103260000E94081383E00E9408130E9407218091A6
:10327000781D811104C00E94E2060C947F1208950B
:10328000CF92DF92EF920F93CF93DF9300D01F92F4
:103290001F92CDB7DEB76C018091791D823009F4A1
:1032A00081C02D8349835A836B837C830E94DB22F8
:1032B0001092941D802F0E94D6200E94E7202D811D
:1032C00049815A816B817C818823A1F09FB7F89452
:1032D000809105028061809305029FBF2D83498301
:1032E0005A836B837C830E9407217C816B815A8186
:1032F00049812D818091781D811154C0C6010E94A1
:10330000811581E0809307029FB7F89480910602AF
:103310008260809306029FBF0E9407218091781DE2
:10332000811140C08091791D8111F6CF80910702F3
:103330008130A9F4EE2051F08CE0ECE7FDE1A8E843
:10334000BDE101900D928A95E1F70CC09FB7F8940A
:10335000809105028061809305029FBF03C081E0D8
:103360008093941D109207020E9407218091781D7E
:10337000811118C00E94F02E0E94051C0E94551F4A
:103380006CE77DE1C6010E94C3370F900F900F904C
:103390000F900F90DF91CF910F91EF90DF90CF9032
:1033A0000C940D250F900F900F900F900F90DF91C0
:1033B000CF910F91EF90DF90CF900895809106020A
:1033C00084FD24C09FB7F8948091060280618093A9
:1033D00006029FBF0E94762B8091791D982F9C70CA
:1033E00021F490917A1D913089F49FB7843029F4AB
:1033F000F89480910502806204C0F89480910502DF
:103400008860809305029FBF0C943D2C08956F92B5
:103410007F928F929F92AF92BF92CF92DF92EF9264
:10342000FF920F931F93CF93DF937C018B016A016F
:10343000FB018081F701E80FF11D2081EF012D32A2
:1034400029F4229621816624639407C02B3211F05F
:10345000219602C022962181612CA12CB12C712CC5
:1034600060E070E0CB01FE0130ED932E920E29E07A
:103470002915C8F0B39428E02B1588F0A1107A9490
:10348000A5E0B0E09B01AC010E94743C660F771F81
:10349000881F991F690D711D811D911D0BC0A11001
:1034A00009C0739407C02EEF921207C0A11005C087
:1034B000AA24A39421962081D6CFBB2009F449C029
:1034C0000E9470394B015C0120E030E0A9010E94AC
:1034D000D038882361F18FEF78166CF42AE037ED4D
:1034E00043E25CE3C501B4010E94533B4B015C0124
:1034F00073947394F0CF78120BC02DEC3CEC4CEC31
:103500005DE3C501B4010E94533B4B015C010FC058
:10351000772069F020E030E040E251E4C501B401D9
:103520000E94533B4B015C017A9417149CF3662074
:1035300021F0B7FAB094B7F8B094F6018082918286
:10354000A282B382CE19DF09C150F801C08381E0A5
:1035500001C080E0DF91CF911F910F91FF90EF901C
:10356000DF90CF90BF90AF909F908F907F906F90A3
:103570000895009741F0EFE9FFE03197F1F700C0BF
:1035800000000197F6CF08958F929F92AF92BF925D
:10359000CF92DF92EF92FF9269017A019B01AC0119
:1035A0000E94533B4B015C01A7019601C701B60184
:1035B0000E94533B9B01AC01C501B4010E94F73747
:1035C000FF90EF90DF90CF90BF90AF909F908F9043
:1035D0000C94E03B4F925F926F927F928F929F92FA
:1035E000AF92BF92CF92DF92EF92FF920F931F9311
:1035F000CF93DF9310913202111101C016E91150DF
:1036000000913002101709F4EFC089E2189FE00121
:103610001124CC5CDD4F8D889E88AF88B88C69A161
:103620007AA18BA19CA19B01AC010E94F7372DA12F
:103630003EA14FA158A50E94533B6B017C019B0109
:10364000AC01B401C5010E94D03887FF02C06401FB
:103650007501A601B701498B5A8B6B8B7C8B1111BD
:1036600001C016E977247A94710E701619F029E2D8
:10367000622E27C080913302081351C00E94422F4E
:103680004EC0679C800111240C5C1D4F711002C05C
:1036900096E9792E7A9480913302781202C00E94C2
:1036A000422FF801C588D688E788F08CA7019601DB
:1036B00061897289838994890E94D038811106C0FA
:1036C000E801809130027812DCCF29C0F80161A1B5
:1036D00072A183A194A19B01AC010E94F737F8016C
:1036E00025A136A147A150A50E94533B29893A89BB
:1036F0004B895C890E94F7374B015C01A701960159
:103700000E94D038F80187FF05C0818A928AA38A77
:10371000B48AD6CFC18AD28AE38AF48AD1CF6090A4
:103720003002F9E26F9E800111240C5C1D4F77245A
:103730007394760C86E9781201C0712C5090320295
:1037400089E2482E751409F44DC0479CE00111240C
:10375000CC5CDD4FF80181889288A388B488C98841
:10376000DA88EB88FC88A7019601C501B4010E94A4
:10377000D03887FF23C0F80161A172A183A194A171
:103780009B01AC010E94F737F80125A136A147A1A2
:1037900050A50E94533B9B01AC01C501B4010E949E
:1037A000F7374B015C01A70196010E94D03887FFD3
:1037B00005C0898A9A8AAB8ABC8A672C2D893E8982
:1037C0004F89588D69897A898B899C890E94D03864
:1037D000811101C0672C7394F6E97F1201C0712C2E
:1037E0008E01B0CF60923002DF91CF911F910F9187
:1037F000FF90EF90DF90CF90BF90AF909F908F9011
:103800007F906F905F904F9008958CE1E4E1F2E03B
:10381000DF011D928A95E9F710923302109232026D
:1038200081E080933102109230020895909133022A
:1038300080913202891769F081E0890F863909F495
:1038400080E020913002921302C080933002809376
:10385000330208958091330290913202981739F023
:1038600029E2829FC00111248C5C9D4F089580E065
:1038700090E00895E0913302EF5FE63909F4E0E06B
:1038800080913202E81761F089E2E89FF00111248B
:10389000EC5CFD4F61897289838994890C94E03BCB
:1038A00060E070E0CB01089581E0209133029091B7
:1038B0003102291380E008952F923F924F925F9238
:1038C0006F927F928F929F92AF92BF92CF92DF9230
:1038D000EF92FF920F931F93CF93DF93CDB7DEB795
:1038E000AD970FB6F894DEBF0FBECDBF142F052FD6
:1038F0006B8F7C8F822E2091320239E2239F100140
:103900001124F101EC5CFD4F1F0115861686178608
:10391000108A15A216A217A210A6108249E956E72E
:1039200066E97EE741A352A363A374A35C0147E564
:10393000E42E4EE1F42E9E01235F3F4F38A32F8FDC
:1039400084E192E09E8F8D8F6F01FE013196FAA384
:10395000E9A3912CF50161917191819191915F01A0
:10396000F70120813181428153810E94533B0E94A3
:10397000233BEF8DF8A16193719381939193F8A309
:10398000EF8FED8DFE8D4190519061907190FE8F83
:10399000ED8F64197509860997092B013C0197FF82
:1039A00007C0442455243201461A570A680A790A86
:1039B000F6014182528263827482F1012585368547
:1039C00047855089421653066406750610F429018E
:1039D0003A01F101458656866786708A0E947239DF
:1039E000F70120813181428153810E94D7382B0118
:1039F0003C01E9A1FAA16193719381939193FAA398
:103A0000E9A320E030E0A9010E94D03887FF0AC076
:103A1000F1019081892D9DA70E94622B9DA5892B84
:103A2000F1018083A3019201C301B2010E94533BC3
:103A3000F10125A136A147A150A50E94F737F10158
:103A400065A376A387A390A79394F4E0EF0EF11CEF
:103A500024E0C20ED11C33E093127CCF0E94E03BE5
:103A60006B017C01F10165A376A387A390A78585EF
:103A70009685A785B089892B8A2B8B2B09F4FCC1ED
:103A800020E030E0A901612F702F8B8D9C8D0E946A
:103A9000D03887FD21C0882061F0A7019601612FF1
:103AA000702F8B8D9C8D0E94533B162F072F8B8F71
:103AB0009C8F20E030E040E85FE3612F702F8B8D1A
:103AC0009C8D0E94D03887FF0DC010E000E030E8E8
:103AD0003B8F8FE38C8F06C019E906E7F6E9FB8F71
:103AE0002EE72C8FA701960160E070E080E89FE34D
:103AF0000E94D73869A77AA78BA79CA7E0E2F2E0DB
:103B0000FAA3E9A323E63EE138A32F8FCE010D9659
:103B10009A8F898FFE013196FE8FED8FC12CD12CAB
:103B20007601ED8DFE8D80809180A280B38020E0B3
:103B300030E0A901C501B4010E94D038882309F4FE
:103B40007FC029A53AA54BA55CA5C501B4010E947B
:103B5000533B4B015C01ED8DFE8D6083718382834D
:103B600093839B01AC0160E070E080E89FE30E94DA
:103B7000D7382B013C01E89477F8EF8DF8A120812C
:103B8000318142815381C301B2010E94533B6BA337
:103B90007CA38DA39EA39B01AC01612F702F8B8D05
:103BA0009C8D0E94D03887FF06C01BA30CA3FB8D01
:103BB000FDA32C8D2EA3F101F1A1FB8FF101F2A148
:103BC000FC8FF101F3A1FFA3F101F4A1F8A7EF8DA0
:103BD000F8A12485358546855785C301B2010E9429
:103BE000533B3B018C019B01AC016B8D7C8D8FA104
:103BF00098A50E94D03887FF04C06B8C7C8C0FA1E5
:103C000018A5C301D801F10181A392A3A3A3B4A372
:103C1000E9A1FAA12081318142815381C501B4011A
:103C20000E94533B9B01AC01C701B6010E94F637CD
:103C30006B017C011BA10CA1FDA1FB8F2EA12C8F80
:103C40008D8D9E8D04969E8F8D8FE9A1FAA134965D
:103C5000FAA3E9A32F8D38A12C5F3F4F38A32F8FF4
:103C6000E98DFA8D8E179F0709F05BCF9091320294
:103C700080913302981306C0F101118A128A138AC7
:103C8000148A0BC02FEE3FEF4FE75FE3C701B60189
:103C90000E94D33A181634F4F101118E128E138E4D
:103CA000148E5BC02FEE3FEF4FE75FEBC701B6010D
:103CB0000E94D33A181644F03FEEC32EDD24DA9466
:103CC0003FE7E32E3FEBF32EA701960160E070E0A3
:103CD00080E89FE30E94F63720E030E040E05FE3B9
:103CE0000E94533B0E94E03B6B017C0120918C1EA3
:103CF00030918D1E40918E1E50918F1EF10161A159
:103D000072A183A194A10E94533BA70196010E9436
:103D1000533B4B015C01A701960160E070E080E835
:103D20009FE30E94F6379B01AC01C501B4010E94DC
:103D3000D7386B017C0120E030E0A9010E94D03827
:103D400087FF04C0C12CD12CE12CF12CA601B701B6
:103D5000F101418F528F638F748F212F302F4B8D44
:103D60005C8D612F702F8B8D9C8D0E94533B162F85
:103D7000072FF82EE92E862F902FAF2DBE2DF101A3
:103D8000858F968FA78FB0A3A18CB28CC38CD48C57
:103D900060902C0270902D0280902E0290902F0245
:103DA0009301A401612F702F8F2D9E2D0E94D0387A
:103DB00087FD0BC09301A401B501C6010E94D03854
:103DC00087FD11C0530164010EC0212F302F4F2DEC
:103DD0005E2DB501C6010E94D03887FD04C0A12E1A
:103DE000B02ECF2CDE2CC501D601F101858B968B30
:103DF000A78BB08F8CE0FE013196A0E2B2E001907B
:103E00000D928A95E1F7812F902FAF2DBE2D8093D3
:103E10002C0290932D02A0932E02B0932F028CE0DF
:103E2000FE013D96A4E1B2E001900D928A95E1F782
:103E300080913102809332028F5F863909F480E0ED
:103E400080933102AD960FB6F894DEBF0FBECDBFA2
:103E5000DF91CF911F910F91FF90EF90DF90CF9066
:103E6000BF90AF909F908F907F906F905F904F909A
:103E70003F902F900C94EA1AAD960FB6F894DEBFDF
:103E80000FBECDBFDF91CF911F910F91FF90EF90AB
:103E9000DF90CF90BF90AF909F908F907F906F906A
:103EA0005F904F903F902F90089580917C1D90914E
:103EB0007D1DA0917E1DB0917F1D80931402909373
:103EC0001502A0931602B09317028091801D909165
:103ED000811DA091821DB091831D80931802909343
:103EE0001902A0931A02B0931B028091841D909135
:103EF000851DA091861DB091871D80931C02909313
:103F00001D02A0931E02B0931F02089580913202F9
:103F100090913302891708F48A56891B08950E94EC
:103F2000422F80913302809330020C94EA1ACF938F
:103F3000DF93EC018991882319F00E94DF27FACFE3
:103F4000DF91CF910895CF93DF93FC018491EF012E
:103F50002196882321F00E94DF27FE01F7CFDF9111
:103F6000CF910895EF92FF920F931F93CF93DF931A
:103F70001F92CDB7DEB7262FEDB6FEB66DB77EB772
:103F8000641B71090FB6F8947EBF0FBE6DBF0DB7ED
:103F90001EB70F5F1F4F302FF8019E2F931B9417F2
:103FA00028F4622F0E94403C9193F7CF442361F0A4
:103FB000F801E40FF11D31978081805D49830E94F3
:103FC000DF2749814150F2CF0FB6F894FEBE0FBEF5
:103FD000EDBE0F90DF91CF911F910F91FF90EF9069
:103FE000089548E062E00C94B21F8A3020F08436D5
:103FF00020F442E003C041E001C043E06AE00C94D9
:10400000B21F8F929F92AF92BF92CF92DF92EF92A8
:10401000FF920F931F93CF93DF93CDB7DEB72A970D
:104020000FB6F894DEBF0FBECDBF6B017C01142F1D
:1040300020E030E0A9010E94D03887FF07C08DE260
:104040000E94DF27F7FAF094F7F8F094012F02307E
:1040500060F020E030E048EC52E4C701B6010E9475
:10406000533B6B017C010250F2CF10FF0AC020E0ED
:1040700030E040E251E4C701B6010E94533B6B01BE
:104080007C0120E030E040E05FE3C701B6010E9420
:10409000F7370E943F39E1E0F0E0EC0FFD1FE10F40
:1040A000F11D2EE22083D12C5AE0852E912CA12CDB
:1040B000B12C6115710581059105A9F0D11201C0DE
:1040C000D394EE24E394F12CEC0EFD1EED0CF11CC8
:1040D000A50194010E944C3C605DF7016083B90129
:1040E000CA01D394E6CF80E3D11648F4E1E0F0E0D2
:1040F000EC0FFD1FED0DF11D8083D394F5CF8D2DB9
:10410000D1120BC0D394D3948F5FE1E0F0E0EC0FB9
:10411000FD1FE80FF11D80E38083DD2041F0FE01EB
:10412000ED0DF11D80810E94DF27DA94F6CF2A96EB
:104130000FB6F894DEBF0FBECDBFDF91CF911F91B8
:104140000F91FF90EF90DF90CF90BF90AF909F9036
:104150008F9008952091941E20FF08C02BE832E430
:1041600041E25DE30E94533B44E001C043E00C9414
:1041700001202091941E20FF08C02BE832E441E288
:104180005DE30E94533B41E001C040E00C940120FC
:1041900043E00C940120E7E0F1E080818F77808399
:1041A000E8E0F1E080818068808308951092961D98
:1041B0009091941E97FD03C090E89093961D8823DC
:1041C00029F08091961D80588093961D08958091C6
:1041D000060180789091961D8927089580910702A5
:1041E0008130A1F40E94E720882381F01092070219
:1041F0008CE0ECE7FDE1A8E8BDE101900D928A9525
:10420000E1F7809106028064809306020895EF92A0
:10421000FF920F931F93CF93DF93D1E008E080E2EA
:10422000F82E10E190E4E92E0E945F1120E030E0CA
:1042300048EC51E40E94D33A181654F40E944811F5
:104240009FB7F894809105028168809305029FBF13
:10425000C0910502CC2309F43FC0D093791DC1FF62
:1042600002C081E01BC0C2FF02C082E017C0C3FFD2
:1042700002C083E013C0C4FF02C084E00FC0C5FFCA
:1042800002C085E00BC0C6FF04C00E94481186E052
:1042900005C0C7FF05C00E94481187E00E943D236A
:1042A000C0FD08C08FB7F8949091050210920502E6
:1042B0008FBF12C00E94481181E00E946D239FB7FA
:1042C000F894809106028F7E809306029FBF8091B2
:1042D000060284FFFCCFE6CFC0910602CC2309F48E
:1042E000BFC0C4FF04C081E08093781DD1C0C0FF6F
:1042F0000AC00E94A8269FB7F894809106028E7F7C
:10430000809306029FBF8C2F887609F43EC080916F
:10431000791D882349F0982F9C7779F1883021F412
:104320000E94422FD0937A1D8091791D811103C084
:1043300092E090937A1DC6FF09C0883011F4E09294
:10434000791D80917A1D886080937A1DC3FF05C016
:104350008091791D85FF1093791DC5FF0EC00E94C5
:10436000481186E00E946D2380917A1D81FDC46012
:10437000846080937A1DF092791D9FB7F8948091A4
:1043800006028779809306029FBFC1FF48C08C2F29
:104390008876E9F58091791D882331F08075B9F12F
:1043A00080917A1D81FF33C080917A1D82FF1CC0ED
:1043B0008091061D882371F04091081D5091091DC0
:1043C00060910A1D70910B1D0E949A2B80EA9FE05C
:1043D0000E94B91A8091051D882331F00E940006C1
:1043E00088EE93E00E94B91A0E942A1C892B59F08A
:1043F00080917A1D83FD07C00093791D0E94642F70
:104400000E94172C02C01092791D10927A1D9FB73E
:10441000F894809106028D7F809306029FBFC2FFB1
:104420001FC08091791D807379F080917B1D81116F
:104430000BC080917A1D82FD0E94762B80917A1D9F
:10444000826080937A1D04C010927A1D1092791DAB
:104450009FB7F894809106028B7F809306029FBFDE
:104460008091791D8C7711F00E94642F8091791DC5
:10447000803251F480917A1D81FF06C00E9401367E
:10448000811102C01093791D80917A1D8111CCCECB
:10449000DF91CF911F910F91FF90EF9008959FB7FB
:1044A000F894809106028260809306029FBF08956F
:1044B000CF93DF930E949C238091791D813021F45A
:1044C00082E00E946D232FC00E940136882341F0B4
:1044D000809106028062809306020E94072102C03A
:1044E0001092791D8AE39AE10E9403361CC08D3038
:1044F00079F0DD23A1F1893221F4D13009F04DC0EA
:10450000D0E00E9429288F3F09F449C08A3079F70A
:10451000EC2FF0E0E65CF54E10820E9407218091BE
:10452000781D882311F0C0E0EBCF80913A1A8111F9
:1045300003C00E94EC22F7CF8452823028F48AE331
:104540009AE10E942236F5CF8091791D813011F4D5
:1045500089E0EFCF8AE39AE10E94E806EACF813250
:1045600080F28F3271F28832B1F08B33B1F0CF34F8
:1045700028F08BE00E94EC22C0E0C3CF2C2F30E06B
:10458000CF5F9FE9980FF901E65CF54E9A3108F488
:1045900080528083B6CFD1E0B4CFD2E0B2CF0E94B8
:1045A0004F220E9407218091781D882309F4A9CF0A
:1045B000DF91CF9108950E944F220E9407218091A0
:1045C000781D811108C00E942A1C892BB1F78091A7
:1045D000791D883091F30895CF93C82F811103C0BE
:1045E0008CE89BE047C084E89BE00E94A31F4C2F0F
:1045F00050E0FA013197E632F10598F5E956FF4FA0
:104600000C946E3C8CE69BE002C08AE59BE00E9425
:10461000A31F2EC088E49BE0FACF8EE39BE0F7CF88
:104620008DE29BE0F4CF8EE19BE0F1CF8DEF9AE03D
:10463000EECF84EF9AE0EBCF89EE9AE0E8CF86EDFB
:104640009AE0E5CF88EC9AE0E2CF82EB9AE0DFCF08
:104650008EE99AE0DCCF8AE89AE0D9CF86E79AE043
:10466000D6CF84E69AE00E94A31F8C2F0E94F51FEC
:1046700081E69AE0CF910C94A31FCF93C82F89E5D0
:104680009AE00E94A31F8C2F90E0FC013197E73045
:10469000F105D0F4E354FF4F0C946E3C8EE49AE0A5
:1046A00011C083E49AE00EC080E39AE00BC085E27B
:1046B0009AE008C089E19AE005C08DE09AE002C066
:1046C00089EF99E00E94A31F86EF99E00E94A31F43
:1046D00084EF91E0CF910C94B91ACF93C82F84EF57
:1046E00099E00E94A31F8C2F90E0FC013197E830E5
:1046F000F105E8F4EC53FF4F0C946E3C82EE99E028
:1047000014C08EEC99E011C08CEB99E00EC084EBE4
:1047100099E00BC08BEA99E008C080EA99E005C0F7
:1047200088E999E002C085E899E00E94A31F81E82A
:1047300099E0CF910C94A31F84E699E00C94A31FF9
:104740008AE997E00C94A31FFF920F931F93CF93D6
:10475000DF9386E997E00E94A31F8091871E0E9445
:10476000F51F8DE797E00E94A31F80918A1E0E948B
:10477000F51F8FE597E00E94A31F8091881E0E947D
:10478000F51F86E497E00E94A31F8091881E0E9477
:10479000F11F8FE397E00E94A31F8091891E0E9462
:1047A000F51F87E297E00E94A31F8091891E0E9457
:1047B000F11F80E297E00E94A31F8091941E82FB6C
:1047C000882780F90E94F51F8FEF96E00E94A31FB3
:1047D0008091941E86FB882780F90E94F51F8FED3B
:1047E00096E00E94A31F8091941E881F8827881F2F
:1047F0000E94F51F8FEB96E00E94A31F80918B1EF5
:104800000E94F51F89EA96E00E94A31F80918B1EEB
:104810000E94F11F81EA96E00E94A31F60918C1E06
:1048200070918D1E80918E1E90918F1E0E94C820C7
:1048300081E896E00E94A31F6091901E7091911EE6
:104840008091921E9091931E0E94C82086E696E069
:104850000E94A31F8091941E81700E94F51F89E41D
:1048600096E00E94A31F8091941E85FB882780F903
:104870000E94F51F8EE296E00E94A31F8091941E75
:1048800083FB882780F90E94F51F83E196E00E9450
:10489000A31F8091941E829581700E94F51F87EF5F
:1048A00095E00E94A31F8091951E0E94F51F8DED3B
:1048B00095E00E94A31F8091951E0E94F11F85ED37
:1048C00095E00E94A31F6091961E7091971E8091A3
:1048D000981E9091991E0E94C82088EB95E00E9436
:1048E000A31F60919A1E70919B1E80919C1E9091B7
:1048F0009D1E0E94C8208BE995E00E94A31F809115
:104900009E1E0E94F51F8CE795E00E94A31F6091F8
:10491000A01E7091A11E8091A21E9091A31E0E94C4
:10492000C8208FE595E00E94A31F80910A020E9493
:10493000F51F86E395E00E94A31F84E6F82E10E0A1
:10494000C7E5DEE100E084E395E00E94A31F802F2D
:104950008F0D0E94F51F82E395E00E94A31F123085
:1049600071F01330B9F0113029F0688179818A81B2
:104970009B8117C06C857D858E859F8512C020E048
:1049800030E041E655E4688D798D8A8D9B8D0E94DB
:10499000D73807C08CA19DA1AEA1BFA1BC01CD019C
:1049A00090580E94C8208FE295E00E94A31F01301A
:1049B00029F0023031F08DE295E005C08BE295E000
:1049C00002C089E295E00E94A31F123051F013301B
:1049D00059F0113019F08FE195E008C08DE095E0B5
:1049E00005C08CEF94E002C08CEE94E00E94A31FFF
:1049F00088EE94E00E94A31F0F5F2496033009F015
:104A0000A2CF8AE0F80E1F5F8CE8F81299CFDF91F1
:104A1000CF911F910F91FF900895CF9382EE94E074
:104A20000E94A31FC0E06C2F88E89DE10E94A93777
:104A30000E94AA20C23021F080EE94E00E94A31FC1
:104A4000CF5FC33081F78EED94E00E94A31F809169
:104A5000941D0E94F51F8AED94E0CF910C94A31F42
:104A6000EF92FF920F931F93CF93DF93CDB7DEB7F3
:104A70002C970FB6F894DEBF0FBECDBFF12CBE0150
:104A80006F5F7F4F8F2D0E94072A811104C087E03E
:104A90000E94EC2269C087ED94E00E94A31F86E08B
:104AA000F81631F0E7E0FE1208C081ED94E002C094
:104AB00084ED94E00E94A31F04C086E38F0D0E9442
:104AC000F51F8FEC94E00E94A31F8E010F5F1F4F14
:104AD000E12CF80161917191819191918F010E9476
:104AE000AA20F2E0EF1619F08DEC94E002C089ECF8
:104AF00094E00E94A31FE39483E0E812EACFF394CA
:104B0000E8E0FE12BCCF83EC94E00E94A31F0DE20C
:104B10001DE1F12CF80161917191819191918F01C9
:104B20000E94AA20F2E0FF1619F081EC94E002C086
:104B30008DEB94E00E94A31FF39483E0F812EACF78
:104B400087EB94E00E94A31F6091391D70913A1D7C
:104B500080913B1D90913C1D0E94AA2083EB94E024
:104B60000E94A31F0E940D252C960FB6F894DEBF5D
:104B70000FBECDBFDF91CF911F910F91FF90EF90AE
:104B8000089581EB94E00E94A31F8091FD1C823068
:104B900091F038F4882361F08130A9F48BEA94E035
:104BA0000CC0833069F0883071F481EA94E005C06C
:104BB0008EEA94E002C088EA94E00E94A31F0CC031
:104BC00085EA94E0FACF8CE994E00E94A31F8091DB
:104BD000FD1C82500E94F51F89E994E00E94A31FEA
:104BE0008091031D8A5C0E94F51F8091011D813018
:104BF00049F028F0823051F48AE894E005C084E955
:104C000094E002C08FE894E00E94A31F8091FF1CF3
:104C1000811103C085E894E002C080E894E00E941E
:104C2000A31F8091001D811103C08BE794E002C097
:104C300086E794E00E94A31F8091FE1C813019F446
:104C400081E794E002C08CE694E00E94A31F80916B
:104C5000041D813049F028F0823051F480E694E060
:104C600005C088E694E002C084E694E00E94A31F99
:104C70008091061D813031F040F0823051F488E59A
:104C800094E005C08CE594E002C084E594E00E94C5
:104C9000A31F8091051D882329F0823039F48CE40C
:104CA00094E002C080E594E00E94A31F89E494E0B0
:104CB0000E94A31F8091101D0E94F51F86E494E0BE
:104CC0000E94A31F60910C1D70910D1D80910E1DFF
:104CD00090910F1D0E94B92083E494E00E94A31FCD
:104CE0006091081D7091091D80910A1D90910B1D06
:104CF0000E94B9208FE394E00C94A31F1F93CF93DD
:104D0000DF93182FEB018CE394E00E94A31F812F07
:104D10000E94F51F8AE394E00E94A31FCE010E9427
:104D2000971F87E394E0DF91CF911F910C94A31F0D
:104D3000CF93DF93EC0187E294E00E94A31FCE01A2
:104D40000E94971F83E294E0DF91CF910C94A31F00
:104D5000BF92CF92DF92EF92FF920F931F93CF9368
:104D6000DF93CDB7DEB768970FB6F894DEBF0FBEFE
:104D7000CDBF8CE0ECE7FDE1DE011D9601900D92C8
:104D80008A95E1F78091791D8430E9F040F4813013
:104D9000E9F080F0823009F58EEF93E01CC080319D
:104DA00079F018F4883049F018C0803291F08034DE
:104DB00021F013C08DE194E00EC088E194E00BC0B7
:104DC00082E194E008C08CE094E005C085E094E0C6
:104DD00002C088EF93E00E94A31F80918B1E837016
:104DE00039F0BE01635F7F4FCE0101960E94C33749
:104DF00080918B1E80FD05C080918B1E81FF6DC050
:104E00001FC081EF93E00E94A31F69817A818B818B
:104E10009C810E94AA208FEE93E00E94A31F6D81C7
:104E20007E818F8198850E94AA208FEE93E00E9458
:104E3000A31F69857A858B859C850E94AA20DCCF7B
:104E400088EE93E00E94A31F91E2E92E9DE1F92EE6
:104E50008E010F5F1F4FB12C6801F70161917191B5
:104E6000819191917F0120853185428553850E94F2
:104E7000F7379B01AC01F8016081718182819381D8
:104E80000E94F637F8016083718382839383F2E096
:104E9000BF120FC02091391D30913A1D40913B1D2A
:104EA00050913C1D0E94F637F80160837183828324
:104EB00093830C5F1F4FF601608171818281938122
:104EC0000E94AA20F2E0BF1621F086EE93E00E9435
:104ED000A31FB39423E0B212BFCF80918B1E82FF39
:104EE00008C080EE93E00E94A31F0E94861F0E94CC
:104EF000F51F80918B1E83FF08C08BED93E00E940D
:104F0000A31F0E94C0270E94F51F80918B1E85FF62
:104F100009C084ED93E00E94A31F0E945F1141E04D
:104F20000E94012080918B1E85FF08C086EC93E0D3
:104F30000E94A31F0E945A110E94F51F80918B1E90
:104F400084FF0AC080EC93E00E94A31F0E94961287
:104F500043E062E00E94B21F8CEB93E00E94A31F2B
:104F600068960FB6F894DEBF0FBECDBFDF91CF912C
:104F70001F910F91FF90EF90DF90CF90BF90089519
:104F800090918C1A80918D1A891708F48058891B8A
:104F90000895E0ECF0E08081826080831092C5008B
:104FA00080E18093C400E1ECF0E080818061808347
:104FB0008081886080838081806880830895E0910B
:104FC0008B1A91E09E0F903409F490E020918A1A98
:104FD000921305C02091060224FFF8CF0895F0E057
:104FE000E956F24E808390938B1A8091C1008062C3
:104FF0008093C10008951F920F920FB60F92112453
:105000000BB60F928F939F93EF93FF9380918A1A21
:10501000E82FF0E0E956F24E90819093C6008F5F42
:10502000803409F480E080938A1A90918B1A891356
:1050300005C08091C1008F7D8093C100FF91EF91E9
:105040009F918F910F900BBE0F900FBE0F901F90EE
:10505000189590918C1A80918D1A891761F0E92F1B
:10506000F0E0E952F24E80819F5F903809F490E0C1
:1050700090938C1A08958FEF08951F920F920FB698
:105080000F9211240BB60F922F933F934F935F9380
:105090006F937F938F939F93AF93BF93EF93FF9300
:1050A0008091C6008F33A9F050F4883109F1813224
:1050B00011F59FB7F89480910602886015C080347E
:1050C00071F08E37C1F49FB7F89480910602826028
:1050D0000BC09FB7F89480910602816005C09FB70E
:1050E000F894809106028062809306029FBF14C0EC
:1050F0000E94DE1911C0E0918D1A91E09E0F903848
:1051000009F490E020918C1A921731F0F0E0E95206
:10511000F24E808390938D1AFF91EF91BF91AF91E2
:105120009F918F917F916F915F914F913F912F91BF
:105130000F900BBE0F900FBE0F901F90189580918F
:105140008D1A80938C1A089521E5829FC001112445
:1051500040E550E09D5F0C944D0640E550E0BC01F9
:105160008EEA93E00C944D062DE0829FC00111243D
:105170004CE050E09E5F0C944D0669E080E090E0CA
:105180000E942B064DE450E067E57EE181E090E06F
:105190000C944D06EF92FF920F931F93CF93DF93E2
:1051A000CDB7DEB72C970FB6F894DEBF0FBECDBFDC
:1051B000182F80FFC8C08AE08093871E8FEF8093EE
:1051C0008A1E1092881E1092891E83E280938B1E85
:1051D0008AE097EDA3E2BCE380938C1E90938D1E32
:1051E000A0938E1EB0938F1E8FE692E1A3E0BBE3E7
:1051F0008093901E9093911EA093921EB093931E45
:105200001092951E80E090E0A8E4B3E48093961E8F
:105210009093971EA093981EB093991E80E090E003
:10522000AAE7B5E480939A1E90939B1EA0939C1EC0
:10523000B0939D1E8AEF90E090939F1E80939E1ED8
:1052400080E090E0A0E8BFE38093A01E9093A11EB1
:10525000A093A21EB093A31E81E080930A02109235
:10526000941E81E79DEBA6E0B3E48093571E9093D4
:10527000581EA093591EB0935A1E80935B1E9093A4
:105280005C1EA0935D1EB0935E1E80935F1E909384
:10529000601EA093611EB093621E40E050E066E184
:1052A00074E44093631E5093641E6093651E709374
:1052B000661E4093671E5093681E6093691E70932C
:1052C0006A1E40936B1E50936C1E60936D1E70930C
:1052D0006E1E40E050E86BEB75E440936F1E5093F8
:1052E000701E6093711E7093721E4093731E5093D4
:1052F000741E6093751E7093761E4093771E5093B4
:10530000781E6093791E70937A1E40E050E068E446
:1053100073EC40937B1E50937C1E60937D1E7093B4
:105320007E1E40937F1E5093801E6093811E70935B
:10533000821E4093831E5093841E6093851E70933B
:10534000861E0E94BD2811FF10C0CE0101967C016F
:105350008CE0F70111928A95E9F700E0B701802F00
:105360000E94B4280F5F0830C9F712FF0AC060E03E
:1053700080E093E00E942B0660E081E593E00E94CC
:105380002B0613FF05C060E08EEA93E00E942B0617
:105390002C960FB6F894DEBF0FBECDBFDF91CF9134
:1053A0001F910F91FF90EF9008951F93CF93DF937C
:1053B000182FEB0181E5189FB00111247D5F40E5B6
:1053C00050E0CE010E948B06892B39F41882BE0171
:1053D000812F0E94A42880E001C081E0DF91CF915D
:1053E0001F910895CF93DF93EC0140E550E06EEA02
:1053F00073E00E948B06892B31F41882CE010E9443
:10540000AD2880E001C081E0DF91CF9108951F9326
:10541000CF93DF93182FEB018DE0189FB00111247B
:105420007E5F4CE050E0CE010E948B06892B59F440
:105430008CE0FE0111928A95E9F7BE01812F0E944E
:10544000B42880E001C081E0DF91CF911F910895E1
:1054500080E090E00E942306893011F080E00895FA
:105460004DE450E061E070E087E59EE10E948B062C
:10547000892BA1F381E080930A020895CF92DF92F5
:10548000EF92FF921F93CF93DF93C82F6A017B01A6
:10549000122F20E030E0A901C701B6010E94D038E8
:1054A00087FDE6C0C436F0F1C45680E0C33088F50D
:1054B000D0E0CC0FDD1FCC0FDD1F823051F08330E8
:1054C000E9F0813019F0C95AD14E1EC0CD59D14EE4
:1054D0001BC0C159D14E20E030E040E752E4C70183
:1054E000B6010E94533B20E030E040E752E40E94C6
:1054F000533B688379838A839B83B5C0C558D14E5B
:10550000F7FAF094F7F8F094C882D982EA82FB8225
:10551000AAC08F5FCA3008F4ADC0843009F4AAC0B5
:10552000CA50C4CFC701B6010E94213C0E94443931
:105530008C2F90E08D31910508F09CC0FC01E45364
:10554000FF4F0C946E3C633008F496C06093871E46
:105550008AC060938A1E87C06093881E02C06093D1
:10556000891E0E94B42E7FC08091941E662311F084
:10557000846007C08B7F05C08091941E662321F054
:1055800080648093941E6FC08F7BFBCF8091941EAC
:10559000662311F08068F5CF8F77F3CF60938B1E71
:1055A00062C0C0928C1ED0928D1EE0928E1EF09230
:1055B0008F1E59C0C092901ED092911EE092921EF2
:1055C000F092931E50C08091941E662311F081606A
:1055D000D8CF8E7FD6CF8091941E662321F084FF92
:1055E0004DC08062CECF8F7DCCCF8091941E66233C
:1055F00011F0886001C0877F8093941E0E947F1203
:1056000032C08091941E662311F08061BACF8F7CE6
:10561000B8CF6093951E27C0C092961ED092971E59
:10562000E092981EF092991E1EC0C0929A1ED092CF
:105630009B1EE0929C1EF0929D1E15C070E0709320
:105640009F1E60939E1E0FC0C092A01ED092A11EEE
:10565000E092A21EF092A31E06C0653688F4609305
:105660000A020E94162C113069F40E94BD280AC05B
:1056700084E009C083E007C086E005C08AE003C07B
:1056800086E201C080E0DF91CF911F91FF90EF9003
:10569000DF90CF9008950E94282A811108C087E0EA
:1056A0000E94EC228FEF0E94CA280C94A423089534
:1056B000882321F0813021F488E0089584E0089562
:1056C00080E10895882321F0813021F480E4089559
:1056D00080E8089580E20895882321F0813021F444
:1056E00080E2089580E1089580E408951092AB006F
:1056F0001092AA00E0EAF0E080818F7D8083089517
:105700001092AB001092AA00E1E0F1E0808180618C
:10571000808383E28093A000E1EAF0E08081807ED4
:105720008961808389EF96E09093A9008093A80017
:105730000C94762BCF92DF92EF92FF926A017B015D
:10574000811106C0FF90EF90DF90CF900C94762BE4
:105750008091090281110BC00E9448119FB7F894F3
:10576000809105028164809305029FBF32C08091C1
:10577000A00080628093A000CB01BA010E943F3953
:10578000672B51F41092AB001092AA008091A000F8
:105790008F7D8093A0001DC020E030E040EE50E4FB
:1057A000C701B6010E94533B6B017C0160910A0264
:1057B00070E080E090E00E9470399B01AC01C7016D
:1057C000B6010E94D7380E943F397093AB006093B6
:1057D000AA00FF90EF90DF90CF900895CF93DF93D2
:1057E00000D01F921F92CDB7DEB79091791D9230F5
:1057F000A9F04A835B836C837D8389830E94DB22CB
:105800004A815B816C817D8189810F900F900F901F
:105810000F900F90DF91CF910C949A2B0F900F90D7
:105820000F900F900F90DF91CF9108950895809180
:10583000941E82FF04C080910201806403C08091A5
:1058400002018F7B809302018091791D8C70A1F001
:105850008091BE1A8093D21A8091BF1A8093D11A78
:105860008091871E880F845081958093D01A8091F3
:105870006F00826080936F00089580916F008D7F2C
:1058800080936F0080918100887F81608093810088
:105890001092BD1A80918A1E8F3F21F490910502CB
:1058A000992349F09091791D943029F090E00E945D
:1058B000B91A81E001C080E09091941E92FF02C06D
:1058C00091E08927882321F080910201806403C040
:1058D000809102018F7B809302010895EFE6F0E052
:1058E00080818D7F8083E1E8F0E08081887F816026
:1058F00080831092BD1AE2E0F1E0808180648083B1
:1059000008951F920F920FB60F9211240BB60F92AB
:105910002F933F934F935F936F937F938F939F93B7
:10592000AF93BF93CF93DF93EF93FF938091BD1A13
:105930008111EFC198B18091D21A807E9F71892B1D
:1059400088B982B1837E9091D11A892B82B98091D6
:10595000D01A86BD82E085BD81E08093BD1A78941F
:105960008091E41A9091E51A892B09F0A4C08091E6
:10597000C21A9091C11A981709F492C0E091C21A04
:1059800086E0E89FF0011124EA51F54EF093E51A04
:10599000E093E41A83819481909389008093880036
:1059A000808191819093E01A8093DF1AA281809187
:1059B000E11A8A1771F1A093E11A81E1A89FD00141
:1059C0001124AA58B44EB093E31AA093E21A1D967C
:1059D0008D919D910D90BC91A02DB695A795979511
:1059E00087958093CB1A9093CC1AA093CD1AB0933D
:1059F000CE1A8093C71A9093C81AA093C91AB0936D
:105A0000CA1A8093C31A9093C41AA093C51AB0936C
:105A1000C61AC091E21AD091E31A8091BE1A9881F9
:105A200089278093D21A258189819A81AB81BC8193
:105A3000022E04C0B695A795979587950A94D2F73C
:105A40008093D31A9093D41AA093D51AB093D61AF0
:105A50008D819E81AF81B885022E04C0B695A79531
:105A6000979587950A94D2F78093D71A9093D81A6E
:105A7000A093D91AB093DA1A89859A85AB85BC852B
:105A800004C0B695A795979587952A95D2F78093E8
:105A9000DB1A9093DC1AA093DD1AB093DE1A0BC0C8
:105AA0000E943D2C9FB7F8948091060284608093F9
:105AB00006029FBF2EC10E94EE201092D11A809143
:105AC000D31A9091D41AA091D51AB091D61A4091B8
:105AD000C31A5091C41A6091C51A7091C61A840FE6
