:100000000C94C9050C94EA050C94EA050C94EA05D5
:100010000C94EA050C94EA050C94EA050C94EA05A4
:100020000C94EA050C9475120C94EA050C946E3548
:100030000C94EA050C94EA050C94EA050C94EA0584
:100040000C94EA050C942B2C0C94EA050C94EA050C
:100050000C94EA050C94EA050C94EA050C94482EDD
:100060000C94EA050C94E8270C94A6270C94EA0556
:100070000C94EA050C94EA050C94EA050C94EA0544
:100080000C94EA050C94EA050C94EA050C94EA0534
:100090000C94EA050C94EA050C94EA050C94EA0524
:1000A0000C94EA050C94EA050C94EA050C94EA0514
:1000B0000C94EA050C94EA050C94EA050C941C06D1
:1000C0000C94EA050C94EA050C94EA050C94EA05F4
:1000D0000C94EA050C94EA050C94EA050C94EA05E4
:1000E0000C94EA0566094C114C1170097D098A09C6
:1000F00097094C119B094C11A9094C11B309BD0971
:10010000EE094C114C114C11C709D409E10910102A
:10011000211040102110441057104A1050106C103C
:10012000721081109810BC10C610D210DC10AD22D5
:10013000B022B522B822BB22BE22C122C422C722CD
:10014000CA22CD22DC22DC22DC22DC22DC22DC22E0
:10015000DC22DC22D322D022D622DC22DC22DC22CA
:10016000DC22DC22DC22DC22DC22DC22DC22DC229F
:10017000DC22DC22DC22DC22D922F922FC22FF2232
:100180000223052308230B2329232C232F23322387
:10019000352338233B233E234E2A542A572A5A2AF2
:1001A0005F2A672A712AE32AE32AE32A792A7C2A2A
:1001B000852A8E2AE32AE32AE32AE32AE32AE32A8A
:1001C000962AA02AAC2AB42AB72AC02AC92ACF2A3A
:1001D000D82A084AD73B3BCE016E84BCBFFDC12F55
:1001E0003D6C74319ABD56833DDA3D00C77F11BE28
:1001F000D9E4BB4C3E916BAAAABE000000803F052B
:10020000A84CCDB2D44EB93836A9020C50B991865B
:1002100088083CA6AAAA2ABE000000803F08000069
:1002200000BE922449123EABAAAA2ABECDCCCC4C29
:100230003E00000080BEABAAAAAA3E00000000BF9C
:10024000000000803F0000000000084178D3BB435D
:1002500087D1133D190E3CC3BD4282AD2B3E68ECE5
:100260008276BED98FE1A93E4C80EFFFBE01C4FF6C
:100270007F3F0000000000000C94CD220C948E2AD9
:100280000C940B230C94A9090C94B72A0C94E10943
:100290000C9421100C94962A0C94B8220C943E23B2
:1002A0000C94572A0C94C6100C942C230C944C11CB
:1002B0000C9402230C947D090C94D6220C944010CB
:1002C0000C94FC220C9444100C94A02A0C94B309B6
:1002D0000C9481100C9435230C948A090C94BB2245
:1002E0000C9457100C94B42A0C94BC100C94852ACE
:1002F0000C94BD090C94672A0C944A100C94D409F0
:100300000C947C2A0C94AC2A0C9498100C947210C7
:100310000C94C4220C9497090C94F9220C94E32AAF
:100320000C943B230C944E2A0C942F230C94712A8A
:100330000C94542A0C9438230C94BE220C9470090B
:100340000C94EE090C94CA220C94DC100C94D92263
:100350000C94B5220C945A2A0C94D3220C94C02AE3
:100360000C9408230C94792A0C945F2A0C94660947
:100370000C9450100C94FF220C94B0220C94052382
:100380000C94D82A0C949B090C9432230C94C70922
:100390000C94AD220C94CF2A0C94C7220C94C92A39
:1003A0000C9410100C94D2100C94D0220C94C122F6
:1003B0000C9429230C946C100C94DC223E0D0A0042
:1003C0002C4C696D3A002C4C6173657220506F772C
:1003D00065723A002C54454D503A002C52583A0060
:1003E0002C4275663A002C002C57506F733A002C43
:1003F000002C4D506F733A003C446F6F72003C43C9
:100400006865636B003C416C61726D003C486F6DC8
:1004100065003C486F6C64003C52756E003C49645A
:100420006C65005D0D0A005B302E396A2E3230316A
:1004300036303732363A000D0A003D00244E005D5A
:100440000D0A00205300204600205400204D3800A3
:10045000204D3900204D3500204D3400204D330013
:10046000204D3200204D3100204D300020473934DE
:100470000020473933002047393100204739300008
:1004800020473230002047323100204731390020E8
:100490004731380020473137002047004733382E96
:1004A00000473830004733004732004731004730BB
:1004B000005B005D0D0A005B544C4F3A005D0D0A75
:1004C000002C005B4739323A005D0D0A002C003ADF
:1004D000003330003238005B47005D0D0A003A00FF
:1004E0002C005B5052423A00290D0A00206D6178C1
:1004F0002074726176656C2C206D6D0020616363E1
:10050000656C2C206D6D2F7365635E3200206D610C
:100510007820726174652C206D6D2F6D696E002CD2
:1005200020737465702F6D6D007A0079007800205B
:1005300028003D00240020286C6173657220706FD4
:100540007765722064697669736F722C2025292083
:100550002D2D204E4F542053415645440D0A002066
:1005600028686F6D696E672070756C6C2D6F66669C
:100570002C206D6D290D0A2432383D002028686F2B
:100580006D696E67206465626F756E63652C206DA2
:10059000736563290D0A2432373D002028686F6D8A
:1005A000696E67207365656B2C206D6D2F6D696EAC
:1005B000290D0A2432363D002028686F6D696E6768
:1005C00020666565642C206D6D2F6D696E290D0A9E
:1005D0002432353D00290D0A2432343D002028689C
:1005E0006F6D696E672064697220696E76657274DA
:1005F000206D61736B3A002028686F6D696E67200B
:100600006379636C652C20626F6F6C290D0A24324C
:10061000333D00202868617264206C696D697473D1
:100620002C20626F6F6C290D0A2432323D00202885
:10063000736F6674206C696D6974732C20626F6FC0
:100640006C290D0A2432313D0020287265706F72CA
:100650007420696E636865732C20626F6F6C290D5E
:100660000A2432303D00202861726320746F6C656B
:1006700072616E63652C206D6D290D0A2431333D46
:100680000020286A756E6374696F6E2064657669F0
:100690006174696F6E2C206D6D290D0A2431323D15
:1006A00000290D0A2431313D0020287374617475CE
:1006B00073207265706F7274206D61736B3A0020E5
:1006C0002870726F62652070696E20696E7665723F
:1006D000742C20626F6F6C290D0A2431303D00208C
:1006E000286C696D69742070696E7320696E766517
:1006F00072742C20626F6F6C290D0A24363D002025
:10070000287374657020656E61626C6520696E7611
:100710006572742C20626F6F6C290D0A24353D00C0
:10072000290D0A24343D00202864697220706F72FC
:100730007420696E76657274206D61736B3A00295E
:100740000D0A24333D0020287374657020706F7289
:100750007420696E76657274206D61736B3A002047
:1007600028737465702069646C652064656C6179B8
:100770002C206D736563290D0A24323D00202873F7
:100780007465702070756C73652C207573656329B2
:100790000D0A24313D0024303D00242420287669B0
:1007A0006577204772626C2073657474696E677335
:1007B000290D0A242320287669657720232070617B
:1007C00072616D6574657273290D0A24472028765D
:1007D00069657720706172736572207374617465E6
:1007E000290D0A2449202876696577206275696C8D
:1007F0006420696E666F290D0A244E20287669658B
:1008000077207374617274757020626C6F636B73A0
:10081000290D0A24783D76616C7565202873617610
:1008200065204772626C2073657474696E67290D68
:100830000A25783D76616C756520287365742047BC
:1008400072626C2073657474696E67202D204E4F40
:1008500054205341564544290D0A244E783D6C6975
:100860006E6520287361766520737461727475708B
:1008700020626C6F636B290D0A244320286368652E
:10088000636B2067636F6465206D6F6465290D0A73
:10089000245820286B696C6C20616C61726D206C2F
:1008A0006F636B290D0A2448202872756E20686FCB
:1008B0006D696E67206379636C65290D0A24525354
:1008C000543D782028726573746F726520783D24DA
:1008D0003A2064656661756C742076616C75657329
:1008E0002C20783D233A20706172616D65746572C9
:1008F000732C20783D2A3A20616C6C290D0A245310
:100900002028666F7263652064697361626C65207C
:1009100073746570706572290D0A7E20286379638F
:100920006C65207374617274290D0A212028666534
:10093000656420686F6C64290D0A3F202863757216
:1009400072656E7420737461747573290D0A637413
:10095000726C2D7820287265736574204772626C02
:10096000290D0A000D0A4772626C20302E396A2068
:100970005B27242720666F722068656C705D0D0A06
:10098000005D0D0A00526573746F72696E672064B2
:10099000656661756C74730050676D20456E640008
:1009A000436865636B20446F6F72004469736162D2
:1009B0006C656400456E61626C65640043617574CA
:1009C000696F6E3A20556E6C6F636B656400272407
:1009D00048277C2724582720746F20756E6C6F631E
:1009E0006B00526573657420746F20636F6E746959
:1009F0006E7565005B000D0A0054656D70206C61BA
:100A000073657220746F6F206869676800436F6F49
:100A10006C616E74204F464600486F6D696E6720AA
:100A20006661696C0050726F6265206661696C0076
:100A300041626F727420647572696E6720637963B6
:100A40006C6500536F6674206C696D697400486151
:100A50007264206C696D697400414C41524D3A20BA
:100A6000000D0A00496E76616C69642067636F64EB
:100A7000652049443A00496E76616C6964206C6176
:100A800073657220706F77657200556E6465666974
:100A90006E65642066656564207261746500556EDC
:100AA000737570706F7274656420636F6D6D616EC5
:100AB00064004D6F64616C2067726F757020766999
:100AC0006F6C6174696F6E004C696E65206F76653E
:100AD00072666C6F7700486F6D696E67206E6F7419
:100AE00020656E61626C656400416C61726D206CA2
:100AF0006F636B004E6F742069646C6500454550F0
:100B0000524F4D2072656164206661696C2E2055DC
:100B100073696E672064656661756C7473005661F5
:100B20006C7565203C2033207573656300536574D4
:100B300074696E672064697361626C6564005661F4
:100B40006C7565203C203000496E76616C696420CC
:100B500073746174656D656E7400426164206E75B6
:100B60006D62657220666F726D61740045787065A4
:100B70006374656420636F6D6D616E64206C657471
:100B8000746572006572726F723A20006F6B0D0AA5
:100B9000000011241FBECFEFD1E2DEBFCDBF00E0C9
:100BA0000CBF12E0A0E0B2E0E4ECF8E700E00BBF1D
:100BB00002C007900D92A030B107D9F72EE1A0E056
:100BC000B2E001C01D92A13AB207E1F70E94EE1413
:100BD0000C94603C0C940000F894109220018BE07F
:100BE00080932101E3E7F0E080818360808388EADD
:100BF00091E6909329018093280110922B01109285
:100C00002A0110922501109224011092F71C1092D3
:100C1000F81C1092F91C1092FA1C789408952091F7
:100C2000F71C3091F81C4091F91C5091FA1CA4E675
:100C3000B0E00E94323C08951F920F920FB60F92BF
:100C400011248F939F93AF93BF9388E0809300010B
:100C500010922501109224018091F71C9091F81CAC
:100C6000A091F91CB091FA1C0196A11DB11D8093B1
:100C7000F71C9093F81CA093F91CB093FA1CBF9139
:100C8000AF919F918F910F900FBE0F901F9018956D
:100C9000E2E0F1E080818F7D80831092030208956D
:100CA000E1E0F1E08081806280830C94480682302C
:100CB00049F481E080930302809102018062809375
:100CC000020108950C944806CF93DF931F92CDB78D
:100CD000DEB79091761D923049F089830E9486227A
:100CE00089810F90DF91CF910C9457060F90DF917F
:100CF000CF910895F999FECF92BD81BD81E08FBB60
:100D000080B50895F894F999FECF92BD81BD81E038
:100D10008FBB40B54627842F992787FD9095262FB6
:100D200030E082239323892B39F06F3F19F060BDA7
:100D300084E006C084E104C0442321F060BD84E265
:100D40008FBBF99A789408959F92AF92BF92CF92F9
:100D5000DF92EF92FF920F931F93CF93DF938C015B
:100D60007A016B01C40ED51EEB01912C5C01A61A11
:100D7000B70ACE018A0D9B1DCC15DD0591F09110AF
:100D800009C0692D772767FD7095272F221F22271D
:100D9000221F01C021E06991922E960E0E948206C8
:100DA000E8CF692DC8018E0D9F1DDF91CF911F9156
:100DB0000F91FF90EF90DF90CF90BF90AF909F90FA
:100DC0000C9482069F92AF92BF92CF92DF92EF92E5
:100DD000FF920F931F93CF93DF938B017A016C01E6
:100DE000C40ED51EEC01912C5B01A81AB90AC501ED
:100DF0008C0F9D1FCC15DD0591F00E947A06911095
:100E000009C0292D332727FD3095232F221F2227A4
:100E1000221F01C021E0922E980E8993E8CFC801CD
:100E20008E0D9F1D0E947A0621E030E0981611F089
:100E300020E030E0C901DF91CF911F910F91FF9029
:100E4000EF90DF90CF90BF90AF909F90089580E497
:100E5000EBEFFCE1DF011D928A95E9F76FE17DE19F
:100E600080E00E94B229811103C087E00C94972290
:100E7000089569E77DE183E19DE10C946D372F9240
:100E80003F924F925F926F927F928F929F92AF921A
:100E9000BF92CF92DF92EF92FF920F931F93CF9367
:100EA000DF93CDB7DEB7AC970FB6F894DEBF0FBEB9
:100EB000CDBF9EA38DA38AE3EBE3FDE1DF011D928D
:100EC0008A95E9F78BE0EBEFFCE1ACE3BDE1019043
:100ED0000D928A95E1F71D8E212C312CA12CB12C7D
:100EE00019A2512C18A266246394712C57E0952EF8
:100EF0008824839464E0462E8D8DEDA1FEA1E80F39
:100F0000F11DB081BE8FBB2309F48FC29E8D915419
:100F10009A3110F00C943E118F5F8D8FAE01475EB9
:100F20005F4FBE01635E7F4F8DA19EA10E94AC19F1
:100F3000882311F40C944011C98CDA8CEB8CFC8C56
:100F4000C701B6010E94CB3B0E94EE38162F70E01D
:100F500080E090E00E941C399B01AC01C701B60102
:100F60000E94A03720E030E048EC52E40E94FD3AB5
:100F70000E94603B0E94EE38BE8DB73421F0BD3434
:100F800009F442C191C1183209F434C1E8F41431B2
:100F900060F4113108F0D9C0143009F45CC008F4D1
:100FA00090C01A30D9F10C944C111C31B9F128F4CD
:100FB000163108F4F9C00C944C111E3179F1163237
:100FC00009F47FC00C944C111D3309F40DC1A8F431
:100FD000153309F463C040F41B3209F4EEC0113339
:100FE00009F4EBC00C944C111C3310F00C944C1110
:100FF00016531093421D09E002C11C3540F41A3506
:1010000008F0B2C0103509F49CC00C944C111C358A
:1010100029F01F3508F4BFC00C944C1161157105FF
:1010200031F4E8A1E1110C944211F1E0F8A31C3174
:10103000A9F048F4143079F01A3009F0DDC082E0EC
:1010400080933B1DD9C0153349F11C3551F11E3138
:1010500009F0D2C012C080923B1DCEC0611571054F
:1010600041F06A30710511F00C944C1140923B1D17
:101070000AC023E020933B1D06C06115710529F4C9
:1010800085E080933B1D00E0CDC06A30710511F012
:101090000C944C1196E090933B1DF5CF90923B1D24
:1010A000ABC06115710549F06A30710511F00C94FF
:1010B0004C11B9E0B0933B1DE6CFA8E0A0933B1DD7
:1010C000E2CFE8A1E1110C944211F2E0F8A3123052
:1010D00089F028F4112359F0113081F08FC01632B5
:1010E00081F0103571F1133009F088C007C01092FB
:1010F0003C1D84C028A120933C1D80C010933C1D42
:101100007DC06E317105A1F040F46431710511F0BC
:101110000C944C1140923C1D12C06832710561F074
:101120006233710511F00C944C1190923C1D07C074
:1011300085E080933C1D03C096E090933C1D01E048
:1011400071C0A8E0A0933C1D59C0123129F01331A1
:1011500031F01092401D06C08092401D03C082E015
:101160008093401D02E04BC06115710549F41A35AA
:1011700019F410923F1D02C080923F1D03E052C03F
:101180006A30710511F00C944C111A3511F40C945D
:101190004C1104E047C01D3519F480923D1D02C07A
:1011A00010923D1D05E02BC0143119F480923E1DB4
:1011B00002C010923E1D06E022C0B8A1B1110C94ED
:1011C0004211113331F41092411D08E0E3E0E8A32D
:1011D00029C06A30710511F00C944C118092411DA8
:1011E00008E0F3E0F8A31EC0672B11F00C944C113B
:1011F0000AE018C007E003C000E001C001E0672B6F
:1012000089F087E10C945F11672BD9F71A30C8F089
:101210001E3141F110F40C944C111456123010F0A0
:101220000C944C11C301002E02C0880F991F0A9420
:10123000E2F79C012A213B21232B99F185E10C94B3
:101240005F11183010F5133020F0163078F00C9440
:101250004C11123039F01E3129F0111120C080924A
:10126000431D1DC082E08093431D19C0143029F036
:10127000153039F08092451D06C082E08093451DEF
:1012800002C01092451D0CE0CDCF193021F082E054
:101290008093441D02C01092441D0DE0C3CF0BE0AB
:1012A000C1CFA82AB92A28CE2E8D822F992787FD53
:1012B0009095A92FB92FFC01E654F109E531F1050C
:1012C00008F0EAC7EE58FF4F0C942C3CC092471D23
:1012D000D092481DE092491DF0924A1D00E07FC067
:1012E000C0924B1DD0924C1DE0924D1DF0924E1DB0
:1012F00089A1816089A301E072C0C0924F1DD09284
:10130000501DE092511DF092521D99A1926099A337
:1013100002E065C0C092531DD092541DE092551D4D
:10132000F092561DA9A1A460A9A303E058C0109390
:10133000571D04E054C0C701B6010E94E93860930C
:10134000581D7093591D80935A1D90935B1D05E0A5
:1013500046C0C0925C1DD0925D1DE0925E1DF09271
:101360005F1D06E03CC0C092601DD092611DE092FE
:10137000621DF092631D07E032C0C092641DD092DE
:10138000651DE092661DF092671D08E028C0C092BE
:10139000691DD0926A1DE0926B1DF0926C1DB52DF7
:1013A000B1605B2E0AE01BC0C0926D1DD0926E1D15
:1013B000E0926F1DF092701DE52DE2605E2E0BE055
:1013C0000EC0C092711DD092721DE092731DF092FA
:1013D000741DF52DF4605F2E0CE001C009E0C3011F
:1013E000002E02C0880F991F0A94E2F79F8F8E8FFC
:1013F00082219321892B09F047C781E693E0002ED3
:1014000002C0959587950A94E2F780FF09C020E015
:1014100030E0A901C701B6010E947A3887FD36C7BE
:10142000AE8DBF8D2A2A3B2A67CD552029F0E8A131
:10143000E11102C0F2E0F8A325FE0EC08091581D14
:101440009091591DA0915A1DB0915B1D803896490D
:10145000A849B1050CF01CC780913D1D813031F4C5
:1014600088A18230A1F520FE1DC731C08091FC1CEF
:1014700081112DC020FE1BC080913E1D813039F5A9
:1014800023E333E34BEC51E46091471D7091481D19
:101490008091491D90914A1D0E94FD3A6093471D1D
:1014A0007093481D8093491D90934A1D10C08091F0
:1014B0000A1D90910B1DA0910C1DB0910D1D8093E4
:1014C000471D9093481DA093491DB0934A1D30FCC1
:1014D00010C08091061D9091071DA091081DB0912C
:1014E000091D8093641D9093651DA093661DB093A4
:1014F000671D80913B1D813031F426FC02C08CE1D8
:10150000DEC6E89426F88091401D882341F08130A2
:1015100061F01AA6B2E0B9A7E1E0EDA30BC092E03A
:101520009AA7A1E0A9A71DA205C0F1E0FAA719A6F4
:1015300022E02DA380913E1D813021F088A18330CF
:1015400091F52AC039E6E32E3DE1F32E00E010E0EC
:10155000C52CD12CC601002E02C0959587950A9402
:10156000E2F780FF10C023E333E34BEC51E4D701F3
:101570006D917D918D919C910E94FD3AF701608360
:101580007183828393830F5F1F4FF4E0EF0EF11C92
:1015900003301105F9F6D2CF8091411D813019F445
:1015A00024E0521277C68CE0EFE1FDE1DE011D96EA
:1015B00001900D928A95E1F7B1FC09C080913B1D25
:1015C0008E8F8230B9F0883009F4B0C015C1809197
:1015D000421D873010F08DE172C69091011D981761
:1015E00069F3BE01635F7F4F0E94B229882309F42B
:1015F00063C6E4CF511002C08AE161C6C1018075A3
:101600009927892B09F47BCF60915C1D70915D1D3A
:1016100080915E1D90915F1D0E94CB3B0E94EE3831
:101620006730C8F68091571D843129F0823009F067
:1016300033C627FC31C69FEA2922662319F0615080
:101640006E8F03C0A091421DAE8FBE016F5F7F4FB2
:101650008E8D0E94B229882309F42EC64090571D12
:101660006090371D7090381D8090391D90903A1D04
:10167000FE0131967F0199E6C92E9DE1D92E23E125
:10168000A22E2DE1B22E00E010E0852D90E098A76B
:101690008FA38FA198A5002E02C0959587950A94D7
:1016A000E2F780FF33C094E1491226C0D501589675
:1016B0002D913D914D915C915B976D917D918D91B7
:1016C0009C910E94A037F601208131814281538193
:1016D0000E94A037D7016D937D938D939C931397B0
:1016E0000230A1F4A40193010E94A037F7016083A6
:1016F0007183828393830AC0F60180819181A281E4
:10170000B381F70180839183A283B3830F5F1F4F5F
:10171000F4E0EF0EF11C24E0C20ED11C84E0A80E10
:10172000B11C0330110509F0B4CF0FC1552009F4E5
:1017300063CF6090371D7090381D8090391D909058
:101740003A1D09E61DE183E1C82E8DE1D82E5E0128
:101750009DE0A90EB11CE12CF12CA52DB0E0BF8FAE
:10176000AE8F8E8D9F8D0E2C02C0959587950A9415
:10177000E2F780FF26C0F50120813181428153814B
:10178000D6016D917D918D919C910E94A037F801B9
:1017900020813181428153810E94A037D8016D930D
:1017A0007D938D939C931397B2E0EB1214C0A40128
:1017B00093010E94A037F801608371838283938331
:1017C0000AC0F601808D918DA28DB38DF8018083C2
:1017D0009183A283B383FFEFEF1AFF0A0C5F1F4FC1
:1017E00024E0C20ED11C84E0A80EB11C93E0E916DF
:1017F000F10409F0B6CFA8C0A8A1A33059F4BE8D5A
:10180000B53009F48FC0B73009F499C0B33009F08E
:101810009BC080C0552099F340903F1D8090371D9C
:101820009090381DA090391DB0903A1D03E1C02E54
:101830000DE1D02E09E61DE13E01EDE06E0E711CBA
:10184000E12CF12C852D90E098A78FA38FA198A56E
:101850000E2C02C0959587950A94E2F780FD0BC087
:10186000F60180819181A281B381F8018083918307
:10187000A283B3833EC0FE8DF730D9F1411028C05A
:10188000D60158962D913D914D915C915B97F30156
:1018900060817181828193810E94A137D8012D914D
:1018A0003D914D915C910E94A137F8016083718355
:1018B00082839383F2E0EF121CC0A50194010E9481
:1018C000A137D8016D937D938D939C93139711C08D
:1018D000F6012081318142815381D8016D917D9142
:1018E0008D919C910E94A137F8016083718382835E
:1018F0009383FFEFEF1AFF0A24E0C20ED11C0C5FA6
:101900001F4F84E0680E711C93E0E916F10409F0A2
:101910009DCF75CF511001C018A2BE016F5F7F4FE0
:1019200086E007C0511001C018A2BE016F5F7F4F53
:1019300087E00E94B229882309F4BEC405C08091C3
:101940003C1D823008F0AAC41E8E10913C1D183038
:1019500041F4552009F4B2C1A8A1A13009F0A0C4F6
:1019600089C2B8A1B23009F0A9C11123D9F020E091
:1019700030E0A9016091471D7091481D8091491D7B
:1019800090914A1D0E947A38882309F48BC4143040
:1019900028F4123058F4113029F06CC2183008F4D1
:1019A0004CC168C2511066C218A28BC1552009F4FF
:1019B00023CEFDA1EF2FF0E0F8A7EFA399A5892F83
:1019C00090E09CA78BA781E090E03C0109A402C0B5
:1019D000660C771C0A94E2F70DA002C0880F991FCD
:1019E0000A94E2F7682A792A852D90E086219721CA
:1019F000892B09F459C4EE0FFF1FEE0FFF1FE55CA2
:101A0000F24EAFA1B8A5AA0FBB1FAA0FBB1FAD5EB8
:101A1000B24E2D913D914D915C9166A577A580A91F
:101A200091A90E94A0376B017C01EBA5FCA5EE0FEC
:101A3000FF1FEE0FFF1FE55CF24EABA5BCA5AA0F82
:101A4000BB1FAA0FBB1FAD5EB24E2D913D914D91B4
:101A50005C9166A577A580A991A90E94A0374B014A
:101A60005C0127FE40C0E89427F82091691D309161
:101A70006A1D40916B1D50916C1D6091131D7091FA
:101A8000141D8091151D9091161D0E947A388111A8
:101A90001CC120916D1D30916E1D40916F1D5091A4
:101AA000701D6091171D7091181D8091191D9091E6
:101AB0001A1D0E947A38811108C12091711D309140
:101AC000721D4091731D5091741D60911B1D70918A
:101AD0001C1D80911D1D90911E1D0E947A38811140
:101AE000F4C081E2ECC3F9A14F2E512C6420752083
:101AF000672809F4DBC321EF222280913E1D81304B
:101B000009F456C00BA51CA5000F111F000F111FD3
:101B1000055B124ED8012D913D914D915C91C5010F
:101B2000B4010E94A0372B013C01AFA0B8A4AA0CBD
:101B3000BB1CAA0CBB1CF501E55BF24E5F012081CA
:101B4000318142815381C701B6010E94A037A301B0
:101B500092010E94691A6B017C01D8012D913D917F
:101B60004D915C91F50160817181828193810E9428
:101B7000691A4B015C016093601D7093611D809335
:101B8000621D9093631D9B01AC01C701B6010E94C9
:101B9000A0376B017C01E894F7F82AE037ED43EABF
:101BA0005BE3C701B6010E947D3A18164CF162C191
:101BB0008BE4682E8DE1782E00E010E0C201002E4B
:101BC00002C0959587950A94E2F780FF10C023E341
:101BD00033E34BEC51E4D3016D917D918D919C9158
:101BE0000E94FD3AF30160837183828393830F5FC8
:101BF0001F4FF4E06F0E711C03301105F9F682CF10
:101C000020E030E040E05FE3C701B6010E947D3A8A
:101C100018160CF466CF2FE632E143E85AE3C5010B
:101C2000B4010E94FD3A9B01AC01C701B6010E94BC
:101C30007D3A18160CF455CF1DC1552009F4DCCCA3
:101C40002091691D30916A1D40916B1D50916C1D52
:101C50006091131D7091141D8091151D9091161D9A
:101C60000E947A38811106C120916D1D30916E1D40
:101C700040916F1D5091701D6091171D7091181D3E
:101C80008091191D90911A1D0E947A388111F2C01D
:101C90002091711D3091721D4091731D5091741DE2
:101CA00060911B1D70911C1D80911D1D90911E1D2A
:101CB0000E947A38882309F414CFDCC028A12111AE
:101CC000D9C0C1018E7D9C7FD8C080913E1D8130DE
:101CD000B1F423E333E34BEC51E46091601D709168
:101CE000611D8091621D9091631D0E94FD3A609379
:101CF000601D7093611D8093621D9093631D4090E1
:101D0000601D5090611D6090621D7090631D20E009
:101D100030E040E850E4C301B2010E94FD3AA30163
:101D200092010E94FD3A2B013C01A7019601C701D7
:101D3000B6010E94FD3A9B01AC01C301B2010E94B1
:101D4000A0372B013C01A5019401C501B4010E94FB
:101D5000FD3A9B01AC01C301B2010E94A0372B01E7
:101D60003C0120E030E0A9010E947A3887FDA6C23C
:101D7000C301B2010E948A3B2B013C01A5019401E1
:101D8000C701B6010E94691A9B01AC01C301B201EF
:101D900090580E9481382B013C0180913C1D83307A
:101DA00021F477FA709477F870948091601D909187
:101DB000611DA091621DB091631D89A39AA3ABA37D
:101DC000BCA320E030E0A901BC01CD010E947A381B
:101DD00087FF11C077FA709477F8709489A19AA15F
:101DE000ABA1BCA1B0588093601D9093611DA093DE
:101DF000621DB093631D0FA118A5000F111F000FE6
:101E0000111F055B124EA3019201C501B4010E948E
:101E1000FD3A9B01AC01C701B6010E94A03720E04A
:101E200030E040E05FE30E94FD3AD8016D937D937E
:101E30008D939C9313970BA51CA5000F111F000FEA
:101E4000111F055B124EA3019201C701B6010E944A
:101E5000FD3A9B01AC01C501B4010E94A13720E00D
:101E600030E040E05FE30E94FD3AF8016083718357
:101E700082839383C1018E7D907E892B09F018C2E5
:101E80008091581D9091591DA0915A1DB0915B1DD4
:101E900080930F1D9093101DA093111DB093121DE0
:101EA00080913D1D8093FC1C8091471D9091481DA1
:101EB000A091491DB0914A1D80930A1D90930B1D5E
:101EC000A0930C1DB0930D1DC090641DD090651D96
:101ED000E090661DF090671DA70196016091061DB8
:101EE0007091071D8091081D9091091D0E947A38FC
:101EF0008823C1F08091041D882321F0B701A60139
:101F00000E94992B8091641D9091651DA091661D82
:101F1000B091671D8093061D9093071DA093081D27
:101F2000B093091D8091681D80930E1D8091451D01
:101F30009091041D981771F04091061D5091071D56
:101F40006091081D7091091D0E94992B8091451D7B
:101F50008093041D8091441D9091031D981731F0CA
:101F60000E9464068091441D8093031D80913B1D57
:101F7000813051F460915C1D70915D1D80915E1DFA
:101F800090915F1D0E9473188091401D8093FF1CEB
:101F900080913E1D8093FD1C88A18330F9F48091CF
:101FA000411D8093001D813089F48091711D9091B5
:101FB000721DA091731DB091741D8093371D909375
:101FC000381DA093391DB0933A1D08C01092371DDB
:101FD0001092381D1092391D10923A1D8091421DA9
:101FE0009091011D981759F08093011D8CE0FE011E
:101FF0003D96AFE1BDE101900D928A95E1F78091A8
:102000003F1D8093FE1C80913B1D90E0FC013297A8
:10201000E830F10508F04BC0E957FF4F0C942C3C19
:10202000BE016F5F7F4F8E8D0E945F288091011DE2
:102030009E8D89133CC08CE0FE013196AFE1BDE17D
:102040001AC0A8A1AA2349F020E040E050E060E8CF
:102050007FEB89E69DE10E94261520E040E050E0FC
:1020600060E87FEBCE0101960E9426158CE0FE0110
:102070003196A3E1BDE101900D928A95E1F717C079
:1020800063E17DE186E003C063E17DE187E00E94DA
:102090005F280DC08CE0E9E6FDE1ABE2BDE1EBCFEE
:1020A0008CE0EBE2FDE1DF011D928A95E9F780917A
:1020B0003C1D8093FB1C883009F498C0B8A1B23055
:1020C00009F094C090E08830910508F086C0FC01CA
:1020D000E157FF4F0C942C3C20E040E050E060E8DA
:1020E0007FEB0AC040910A1D50910B1D60910C1DA1
:1020F00070910D1D2091FC1C89E69DE10E94261522
:102100006CC0C0900A1DD0900B1DE0900C1DF0908B
:102110000D1D0091601D1091611D2091621D309177
:10212000631D81E08F93EAA5EF93F9A5FF9315C096
:10213000C0900A1DD0900B1DE0900C1DF0900D1D5D
:102140000091601D1091611D2091621D3091631DF1
:102150001F928AA58F9399A59F938DA0A090FC1C98
:102160004BE45DE169E67DE183E19DE10E94741548
:102170000F900F900F9031C040910A1D50910B1D90
:1021800060910C1D70910D1DE12C0AC040910A1D3B
:1021900050910B1D60910C1D70910D1DEE24E39468
:1021A00000E015C040910A1D50910B1D60910C1D5F
:1021B00070910D1DE12C0AC040910A1D50910B1D1C
:1021C00060910C1D70910D1DEE24E39401E02091AF
:1021D000FC1C89E69DE10E94E5188CE0E9E6FDE142
:1021E000A3E1BDE101900D928A95E1F78091431D35
:1021F0008093021D882309F45DC00E94862290917D
:10220000021D8091761D913069F48230A1F19FB753
:10221000F894809101028860809301029FBF0E9420
:10222000AC2029C091E09093FB1C1092FF1C1092EF
:10223000FE1C1092FC1C1092011D1092041D1092A5
:10224000031D8230A9F0BE01635F7F4F80E00E94D2
:10225000B229882389F18CE0FE013D96AFE1BDE112
:1022600001900D928A95E1F70E941F2B0E9448066B
:1022700087E00E9418231092021D1CC081E01FC03D
:1022800082E01DC088E11BC089E119C084E017C04D
:102290008BE115C085E213C084E111C08EE10FC04F
:1022A0008FE10DC086E10BC080E209C083E207C068
:1022B00084E205C080E003C087E001C082E2AC9602
:1022C0000FB6F894DEBF0FBECDBFDF91CF911F9147
:1022D0000F91FF90EF90DF90CF90BF90AF909F90C5
:1022E0008F907F906F905F904F903F902F900895C8
:1022F0008091AA009091AB000895CF92DF92EF9267
:10230000FF9280E00E94933710920A0210920B0213
:1023100010920C0210920D02109209028091090293
:102320008A3060F5C0900A02D0900B02E0900C0257
:10233000F0900D0280E00E949337BC01882777FD62
:102340008095982F0E941C399B01AC01C701B601F2
:102350000E94A13760930A0270930B0280930C02D3
:1023600090930D028FE39CE90197F1F700C0000004
:10237000809109028F5F80930902D0CF20E030E086
:1023800040E251E460910A0270910B0280910C02CC
:1023900090910D020E9481389B01AC0160E070ECCD
:1023A0008FE794E40E94813820E030E040E85FE36A
:1023B0000E94A0379B01AC0160E078E38AE196E4DB
:1023C0000E94813860930A0270930B0280930C0282
:1023D00090930D0220E030E44CE156E40E948138F5
:1023E0000E948D3A20E030EE46E755E40E948138A5
:1023F0002FE03FEC4BE55BE30E94A1379B01AC0172
:1024000060E070E080E89FE30E94813823E333E9D5
:1024100048E853E40E94A0376093050270930602D7
:102420008093070290930802FF90EF90DF90CF9087
:102430000895EBE6F0E080818F788083E8E6F0E0B5
:1024400080818E7F8083089584B18F7884B985B12F
:10245000806785B98091911E83FF0BC080916B00CE
:10246000806780936B008091680081608093680032
:1024700008950C941912CF92DF92FF920F931F933D
:10248000CF93DF931F92CDB7DEB793B19077809152
:10249000911E86FD02C080E798279923D9F0C12CB0
:1024A000D12CF12C01E010E08C2D99830E94152B8A
:1024B0009981892339F098010C2C01C0220F0A94CC
:1024C000EAF7F22A8FEFC81AD80AE3E0CE16D10451
:1024D00059F701C0F12C8F2D0F90DF91CF911F91F3
:1024E0000F91FF90DF90CF9008951F920F920FB63B
:1024F0000F9211240BB60F922F933F934F935F933C
:102500006F937F938F939F93AF93BF93EF93FF93BB
:102510008091761D813071F08091000281110AC096
:102520000E9483199FB7F894809100028360809382
:1025300000029FBFFF91EF91BF91AF919F918F914B
:102540007F916F915F914F913F912F910F900BBEB3
:102550000F900FBE0F901F9018952F923F924F92A1
:102560005F926F927F928F929F92AF92BF92CF9223
:10257000DF92EF92FF920F931F93CF93DF93CDB72C
:10258000DEB767970FB6F894DEBF0FBECDBF582EEB
:102590008091751D8111A1C128E7A22E2EE1B22ED6
:1025A0009E01235F3F4F190100E010E0C12CD12CA8
:1025B0007601652C712C802F0E94012BD1018D9307
:1025C0001D01C301002E02C0959587950A94E2F77C
:1025D00080FF1AC020E030E040EC5FEBF501608145
:1025E0007181828193810E94FD3A688B472E4C0154
:1025F000262F372FAC01C701B6010E947D3A18166D
:102600001CF0C888D42C74010F5F1F4FF4E0AF0E8C
:10261000B11C0330110579F68090971E9090981E9A
:10262000A090991EB0909A1E24E0288B01E069E7E3
:102630007DE1CE0101960E946D372090921E312CD3
:10264000FE01319689E79DE19F8B8E8B80E090E0C3
:10265000412C10E0B701A60170589301082E02C06A
:10266000359527950A94E2F720FF28C04394AE8958
:10267000BF891D921D921D921C9213979101082EE5
:1026800002C0359527950A94E2F720FF03C0002386
:1026900019F007C0002329F0C082D182E282F382C0
:1026A00004C040835183628373832DE030E02C0F9C
:1026B0003D1F280F391FD9012C91122B01963496FA
:1026C0002E893F892C5F3F4F3F8B2E8B83309105A6
:1026D00021F6642D70E080E090E00E941A390E949B
:1026E0008A3B9B01AC01C501B4010E94FD3AAB01DC
:1026F000BC011093921D4A8B5B8B6C8B7D8B0E946F
:10270000FA1E20E04A895B896C897D89CE01019699
:102710000E94011C0E940E2F0E94C12B0023E9F091
:102720000E943B12FE013D9620E030E090E0619176
:10273000462F412359F0AC01022E02C05595479512
:102740000A94E2F740FF02C0609516232F5F3F4FC7
:102750002330310561F71093921D0E940E2F809156
:1027600001028473C1F080910102807329F00E94FC
:1027700083190E94AC20B1C00111AAC00E943B1273
:102780008521A9F79FB7F894809101028B7F8093F0
:1027900001029FBF04C0812F8C7109F0BFCF0E943E
:1027A0009A2E0E94AA1B80919B1E90919C1E0E94B3
:1027B0005E1A31E00327C9F020E030E040EA50E43F
:1027C00060919D1E70919E1E80919F1E9091A01EF3
:1027D0000E94FD3A6B017C018090931E9090941EA4
:1027E000A090951EB090961E10C0C0909D1ED090D7
:1027F0009E1EE0909F1EF090A01E8090971E9090CD
:10280000981EA090991EB0909A1E88898150888B3E
:1028100081110DCF8091921EA82FB0E0B98BA88BAB
:10282000C0909D1ED0909E1EE0909F1EF090A01E16
:102830001601270157FA509457F8509484E5A82EB2
:102840008EE1B82E99E7892E9DE1992E00E010E0E7
:10285000C301002E02C0959587950A94E2F780FF88
:1028600029C088899989002E02C0959587950A9478
:10287000E2F7F50180FF0EC024A135A146A157A1C2
:10288000C701B6010E94A137D5012D913D914D910F
:102890005C9106C02081318142815381C201B10126
:1028A0000E94FD3A0E94CD3AD4016D937D938D93A1
:1028B0009C9313970F5F1F4FB4E08B0E911CE4E0C5
:1028C000AE0EB11C0330110519F60E94FA1E05C0A8
:1028D0008091010282FF56CF4ACF67960FB6F894D7
:1028E000DEBF0FBECDBFDF91CF911F910F91FF9043
:1028F000EF90DF90CF90BF90AF909F908F907F90A0
:102900006F905F904F903F902F900895BF92CF921D
:10291000DF92EF92FF920F931F93CF93DF938C017F
:10292000C8E7DEE1BB24B394F801C190D190E190F7
:10293000F1908F0120E030E0A901C701B6010E94AB
:102940007D3A18164CF0288139814A815B81C70194
:10295000B6010E947A3887FDB092781D8091781D6B
:10296000882361F18091761D8830A9F00E94831937
:102970009FB7F894809100028560809300029FBF0A
:10298000DF91CF911F910F91FF90EF90DF90CF904B
:10299000BF900C94AC209FB7F8948091010288609E
:1029A000809301029FBF0E94AC208091751D811110
:1029B0000BC08091761D8111F6CFD8CF2496FEE111
:1029C000C438DF0709F0B0CFDF91CF911F910F918D
:1029D000FF90EF90DF90CF90BF9008950E947427F2
:1029E0000E94F42A0E94C62E0E9459358EE1E5E726
:1029F000FDE1DF011D928A95E9F781E08093751D65
:102A000078940E944A280E9427070E94EC050E94A1
:102A100087370E94312B0E9450060E9424120E9488
:102A200070200E94AA1B0E949A2E0E94FA1E0E94E9
:102A300039071092751D1092010210920002109237
:102A4000771D1092781D0E94D821DBCFEF92FF9264
:102A50001F93CF93DF9300D01F92CDB7DEB77C01D9
:102A6000122F8091911E85FF0BC0C70149835A83A5
:102A70006B837C830E9486147C816B815A8149819F
:102A80008091761D823031F149835A836B837C8338
:102A90000E94AC208091751D81111CC00E94F91B01
:102AA00049815A816B817C81882339F00E94CF2132
:102AB00049815A816B817C81E7CF212FC7010F901B
:102AC0000F900F900F90DF91CF911F91FF90EF909B
:102AD0000C94011C0F900F900F900F90DF91CF91ED
:102AE0001F91FF90EF9008952F923F924F925F9227
:102AF0006F927F928F929F92AF92BF92CF92DF920E
:102B0000EF92FF920F931F93CF93DF93CDB7DEB772
:102B1000E7970FB6F894DEBF0FBECDBF9C8B8B8BB3
:102B20001B013A0109871A872B873C87AF8A2E96AB
:102B30001FAD2E972F962FAD2F97298B60963FAD07
:102B400060973D8B84E0889EA00111245A834983BD
:102B5000AB89BC89A40FB51FB98FA88F460D571D2F
:102B60005B8F4A8FFA0180809180A280B3802D9183
:102B70003D914D915C91C501B4010E94A1376C8FCC
:102B80007D8F8E8F9F8FF4E01F9F800111242B89F2
:102B90003C89200F311F39A328A3A301400F511FE7
:102BA0005BA34AA3DA014D905D906D907C90F90192
:102BB0002081318142815381C301B2010E94A1373A
:102BC0006CA37DA38EA39FA3A501940150582D87CC
:102BD0003E874F87588BD301C201B0588D839E83A7
:102BE000AF83B887E981FA81E20DF31D2C8D3D8D0D
:102BF0004E8D5F8D60817181828193810E94A037AB
:102C00002B013C01F101E00FF11F2CA13DA14EA1D0
:102C10005FA160817181828193810E94A0374B0105
:102C20005C01A30192016D857E858F8598890E9444
:102C3000FD3A69837A838B839C83A50194016D811E
:102C40007E818F8198850E94FD3A9B01AC0169814C
:102C50007A818B819C810E94A13769837A838B83DF
:102C60009C83A50194016D857E858F8598890E943E
:102C7000FD3A4B015C01A30192016D817E818F8140
:102C800098850E94FD3A9B01AC01C501B4010E94E8
:102C9000A03729813A814B815C810E9414382B0135
:102CA0003C019D89992399F02DEB37E346E055EBE4
:102CB000C301B2010E947D3A87FD1DC02BED3FE0AC
:102CC00049EC50E4C301B2010E94A03712C02DEBC1
:102CD00037E346E055E3C301B2010E947A38181683
:102CE00054F02BED3FE049EC50E4C301B2010E94E7
:102CF000A1372B013C0180908D1E90908E1EA090DC
:102D00008F1EB090901E29853A854B855C85CA013F
:102D1000B9010E94A137A50194010E94A0379B012F
:102D2000AC01C501B4010E94FD3A0E948A3B4B01EF
:102D30005C0120E030E040E05FE3C301B2010E94AB
:102D4000FD3A29853A854B855C850E94FD3A9F773F
:102D5000A50194010E9481380E9457390E94EE38E3
:102D60007E8B6D8BDB01AB2B09F486C14B01A12C53
:102D7000B12CBF89BB2361F0C501B4010E941A398F
:102D80009B01AC01C701B6010E94FD3A6B017C01B9
:102D9000C501B4010E941A394B015C019B01AC01D1
:102DA000C301B2010E94813869877A878B879C872B
:102DB000F989E4E0FE9FC00111242B893C89280F8A
:102DC000391F3A8B298BF101E80FF91FD9012D9199
:102DD0003D914D915C9160817181828193810E94CE
:102DE000A037A50194010E9481386CAB7DAB8EABFE
:102DF0009FAB29853A854B855C85CA01B9010E9444
:102E0000FD3A9B01AC0160E070E080E090E40E943C
:102E1000A0374B015C012BEA3AEA4AE25EE369859E
:102E20007A858B859C850E94FD3A2B013C0120E030
:102E300030E040E850E4C501B4010E94A1379B0195
:102E4000AC01C301B2010E94FD3A68A779A78AA725
:102E50009BA720E030E040E05FE3C501B4010E94A1
:102E6000FD3A6CA77DA78EA79FA7198201E010E00D
:102E7000ED89FE890E171F0709F4FEC0B981BC3029
:102E800008F04AC02CA53DA54EA55FA56D817E81A9
:102E90008F8198850E94FD3A4B015C0128A539A5D8
:102EA0004AA55BA56D857E858F8598890E94FD3A30
:102EB000A50194010E94A137B62EA72E982E892E27
:102EC0002CA53DA54EA55FA56D857E858F8598892E
:102ED0000E94FD3A2B013C0128A539A54AA55BA516
:102EE0006D817E818F8198850E94FD3A9B01AC01A6
:102EF000C301B2010E94A0376D877E878F87988BB0
:102F0000E981EF5FE9838B2D9A2DA92DB82D8D8353
:102F10009E83AF83B8876EC0B80180E090E00E94C6
:102F20001A3929853A854B855C850E94FD3A4B010B
:102F30005C010E947E386D837E838F839887C501F4
:102F4000B4010E94803B4B015C01EA8DFB8D8081C6
:102F50009181A281B3819C01AD01505829833A83AC
:102F60004B835C83AAA1BBA18D919D910D90BC91D7
:102F7000A02D88AB99ABAAABBBAB2D813E814F8115
:102F8000588569817A818B819C810E94FD3A2B0151
:102F90003C01A501940168A979A98AA99BA90E946D
:102FA000FD3A9B01AC01C301B2010E94A1376D87BC
:102FB0007E878F87988BA501940169817A818B81A7
:102FC0009C810E94FD3A4B015C012D813E814F8125
:102FD000588568A979A98AA99BA90E94FD3A9B01F5
:102FE000AC01C501B4010E94A0376D837E838F833D
:102FF000988719822D853E854F8558896C8D7D8DEA
:103000008E8D9F8D0E94A137E88DF98D608371832D
:10301000828393832D813E814F8158856CA17DA150
:103020008EA19FA10E94A137A8A1B9A16D937D9304
:103030008D939C9313972CA93DA94EA95FA9E9896B
:10304000FA8960817181828193810E94A137A98967
:10305000BA896D937D938D939C9313972F89B701B4
:10306000A6018B899C890E9426158091751D81116E
:1030700021C00F5F1F4FFCCE2F89B701A601C101F0
:10308000E7960FB6F894DEBF0FBECDBFDF91CF91AC
:103090001F910F91FF90EF90DF90CF90BF90AF9076
:1030A0009F908F907F906F905F904F903F902F9068
:1030B0000C942615E7960FB6F894DEBF0FBECDBF71
:1030C000DF91CF911F910F91FF90EF90DF90CF9004
:1030D000BF90AF909F908F907F906F905F904F9038
:1030E0003F902F9008958F929F92AF92BF92CF9270
:1030F000DF92EF92FF924B015C018091761D82304E
:1031000009F447C020E030E040EA51E4C501B401D1
:103110000E94FD3A0E9457390E94EE386B017C01F3
:103120000E94862220E030E04AE754E4C501B40161
:103130000E94FD3A4B015C0182E38C9DB0018D9DA4
:10314000700D112480E090E00E941A399B01AC01BF
:10315000C501B4010E94A0370E9457390E94EE3881
:10316000CB010E945E1AC114D10499F00E94AC20D8
:1031700021E0C21AD1088091751D81110AC08FEF1C
:1031800090E722E0815090402040E1F700C000002D
:10319000EACFFF90EF90DF90CF90BF90AF909F90DD
:1031A0008F9008950E94191284E00E94AD1283E06E
:1031B0000E94AD120E94AC208091751D811104C047
:1031C0000E9439070C9424120895CF92DF92EF9257
:1031D0000F93CF93DF9300D01F921F92CDB7DEB72E
:1031E0006C018091761D823009F481C02D83498362
:1031F0005A836B837C830E9486221092911D802FBC
:103200000E947B200E948C202D8149815A816B81F4
:103210007C818823A1F09FB7F8948091000280619F
:10322000809300029FBF2D8349835A836B837C83E5
:103230000E94AC207C816B815A8149812D818091D3
:10324000751D811154C0C6010E94261581E080932E
:1032500002029FB7F894809101028260809301027C
:103260009FBF0E94AC208091751D811140C080914C
:10327000761D8111F6CF809102028130A9F4EE20F3
:1032800051F08CE0E9E7FDE1A5E8BDE101900D9288
:103290008A95E1F70CC09FB7F89480910002806195
:1032A000809300029FBF03C081E08093911D109224
:1032B00002020E94AC208091751D811118C00E94ED
:1032C0009A2E0E94AA1B0E94FA1E69E77DE1C601A0
:1032D0000E946D370F900F900F900F900F90DF911D
:1032E000CF910F91EF90DF90CF900C94B8240F9076
:1032F0000F900F900F900F90DF91CF910F91EF9063
:10330000DF90CF9008958091010284FD24C09FB783
:10331000F894809101028061809301029FBF0E9416
:103320001F2B8091761D982F9C7021F49091771D12
:10333000913089F49FB7843029F4F8948091000289
:10334000806204C0F894809100028860809300023B
:103350009FBF0C94E72B08956F927F928F929F925C
:10336000AF92BF92CF92DF92EF92FF920F931F9393
:10337000CF93DF937C018B016A01FB018081F70110
:10338000E80FF11D2081EF012D3229F422962181D1
:103390006624639407C02B3211F0219602C0229656
:1033A0002181612CA12CB12C712C60E070E0CB014B
:1033B000FE0130ED932E920E29E02915C8F0B3944A
:1033C00028E02B1588F0A1107A94A5E0B0E09B01CD
:1033D000AC010E94323C660F771F881F991F690D50
:1033E000711D811D911D0BC0A11009C0739407C0F0
:1033F0002EEF921207C0A11005C0AA24A394219613
:103400002081D6CFBB2009F449C00E941A394B0154
:103410005C0120E030E0A9010E947A38882361F144
:103420008FEF78166CF42AE037ED43E25CE3C501D8
:10343000B4010E94FD3A4B015C0173947394F0CF88
:1034400078120BC02DEC3CEC4CEC5DE3C501B401F3
:103450000E94FD3A4B015C010FC0772069F020E02B
:1034600030E040E251E4C501B4010E94FD3A4B0155
:103470005C017A9417149CF3662021F0B7FAB0949B
:10348000B7F8B094F60180829182A282B382CE19FD
:10349000DF09C150F801C08381E001C080E0DF9105
:1034A000CF911F910F91FF90EF90DF90CF90BF9041
:1034B000AF909F908F907F906F900895009741F00C
:1034C000EFE9FFE03197F1F700C000000197F6CF78
:1034D00008958F929F92AF92BF92CF92DF92EF9218
:1034E000FF9269017A019B01AC010E94FD3A4B01F8
:1034F0005C01A7019601C701B6010E94FD3A9B013C
:10350000AC01C501B4010E94A137FF90EF90DF909C
:10351000CF90BF90AF909F908F900C948A3B4F922A
:103520005F926F927F928F929F92AF92BF92CF9253
:10353000DF92EF92FF920F931F93CF93DF9310913F
:103540002C02111101C016E9115000912A02101726
:1035500009F4EFC089E2189FE0011124C25DDD4F3C
:103560008D889E88AF88B88C69A17AA18BA19CA117
:103570009B01AC010E94A1372DA13EA14FA158A5EE
:103580000E94FD3A6B017C019B01AC01B401C501B5
:103590000E947A3887FF02C064017501A601B70155
:1035A000498B5A8B6B8B7C8B111101C016E97724E8
:1035B0007A94710E701619F029E2622E27C080915C
:1035C0002D02081351C00E94EC2E4EC0679C800152
:1035D0001124025D1D4F711002C096E9792E7A9474
:1035E00080912D02781202C00E94EC2EF801C5884D
:1035F000D688E788F08CA701960161897289838952
:1036000094890E947A38811106C0E80180912A02CB
:103610007812DCCF29C0F80161A172A183A194A125
:103620009B01AC010E94A137F80125A136A147A159
:1036300050A50E94FD3A29893A894B895C890E94EC
:10364000A1374B015C01A70196010E947A38F8016D
:1036500087FF05C0818A928AA38AB48AD6CFC18A9D
:10366000D28AE38AF48AD1CF60902A02F9E26F9E6F
:1036700080011124025D1D4F77247394760C86E936
:10368000781201C0712C50902C0289E2482E7514DA
:1036900009F44DC0479CE0011124C25DDD4FF801E3
:1036A00081889288A388B488C988DA88EB88FC88E6
:1036B000A7019601C501B4010E947A3887FF23C093
:1036C000F80161A172A183A194A19B01AC010E94A8
:1036D000A137F80125A136A147A150A50E94FD3AC6
:1036E0009B01AC01C501B4010E94A1374B015C01F3
:1036F000A70196010E947A3887FF05C0898A9A8AB5
:10370000AB8ABC8A672C2D893E894F89588D69897F
:103710007A898B899C890E947A38811101C0672C33
:103720007394F6E97F1201C0712C8E01B0CF6092C4
:103730002A02DF91CF911F910F91FF90EF90DF90C0
:10374000CF90BF90AF909F908F907F906F905F9041
:103750004F9008958CE1EEE0F2E0DF011D928A9532
:10376000E9F710922D0210922C0281E080932B0237
:1037700010922A02089590912D0280912C028917AF
:1037800069F081E0890F863909F480E020912A02EE
:10379000921302C080932A0280932D020895809193
:1037A0002D0290912C02981739F029E2829FC001D6
:1037B0001124825D9D4F089580E090E00895E0918E
:1037C0002D02EF5FE63909F4E0E080912C02E81762
:1037D00061F089E2E89FF0011124E25DFD4F61890B
:1037E0007289838994890C948A3B60E070E0CB01F4
:1037F000089581E020912D0290912B02291380E001
:1038000008952F923F924F925F926F927F928F9284
:103810009F92AF92BF92CF92DF92EF92FF920F935F
:103820001F93CF93DF93CDB7DEB7AD970FB6F89464
:10383000DEBF0FBECDBF142F052F6B8F7C8F822E66
:1038400020912C0239E2239F10011124F101E25D45
:10385000FD4F1F01158616861786108A15A216A21F
:1038600017A210A6108249E956E766E97EE741A350
:1038700052A363A374A35C0144E5E42E4EE1F42E4D
:103880009E01235F3F4F38A32F8F8EE092E09E8FE3
:103890008D8F6F01FE013196FAA3E9A3912CF501FA
:1038A00061917191819191915F01F7012081318145
:1038B000428153810E94FD3A0E94CD3AEF8DF8A1DA
:1038C0006193719381939193F8A3EF8FED8DFE8DAA
:1038D0004190519061907190FE8FED8F6419750940
:1038E000860997092B013C0197FF07C04424552402
:1038F0003201461A570A680A790AF6014182528251
:1039000063827482F1012585368547855089421688
:1039100053066406750610F429013A01F101458643
:1039200056866786708A0E941C39F7012081318192
:10393000428153810E9481382B013C01E9A1FAA107
:103940006193719381939193FAA3E9A320E030E00E
:10395000A9010E947A3887FF0AC0F1019081892D60
:103960009DA70E940B2B9DA5892BF1018083A301AC
:103970009201C301B2010E94FD3AF10125A136A1D5
:1039800047A150A50E94A137F10165A376A387A3A3
:1039900090A79394F4E0EF0EF11C24E0C20ED11C2A
:1039A00033E093127CCF0E948A3B6B017C01F101D2
:1039B00065A376A387A390A785859685A785B089FB
:1039C000892B8A2B8B2B09F4FCC120E030E0A90164
:1039D000612F702F8B8D9C8D0E947A3887FD21C0BE
:1039E000882061F0A7019601612F702F8B8D9C8D2F
:1039F0000E94FD3A162F072F8B8F9C8F20E030E01E
:103A000040E85FE3612F702F8B8D9C8D0E947A3888
:103A100087FF0DC010E000E030E83B8F8FE38C8F14
:103A200006C019E906E7F6E9FB8F2EE72C8FA70100
:103A3000960160E070E080E89FE30E94813869A70A
:103A40007AA78BA79CA7EAE1F2E0FAA3E9A320E614
:103A50003EE138A32F8FCE010D969A8F898FFE01FC
:103A60003196FE8FED8FC12CD12C7601ED8DFE8D20
:103A700080809180A280B38020E030E0A901C50160
:103A8000B4010E947A38882309F47FC029A53AA599
:103A90004BA55CA5C501B4010E94FD3A4B015C0138
:103AA000ED8DFE8D60837183828393839B01AC01D6
:103AB00060E070E080E89FE30E9481382B013C01C8
:103AC000E89477F8EF8DF8A120813181428153810C
:103AD000C301B2010E94FD3A6BA37CA38DA39EA3F8
:103AE0009B01AC01612F702F8B8D9C8D0E947A38C9
:103AF00087FF06C01BA30CA3FB8DFDA32C8D2EA35B
:103B0000F101F1A1FB8FF101F2A1FC8FF101F3A111
:103B1000FFA3F101F4A1F8A7EF8DF8A12485358565
:103B200046855785C301B2010E94FD3A3B018C01D5
:103B30009B01AC016B8D7C8D8FA198A50E947A387A
:103B400087FF04C06B8C7C8C0FA118A5C301D80122
:103B5000F10181A392A3A3A3B4A3E9A1FAA12081B7
:103B6000318142815381C501B4010E94FD3A9B011C
:103B7000AC01C701B6010E94A0376B017C011BA1FB
:103B80000CA1FDA1FB8F2EA12C8F8D8D9E8D0496F7
:103B90009E8F8D8FE9A1FAA13496FAA3E9A32F8D08
:103BA00038A12C5F3F4F38A32F8FE98DFA8D8E17E8
:103BB0009F0709F05BCF90912C0280912D02981302
:103BC00006C0F101118A128A138A148A0BC02FEEE3
:103BD0003FEF4FE75FE3C701B6010E947D3A181639
:103BE00034F4F101118E128E138E148E5BC02FEE01
:103BF0003FEF4FE75FEBC701B6010E947D3A181611
:103C000044F03FEEC32EDD24DA943FE7E32E3FEB92
:103C1000F32EA701960160E070E080E89FE30E9428
:103C2000A03720E030E040E05FE30E94FD3A0E94D0
:103C30008A3B6B017C012091891E30918A1E409144
:103C40008B1E50918C1EF10161A172A183A194A1E0
:103C50000E94FD3AA70196010E94FD3A4B015C01CA
:103C6000A701960160E070E080E89FE30E94A03722
:103C70009B01AC01C501B4010E9481386B017C013C
:103C800020E030E0A9010E947A3887FF04C0C12CEF
:103C9000D12CE12CF12CA601B701F101418F528FFB
:103CA000638F748F212F302F4B8D5C8D612F702F80
:103CB0008B8D9C8D0E94FD3A162F072FF82EE92E32
:103CC000862F902FAF2DBE2DF101858F968FA78F58
:103CD000B0A3A18CB28CC38CD48C6090260270905F
:103CE000270280902802909029029301A401612F5D
:103CF000702F8F2D9E2D0E947A3887FD0BC0930167
:103D0000A401B501C6010E947A3887FD11C0530194
:103D100064010EC0212F302F4F2D5E2DB501C6013D
:103D20000E947A3887FD04C0A12EB02ECF2CDE2C45
:103D3000C501D601F101858B968BA78BB08F8CE0E6
:103D4000FE013196AAE1B2E001900D928A95E1F769
:103D5000812F902FAF2DBE2D8093260290932702A6
:103D6000A0932802B09329028CE0FE013D96AEE0BC
:103D7000B2E001900D928A95E1F780912B02809339
:103D80002C028F5F863909F480E080932B02AD9678
:103D90000FB6F894DEBF0FBECDBFDF91CF911F915C
:103DA0000F91FF90EF90DF90CF90BF90AF909F90DA
:103DB0008F907F906F905F904F903F902F900C94DA
:103DC0008F1AAD960FB6F894DEBF0FBECDBFDF9150
:103DD000CF911F910F91FF90EF90DF90CF90BF9008
:103DE000AF909F908F907F906F905F904F903F909B
:103DF0002F9008958091791D90917A1DA0917B1D3F
:103E0000B0917C1D80930E0290930F02A09310023C
:103E1000B093110280917D1D90917E1DA0917F1D18
:103E2000B091801D8093120290931302A09314020C
:103E3000B09315028091811D9091821DA091831DE8
:103E4000B091841D8093160290931702A0931802DC
:103E5000B0931902089580912C0290912D02891738
:103E600008F48A56891B08950E94EC2E80912D0239
:103E700080932A020C948F1ACF93DF93EC018991DF
:103E8000882319F00E948A27FACFDF91CF910895F5
:103E9000CF93DF93FC018491EF012196882321F0D9
:103EA0000E948A27FE01F7CFDF91CF910895EF920C
:103EB000FF920F931F93CF93DF931F92CDB7DEB77F
:103EC000262FEDB6FEB66DB77EB7641B71090FB62F
:103ED000F8947EBF0FBE6DBF0DB71EB70F5F1F4FAB
:103EE000302FF8019E2F931B941728F4622F0E9405
:103EF000EA3B9193F7CF442361F0F801E40FF11D01
:103F000031978081805D49830E948A274981415091
:103F1000F2CF0FB6F894FEBE0FBEEDBE0F90DF914C
:103F2000CF911F910F91FF90EF90089548E062E0CC
:103F30000C94571F8A3020F0843620F442E003C0EE
:103F400041E001C043E06AE00C94571F8F929F92BA
:103F5000AF92BF92CF92DF92EF92FF920F931F9397
:103F6000CF93DF93CDB7DEB72A970FB6F894DEBFB5
:103F70000FBECDBF6B017C01142F20E030E0A90102
:103F80000E947A3887FF07C08DE20E948A27F7FADD
:103F9000F094F7F8F094012F023060F020E030E068
:103FA00048EC52E4C701B6010E94FD3A6B017C0166
:103FB0000250F2CF10FF0AC020E030E040E251E4AE
:103FC000C701B6010E94FD3A6B017C0120E030E0A0
:103FD00040E05FE3C701B6010E94A1370E94E938C3
:103FE000E1E0F0E0EC0FFD1FE10FF11D2EE2208378
:103FF000D12C5AE0852E912CA12CB12C6115710584
:1040000081059105A9F0D11201C0D394EE24E39467
:10401000F12CEC0EFD1EED0CF11CA50194010E948B
:104020000A3C605DF7016083B901CA01D394E6CF11
:1040300080E3D11648F4E1E0F0E0EC0FFD1FED0D58
:10404000F11D8083D394F5CF8D2DD1120BC0D39465
:10405000D3948F5FE1E0F0E0EC0FFD1FE80FF11D5E
:1040600080E38083DD2041F0FE01ED0DF11D8081B4
:104070000E948A27DA94F6CF2A960FB6F894DEBF0C
:104080000FBECDBFDF91CF911F910F91FF90EF90A9
:10409000DF90CF90BF90AF909F908F900895209128
:1040A000911E20FF08C02BE832E441E25DE30E944C
:1040B000FD3A44E001C043E00C94A61F2091911EFC
:1040C00020FF08C02BE832E441E25DE30E94FD3AA4
:1040D00041E001C040E00C94A61F43E00C94A61FF1
:1040E000E7E0F1E080818F778083E8E0F1E0808194
:1040F0008068808308951092931D9091911E97FD82
:1041000003C090E89093931D882329F08091931D1C
:1041100080588093931D0895809106018078909136
:10412000931D89270895809102028130A1F40E9495
:104130008C20882381F0109202028CE0E9E7FDE1F7
:10414000A5E8BDE101900D928A95E1F78091010209
:104150008064809301020895EF92FF920F931F9362
:10416000CF93DF93D1E008E080E2F82E10E190E4F5
:10417000E92EC0910002CC2399F1D093761DC1FFA6
:1041800002C081E00FC0C2FF02C082E00BC0C3FFCB
:1041900002C083E007C0C4FF02C084E003C0C5FFC3
:1041A00003C085E00E94E8220E941F2BC0FD08C0CA
:1041B0008FB7F89490910002109200028FBF10C048
:1041C00081E00E9418239FB7F894809101028F7EAE
:1041D000809301029FBF8091010284FFFCCFE8CF52
:1041E000C0910102CC2309F4BBC0C4FF04C081E02C
:1041F0008093751DCDC0C0FF0AC00E9453269FB793
:10420000F894809101028E7F809301029FBF8C2FD2
:10421000887609F43EC08091761D882349F0982F56
:104220009C7779F1883021F40E94EC2ED093771D91
:104230008091761D811103C092E09093771DC6FF97
:1042400009C0883011F4E092761D8091771D886056
:104250008093771DC3FF05C08091761D85FF109365
:10426000761DC5FF0EC00E941F2B86E00E941823FA
:104270008091771D81FDC46084608093771DF092EA
:10428000761D9FB7F894809101028779809301028F
:104290009FBFC1FF44C08C2F8876C9F58091761DE1
:1042A000882331F0807599F18091771D81FF2FC0AF
:1042B0008091771D82FF18C08091041D882351F0E2
:1042C0004091061D5091071D6091081D7091091DB8
:1042D0000E943E2B8091031D882331F00E945706D7
:1042E00088EE93E00E945E1A0E94CF1B892B59F042
:1042F0008091771D83FD07C00093761D0E940E2FCD
:104300000E94C12B02C01092761D1092771D9FB79C
:10431000F894809101028D7F809301029FBFC2FFBC
:104320001FC08091761D807379F08091781D811176
:104330000BC08091771D82FD0E941F2B8091771DFD
:1043400082608093771D04C01092771D1092761DB5
:104350009FB7F894809101028B7F809301029FBFE9
:104360008091761D8C7711F00E940E2F8091761D22
:10437000803251F48091771D81FF06C00E94AB35D9
:10438000811102C01093761D8091771D8111F1CEAD
:10439000DF91CF911F910F91FF90EF9008959FB7FC
:1043A000F894809101028260809301029FBF08957A
:1043B000CF92DF92EF92FF920F931F93CF93DF93F1
:1043C0000E9447238091761D813021F482E00E9473
:1043D000182312C00E94AB35882341F0809101025E
:1043E0008062809301020E94AC2002C01092761D70
:1043F00084E39AE10E94AD350E940F066B017C01B7
:10440000C0E0D0E00E940F069701860108571C4EBD
:104410002F4F3F4F0617170728073907A8F440E02A
:1044200050E0BA0180E00E943E2B0E94182CFFCF82
:104430000E940F066B017C011A3061F01D3051F0B3
:10444000DD2379F1193251F10E94D427182F8F3FC3
:1044500079F74AC0EC2FF0E0EC5CF54E10820E9438
:10446000AC208091751D811138C08091341A882349
:1044700091F08452823028F484E39AE10E94CC3592
:104480000AC08091761D813011F489E004C084E374
:104490009AE10E943F070E9497221FC0D13011F578
:1044A0001DC0113288F21F3279F21832C9F01B3365
:1044B000C9F0CF3428F08BE00E949722C0E0C4CF2F
:1044C0002C2F30E0CF5F8FE9810FF901EC5CF54EC6
:1044D0008A3108F410521083B7CFC0E0D0E0B4CFD7
:1044E000D1E0B2CFD2E0B0CF0E94CF210E94AC2069
:1044F0008091751D882309F485CFDF91CF911F919D
:104500000F91FF90EF90DF90CF9008950E94CF2100
:104510000E94AC208091751D811108C00E94CF1BA4
:10452000892BB1F78091761D883091F30895CF9350
:10453000C82F811103C08CE89BE047C084E89BE052
:104540000E94481F4C2F50E0FA013197E632F105E6
:1045500098F5E956FF4F0C942C3C8CE69BE002C08A
:104560008AE59BE00E94481F2EC088E49BE0FACFBA
:104570008EE39BE0F7CF8DE29BE0F4CF8EE19BE0F2
:10458000F1CF8DEF9AE0EECF84EF9AE0EBCF89EE9A
:104590009AE0E8CF86ED9AE0E5CF88EC9AE0E2CFAA
:1045A00082EB9AE0DFCF8EE99AE0DCCF8AE89AE0EE
:1045B000D9CF86E79AE0D6CF84E69AE00E94481FDA
:1045C0008C2F0E949A1F81E69AE0CF910C94481F8D
:1045D000CF93C82F89E59AE00E94481F8C2F90E066
:1045E000FC013197E730F105D0F4E354FF4F0C9410
:1045F0002C3C8EE49AE011C083E49AE00EC080E384
:104600009AE00BC085E29AE008C089E19AE005C013
:104610008DE09AE002C089EF99E00E94481F86EF82
:1046200099E00E94481F84EF91E0CF910C945E1AAC
:10463000CF93C82F84EF99E00E94481F8C2F90E001
:10464000FC013197E830F105E8F4EC53FF4F0C948E
:104650002C3C82EE99E014C08EEC99E011C08CEBFA
:1046600099E00EC084EB99E00BC08BEA99E008C09A
:1046700080EA99E005C088E999E002C085E899E000
:104680000E94481F81E899E0CF910C94481F84E66E
:1046900099E00C94481F8AE997E00C94481FFF9218
:1046A0000F931F93CF93DF9386E997E00E94481FF3
:1046B0008091841E0E949A1F8DE797E00E94481FF8
:1046C0008091871E0E949A1F8FE597E00E94481FE5
:1046D0008091851E0E949A1F86E497E00E94481FE1
:1046E0008091851E0E94961F8FE397E00E94481FCD
:1046F0008091861E0E949A1F87E297E00E94481FC1
:104700008091861E0E94961F80E297E00E94481FBB
:104710008091911E82FB882780F90E949A1F8FEF5B
:1047200096E00E94481F8091911E86FB882780F9A1
:104730000E949A1F8FED96E00E94481F8091911E63
:10474000881F8827881F0E949A1F8FEB96E00E947F
:10475000481F8091881E0E949A1F89EA96E00E9455
:10476000481F8091881E0E94961F81EA96E00E9451
:10477000481F6091891E70918A1E80918B1E9091B6
:104780008C1E0E946D2081E896E00E94481F609177
:104790008D1E70918E1E80918F1E9091901E0E9492
:1047A0006D2086E696E00E94481F8091911E8170E0
:1047B0000E949A1F89E496E00E94481F8091911EF2
:1047C00085FB882780F90E949A1F8EE296E00E945E
:1047D000481F8091911E83FB882780F90E949A1FB1
:1047E00083E196E00E94481F8091911E829581701E
:1047F0000E949A1F87EF95E00E94481F8091921EA9
:104800000E949A1F8DED95E00E94481F8091921E94
:104810000E94961F85ED95E00E94481F6091931EAF
:104820007091941E8091951E9091961E0E946D200D
:1048300088EB95E00E94481F6091971E7091981E2A
:104840008091991E90919A1E0E946D208BE995E0AF
:104850000E94481F80919B1E0E949A1F8CE795E042
:104860000E94481F60919D1E70919E1E80919F1E08
:104870009091A01E0E946D208FE595E00E94481F38
:10488000809104020E949A1F86E395E00E94481FCF
:1048900084E6F82E10E0C4E5DEE100E084E395E074
:1048A0000E94481F802F8F0D0E949A1F82E395E07F
:1048B0000E94481F123071F01330B9F0113029F006
:1048C000688179818A819B8117C06C857D858E8501
:1048D0009F8512C020E030E041E655E4688D798D77
:1048E0008A8D9B8D0E94813807C08CA19DA1AEA1AD
:1048F000BFA1BC01CD0190580E946D208FE295E0D0
:104900000E94481F013029F0023031F08DE295E01D
:1049100005C08BE295E002C089E295E00E94481F45
:10492000123051F0133059F0113019F08FE195E049
:1049300008C08DE095E005C08CEF94E002C08CEEDD
:1049400094E00E94481F88EE94E00E94481F0F5F89
:104950002496033009F0A2CF8AE0F80E1F5F8CE89E
:10496000F81299CFDF91CF911F910F91FF90089589
:10497000CF9382EE94E00E94481FC0E06C2F85E840
:104980009DE10E9453370E944F20C23021F080EEFB
:1049900094E00E94481FCF5FC33081F78EED94E012
:1049A0000E94481F8091911D0E949A1F8AED94E0F9
:1049B000CF910C94481FEF92FF920F931F93CF93C8
:1049C000DF93CDB7DEB72C970FB6F894DEBF0FBEDE
:1049D000CDBFF12CBE016F5F7F4F8F2D0E94B2299A
:1049E000811104C087E00E94972269C087ED94E09E
:1049F0000E94481F86E0F81631F0E7E0FE1208C07A
:104A000081ED94E002C084ED94E00E94481F04C050
:104A100086E38F0D0E949A1F8FEC94E00E94481F3E
:104A20008E010F5F1F4FE12CF8016191719181910F
:104A300091918F010E944F20F2E0EF1619F08DEC5A
:104A400094E002C089EC94E00E94481FE39483E064
:104A5000E812EACFF394E8E0FE12BCCF83EC94E0D6
:104A60000E94481F0BE21DE1F12CF8016191719148
:104A7000819191918F010E944F20F2E0FF1619F071
:104A800081EC94E002C08DEB94E00E94481FF39407
:104A900083E0F812EACF87EB94E00E94481F609110
:104AA000371D7091381D8091391D90913A1D0E94DB
:104AB0004F2083EB94E00E94481F0E94B8242C965C
:104AC0000FB6F894DEBF0FBECDBFDF91CF911F911F
:104AD0000F91FF90EF90089581EB94E00E94481FA2
:104AE0008091FB1C823091F038F4882361F0813092
:104AF000A9F48BEA94E00CC0833069F0883071F43B
:104B000081EA94E005C08EEA94E002C088EA94E06D
:104B10000E94481F0CC085EA94E0FACF8CE994E02B
:104B20000E94481F8091FB1C82500E949A1F89E9B5
:104B300094E00E94481F8091011D8A5C0E949A1F88
:104B40008091FF1C813049F028F0823051F48AE8CE
:104B500094E005C084E994E002C08FE894E00E94EC
:104B6000481F8091FD1C811103C085E894E002C0BC
:104B700080E894E00E94481F8091FE1C811103C0D0
:104B80008BE794E002C086E794E00E94481F809182
:104B9000FC1C813019F481E794E002C08CE694E0BB
:104BA0000E94481F8091021D813049F028F0823018
:104BB00051F480E694E005C088E694E002C084E603
:104BC00094E00E94481F8091041D813031F040F034
:104BD000823051F488E594E005C08CE594E002C091
:104BE00084E594E00E94481F8091031D882329F0EA
:104BF000823039F48CE494E002C080E594E00E94B5
:104C0000481F89E494E00E94481F80910E1D0E9475
:104C10009A1F86E494E00E94481F60910A1D7091DB
:104C20000B1D80910C1D90910D1D0E945E2083E450
:104C300094E00E94481F6091061D7091071D8091AD
:104C4000081D9091091D0E945E208FE394E00C9452
:104C5000481F1F93CF93DF93182FEB018CE394E051
:104C60000E94481F812F0E949A1F8AE394E00E94AD
:104C7000481FCE010E943C1F87E394E0DF91CF9153
:104C80001F910C94481FCF93DF93EC0187E294E0CF
:104C90000E94481FCE010E943C1F83E294E0DF91F6
:104CA000CF910C94481FBF92CF92DF92EF92FF9268
:104CB0000F931F93CF93DF93CDB7DEB768970FB6EF
:104CC000F894DEBF0FBECDBF8CE0E9E7FDE1DE0169
:104CD0001D9601900D928A95E1F78091761D8430A2
:104CE000E9F040F48130E9F080F0823009F58EEF90
:104CF00093E01CC0803179F018F4883049F018C076
:104D0000803291F0803421F013C08DE194E00EC028
:104D100088E194E00BC082E194E008C08CE094E06C
:104D200005C085E094E002C088EF93E00E94481F30
:104D30008091881E837039F0BE01635F7F4FCE0182
:104D400001960E946D378091881E80FD05C080917C
:104D5000881E81FF6DC01FC081EF93E00E94481F35
:104D600069817A818B819C810E944F208FEE93E034
:104D70000E94481F6D817E818F8198850E944F20FF
:104D80008FEE93E00E94481F69857A858B859C850C
:104D90000E944F20DCCF88EE93E00E94481F9FE1E5
:104DA000E92E9DE1F92E8E010F5F1F4FB12C680196
:104DB000F70161917191819191917F0120853185F8
:104DC000428553850E94A1379B01AC01F8016081A7
:104DD0007181828193810E94A037F8016083718381
:104DE00082839383F2E0BF120FC02091371D309170
:104DF000381D4091391D50913A1D0E94A037F8018D
:104E000060837183828393830C5F1F4FF6016081FF
:104E10007181828193810E944F20F2E0BF1621F0C0
:104E200086EE93E00E94481FB39423E0B212BFCFF6
:104E30008091881E82FF08C080EE93E00E94481F88
:104E40000E942B1F0E949A1F8091881E83FF08C01A
:104E50008BED93E00E94481F0E946B270E949A1FCF
:104E60008091881E85FF09C084ED93E00E94481F51
:104E70000E947D1141E00E94A61F8091881E85FF3F
:104E800008C086EC93E00E94481F0E9478110E949F
:104E90009A1F8091881E84FF0AC080EC93E00E94D4
:104EA000481F0E943B1243E062E00E94571F8CEBB8
:104EB00093E00E94481F68960FB6F894DEBF0FBEBD
:104EC000CDBFDF91CF911F910F91FF90EF90DF90B9
:104ED000CF90BF9008959091861A8091871A891774
:104EE00008F48058891B0895E0ECF0E0808182602E
:104EF00080831092C50080E18093C400E1ECF0E073
:104F000080818061808380818860808380818068E7
:104F100080830895E091851A91E09E0F903409F402
:104F200090E02091841A921305C02091010224FF81
:104F3000F8CF0895F0E0EC56F24E80839093851AF6
:104F40008091C10080628093C10008951F920F92EA
:104F50000FB60F9211240BB60F928F939F93EF937E
:104F6000FF938091841AE82FF0E0EC56F24E908186
:104F70009093C6008F5F803409F480E08093841A98
:104F80009091851A891305C08091C1008F7D80930F
:104F9000C100FF91EF919F918F910F900BBE0F90E9
:104FA0000FBE0F901F9018959091861A8091871AC6
:104FB000891761F0E92FF0E0EC52F24E80819F5F9B
:104FC000903809F490E09093861A08958FEF089531
:104FD0001F920F920FB60F9211240BB60F922F93C0
:104FE0003F934F935F936F937F938F939F93AF9371
:104FF000BF93EF93FF938091C6008F33A9F050F4D5
:10500000883109F1813211F59FB7F894809101023E
:10501000886015C0803471F08E37C1F49FB7F89462
:105020008091010282600BC09FB7F89480910102C9
:10503000816005C09FB7F8948091010280628093DF
:1050400001029FBF14C00E94831911C0E091871A0A
:1050500091E09E0F903809F490E02091861A921703
:1050600031F0F0E0EC52F24E80839093871AFF917A
:10507000EF91BF91AF919F918F917F916F915F91D0
:105080004F913F912F910F900BBE0F900FBE0F903D
:105090001F9018958091871A8093861A089521E5AC
:1050A000829FC001112440E550E09D5F0C94A4064E
:1050B00040E550E0BC018EEA93E00C94A4062DE09C
:1050C000829FC00111244CE050E09E5F0C94A40626
:1050D00069E080E090E00E9482064DE450E064E5E3
:1050E0007EE181E090E00C94A406EF92FF920F9392
:1050F0001F93CF93DF93CDB7DEB72C970FB6F894FD
:10510000DEBF0FBECDBF182F80FFC8C08AE08093DE
:10511000841E8FEF8093871E1092851E1092861E2C
:1051200083E28093881E8AE097EDA3E2BCE380933C
:10513000891E90938A1EA0938B1EB0938C1E8FE6BF
:1051400092E1A3E0BBE380938D1E90938E1EA0930B
:105150008F1EB093901E1092921E80E090E0A8E403
:10516000B3E48093931E9093941EA093951EB093E6
:10517000961E80E090E0AAE7B5E48093971E909396
:10518000981EA093991EB0939A1E8AEF90E0909378
:105190009C1E80939B1E80E090E0A0E8BFE380937C
:1051A0009D1E90939E1EA0939F1EB093A01E81E013
:1051B000809304021092911E81E79DEBA6E0B3E478
:1051C0008093541E9093551EA093561EB093571E65
:1051D0008093581E9093591EA0935A1EB0935B1E45
:1051E00080935C1E90935D1EA0935E1EB0935F1E25
:1051F00040E050E066E174E44093601E5093611E0D
:105200006093621E7093631E4093641E5093651EEC
:105210006093661E7093671E4093681E5093691ECC
:1052200060936A1E70936B1E40E050E86BEB75E470
:1052300040936C1E50936D1E60936E1E70936F1E94
:105240004093701E5093711E6093721E7093731E74
:105250004093741E5093751E6093761E7093771E54
:1052600040E050E068E473EC4093781E5093791E60
:1052700060937A1E70937B1E40937C1E50937D1E1C
:1052800060937E1E70937F1E4093801E5093811EFC
:105290006093821E7093831E0E94682811FF10C0C5
:1052A000CE0101967C018CE0F70111928A95E9F715
:1052B00000E0B701802F0E945F280F5F0830C9F718
:1052C00012FF0AC060E080E093E00E94820660E086
:1052D00081E593E00E94820613FF05C060E08EEA3C
:1052E00093E00E9482062C960FB6F894DEBF0FBEA4
:1052F000CDBFDF91CF911F910F91FF90EF90089557
:105300001F93CF93DF93182FEB0181E5189FB00116
:1053100011247D5F40E550E0CE010E94E206892B1A
:1053200039F41882BE01812F0E944F2880E001C00D
:1053300081E0DF91CF911F910895CF93DF93EC012E
:1053400040E550E06EEA73E00E94E206892B31F4FA
:105350001882CE010E94582880E001C081E0DF91D0
:10536000CF9108951F93CF93DF93182FEB018DE01A
:10537000189FB00111247E5F4CE050E0CE010E94E6
:10538000E206892B59F48CE0FE0111928A95E9F727
:10539000BE01812F0E945F2880E001C081E0DF9183
:1053A000CF911F91089580E090E00E947A068930A5
:1053B00011F080E008954DE450E061E070E084E594
:1053C0009EE10E94E206892BA1F381E08093040212
:1053D0000895CF92DF92EF92FF921F93CF93DF93C6
:1053E000C82F6A017B01122F20E030E0A901C7011C
:1053F000B6010E947A3887FDE4C0C436F0F1C45685
:1054000080E0C33088F5D0E0CC0FDD1FCC0FDD1F6E
:10541000823051F08330E9F0813019F0CC5AD14E0E
:105420001EC0C05AD14E1BC0C459D14E20E030E03E
:1054300040E752E4C701B6010E94FD3A20E030E0A7
:1054400040E752E40E94FD3A688379838A839B8314
:10545000B3C0C858D14EF7FAF094F7F8F094C88268
:10546000D982EA82FB82A8C08F5FCA3008F4ABC041
:10547000843009F4A8C0CA50C4CFC701B6010E9445
:10548000CB3B0E94EE388C2F90E08D31910508F0D7
:105490009AC0FC01E453FF4F0C942C3C633008F499
:1054A00094C06093841E88C06093871E85C06093FB
:1054B000851E02C06093861E0E945E2E7DC0809174
:1054C000911E662311F0846007C08B7F05C0809118
:1054D000911E662321F080648093911E6DC08F7BA6
:1054E000FBCF8091911E662311F08068F5CF8F77F6
:1054F000F3CF6093881E60C0C092891ED0928A1E2E
:10550000E0928B1EF0928C1E57C0C0928D1ED092DE
:105510008E1EE0928F1EF092901E4EC08091911EC2
:10552000662311F08160D8CF8E7FD6CF8091911EF7
:10553000662321F084FF4BC08062CECF8F7DCCCF1D
:105540008091911E662311F0886001C0877F80934F
:10555000911E0E94241230C08091911E662311F08A
:105560008061BACF8F7CB8CF6093921E25C0C09265
:10557000931ED092941EE092951EF092961E1CC02F
:10558000C092971ED092981EE092991EF0929A1E99
:1055900013C070E070939C1E60939B1E0DC0C09260
:1055A0009D1ED0929E1EE0929F1EF092A01E04C0EF
:1055B000653678F460930402113069F40E9468281B
:1055C0000AC084E009C083E007C086E005C08AE025
:1055D00003C086E201C080E0DF91CF911F91FF9070
:1055E000EF90DF90CF9008950E94D329811108C0D9
:1055F00087E00E9497228FEF0E9475280C944F231A
:105600000895882321F0813021F488E0089584E012
:10561000089580E10895882321F0813021F480E409
:10562000089580E8089580E20895882321F081306C
:1056300021F480E2089580E1089580E40895E0EA8D
:10564000F0E080818F7D80831092AB001092AA00E1
:10565000E2E0F1E0808188608083109203022F985D
:105660000895279A2F98E1E0F1E08081806180839E
:105670008081886080836B9A0C941F2BCF92DF927D
:10568000EF92FF926A017B01811106C0FF90EF90BB
:10569000DF90CF900C941F2B8091030281111CC0CE
:1056A00081E0809303022F9A1092AB001092AA001F
:1056B00083E08093A0008091A100807E8961809327
:1056C000A10089EF96E09093A9008093A8008091B3
:1056D0000201877F8093020120E030E0A901C70129
:1056E000B6010E947D3A1816D4F48091A000806221
:1056F0008093A000C701B6010E94E93847E0469FA9
:105700009001479F300D11246091040270E0C9019F
:105710000E94F63B7093AB006093AA0005C0809195
:10572000A0008F7D8093A000FF90EF90DF90CF903E
:105730000895CF93DF9300D01F921F92CDB7DEB7AD
:105740009091761D9230A9F04A835B836C837D83B0
:1057500089830E9486224A815B816C817D81898157
:105760000F900F900F900F900F90DF91CF910C94AE
:105770003E2B0F900F900F900F900F90DF91CF91D5
:1057800008958091911E82FF04C08091020180647F
:1057900003C0809102018F7B809302018091761D6E
:1057A0008C70A1F08091B81A8093CC1A8091B91AAC
:1057B0008093CB1A8091841E880F845081958093AA
:1057C000CA1A80916F00826080936F000895809163
:1057D0006F008D7F80936F0080918100887F816052
:1057E000809381001092B71A8091871E8F3F21F419
:1057F00090910002992349F09091761D943029F000
:1058000090E00E945E1A81E001C080E09091911EBC
:1058100092FF02C091E08927882321F08091020144
:10582000806403C0809102018F7B80930201089500
:10583000EFE6F0E080818D7F8083E1E8F0E0808119
:10584000887F816080831092B71AE2E0F1E0808166
:105850008064808308951F920F920FB60F921124D7
:105860000BB60F922F933F934F935F936F937F935A
:105870008F939F93AF93BF93CF93DF93EF93FF9358
:105880008091B71A8111EFC198B18091CC1A807EB6
:105890009F71892B88B982B1837E9091CB1A892B15
:1058A00082B98091CA1A86BD82E085BD81E080936D
:1058B000B71A78948091DE1A9091DF1A892B09F03B
:1058C000A4C08091BC1A9091BB1A981709F492C099
:1058D000E091BC1A86E0E89FF0011124E052F54EF9
:1058E000F093DF1AE093DE1A83819481909389000C
:1058F00080938800808191819093DA1A8093D91ADD
:10590000A2818091DB1A8A1771F1A093DB1A81E1E1
:10591000A89FD0011124A059B44EB093DD1AA093D2
:10592000DC1A1D968D919D910D90BC91A02DB69580
:10593000A795979587958093C51A9093C61AA093BB
:10594000C71AB093C81A8093C11A9093C21AA09331
:10595000C31AB093C41A8093BD1A9093BE1AA09331
:10596000BF1AB093C01AC091DC1AD091DD1A809191
:10597000B81A988189278093CC1A258189819A81C8
:10598000AB81BC81022E04C0B695A79597958795EB
:105990000A94D2F78093CD1A9093CE1AA093CF1A7F
:1059A000B093D01A8D819E81AF81B885022E04C03C
:1059B000B695A795979587950A94D2F78093D11AB3
:1059C0009093D21AA093D31AB093D41A89859A854A
:1059D000AB85BC8504C0B695A795979587952A9504
:1059E000D2F78093D51A9093D61AA093D71AB09372
:1059F000D81A0BC00E94E72B9FB7F8948091010240
:105A00008460809301029FBF2EC10E949320109258
:105A1000CB1A8091CD1A9091CE1AA091CF1AB09145
:105A2000D01A4091BD1A5091BE1A6091BF1A709160
:105A3000C01A840F951FA61FB71F8093BD1A90939D
:105A4000BE1AA093BF1AB093C01AE091DC1AF0916D
:105A5000DD1A4585568567857089481759076A0795
:105A60007B0768F524E02093CB1A4585568567852A
:105A70007089841B950BA60BB70B8093BD1A90936E
:105A8000BE1AA093BF1AB093C01A20818091791DCD
:105A900090917A1DA0917B1DB0917C1D27FF04C0C1
:105AA0000197A109B10903C00196A11DB11D809301
:105AB000791D90937A1DA0937B1DB0937C1D8091DE
:105AC000D11A9091D21AA091D31AB091D41A4091C0
:105AD000C11A5091C21A6091C31A7091C41A840FEE
