:100000000C94C9050C94EA050C94EA050C94EA05D5
:100010000C94EA050C94EA050C94EA050C94EA05A4
:100020000C94EA050C9423120C94EA050C94EF341A
:100030000C94EA050C94EA050C94EA050C94EA0584
:100040000C94EA050C94AC2B0C94EA050C94EA058C
:100050000C94EA050C94EA050C94EA050C94C92D5D
:100060000C94EA050C9469270C9427270C94EA0554
:100070000C94EA050C94EA050C94EA050C94EA0544
:100080000C94EA050C94EA050C94EA050C94EA0534
:100090000C94EA050C94EA050C94EA050C94EA0524
:1000A0000C94EA050C94EA050C94EA050C94EA0514
:1000B0000C94EA050C94EA050C94EA050C94EC0502
:1000C0000C94EA050C94EA050C94EA050C94EA05F4
:1000D0000C94EA050C94EA050C94EA050C94EA05E4
:1000E0000C94EA051409FA10FA101E092B093809B4
:1000F0004509FA104909FA105709FA1061096B0904
:100100009C09FA10FA10FA10750982098F09BE0FBE
:10011000CF0FEE0FCF0FF20F0510F80FFE0F1A10D2
:1001200020102F1046106A10741080108A102E2292
:100130003122362239223C223F22422245224822C5
:100140004B224E225D225D225D225D225D225D22D8
:100150005D225D225422512257225D225D225D22C2
:100160005D225D225D225D225D225D225D225D2297
:100170005D225D225D225D225A227A227D2280222A
:100180008322862289228C22AA22AD22B022B32287
:10019000B622B922BC22BF22CF29D529D829DB29F2
:1001A000E029E829F229642A642A642AFA29FD2927
:1001B000062A0F2A642A642A642A642A642A642A82
:1001C000172A212A2D2A352A382A412A4A2A502A32
:1001D000592A084AD73B3BCE016E84BCBFFDC12FD4
:1001E0003D6C74319ABD56833DDA3D00C77F11BE28
:1001F000D9E4BB4C3E916BAAAABE000000803F052B
:10020000A84CCDB2D44EB93836A9020C50B991865B
:1002100088083CA6AAAA2ABE000000803F08000069
:1002200000BE922449123EABAAAA2ABECDCCCC4C29
:100230003E00000080BEABAAAAAA3E00000000BF9C
:10024000000000803F0000000000084178D3BB435D
:1002500087D1133D190E3CC3BD4282AD2B3E68ECE5
:100260008276BED98FE1A93E4C80EFFFBE01C4FF6C
:100270007F3F0000000000000C94AA220C94FA2991
:100280000C9449090C94212A0C94B9220C94B6229E
:100290000C9480220C9439220C9475090C943C2205
:1002A0000C948C220C949C090C94AD220C94312259
:1002B0000C946B090C948F090C948A100C94F20F17
:1002C0000C9438090C9461090C94382A0C94DB299D
:1002D0000C94BC220C94642A0C9457220C94422255
:1002E0000C94F80F0C94EE0F0C94B3220C947A2219
:1002F0000C94CF0F0C946A100C94E8290C945A2299
:100300000C9446100C94412A0C94D8290C94832206
:100310000C94BF220C9489220C94172A0C94E02987
:100320000C9405100C941E090C9457090C94FA10A7
:100330000C9445220C94592A0C9445090C944B2298
:100340000C9486220C9420100C9414090C942E22E8
:100350000C9454220C94B0220C944A2A0C944E22F1
:100360000C940F2A0C94062A0C94FE0F0C94D52999
:100370000C9474100C9482090C94502A0C94FD294E
:100380000C9480100C941A100C943F220C9436227A
:100390000C94BE0F0C945D220C94352A0C942F10F3
:1003A0000C942D2A0C947D220C94CF290C942B09AB
:1003B0000C9451220C9448220C94F2293E0D0A0010
:1003C0002C4C696D3A002C4C6173657220506F772C
:1003D00065723A002C54454D503A002C52583A0060
:1003E0002C4275663A002C002C57506F733A002C43
:1003F000002C4D506F733A003C446F6F72003C43C9
:100400006865636B003C416C61726D003C486F6DC8
:1004100065003C486F6C64003C52756E003C49645A
:100420006C65005D0D0A005B302E396A2E3230316A
:1004300036303732363A000D0A003D00244E005D5A
:100440000D0A00205300204600205400204D3800A3
:10045000204D3900204D3500204D3400204D330013
:10046000204D3200204D3100204D300020473934DE
:100470000020473933002047393100204739300008
:1004800020473230002047323100204731390020E8
:100490004731380020473137002047004733382E96
:1004A00000473830004733004732004731004730BB
:1004B000005B005D0D0A005B544C4F3A005D0D0A75
:1004C000002C005B4739323A005D0D0A002C003ADF
:1004D000003330003238005B47005D0D0A003A00FF
:1004E0002C005B5052423A00290D0A00206D6178C1
:1004F0002074726176656C2C206D6D0020616363E1
:10050000656C2C206D6D2F7365635E3200206D610C
:100510007820726174652C206D6D2F6D696E002CD2
:1005200020737465702F6D6D007A0079007800205B
:1005300028003D00240020286C6173657220706FD4
:100540007765722064697669736F722C2025292083
:100550002D2D204E4F542053415645440D0A002066
:1005600028686F6D696E672070756C6C2D6F66669C
:100570002C206D6D290D0A2432383D002028686F2B
:100580006D696E67206465626F756E63652C206DA2
:10059000736563290D0A2432373D002028686F6D8A
:1005A000696E67207365656B2C206D6D2F6D696EAC
:1005B000290D0A2432363D002028686F6D696E6768
:1005C00020666565642C206D6D2F6D696E290D0A9E
:1005D0002432353D00290D0A2432343D002028689C
:1005E0006F6D696E672064697220696E76657274DA
:1005F000206D61736B3A002028686F6D696E67200B
:100600006379636C652C20626F6F6C290D0A24324C
:10061000333D00202868617264206C696D697473D1
:100620002C20626F6F6C290D0A2432323D00202885
:10063000736F6674206C696D6974732C20626F6FC0
:100640006C290D0A2432313D0020287265706F72CA
:100650007420696E636865732C20626F6F6C290D5E
:100660000A2432303D00202861726320746F6C656B
:1006700072616E63652C206D6D290D0A2431333D46
:100680000020286A756E6374696F6E2064657669F0
:100690006174696F6E2C206D6D290D0A2431323D15
:1006A00000290D0A2431313D0020287374617475CE
:1006B00073207265706F7274206D61736B3A0020E5
:1006C0002870726F62652070696E20696E7665723F
:1006D000742C20626F6F6C290D0A2431303D00208C
:1006E000286C696D69742070696E7320696E766517
:1006F00072742C20626F6F6C290D0A24363D002025
:10070000287374657020656E61626C6520696E7611
:100710006572742C20626F6F6C290D0A24353D00C0
:10072000290D0A24343D00202864697220706F72FC
:100730007420696E76657274206D61736B3A00295E
:100740000D0A24333D0020287374657020706F7289
:100750007420696E76657274206D61736B3A002047
:1007600028737465702069646C652064656C6179B8
:100770002C206D736563290D0A24323D00202873F7
:100780007465702070756C73652C207573656329B2
:100790000D0A24313D0024303D00242420287669B0
:1007A0006577204772626C2073657474696E677335
:1007B000290D0A242320287669657720232070617B
:1007C00072616D6574657273290D0A24472028765D
:1007D00069657720706172736572207374617465E6
:1007E000290D0A2449202876696577206275696C8D
:1007F0006420696E666F290D0A244E20287669658B
:1008000077207374617274757020626C6F636B73A0
:10081000290D0A24783D76616C7565202873617610
:1008200065204772626C2073657474696E67290D68
:100830000A25783D76616C756520287365742047BC
:1008400072626C2073657474696E67202D204E4F40
:1008500054205341564544290D0A244E783D6C6975
:100860006E6520287361766520737461727475708B
:1008700020626C6F636B290D0A244320286368652E
:10088000636B2067636F6465206D6F6465290D0A73
:10089000245820286B696C6C20616C61726D206C2F
:1008A0006F636B290D0A2448202872756E20686FCB
:1008B0006D696E67206379636C65290D0A24525354
:1008C000543D782028726573746F726520783D24DA
:1008D0003A2064656661756C742076616C75657329
:1008E0002C20783D233A20706172616D65746572C9
:1008F000732C20783D2A3A20616C6C290D0A245310
:100900002028666F7263652064697361626C65207C
:1009100073746570706572290D0A7E20286379638F
:100920006C65207374617274290D0A212028666534
:10093000656420686F6C64290D0A3F202863757216
:1009400072656E7420737461747573290D0A637413
:10095000726C2D7820287265736574204772626C02
:10096000290D0A000D0A4772626C20302E396A2068
:100970005B27242720666F722068656C705D0D0A06
:10098000005D0D0A00526573746F72696E672064B2
:10099000656661756C74730050676D20456E640008
:1009A000436865636B20446F6F72004469736162D2
:1009B0006C656400456E61626C65640043617574CA
:1009C000696F6E3A20556E6C6F636B656400272407
:1009D00048277C2724582720746F20756E6C6F631E
:1009E0006B00526573657420746F20636F6E746959
:1009F0006E7565005B000D0A0054656D70206C61BA
:100A000073657220746F6F206869676800436F6F49
:100A10006C616E74204F464600486F6D696E6720AA
:100A20006661696C0050726F6265206661696C0076
:100A300041626F727420647572696E6720637963B6
:100A40006C6500536F6674206C696D697400486151
:100A50007264206C696D697400414C41524D3A20BA
:100A6000000D0A00496E76616C69642067636F64EB
:100A7000652049443A00496E76616C6964206C6176
:100A800073657220706F77657200556E6465666974
:100A90006E65642066656564207261746500556EDC
:100AA000737570706F7274656420636F6D6D616EC5
:100AB00064004D6F64616C2067726F757020766999
:100AC0006F6C6174696F6E004C696E65206F76653E
:100AD00072666C6F7700486F6D696E67206E6F7419
:100AE00020656E61626C656400416C61726D206CA2
:100AF0006F636B004E6F742069646C6500454550F0
:100B0000524F4D2072656164206661696C2E2055DC
:100B100073696E672064656661756C7473005661F5
:100B20006C7565203C2033207573656300536574D4
:100B300074696E672064697361626C6564005661F4
:100B40006C7565203C203000496E76616C696420CC
:100B500073746174656D656E7400426164206E75B6
:100B60006D62657220666F726D61740045787065A4
:100B70006374656420636F6D6D616E64206C657471
:100B8000746572006572726F723A20006F6B0D0AA5
:100B9000000011241FBECFEFD1E2DEBFCDBF00E0C9
:100BA0000CBF12E0A0E0B2E0E6ECF7E700E00BBF1C
:100BB00002C007900D92A030B107D9F72EE1A0E056
:100BC000B2E001C01D92AD39B207E1F70E949C145A
:100BD0000C94E13B0C9400001F920F920FB60F9201
:100BE00011240F900FBE0F901F901895E2E0F1E0D6
:100BF00080818F7D8083109203020895E1E0F1E00F
:100C00008081806280830C94F605823049F481E013
:100C10008093030280910201806280930201089513
:100C20000C94F605CF93DF931F92CDB7DEB790916A
:100C3000721D923049F089830E94072289810F90AA
:100C4000DF91CF910C9405060F90DF91CF9108951D
:100C5000F999FECF92BD81BD81E08FBB80B508952B
:100C6000F894F999FECF92BD81BD81E08FBB40B56C
:100C70004627842F992787FD9095262F30E08223E1
:100C80009323892B39F06F3F19F060BD84E006C0D3
:100C900084E104C0442321F060BD84E28FBBF99A53
:100CA000789408959F92AF92BF92CF92DF92EF9285
:100CB000FF920F931F93CF93DF938C017A016B0107
:100CC000C40ED51EEB01912C5C01A61AB70ACE0109
:100CD0008A0D9B1DCC15DD0591F0911009C0692D81
:100CE000772767FD7095272F221F2227221F01C01B
:100CF00021E06991922E960E0E943006E8CF692D70
:100D0000C8018E0D9F1DDF91CF911F910F91FF9014
:100D1000EF90DF90CF90BF90AF909F900C943006F3
:100D20009F92AF92BF92CF92DF92EF92FF920F937A
:100D30001F93CF93DF938B017A016C01C40ED51EF4
:100D4000EC01912C5B01A81AB90AC5018C0F9D1FFB
:100D5000CC15DD0591F00E942806911009C0292DBF
:100D6000332727FD3095232F221F2227221F01C062
:100D700021E0922E980E8993E8CFC8018E0D9F1D19
:100D80000E94280621E030E0981611F020E030E0C3
:100D9000C901DF91CF911F910F91FF90EF90DF90EC
:100DA000CF90BF90AF909F90089580E4E7EFFCE173
:100DB000DF011D928A95E9F76BE17DE180E00E94F9
:100DC0003329811103C087E00C941822089565E748
:100DD0007DE18FE09DE10C94EE362F923F924F9291
:100DE0005F926F927F928F929F92AF92BF92CF92BB
:100DF000DF92EF92FF920F931F93CF93DF93CDB7C4
:100E0000DEB7AC970FB6F894DEBF0FBECDBF9EA382
:100E10008DA38AE3E7E3FDE1DF011D928A95E9F7FF
:100E20008BE0E7EFFCE1A8E3BDE101900D928A952C
:100E3000E1F71D8E212C312CA12CB12C19A2512CA3
:100E400018A266246394712C57E0952E882483940D
:100E500064E0462E8D8DEDA1FEA1E80FF11DB0815D
:100E6000BE8FBB2309F48FC29E8D91549A3110F02E
:100E70000C94EC108F5F8D8FAE01475E5F4FBE010B
:100E8000635E7F4F8DA19EA10E945819882311F4A3
:100E90000C94EE10C98CDA8CEB8CFC8CC701B6017B
:100EA0000E944C3B0E946F38162F70E080E090E06B
:100EB0000E949D389B01AC01C701B6010E942137F9
:100EC00020E030E048EC52E40E947E3A0E94E13A91
:100ED0000E946F38BE8DB73421F0BD3409F442C191
:100EE00091C1183209F434C1E8F4143160F41131BD
:100EF00008F0D9C0143009F45CC008F490C01A306E
:100F0000D9F10C94FA101C31B9F128F4163108F417
:100F1000F9C00C94FA101E3179F1163209F47FC031
:100F20000C94FA101D3309F40DC1A8F4153309F41B
:100F300063C040F41B3209F4EEC0113309F4EBC076
:100F40000C94FA101C3310F00C94FA1016531093F2
:100F50003E1D09E002C11C3540F41A3508F0B2C04C
:100F6000103509F49CC00C94FA101C3529F01F357B
:100F700008F4BFC00C94FA106115710531F4E8A1B2
:100F8000E1110C94F010F1E0F8A31C31A9F048F441
:100F9000143079F01A3009F0DDC082E08093371DFB
:100FA000D9C0153349F11C3551F11E3109F0D2C0B9
:100FB00012C08092371DCEC06115710541F06A30B4
:100FC000710511F00C94FA104092371D0AC023E00D
:100FD0002093371D06C06115710529F485E08093C3
:100FE000371D00E0CDC06A30710511F00C94FA1085
:100FF00096E09093371DF5CF9092371DABC06115E9
:10100000710549F06A30710511F00C94FA10B9E0DD
:10101000B093371DE6CFA8E0A093371DE2CFE8A13B
:10102000E1110C94F010F2E0F8A3123089F028F4EA
:10103000112359F0113081F08FC0163281F0103534
:1010400071F1133009F088C007C01092381D84C0B8
:1010500028A12093381D80C01093381D7DC06E31AB
:101060007105A1F040F46431710511F00C94FA108F
:101070004092381D12C06832710561F0623371050B
:1010800011F00C94FA109092381D07C085E08093FF
:10109000381D03C096E09093381D01E071C0A8E0B0
:1010A000A093381D59C0123129F0133131F010923C
:1010B0003C1D06C080923C1D03C082E080933C1D15
:1010C00002E04BC06115710549F41A3519F410920C
:1010D0003B1D02C080923B1D03E052C06A30710587
:1010E00011F00C94FA101A3511F40C94FA1004E073
:1010F00047C01D3519F48092391D02C01092391D68
:1011000005E02BC0143119F480923A1D02C01092F0
:101110003A1D06E022C0B8A1B1110C94F0101133B1
:1011200031F410923D1D08E0E3E0E8A329C06A30E5
:10113000710511F00C94FA1080923D1D08E0F3E067
:10114000F8A31EC0672B11F00C94FA100AE018C027
:1011500007E003C000E001C001E0672B89F087E1F0
:101160000C940D11672BD9F71A30C8F01E3141F1DC
:1011700010F40C94FA101456123010F00C94FA106B
:10118000C301002E02C0880F991F0A94E2F79C0148
:101190002A213B21232B99F185E10C940D11183064
:1011A00010F5133020F0163078F00C94FA1012304D
:1011B00039F01E3129F0111120C080923F1D1DC051
:1011C00082E080933F1D19C0143029F0153039F0AA
:1011D0008092411D06C082E08093411D02C01092A2
:1011E000411D0CE0CDCF193021F082E08093401DED
:1011F00002C01092401D0DE0C3CF0BE0C1CFA82A62
:10120000B92A28CE2E8D822F992787FD9095A92F58
:10121000B92FFC01E654F109E531F10508F0EAC700
:10122000EE58FF4F0C94AD3BC092431DD092441D2D
:10123000E092451DF092461D00E07FC0C092471D20
:10124000D092481DE092491DF0924A1D89A181600B
:1012500089A301E072C0C0924B1DD0924C1DE09258
:101260004D1DF0924E1D99A1926099A302E065C0B8
:10127000C0924F1DD092501DE092511DF092521D10
:10128000A9A1A460A9A303E058C01093531D04E0D2
:1012900054C0C701B6010E946A386093541D709310
:1012A000551D8093561D9093571D05E046C0C09272
:1012B000581DD092591DE0925A1DF0925B1D06E018
:1012C0003CC0C0925C1DD0925D1DE0925E1DF0920C
:1012D0005F1D07E032C0C092601DD092611DE09298
:1012E000621DF092631D08E028C0C092651DD09277
:1012F000661DE092671DF092681DB52DB1605B2EF2
:101300000AE01BC0C092691DD0926A1DE0926B1D5D
:10131000F0926C1DE52DE2605E2E0BE00EC0C092D7
:101320006D1DD0926E1DE0926F1DF092701DF52D17
:10133000F4605F2E0CE001C009E0C301002E02C082
:10134000880F991F0A94E2F79F8F8E8F8221932135
:10135000892B09F047C781E693E0002E02C09595DE
:1013600087950A94E2F780FF09C020E030E0A901E8
:10137000C701B6010E94FB3787FD36C7AE8DBF8D12
:101380002A2A3B2A67CD552029F0E8A1E11102C0A5
:10139000F2E0F8A325FE0EC08091541D9091551DDA
:1013A000A091561DB091571D80389649A849B105A6
:1013B0000CF01CC78091391D813031F488A1823036
:1013C000A1F520FE1DC731C08091F81C81112DC0F0
:1013D00020FE1BC080913A1D813039F523E333E3B1
:1013E0004BEC51E46091431D7091441D8091451D6B
:1013F0009091461D0E947E3A6093431D7093441D58
:101400008093451D9093461D10C08091061D9091BC
:10141000071DA091081DB091091D8093431D909355
:10142000441DA093451DB093461D30FC10C0809113
:10143000021D9091031DA091041DB091051D809384
:10144000601D9093611DA093621DB093631D8091F8
:10145000371D813031F426FC02C08CE1DEC6E894F1
:1014600026F880913C1D882341F0813061F01AA656
:10147000B2E0B9A7E1E0EDA30BC092E09AA7A1E02A
:10148000A9A71DA205C0F1E0FAA719A622E02DA385
:1014900080913A1D813021F088A1833091F52AC0D6
:1014A00035E6E32E3DE1F32E00E010E0C52CD12C13
:1014B000C601002E02C0959587950A94E2F780FF39
:1014C00010C023E333E34BEC51E4D7016D917D91E0
:1014D0008D919C910E947E3AF70160837183828393
:1014E00093830F5F1F4FF4E0EF0EF11C03301105E3
:1014F000F9F6D2CF80913D1D813019F424E05212CB
:1015000077C68CE0EBE1FDE1DE011D9601900D92C6
:101510008A95E1F7B1FC09C08091371D8E8F82302A
:10152000B9F0883009F4B0C015C180913E1D8730F4
:1015300010F08DE172C69091FD1C981769F3BE0101
:10154000635F7F4F0E943329882309F463C6E4CF89
:10155000511002C08AE161C6C10180759927892BAB
:1015600009F47BCF6091581D7091591D80915A1DCF
:1015700090915B1D0E944C3B0E946F386730C8F60B
:101580008091531D843129F0823009F033C627FC45
:1015900031C69FEA2922662319F061506E8F03C07D
:1015A000A0913E1DAE8FBE016F5F7F4F8E8D0E945A
:1015B0003329882309F42EC64090531D6090331DB3
:1015C0007090341D8090351D9090361DFE0131962F
:1015D0007F0195E6C92E9DE1D92E2FE0A22E2DE1A7
:1015E000B22E00E010E0852D90E098A78FA38FA188
:1015F00098A5002E02C0959587950A94E2F780FF82
:1016000033C094E1491226C0D50158962D913D91E1
:101610004D915C915B976D917D918D919C910E9414
:101620002137F60120813181428153810E94213787
:10163000D7016D937D938D939C9313970230A1F402
:10164000A40193010E942137F70160837183828393
:1016500093830AC0F60180819181A281B381F70151
:1016600080839183A283B3830F5F1F4FF4E0EF0E5B
:10167000F11C24E0C20ED11C84E0A80EB11C033082
:10168000110509F0B4CF0FC1552009F463CF609064
:10169000331D7090341D8090351D9090361D05E6E9
:1016A0001DE18FE0C82E8DE1D82E5E019DE0A90ED0
:1016B000B11CE12CF12CA52DB0E0BF8FAE8F8E8D2B
:1016C0009F8D0E2C02C0959587950A94E2F780FFB6
:1016D00026C0F5012081318142815381D6016D916F
:1016E0007D918D919C910E942137F801208131815B
:1016F000428153810E942137D8016D937D938D9350
:101700009C931397B2E0EB1214C0A40193010E94C2
:101710002137F80160837183828393830AC0F601C5
:10172000808D918DA28DB38DF80180839183A283EA
:10173000B383FFEFEF1AFF0A0C5F1F4F24E0C20EC6
:10174000D11C84E0A80EB11C93E0E916F10409F065
:10175000B6CFA8C0A8A1A33059F4BE8DB53009F406
:101760008FC0B73009F499C0B33009F09BC080C076
:10177000552099F340903B1D8090331D9090341D6F
:10178000A090351DB090361D0FE0C02E0DE1D02E7B
:1017900005E61DE13E01EDE06E0E711CE12CF12C21
:1017A000852D90E098A78FA38FA198A50E2C02C03D
:1017B000959587950A94E2F780FD0BC0F60180812C
:1017C0009181A281B381F80180839183A283B38345
:1017D0003EC0FE8DF730D9F1411028C0D601589691
:1017E0002D913D914D915C915B97F30160817181E9
:1017F000828193810E942237D8012D913D914D9194
:101800005C910E942237F801608371838283938305
:10181000F2E0EF121CC0A50194010E942237D8010A
:101820006D937D938D939C93139711C0F601208146
:10183000318142815381D8016D917D918D919C912F
:101840000E942237F8016083718382839383FFEFC4
:10185000EF1AFF0A24E0C20ED11C0C5F1F4F84E078
:10186000680E711C93E0E916F10409F09DCF75CF65
:10187000511001C018A2BE016F5F7F4F86E007C004
:10188000511001C018A2BE016F5F7F4F87E00E9418
:101890003329882309F4BEC405C08091381D8230E5
:1018A00008F0AAC41E8E1091381D183041F455203E
:1018B00009F4B2C1A8A1A13009F0A0C489C2B8A19D
:1018C000B23009F0A9C11123D9F020E030E0A9011C
:1018D0006091431D7091441D8091451D9091461D5E
:1018E0000E94FB37882309F48BC4143028F412308B
:1018F00058F4113029F06CC2183008F44CC168C299
:10190000511066C218A28BC1552009F423CEFDA147
:10191000EF2FF0E0F8A7EFA399A5892F90E09CA7FF
:101920008BA781E090E03C0109A402C0660C771C03
:101930000A94E2F70DA002C0880F991F0A94E2F7FB
:10194000682A792A852D90E086219721892B09F430
:1019500059C4EE0FFF1FEE0FFF1FE95CF24EAFA15F
:10196000B8A5AA0FBB1FAA0FBB1FA15FB24E2D9136
:101970003D914D915C9166A577A580A991A90E94A2
:1019800021376B017C01EBA5FCA5EE0FFF1FEE0FCD
:10199000FF1FE95CF24EABA5BCA5AA0FBB1FAA0FA7
:1019A000BB1FA15FB24E2D913D914D915C9166A5FB
:1019B00077A580A991A90E9421374B015C0127FEE0
:1019C00040C0E89427F82091651D3091661D409134
:1019D000671D5091681D60910F1D7091101D8091C1
:1019E000111D9091121D0E94FB3781111CC1209185
:1019F000691D30916A1D40916B1D50916C1D609165
:101A0000131D7091141D8091151D9091161D0E943B
:101A1000FB37811108C120916D1D30916E1D4091E1
:101A20006F1D5091701D6091171D7091181D809150
:101A3000191D90911A1D0E94FB378111F4C081E29B
:101A4000ECC3F9A14F2E512C64207520672809F4AE
:101A5000DBC321EF222280913A1D813009F456C068
:101A60000BA51CA5000F111F000F111F095B124EC3
:101A7000D8012D913D914D915C91C501B4010E9419
:101A800021372B013C01AFA0B8A4AA0CBB1CAA0CA7
:101A9000BB1CF501E95BF24E5F012081318142817F
:101AA0005381C701B6010E942137A30192010E9410
:101AB000151A6B017C01D8012D913D914D915C91DE
:101AC000F50160817181828193810E94151A4B0119
:101AD0005C0160935C1D70935D1D80935E1D90930F
:101AE0005F1D9B01AC01C701B6010E9421376B014C
:101AF0007C01E894F7F82AE037ED43EA5BE3C7019D
:101B0000B6010E94FE3918164CF162C187E4682EB6
:101B10008DE1782E00E010E0C201002E02C0959504
:101B200087950A94E2F780FF10C023E333E34BEC80
:101B300051E4D3016D917D918D919C910E947E3AEB
:101B4000F30160837183828393830F5F1F4FF4E0FF
:101B50006F0E711C03301105F9F682CF20E030E0E2
:101B600040E05FE3C701B6010E94FE3918160CF48D
:101B700066CF2FE632E143E85AE3C501B4010E9483
:101B80007E3A9B01AC01C701B6010E94FE391816CE
:101B90000CF455CF1DC1552009F4DCCC2091651DF6
:101BA0003091661D4091671D5091681D60910F1D19
:101BB0007091101D8091111D9091121D0E94FB3794
:101BC000811106C12091691D30916A1D40916B1DE4
:101BD00050916C1D6091131D7091141D8091151D05
:101BE0009091161D0E94FB378111F2C020916D1D4E
:101BF00030916E1D40916F1D5091701D6091171DA9
:101C00007091181D8091191D90911A1D0E94FB372B
:101C1000882309F414CFDCC028A12111D9C0C10147
:101C20008E7D9C7FD8C080913A1D8130B1F423E332
:101C300033E34BEC51E460915C1D70915D1D80912C
:101C40005E1D90915F1D0E947E3A60935C1D7093B3
:101C50005D1D80935E1D90935F1D40905C1D5090B4
:101C60005D1D60905E1D70905F1D20E030E040E8DB
:101C700050E4C301B2010E947E3AA30192010E9486
:101C80007E3A2B013C01A7019601C701B6010E94D3
:101C90007E3A9B01AC01C301B2010E9421372B01A6
:101CA0003C01A5019401C501B4010E947E3A9B014B
:101CB000AC01C301B2010E9421372B013C0120E09D
:101CC00030E0A9010E94FB3787FDA6C2C301B20123
:101CD0000E940B3B2B013C01A5019401C701B601F9
:101CE0000E94151A9B01AC01C301B20190580E94D9
:101CF00002382B013C018091381D833021F477FAA2
:101D0000709477F8709480915C1D90915D1DA09106
:101D10005E1DB0915F1D89A39AA3ABA3BCA320E075
:101D200030E0A901BC01CD010E94FB3787FF11C043
:101D300077FA709477F8709489A19AA1ABA1BCA1AD
:101D4000B05880935C1D90935D1DA0935E1DB09371
:101D50005F1D0FA118A5000F111F000F111F095BB8
:101D6000124EA3019201C501B4010E947E3A9B016B
:101D7000AC01C701B6010E94213720E030E040E00D
:101D80005FE30E947E3AD8016D937D938D939C937F
:101D900013970BA51CA5000F111F000F111F095B46
:101DA000124EA3019201C701B6010E947E3A9B0127
:101DB000AC01C501B4010E94223720E030E040E0D0
:101DC0005FE30E947E3AF80160837183828393838C
:101DD000C1018E7D907E892B09F018C28091541D1F
:101DE0009091551DA091561DB091571D80930B1DCC
:101DF00090930C1DA0930D1DB0930E1D8091391D65
:101E00008093F81C8091431D9091441DA091451D25
:101E1000B091461D8093061D9093071DA093081D49
:101E2000B093091DC090601DD090611DE090621DAF
:101E3000F090631DA70196016091021D7091031D32
:101E40008091041D9091051D0E94FB378823C1F0ED
:101E50008091001D882321F0B701A6010E941A2B52
:101E60008091601D9091611DA091621DB091631DD4
:101E70008093021D9093031DA093041DB093051D34
:101E80008091641D80930A1D8091411D9091001DD9
:101E9000981771F04091021D5091031D6091041D2F
:101EA0007091051D0E941A2B8091411D8093001D89
:101EB0008091401D9091FF1C981731F00E941206EE
:101EC0008091401D8093FF1C8091371D813051F41B
:101ED0006091581D7091591D80915A1D90915B1D04
:101EE0000E941F1880913C1D8093FB1C80913A1D1D
:101EF0008093F91C88A18330F9F480913D1D809373
:101F0000FC1C813089F480916D1D90916E1DA09113
:101F10006F1DB091701D8093331D9093341DA0935D
:101F2000351DB093361D08C01092331D1092341D1C
:101F30001092351D1092361D80913E1D9091FD1C12
:101F4000981759F08093FD1C8CE0FE013D96ABE1A3
:101F5000BDE101900D928A95E1F780913B1D809340
:101F6000FA1C8091371D90E0FC013297E830F105B2
:101F700008F04BC0E957FF4F0C94AD3BBE016F5FBB
:101F80007F4F8E8D0E94E0278091FD1C9E8D8913CE
:101F90003CC08CE0FE013196ABE1BDE11AC0A8A1C6
:101FA000AA2349F020E040E050E060E87FEB85E6BE
:101FB0009DE10E94D21420E040E050E060E87FEB19
:101FC000CE0101960E94D2148CE0FE013196AFE062
:101FD000BDE101900D928A95E1F717C06FE07DE1B8
:101FE00086E003C06FE07DE187E00E94E0270DC03E
:101FF0008CE0E5E6FDE1A7E2BDE1EBCF8CE0E7E2B6
:10200000FDE1DF011D928A95E9F78091381D8093EB
:10201000F71C883009F498C0B8A1B23009F094C018
:1020200090E08830910508F086C0FC01E157FF4F31
:102030000C94AD3B20E040E050E060E87FEB0AC04C
:102040004091061D5091071D6091081D7091091D5A
:102050002091F81C85E69DE10E94D2146CC0C090CE
:10206000061DD090071DE090081DF090091D0091FD
:102070005C1D10915D1D20915E1D30915F1D81E002
:102080008F93EAA5EF93F9A5FF9315C0C090061DA5
:10209000D090071DE090081DF090091D00915C1D77
:1020A00010915D1D20915E1D30915F1D1F928AA5CC
:1020B0008F9399A59F938DA0A090F81C47E45DE1B4
:1020C00065E67DE18FE09DE10E9420150F900F9065
:1020D0000F9031C04091061D5091071D6091081D61
:1020E0007091091DE12C0AC04091061D5091071DF9
:1020F0006091081D7091091DEE24E39400E015C065
:102100004091061D5091071D6091081D7091091D99
:10211000E12C0AC04091061D5091071D6091081DD9
:102120007091091DEE24E39401E02091F81C85E6EE
:102130009DE10E9491188CE0E5E6FDE1AFE0BDE194
:1021400001900D928A95E1F780913F1D8093FE1CCE
:10215000882309F45DC00E9407229091FE1C8091A3
:10216000721D913069F48230A1F19FB7F89480918B
:1021700001028860809301029FBF0E94582029C0FD
:1021800091E09093F71C1092FB1C1092FA1C109295
:10219000F81C1092FD1C1092001D1092FF1C823042
:1021A000A9F0BE01635F7F4F80E00E94332988233E
:1021B00089F18CE0FE013D96ABE1BDE101900D920D
:1021C0008A95E1F70E94A02A0E94F60587E00E9406
:1021D00099221092FE1C1CC081E01FC082E01DC02D
:1021E00088E11BC089E119C084E017C08BE115C0EC
:1021F00085E213C084E111C08EE10FC08FE10DC0F4
:1022000086E10BC080E209C083E207C084E205C01A
:1022100080E003C087E001C082E2AC960FB6F8947C
:10222000DEBF0FBECDBFDF91CF911F910F91FF9009
:10223000EF90DF90CF90BF90AF909F908F907F9066
:102240006F905F904F903F902F9008958091AA00DB
:102250009091AB000895CF92DF92EF92FF9280E0D1
:102260000E94143710920A0210920B0210920C0274
:1022700010920D0210920902809109028A3060F5D5
:10228000C0900A02D0900B02E0900C02F0900D0278
:1022900080E00E941437BC01882777FD8095982F35
:1022A0000E949D389B01AC01C701B6010E942237F4
:1022B00060930A0270930B0280930C0290930D02BC
:1022C0008FE39CE90197F1F700C0000080910902BB
:1022D0008F5F80930902D0CF20E030E040E251E4EC
:1022E00060910A0270910B0280910C0290910D0294
:1022F0000E9402389B01AC0160E070EC8FE794E42F
:102300000E94023820E030E040E85FE30E9421377D
:102310009B01AC0160E078E38AE196E40E94023818
:1023200060930A0270930B0280930C0290930D024B
:1023300020E030E44CE156E40E9402380E940E3A5C
:1023400020E030EE46E755E40E9402382FE03FECF3
:102350004BE55BE30E9422379B01AC0160E070E03B
:1023600080E89FE30E94023823E333E948E853E41E
:102370000E94213760930502709306028093070242
:1023800090930802FF90EF90DF90CF900895EBE6D6
:10239000F0E080818F788083E8E6F0E080818E7FB6
:1023A0008083089584B18F7884B985B1806785B9B9
:1023B00080918D1E83FF0BC080916B00806780939E
:1023C0006B008091680081608093680008950C9490
:1023D000C711CF92DF92FF920F931F93CF93DF939A
:1023E0001F92CDB7DEB793B1907780918D1E86FD99
:1023F00002C080E798279923D9F0C12CD12CF12C69
:1024000001E010E08C2D99830E94962A99818923FE
:1024100039F098010C2C01C0220F0A94EAF7F22A35
:102420008FEFC81AD80AE3E0CE16D10459F701C0DD
:10243000F12C8F2D0F90DF91CF911F910F91FF9075
:10244000DF90CF9008951F920F920FB60F92112434
:102450000BB60F922F933F934F935F936F937F939E
:102460008F939F93AF93BF93EF93FF938091721DD0
:10247000813071F08091000281110AC00E942F19F1
:102480009FB7F894809100028360809300029FBF01
:10249000FF91EF91BF91AF919F918F917F916F913C
:1024A0005F914F913F912F910F900BBE0F900FBEF8
:1024B0000F901F9018952F923F924F925F926F92BC
:1024C0007F928F929F92AF92BF92CF92DF92EF92C4
:1024D000FF920F931F93CF93DF93CDB7DEB767972C
:1024E0000FB6F894DEBF0FBECDBF582E8091711D80
:1024F0008111A1C124E7A22E2EE1B22E9E01235FFD
:102500003F4F190100E010E0C12CD12C7601652C61
:10251000712C802F0E94822AD1018D931D01C3014D
:10252000002E02C0959587950A94E2F780FF1AC0A5
:1025300020E030E040EC5FEBF50160817181828149
:1025400093810E947E3A688B472E4C01262F372FAD
:10255000AC01C701B6010E94FE3918161CF0C888EC
:10256000D42C74010F5F1F4FF4E0AF0EB11C033089
:10257000110579F68090931E9090941EA090951E60
:10258000B090961E24E0288B01E065E77DE1CE0146
:1025900001960E94EE3620908E1E312CFE0131965F
:1025A00085E79DE19F8B8E8B80E090E0412C10E0D1
:1025B000B701A60170589301082E02C035952795E2
:1025C0000A94E2F720FF28C04394AE89BF891D9288
:1025D0001D921D921C9213979101082E02C03595F1
:1025E00027950A94E2F720FF03C0002319F007C0E3
:1025F000002329F0C082D182E282F38204C04083AA
:102600005183628373832DE030E02C0F3D1F280F30
:10261000391FD9012C91122B019634962E893F89AE
:102620002C5F3F4F3F8B2E8B8330910521F6642D1D
:1026300070E080E090E00E949B380E940B3B9B0181
:10264000AC01C501B4010E947E3AAB01BC011093FC
:102650008E1D4A8B5B8B6C8B7D8B0E94A61E20E0AF
:102660004A895B896C897D89CE0101960E94AD1BE8
:102670000E948F2E0E94422B0023E9F00E94E91154
:10268000FE013D9620E030E090E06191462F41232D
:1026900059F0AC01022E02C0559547950A94E2F715
:1026A00040FF02C0609516232F5F3F4F2330310556
:1026B00061F710938E1D0E948F2E8091010284730A
:1026C000C1F080910102807329F00E942F190E94AD
:1026D0005820B1C00111AAC00E94E9118521A9F7B3
:1026E0009FB7F894809101028B7F809301029FBF76
:1026F00004C0812F8C7109F0BFCF0E941B2E0E9455
:10270000561B8091971E9091981E0E940A1A31E0E4
:102710000327C9F020E030E040EA50E46091991EC0
:1027200070919A1E80919B1E90919C1E0E947E3AF1
:102730006B017C0180908F1E9090901EA090911E46
:10274000B090921E10C0C090991ED0909A1EE0903A
:102750009B1EF0909C1E8090931E9090941EA090C3
:10276000951EB090961E88898150888B81110DCF5F
:1027700080918E1EA82FB0E0B98BA88BC090991EB7
:10278000D0909A1EE0909B1EF0909C1E160127018F
:1027900057FA509457F8509480E5A82E8EE1B82E41
:1027A00095E7892E9DE1992E00E010E0C301002EEF
:1027B00002C0959587950A94E2F780FF29C0888921
:1027C0009989002E02C0959587950A94E2F7F50144
:1027D00080FF0EC024A135A146A157A1C701B601B3
:1027E0000E942237D5012D913D914D915C9106C0FB
:1027F0002081318142815381C201B1010E947E3A20
:102800000E944E3AD4016D937D938D939C931397C0
:102810000F5F1F4FB4E08B0E911CE4E0AE0EB11CB5
:102820000330110519F60E94A61E05C08091010211
:1028300082FF56CF4ACF67960FB6F894DEBF0FBE21
:10284000CDBFDF91CF911F910F91FF90EF90DF905F
:10285000CF90BF90AF909F908F907F906F905F9040
:102860004F903F902F900895BF92CF92DF92EF92BA
:10287000FF920F931F93CF93DF938C01C4E7DEE1A8
:10288000BB24B394F801C190D190E190F1908F01F5
:1028900020E030E0A901C701B6010E94FE391816F8
:1028A0004CF0288139814A815B81C701B6010E94C1
:1028B000FB3787FDB092741D8091741D882361F1F0
:1028C0008091721D8830A9F00E942F199FB7F8944B
:1028D000809100028560809300029FBFDF91CF91BD
:1028E0001F910F91FF90EF90DF90CF90BF900C94CD
:1028F00058209FB7F894809101028860809301026C
:102900009FBF0E9458208091711D81110BC0809142
:10291000721D8111F6CFD8CF2496FEE1C038DF07B3
:1029200009F0B0CFDF91CF911F910F91FF90EF9001
:10293000DF90CF90BF9008950E94F5260E94752ADF
:102940000E94472E0E94DA348EE1E1E7FDE1DF01CB
:102950001D928A95E9F781E08093711D78940E9419
:10296000CB270E94D5060E9408370E94B22A0E94F7
:10297000FE050E94D2110E941C200E94561B0E943C
:102980001B2E0E94A61E0E94E7061092711D109237
:102990000102109200021092731D1092741D0E9489
:1029A0008421DDCFEF92FF921F93CF93DF9300D06E
:1029B0001F92CDB7DEB77C01122F80918D1E85FF4F
:1029C0000BC0C70149835A836B837C830E943414F4
:1029D0007C816B815A8149818091721D823031F1F5
:1029E00049835A836B837C830E9458208091711D98
:1029F00081111CC00E94A51B49815A816B817C8179
:102A0000882339F00E947B2149815A816B817C8126
:102A1000E7CF212FC7010F900F900F900F90DF91FC
:102A2000CF911F91FF90EF900C94AD1B0F900F90E2
:102A30000F900F90DF91CF911F91FF90EF9008952D
:102A40002F923F924F925F926F927F928F929F92BE
:102A5000AF92BF92CF92DF92EF92FF920F931F93AC
:102A6000CF93DF93CDB7DEB7E7970FB6F894DEBF0D
:102A70000FBECDBF9C8B8B8B1B013A0109871A8738
:102A80002B873C87AF8A2E961FAD2E972F962FADA2
:102A90002F97298B60963FAD60973D8B84E0889E91
:102AA000A00111245A834983AB89BC89A40FB51FA7
:102AB000B98FA88F460D571D5B8F4A8FFA01808012
:102AC0009180A280B3802D913D914D915C91C50183
:102AD000B4010E9422376C8F7D8F8E8F9F8FF4E020
:102AE0001F9F800111242B893C89200F311F39A39E
:102AF00028A3A301400F511F5BA34AA3DA014D9005
:102B00005D906D907C90F9012081318142815381EB
:102B1000C301B2010E9422376CA37DA38EA39FA3A1
:102B2000A501940150582D873E874F87588BD301BC
:102B3000C201B0588D839E83AF83B887E981FA8143
:102B4000E20DF31D2C8D3D8D4E8D5F8D6081718169
:102B5000828193810E9421372B013C01F101E00F1A
:102B6000F11F2CA13DA14EA15FA1608171818281E5
:102B700093810E9421374B015C01A30192016D8575
:102B80007E858F8598890E947E3A69837A838B83BC
:102B90009C83A50194016D817E818F8198850E941F
:102BA0007E3A9B01AC0169817A818B819C810E9474
:102BB000223769837A838B839C83A50194016D8579
:102BC0007E858F8598890E947E3A4B015C01A30126
:102BD00092016D817E818F8198850E947E3A9B0152
:102BE000AC01C501B4010E94213729813A814B8192
:102BF0005C810E9495372B013C019D89992399F0B6
:102C00002DEB37E346E055EBC301B2010E94FE39DC
:102C100087FD1DC02BED3FE049EC50E4C301B2013C
:102C20000E94213712C02DEB37E346E055E3C30184
:102C3000B2010E94FB37181654F02BED3FE049EC2F
:102C400050E4C301B2010E9422372B013C01809065
:102C5000891E90908A1EA0908B1EB0908C1E298594
:102C60003A854B855C85CA01B9010E942237A501CE
:102C700094010E9421379B01AC01C501B4010E945F
:102C80007E3A0E940B3B4B015C0120E030E040E0CB
:102C90005FE3C301B2010E947E3A29853A854B85E4
:102CA0005C850E947E3A9F77A50194010E940238BC
:102CB0000E94D8380E946F387E8B6D8BDB01AB2B66
:102CC00009F486C14B01A12CB12CBF89BB2361F053
:102CD000C501B4010E949B389B01AC01C701B6013C
:102CE0000E947E3A6B017C01C501B4010E949B38B1
:102CF0004B015C019B01AC01C301B2010E9402388F
:102D000069877A878B879C87F989E4E0FE9FC001F9
:102D100011242B893C89280F391F3A8B298BF1010B
:102D2000E80FF91FD9012D913D914D915C91608182
:102D30007181828193810E942137A50194010E94B3
:102D400002386CAB7DAB8EAB9FAB29853A854B854A
:102D50005C85CA01B9010E947E3A9B01AC0160E02A
:102D600070E080E090E40E9421374B015C012BEA87
:102D70003AEA4AE25EE369857A858B859C850E9402
:102D80007E3A2B013C0120E030E040E850E4C501F0
:102D9000B4010E9422379B01AC01C301B2010E9421
:102DA0007E3A68A779A78AA79BA720E030E040E099
:102DB0005FE3C501B4010E947E3A6CA77DA78EA790
:102DC0009FA7198201E010E0ED89FE890E171F0709
:102DD00009F4FEC0B981BC3008F04AC02CA53DA55D
:102DE0004EA55FA56D817E818F8198850E947E3A78
:102DF0004B015C0128A539A54AA55BA56D857E859B
:102E00008F8598890E947E3AA50194010E942237FD
:102E1000B62EA72E982E892E2CA53DA54EA55FA5D2
:102E20006D857E858F8598890E947E3A2B013C01B5
:102E300028A539A54AA55BA56D817E818F819885DE
:102E40000E947E3A9B01AC01C301B2010E9421376E
:102E50006D877E878F87988BE981EF5FE9838B2D64
:102E60009A2DA92DB82D8D839E83AF83B8876EC010
:102E7000B80180E090E00E949B3829853A854B8517
:102E80005C850E947E3A4B015C010E94FF376D8396
:102E90007E838F839887C501B4010E94013B4B015B
:102EA0005C01EA8DFB8D80819181A281B3819C01BF
:102EB000AD01505829833A834B835C83AAA1BBA1FF
:102EC0008D919D910D90BC91A02D88AB99ABAAAB33
:102ED000BBAB2D813E814F81588569817A818B8181
:102EE0009C810E947E3A2B013C01A501940168A9B6
:102EF00079A98AA99BA90E947E3A9B01AC01C301D2
:102F0000B2010E9422376D877E878F87988BA5013B
:102F1000940169817A818B819C810E947E3A4B0168
:102F20005C012D813E814F81588568A979A98AA9C4
:102F30009BA90E947E3A9B01AC01C501B4010E948D
:102F400021376D837E838F83988719822D853E85F7
:102F50004F8558896C8D7D8D8E8D9F8D0E94223777
:102F6000E88DF98D60837183828393832D813E8107
:102F70004F8158856CA17DA18EA19FA10E9422370F
:102F8000A8A1B9A16D937D938D939C9313972CA9C0
:102F90003DA94EA95FA9E989FA8960817181828181
:102FA00093810E942237A989BA896D937D938D936D
:102FB0009C9313972F89B701A6018B899C890E9446
:102FC000D2148091711D811121C00F5F1F4FFCCE63
:102FD0002F89B701A601C101E7960FB6F894DEBFAD
:102FE0000FBECDBFDF91CF911F910F91FF90EF905A
:102FF000DF90CF90BF90AF909F908F907F906F9019
:103000005F904F903F902F900C94D214E7960FB69C
:10301000F894DEBF0FBECDBFDF91CF911F910F910E
:10302000FF90EF90DF90CF90BF90AF909F908F90E8
:103030007F906F905F904F903F902F9008958F9268
:103040009F92AF92BF92CF92DF92EF92FF924B018D
:103050005C018091721D823009F447C020E030E0AD
:1030600040EA51E4C501B4010E947E3A0E94D8387A
:103070000E946F386B017C010E94072220E030E043
:103080004AE754E4C501B4010E947E3A4B015C0159
:1030900082E38C9DB0018D9D700D112480E090E045
:1030A0000E949B389B01AC01C501B4010E942137ED
:1030B0000E94D8380E946F38CB010E940A1AC114AE
:1030C000D10499F00E94582021E0C21AD1088091C1
:1030D000711D81110AC08FEF90E722E0815090406E
:1030E0002040E1F700C00000EACFFF90EF90DF90B2
:1030F000CF90BF90AF909F908F9008950E94C7117E
:1031000084E00E945B1283E00E945B120E945820C0
:103110008091711D811104C00E94E7060C94D211A8
:103120000895CF92DF92EF920F93CF93DF9300D069
:103130001F921F92CDB7DEB76C018091721D823055
:1031400009F481C02D8349835A836B837C830E9459
:10315000072210928D1D802F0E9427200E94382068
:103160002D8149815A816B817C818823A1F09FB791
:10317000F894809100028061809300029FBF2D83AC
:1031800049835A836B837C830E9458207C816B81A6
:103190005A8149812D818091711D811154C0C601D0
:1031A0000E94D21481E0809302029FB7F89480912C
:1031B00001028260809301029FBF0E94582080918B
:1031C000711D811140C08091721D8111F6CF8091D7
:1031D00002028130A9F4EE2051F08CE0E5E7FDE138
:1031E000A1E8BDE101900D928A95E1F70CC09FB76F
:1031F000F894809100028061809300029FBF03C019
:1032000081E080938D1D109202020E9458208091CF
:10321000711D811118C00E941B2E0E94561B0E9416
:10322000A61E65E77DE1C6010E94EE360F900F9065
:103230000F900F900F90DF91CF910F91EF90DF9053
:10324000CF900C9439240F900F900F900F900F9007
:10325000DF91CF910F91EF90DF90CF900895809103
:10326000010284FD24C09FB7F8948091010280611F
:10327000809301029FBF0E94A02A8091721D982F07
:103280009C7021F49091731D913089F49FB7843024
:1032900029F4F89480910002806204C0F89480912F
:1032A00000028860809300029FBF0C94682B0895F1
:1032B0006F927F928F929F92AF92BF92CF92DF9246
:1032C000EF92FF920F931F93CF93DF937C018B01BB
:1032D0006A01FB018081F701E80FF11D2081EF01F8
:1032E0002D3229F4229621816624639407C02B3263
:1032F00011F0219602C022962181612CA12CB12CC3
:10330000712C60E070E0CB01FE0130ED932E920E47
:1033100029E02915C8F0B39428E02B1588F0A110F6
:103320007A94A5E0B0E09B01AC010E94B33B660F2C
:10333000771F881F991F690D711D811D911D0BC07D
:10334000A11009C0739407C02EEF921207C0A110FC
:1033500005C0AA24A39421962081D6CFBB2009F4CE
:1033600049C00E949B384B015C0120E030E0A9017C
:103370000E94FB37882361F18FEF78166CF42AE006
:1033800037ED43E25CE3C501B4010E947E3A4B0194
:103390005C0173947394F0CF78120BC02DEC3CEC6D
:1033A0004CEC5DE3C501B4010E947E3A4B015C0127
:1033B0000FC0772069F020E030E040E251E4C50121
:1033C000B4010E947E3A4B015C017A9417149CF37D
:1033D000662021F0B7FAB094B7F8B094F601808275
:1033E0009182A282B382CE19DF09C150F801C08355
:1033F00081E001C080E0DF91CF911F910F91FF909C
:10340000EF90DF90CF90BF90AF909F908F907F9084
:103410006F900895009741F0EFE9FFE03197F1F7E1
:1034200000C000000197F6CF08958F929F92AF924F
:10343000BF92CF92DF92EF92FF9269017A019B01D6
:10344000AC010E947E3A4B015C01A7019601C701C5
:10345000B6010E947E3A9B01AC01C501B4010E94F5
:103460002237FF90EF90DF90CF90BF90AF909F906A
:103470008F900C940B3B4F925F926F927F928F9242
:103480009F92AF92BF92CF92DF92EF92FF920F93F3
:103490001F93CF93DF9310912C02111101C016E9F5
:1034A000115000912A02101709F4EFC089E2189F09
:1034B000E0011124C25DDD4F8D889E88AF88B88CF5
:1034C00069A17AA18BA19CA19B01AC010E9422372A
:1034D0002DA13EA14FA158A50E947E3A6B017C010F
:1034E0009B01AC01B401C5010E94FB3787FF02C0FC
:1034F00064017501A601B701498B5A8B6B8B7C8BDC
:10350000111101C016E977247A94710E701619F022
:1035100029E2622E27C080912D02081351C00E941B
:103520006D2E4EC0679C80011124025D1D4F7110ED
:1035300002C096E9792E7A9480912D02781202C009
:103540000E946D2EF801C588D688E788F08CA70107
:10355000960161897289838994890E94FB37811160
:1035600006C0E80180912A027812DCCF29C0F80158
:1035700061A172A183A194A19B01AC010E94223799
:10358000F80125A136A147A150A50E947E3A2989BC
:103590003A894B895C890E9422374B015C01A70163
:1035A00096010E94FB37F80187FF05C0818A928A45
:1035B000A38AB48AD6CFC18AD28AE38AF48AD1CFC9
:1035C00060902A02F9E26F9E80011124025D1D4F76
:1035D00077247394760C86E9781201C0712C509090
:1035E0002C0289E2482E751409F44DC0479CE00175
:1035F0001124C25DDD4FF80181889288A388B488C8
:10360000C988DA88EB88FC88A7019601C501B40156
:103610000E94FB3787FF23C0F80161A172A183A13B
:1036200094A19B01AC010E942237F80125A136A18B
:1036300047A150A50E947E3A9B01AC01C501B4018F
:103640000E9422374B015C01A70196010E94FB37C3
:1036500087FF05C0898A9A8AAB8ABC8A672C2D8924
:103660003E894F89588D69897A898B899C890E9406
:10367000FB37811101C0672C7394F6E97F1201C0FA
:10368000712C8E01B0CF60922A02DF91CF911F91F1
:103690000F91FF90EF90DF90CF90BF90AF909F90F1
:1036A0008F907F906F905F904F9008958CE1EEE047
:1036B000F2E0DF011D928A95E9F710922D02109237
:1036C0002C0281E080932B0210922A02089590919F
:1036D0002D0280912C02891769F081E0890F8639CB
:1036E00009F480E020912A02921302C080932A02FA
:1036F00080932D02089580912D0290912C029817AD
:1037000039F029E2829FC0011124825D9D4F089506
:1037100080E090E00895E0912D02EF5FE63909F432
:10372000E0E080912C02E81761F089E2E89FF00167
:103730001124E25DFD4F61897289838994890C941B
:103740000B3B60E070E0CB01089581E020912D02F9
:1037500090912B02291380E008952F923F924F926F
:103760005F926F927F928F929F92AF92BF92CF9211
:10377000DF92EF92FF920F931F93CF93DF93CDB71A
:10378000DEB7AD970FB6F894DEBF0FBECDBF142FD6
:10379000052F6B8F7C8F822E20912C0239E2239F84
:1037A00010011124F101E25DFD4F1F0115861686FF
:1037B0001786108A15A216A217A210A6108249E930
:1037C00056E766E97EE741A352A363A374A35C01B5
:1037D00040E5E42E4EE1F42E9E01235F3F4F38A3D7
:1037E0002F8F8EE092E09E8F8D8F6F01FE013196BC
:1037F000FAA3E9A3912CF5016191719181919191C5
:103800005F01F70120813181428153810E947E3A1C
:103810000E944E3AEF8DF8A1619371938193919339
:10382000F8A3EF8FED8DFE8D4190519061907190D6
:10383000FE8FED8F64197509860997092B013C01EC
:1038400097FF07C0442455243201461A570A680AD4
:10385000790AF6014182528263827482F1012585E0
:10386000368547855089421653066406750610F45E
:1038700029013A01F101458656866786708A0E94C1
:103880009D38F70120813181428153810E940238A5
:103890002B013C01E9A1FAA161937193819391936A
:1038A000FAA3E9A320E030E0A9010E94FB3787FFDB
:1038B0000AC0F1019081892D9DA70E948C2A9DA5A7
:1038C000892BF1018083A3019201C301B2010E94FF
:1038D0007E3AF10125A136A147A150A50E942237C9
:1038E000F10165A376A387A390A79394F4E0EF0E6C
:1038F000F11C24E0C20ED11C33E093127CCF0E9455
:103900000B3B6B017C01F10165A376A387A390A714
:1039100085859685A785B089892B8A2B8B2B09F401
:10392000FCC120E030E0A901612F702F8B8D9C8DB0
:103930000E94FB3787FD21C0882061F0A701960116
:10394000612F702F8B8D9C8D0E947E3A162F072F32
:103950008B8F9C8F20E030E040E85FE3612F702F79
:103960008B8D9C8D0E94FB3787FF0DC010E000E01F
:1039700030E83B8F8FE38C8F06C019E906E7F6E944
:10398000FB8F2EE72C8FA701960160E070E080E8A6
:103990009FE30E94023869A77AA78BA79CA7EAE158
:1039A000F2E0FAA3E9A32CE53EE138A32F8FCE0184
:1039B0000D969A8F898FFE013196FE8FED8FC12C67
:1039C000D12C7601ED8DFE8D80809180A280B38018
:1039D00020E030E0A901C501B4010E94FB37882333
:1039E00009F47FC029A53AA54BA55CA5C501B40182
:1039F0000E947E3A4B015C01ED8DFE8D60837183E8
:103A0000828393839B01AC0160E070E080E89FE3D8
:103A10000E9402382B013C01E89477F8EF8DF8A161
:103A20002081318142815381C301B2010E947E3ADB
:103A30006BA37CA38DA39EA39B01AC01612F702F70
:103A40008B8D9C8D0E94FB3787FF06C01BA30CA3A8
:103A5000FB8DFDA32C8D2EA3F101F1A1FB8FF101B4
:103A6000F2A1FC8FF101F3A1FFA3F101F4A1F8A7EA
:103A7000EF8DF8A12485358546855785C301B201B0
:103A80000E947E3A3B018C019B01AC016B8D7C8DC9
:103A90008FA198A50E94FB3787FF04C06B8C7C8C9C
:103AA0000FA118A5C301D801F10181A392A3A3A37B
:103AB000B4A3E9A1FAA12081318142815381C501DA
:103AC000B4010E947E3A9B01AC01C701B6010E947D
:103AD00021376B017C011BA10CA1FDA1FB8F2EA145
:103AE0002C8F8D8D9E8D04969E8F8D8FE9A1FAA1CE
:103AF0003496FAA3E9A32F8D38A12C5F3F4F38A34A
:103B00002F8FE98DFA8D8E179F0709F05BCF90916B
:103B10002C0280912D02981306C0F101118A128A9D
:103B2000138A148A0BC02FEE3FEF4FE75FE3C70104
:103B3000B6010E94FE39181634F4F101118E128E6E
:103B4000138E148E5BC02FEE3FEF4FE75FEBC70184
:103B5000B6010E94FE39181644F03FEEC32EDD2454
:103B6000DA943FE7E32E3FEBF32EA701960160E0E6
:103B700070E080E89FE30E94213720E030E040E0E1
:103B80005FE30E947E3A0E940B3B6B017C01209117
:103B9000851E3091861E4091871E5091881EF1012E
:103BA00061A172A183A194A10E947E3AA70196010E
:103BB0000E947E3A4B015C01A701960160E070E033
:103BC00080E89FE30E9421379B01AC01C501B4014D
:103BD0000E9402386B017C0120E030E0A9010E94C4
:103BE000FB3787FF04C0C12CD12CE12CF12CA6019E
:103BF000B701F101418F528F638F748F212F302FC6
:103C00004B8D5C8D612F702F8B8D9C8D0E947E3A29
:103C1000162F072FF82EE92E862F902FAF2DBE2DB1
:103C2000F101858F968FA78FB0A3A18CB28CC38C26
:103C3000D48C609026027090270280902802909089
:103C400029029301A401612F702F8F2D9E2D0E94B8
:103C5000FB3787FD0BC09301A401B501C6010E948B
:103C6000FB3787FD11C0530164010EC0212F302F97
:103C70004F2D5E2DB501C6010E94FB3787FD04C0A4
:103C8000A12EB02ECF2CDE2CC501D601F101858BE3
:103C9000968BA78BB08F8CE0FE013196AAE1B2E043
:103CA00001900D928A95E1F7812F902FAF2DBE2DB7
:103CB0008093260290932702A0932802B0932902B2
:103CC0008CE0FE013D96AEE0B2E001900D928A9547
:103CD000E1F780912B0280932C028F5F863909F4E3
:103CE00080E080932B02AD960FB6F894DEBF0FBE36
:103CF000CDBFDF91CF911F910F91FF90EF90DF909B
:103D0000CF90BF90AF909F908F907F906F905F907B
:103D10004F903F902F900C943B1AAD960FB6F894AD
:103D2000DEBF0FBECDBFDF91CF911F910F91FF90EE
:103D3000EF90DF90CF90BF90AF909F908F907F904B
:103D40006F905F904F903F902F9008958091751DD8
:103D50009091761DA091771DB091781D80930E02F1
:103D600090930F02A0931002B09311028091791DDD
:103D700090917A1DA0917B1DB0917C1D80931202C1
:103D800090931302A0931402B093150280917D1DAD
:103D900090917E1DA0917F1DB091801D8093160291
:103DA00090931702A0931802B0931902089580917E
:103DB0002C0290912D02891708F48A56891B0895C8
:103DC0000E946D2E80912D0280932A020C943B1A42
:103DD000CF93DF93EC018991882319F00E940B2780
:103DE000FACFDF91CF910895CF93DF93FC018491B7
:103DF000EF012196882321F00E940B27FE01F7CFC7
:103E0000DF91CF910895EF92FF920F931F93CF937D
:103E1000DF931F92CDB7DEB7262FEDB6FEB66DB796
:103E20007EB7641B71090FB6F8947EBF0FBE6DBFDD
:103E30000DB71EB70F5F1F4F302FF8019E2F931B3A
:103E4000941728F4622F0E946B3B9193F7CF442381
:103E500061F0F801E40FF11D31978081805D4983A5
:103E60000E940B2749814150F2CF0FB6F894FEBE55
:103E70000FBEEDBE0F90DF91CF911F910F91FF907C
:103E8000EF90089548E062E00C94031F8A3020F020
:103E9000843620F442E003C041E001C043E06AE020
:103EA0000C94031F8F929F92AF92BF92CF92DF929A
:103EB000EF92FF920F931F93CF93DF93CDB7DEB7AF
:103EC0002A970FB6F894DEBF0FBECDBF6B017C0101
:103ED000142F20E030E0A9010E94FB3787FF07C0C4
:103EE0008DE20E940B27F7FAF094F7F8F094012F77
:103EF000023060F020E030E048EC52E4C701B60147
:103F00000E947E3A6B017C010250F2CF10FF0AC082
:103F100020E030E040E251E4C701B6010E947E3A61
:103F20006B017C0120E030E040E05FE3C701B601B7
:103F30000E9422370E946A38E1E0F0E0EC0FFD1F9A
:103F4000E10FF11D2EE22083D12C5AE0852E912C19
:103F5000A12CB12C6115710581059105A9F0D11233
:103F600001C0D394EE24E394F12CEC0EFD1EED0C75
:103F7000F11CA50194010E948B3B605DF7016083F9
:103F8000B901CA01D394E6CF80E3D11648F4E1E049
:103F9000F0E0EC0FFD1FED0DF11D8083D394F5CF04
:103FA0008D2DD1120BC0D394D3948F5FE1E0F0E05C
:103FB000EC0FFD1FE80FF11D80E38083DD2041F051
:103FC000FE01ED0DF11D80810E940B27DA94F6CFE2
:103FD0002A960FB6F894DEBF0FBECDBFDF91CF910A
:103FE0001F910F91FF90EF90DF90CF90BF90AF9017
:103FF0009F908F90089520918D1E20FF08C02BE880
:1040000032E441E25DE30E947E3A44E001C043E0D5
:104010000C94521F20918D1E20FF08C02BE832E423
:1040200041E25DE30E947E3A41E001C040E00C9431
:10403000521F43E00C94521FE7E0F1E080818F773C
:104040008083E8E0F1E080818068808308951092A9
:104050008F1D90918D1E97FD03C090E890938F1D4A
:10406000882329F080918F1D805880938F1D08959B
:1040700080910601807890918F1D89270895809105
:1040800002028130A1F40E943820882381F010922E
:1040900002028CE0E5E7FDE1A1E8BDE101900D92AF
:1040A0008A95E1F78091010280648093010208956E
:1040B000EF92FF920F931F93CF93DF93D1E008E02D
:1040C00080E2F82E10E190E4E92EC0910002CC23AA
:1040D00099F1D093721DC1FF02C081E00FC0C2FFF1
:1040E00002C082E00BC0C3FF02C083E007C0C4FF70
:1040F00002C084E003C0C5FF03C085E00E946922BE
:104100000E94A02AC0FD08C08FB7F89490910002C9
:10411000109200028FBF10C081E00E9499229FB7C9
:10412000F894809101028F7E809301029FBF80915D
:10413000010284FFFCCFE8CFC0910102CC2309F437
:10414000BBC0C4FF04C081E08093711DCDC0C0FF1F
:104150000AC00E94D4259FB7F894809101028E7FF7
:10416000809301029FBF8C2F887609F43EC0809116
:10417000721D882349F0982F9C7779F1883021F4BB
:104180000E946D2ED093731D8091721D811103C00A
:1041900092E09093731DC6FF09C0883011F4E0923D
:1041A000721D8091731D88608093731DC3FF05C0CD
:1041B0008091721D85FF1093721DC5FF0EC00E9475
:1041C000A02A86E00E9499228091731D81FDC4601F
:1041D00084608093731DF092721D9FB7F894809154
:1041E00001028779809301029FBFC1FF44C08C2FD9
:1041F0008876C9F58091721D882331F0807599F118
:104200008091731D81FF2FC08091731D82FF18C0A4
:104210008091001D882351F04091021D5091031D93
:104220006091041D7091051D0E94BF2A8091FF1CA2
:10423000882331F00E94050688EE93E00E940A1A56
:104240000E947B1B892B59F08091731D83FD07C051
:104250000093721D0E948F2E0E94422B02C010926A
:10426000721D1092731D9FB7F894809101028D7F8B
:10427000809301029FBFC2FF1FC08091721D807397
:1042800079F08091741D81110BC08091731D82FDA6
:104290000E94A02A8091731D82608093731D04C0C8
:1042A0001092731D1092721D9FB7F89480910102B5
:1042B0008B7F809301029FBF8091721D8C7711F0DC
:1042C0000E948F2E8091721D803251F48091731D57
:1042D00081FF06C00E942C35811102C01093721D0F
:1042E0008091731D8111F1CEDF91CF911F910F91BC
:1042F000FF90EF9008959FB7F8948091010282603B
:10430000809301029FBF0895CF93DF930E94C8223C
:104310008091721D813021F482E00E9499222FC089
:104320000E942C35882341F08091010280628093A5
:1043300001020E94582002C01092721D84E39AE18B
:104340000E942E351CC08D3079F0DD23A1F1893219
:1043500021F4D13009F04DC0D0E00E9455278F3FA5
:1043600009F449C08A3079F7EC2FF0E0EC5CF54EA7
:1043700010820E9458208091711D882311F0C0E0A6
:10438000EBCF8091341A811103C00E941822F7CF1D
:104390008452823028F484E39AE10E944D35F5CFAF
:1043A0008091721D813011F489E0EFCF84E39AE1AE
:1043B0000E94ED06EACF813280F28F3271F28832AC
:1043C000B1F08B33B1F0CF3428F08BE00E9418228B
:1043D000C0E0C3CF2C2F30E0CF5F9FE9980FF901E9
:1043E000EC5CF54E9A3108F480528083B6CFD1E070
:1043F000B4CFD2E0B2CF0E947B210E94582080919E
:10440000711D882309F4A9CFDF91CF9108950E94EF
:104410007B210E9458208091711D811108C00E944B
:104420007B1B892BB1F78091721D883091F3089521
:10443000CF93C82F811103C08CE89BE047C084E86C
:104440009BE00E94F41E4C2F50E0FA013197E632B7
:10445000F10598F5E956FF4F0C94AD3B8CE69BE0D7
:1044600002C08AE59BE00E94F41E2EC088E49BE017
:10447000FACF8EE39BE0F7CF8DE29BE0F4CF8EE1A5
:104480009BE0F1CF8DEF9AE0EECF84EF9AE0EBCF97
:1044900089EE9AE0E8CF86ED9AE0E5CF88EC9AE0E5
:1044A000E2CF82EB9AE0DFCF8EE99AE0DCCF8AE8B8
:1044B0009AE0D9CF86E79AE0D6CF84E69AE00E94C8
:1044C000F41E8C2F0E94461F81E69AE0CF910C9437
:1044D000F41ECF93C82F89E59AE00E94F41E8C2F1A
:1044E00090E0FC013197E730F105D0F4E354FF4F41
:1044F0000C94AD3B8EE49AE011C083E49AE00EC0C8
:1045000080E39AE00BC085E29AE008C089E19AE076
:1045100005C08DE09AE002C089EF99E00E94F41E88
:1045200086EF99E00E94F41E84EF91E0CF910C9405
:104530000A1ACF93C82F84EF99E00E94F41E8C2FA3
:1045400090E0FC013197E830F105E8F4EC53FF4FBF
:104550000C94AD3B82EE99E014C08EEC99E011C052
:104560008CEB99E00EC084EB99E00BC08BEA99E0EC
:1045700008C080EA99E005C088E999E002C085E8B2
:1045800099E00E94F41E81E899E0CF910C94F41E0A
:1045900084E699E00C94F41E8AE997E00C94F41EEA
:1045A000FF920F931F93CF93DF9386E997E00E94CA
:1045B000F41E8091801E0E94461F8DE797E00E94A6
:1045C000F41E8091831E0E94461F8FE597E00E9493
:1045D000F41E8091811E0E94461F86E497E00E948F
:1045E000F41E8091811E0E94421F8FE397E00E947B
:1045F000F41E8091821E0E94461F87E297E00E946F
:10460000F41E8091821E0E94421F80E297E00E9469
:10461000F41E80918D1E82FB882780F90E94461F20
:104620008FEF96E00E94F41E80918D1E86FB8827F6
:1046300080F90E94461F8FED96E00E94F41E809143
:104640008D1E881F8827881F0E94461F8FEB96E0CB
:104650000E94F41E8091841E0E94461F89EA96E003
:104660000E94F41E8091841E0E94421F81EA96E0FF
:104670000E94F41E6091851E7091861E8091871E97
:104680009091881E0E94192081E896E00E94F41EF5
:104690006091891E70918A1E80918B1E90918C1E54
:1046A0000E94192086E696E00E94F41E80918D1EDD
:1046B00081700E94461F89E496E00E94F41E80915A
:1046C0008D1E85FB882780F90E94461F8EE296E0AA
:1046D0000E94F41E80918D1E83FB882780F90E9422
:1046E000461F83E196E00E94F41E80918D1E829504
:1046F00081700E94461F87EF95E00E94F41E809112
:104700008E1E0E94461F8DED95E00E94F41E809142
:104710008E1E0E94421F85ED95E00E94F41E60915E
:104720008F1E7091901E8091911E9091921E0E94FA
:10473000192088EB95E00E94F41E6091931E709101
:10474000941E8091951E9091961E0E9419208BE9CF
:1047500095E00E94F41E8091971E0E94461F8CE7F0
:1047600095E00E94F41E6091991E70919A1E8091AE
:104770009B1E90919C1E0E9419208FE595E00E943F
:10478000F41E809104020E94461F86E395E00E9479
:10479000F41E84E6F82E10E0C0E5DEE100E084E3DC
:1047A00095E00E94F41E802F8F0D0E94461F82E329
:1047B00095E00E94F41E123071F01330B9F0113000
:1047C00029F0688179818A819B8117C06C857D85FC
:1047D0008E859F8512C020E030E041E655E4688D6B
:1047E000798D8A8D9B8D0E94023807C08CA19DA176
:1047F000AEA1BFA1BC01CD0190580E9419208FE24B
:1048000095E00E94F41E013029F0023031F08DE273
:1048100095E005C08BE295E002C089E295E00E9438
:10482000F41E123051F0133059F0113019F08FE1AD
:1048300095E008C08DE095E005C08CEF94E002C0E3
:104840008CEE94E00E94F41E88EE94E00E94F41E28
:104850000F5F2496033009F0A2CF8AE0F80E1F5FA5
:104860008CE8F81299CFDF91CF911F910F91FF90B3
:104870000895CF9382EE94E00E94F41EC0E06C2F66
:1048800081E89DE10E94D4360E94FB1FC23021F0D6
:1048900080EE94E00E94F41ECF5FC33081F78EED6E
:1048A00094E00E94F41E80918D1D0E94461F8AEDA7
:1048B00094E0CF910C94F41EEF92FF920F931F930C
:1048C000CF93DF93CDB7DEB72C970FB6F894DEBF4A
:1048D0000FBECDBFF12CBE016F5F7F4F8F2D0E94A9
:1048E0003329811104C087E00E94182269C087ED36
:1048F00094E00E94F41E86E0F81631F0E7E0FE1224
:1049000008C081ED94E002C084ED94E00E94F41EA2
:1049100004C086E38F0D0E94461F8FEC94E00E9436
:10492000F41E8E010F5F1F4FE12CF8016191719110
:10493000819191918F010E94FB1FF2E0EF1619F017
:104940008DEC94E002C089EC94E00E94F41EE394A4
:1049500083E0E812EACFF394E8E0FE12BCCF83ECE8
:1049600094E00E94F41E07E21DE1F12CF801619130
:104970007191819191918F010E94FB1FF2E0FF16CE
:1049800019F081EC94E002C08DEB94E00E94F41EDB
:10499000F39483E0F812EACF87EB94E00E94F41ED0
:1049A0006091331D7091341D8091351D9091361D9D
:1049B0000E94FB1F83EB94E00E94F41E0E943924A6
:1049C0002C960FB6F894DEBF0FBECDBFDF91CF910E
:1049D0001F910F91FF90EF90089581EB94E00E945A
:1049E000F41E8091F71C823091F038F4882361F036
:1049F0008130A9F48BEA94E00CC0833069F08830F0
:104A000071F481EA94E005C08EEA94E002C088EA7D
:104A100094E00E94F41E0CC085EA94E0FACF8CE981
:104A200094E00E94F41E8091F71C82500E94461F61
:104A300089E994E00E94F41E8091FD1C8A5C0E942A
:104A4000461F8091FB1C813049F028F0823051F4E0
:104A50008AE894E005C084E994E002C08FE894E01D
:104A60000E94F41E8091F91C811103C085E894E036
:104A700002C080E894E00E94F41E8091FA1C81112B
:104A800003C08BE794E002C086E794E00E94F41E26
:104A90008091F81C813019F481E794E002C08CE623
:104AA00094E00E94F41E8091FE1C813049F028F0B1
:104AB000823051F480E694E005C088E694E002C0BC
:104AC00084E694E00E94F41E8091001D813031F054
:104AD00040F0823051F488E594E005C08CE594E024
:104AE00002C084E594E00E94F41E8091FF1C88239C
:104AF00029F0823039F48CE494E002C080E594E03F
:104B00000E94F41E89E494E00E94F41E80910A1D24
:104B10000E94461F86E494E00E94F41E6091061DE8
:104B20007091071D8091081D9091091D0E940A2017
:104B300083E494E00E94F41E6091021D7091031DB5
:104B40008091041D9091051D0E940A208FE394E03E
:104B50000C94F41E1F93CF93DF93182FEB018CE37B
:104B600094E00E94F41E812F0E94461F8AE394E085
:104B70000E94F41ECE010E94E81E87E394E0DF91BC
:104B8000CF911F910C94F41ECF93DF93EC0187E239
:104B900094E00E94F41ECE010E94E81E83E294E09D
:104BA000DF91CF910C94F41EBF92CF92DF92EF92DF
:104BB000FF920F931F93CF93DF93CDB7DEB7689724
:104BC0000FB6F894DEBF0FBECDBF8CE0E5E7FDE188
:104BD000DE011D9601900D928A95E1F78091721D7C
:104BE0008430E9F040F48130E9F080F0823009F55A
:104BF0008EEF93E01CC0803179F018F4883049F0D2
:104C000018C0803291F0803421F013C08DE194E01F
:104C10000EC088E194E00BC082E194E008C08CE013
:104C200094E005C085E094E002C088EF93E00E9424
:104C3000F41E8091841E837039F0BE01635F7F4F44
:104C4000CE0101960E94EE368091841E80FD05C043
:104C50008091841E81FF6DC01FC081EF93E00E9490
:104C6000F41E69817A818B819C810E94FB1F8FEEEB
:104C700093E00E94F41E6D817E818F8198850E9451
:104C8000FB1F8FEE93E00E94F41E69857A858B8569
:104C90009C850E94FB1FDCCF88EE93E00E94F41EEF
:104CA0009BE1E92E9DE1F92E8E010F5F1F4FB12C84
:104CB0006801F70161917191819191917F01208546
:104CC0003185428553850E9422379B01AC01F80152
:104CD00060817181828193810E942137F801608314
:104CE000718382839383F2E0BF120FC02091331D42
:104CF0003091341D4091351D5091361D0E94213751
:104D0000F80160837183828393830C5F1F4FF601E8
:104D100060817181828193810E94FB1FF2E0BF1646
:104D200021F086EE93E00E94F41EB39423E0B212C9
:104D3000BFCF8091841E82FF08C080EE93E00E9466
:104D4000F41E0E94D71E0E94461F8091841E83FF7E
:104D500008C08BED93E00E94F41E0E94EC260E9496
:104D6000461F8091841E85FF09C084ED93E00E9458
:104D7000F41E0E942B1141E00E94521F8091841E5C
:104D800085FF08C086EC93E00E94F41E0E94261165
:104D90000E94461F8091841E84FF0AC080EC93E02D
:104DA0000E94F41E0E94E91143E062E00E94031F8A
:104DB0008CEB93E00E94F41E68960FB6F894DEBF69
:104DC0000FBECDBFDF91CF911F910F91FF90EF905C
:104DD000DF90CF90BF9008959091861A8091871AA6
:104DE000891708F48058891B0895E0ECF0E0808171
:104DF000826080831092C50080E18093C400E1EC62
:104E0000F0E0808180618083808188608083808100
:104E1000806880830895E091851A91E09E0F903418
:104E200009F490E02091841A921305C020910102A8
:104E300024FFF8CF0895F0E0E057F24E808390937E
:104E4000851A8091C10080628093C10008951F92ED
:104E50000F920FB60F9211240BB60F928F939F9360
:104E6000EF93FF938091841AE82FF0E0E057F24E21
:104E700090819093C6008F5F803409F480E0809326
:104E8000841A9091851A891305C08091C1008F7D85
:104E90008093C100FF91EF919F918F910F900BBE76
:104EA0000F900FBE0F901F9018959091861A8091C9
:104EB000871A891761F0E92FF0E0E053F24E808104
:104EC0009F5F903809F490E09093861A08958FEFD1
:104ED00008951F920F920FB60F9211240BB60F92E6
:104EE0002F933F934F935F936F937F938F939F93F2
:104EF000AF93BF93EF93FF938091C6008F33A9F0D8
:104F000050F4883109F1813211F59FB7F8948091FE
:104F10000102886015C0803471F08E37C1F49FB7EC
:104F2000F8948091010282600BC09FB7F894809141
:104F30000102816005C09FB7F894809101028062F0
:104F4000809301029FBF14C00E942F1911C0E091ED
:104F5000871A91E09E0F903809F490E02091861A0C
:104F6000921731F0F0E0E053F24E80839093871A6D
:104F7000FF91EF91BF91AF919F918F917F916F9131
:104F80005F914F913F912F910F900BBE0F900FBEED
:104F90000F901F9018958091871A8093861A089514
:104FA00021E5829FC001112440E550E09D5F0C94F3
:104FB000520640E550E0BC018EEA93E00C945206A4
:104FC0002DE0829FC00111244CE050E09E5F0C94C4
:104FD000520669E080E090E00E9430064DE450E027
:104FE00060E57EE181E090E00C945206EF92FF9242
:104FF0000F931F93CF93DF93CDB7DEB72C970FB6E8
:10500000F894DEBF0FBECDBF182F80FFC8C08AE066
:105010008093801E8FEF8093831E1092811E1092CA
:10502000821E83E28093841E8AE097EDA3E2BCE3B4
:105030008093851E9093861EA093871EB093881E32
:105040008FE692E1A3E0BBE38093891E90938A1ED2
:10505000A0938B1EB0938C1E10928E1E80E090E069
:10506000A8E4B3E480938F1E9093901EA093911EAA
:10507000B093921E80E090E0AAE7B5E48093931E7F
:105080009093941EA093951EB093961E8AEF90E085
:105090009093981E8093971E80E090E0A0E8BFE375
:1050A0008093991E90939A1EA0939B1EB0939C1E72
:1050B00081E08093040210928D1E81E79DEBA6E0B3
:1050C000B3E48093501E9093511EA093521EB09350
:1050D000531E8093541E9093551EA093561EB0935A
:1050E000571E8093581E9093591EA0935A1EB0933A
:1050F0005B1E40E050E066E174E440935C1E509318
:105100005D1E60935E1E70935F1E4093601E509301
:10511000611E6093621E7093631E4093641E5093E1
:10512000651E6093661E7093671E40E050E86BEB4F
:1051300075E44093681E5093691E60936A1E7093D5
:105140006B1E40936C1E50936D1E60936E1E709389
:105150006F1E4093701E5093711E6093721E709369
:10516000731E40E050E068E473EC4093741E50936B
:10517000751E6093761E7093771E4093781E509331
:10518000791E60937A1E70937B1E40937C1E509311
:105190007D1E60937E1E70937F1E0E94E92711FF83
:1051A00010C0CE0101967C018CE0F70111928A9526
:1051B000E9F700E0B701802F0E94E0270F5F083079
:1051C000C9F712FF0AC060E080E093E00E94300659
:1051D00060E081E593E00E94300613FF05C060E0C7
:1051E0008EEA93E00E9430062C960FB6F894DEBF4C
:1051F0000FBECDBFDF91CF911F910F91FF90EF9028
:1052000008951F93CF93DF93182FEB0181E5189F2B
:10521000B00111247D5F40E550E0CE010E94900670
:10522000892B39F41882BE01812F0E94D02780E09B
:1052300001C081E0DF91CF911F910895CF93DF935B
:10524000EC0140E550E06EEA73E00E949006892B85
:1052500031F41882CE010E94D92780E001C081E09C
:10526000DF91CF9108951F93CF93DF93182FEB0118
:105270008DE0189FB00111247E5F4CE050E0CE011C
:105280000E949006892B59F48CE0FE0111928A95B8
:10529000E9F7BE01812F0E94E02780E001C081E094
:1052A000DF91CF911F91089580E090E00E94280641
:1052B000893011F080E008954DE450E061E070E045
:1052C00080E59EE10E949006892BA1F381E0809306
:1052D00004020895CF92DF92EF92FF921F93CF9333
:1052E000DF93C82F6A017B01122F20E030E0A90173
:1052F000C701B6010E94FB3787FDE4C0C436F0F158
:10530000C45680E0C33088F5D0E0CC0FDD1FCC0F51
:10531000DD1F823051F08330E9F0813019F0C05B3D
:10532000D14E1EC0C45AD14E1BC0C859D14E20E028
:1053300030E040E752E4C701B6010E947E3A20E027
:1053400030E040E752E40E947E3A688379838A83A2
:105350009B83B3C0CC58D14EF7FAF094F7F8F09491
:10536000C882D982EA82FB82A8C08F5FCA3008F463
:10537000ABC0843009F4A8C0CA50C4CFC701B6017D
:105380000E944C3B0E946F388C2F90E08D3191052C
:1053900008F09AC0FC01E453FF4F0C94AD3B63301E
:1053A00008F494C06093801E88C06093831E85C0FB
:1053B0006093811E02C06093821E0E94DF2D7DC01B
:1053C00080918D1E662311F0846007C08B7F05C01D
:1053D00080918D1E662321F0806480938D1E6DC0A8
:1053E0008F7BFBCF80918D1E662311F08068F5CFF7
:1053F0008F77F3CF6093841E60C0C092851ED092D9
:10540000861EE092871EF092881E57C0C092891EA9
:10541000D0928A1EE0928B1EF0928C1E4EC080911C
:105420008D1E662311F08160D8CF8E7FD6CF8091FC
:105430008D1E662321F084FF4BC08062CECF8F7D0E
:10544000CCCF80918D1E662311F0886001C0877FCC
:1054500080938D1E0E94D21130C080918D1E6623D4
:1054600011F08061BACF8F7CB8CF60938E1E25C0BB
:10547000C0928F1ED092901EE092911EF092921ECA
:105480001CC0C092931ED092941EE092951EF09282
:10549000961E13C070E07093981E6093971E0DC007
:1054A000C092991ED0929A1EE0929B1EF0929C1E72
:1054B00004C0653678F460930402113069F40E94E8
:1054C000E9270AC084E009C083E007C086E005C080
:1054D0008AE003C086E201C080E0DF91CF911F9196
:1054E000FF90EF90DF90CF9008950E945429811192
:1054F00008C087E00E9418228FEF0E94F6270C94C4
:10550000D0220895882321F0813021F488E0089585
:1055100084E0089580E10895882321F0813021F40A
:1055200080E4089580E8089580E20895882321F0BA
:10553000813021F480E2089580E1089580E40895A7
:10554000E0EAF0E080818F7D80831092AB001092C2
:10555000AA00E2E0F1E0808188608083109203027B
:105560002F980895279A2F98E1E0F1E080818061DB
:1055700080838081886080836B9A0C94A02ACF926C
:10558000DF92EF92FF926A017B01811106C0FF90CA
:10559000EF90DF90CF900C94A02A809103028111AC
:1055A0001CC081E0809303022F9A1092AB001092EE
:1055B000AA0083E08093A0008091A100807E896191
:1055C0008093A10089EF96E09093A9008093A800B2
:1055D00080910201877F8093020120E030E0A901E1
:1055E000C701B6010E94FE391816D4F48091A000BC
:1055F00080628093A000C701B6010E946A3847E02C
:10560000469F9001479F300D11246091040270E085
:10561000C9010E94773B7093AB006093AA0005C05C
:105620008091A0008F7D8093A000FF90EF90DF908D
:10563000CF900895CF93DF9300D01F921F92CDB7E4
:10564000DEB79091721D9230A9F04A835B836C8320
:105650007D8389830E9407224A815B816C817D81E1
:1056600089810F900F900F900F900F90DF91CF9145
:105670000C94BF2A0F900F900F900F900F90DF9116
:10568000CF91089580918D1E82FF04C08091020108
:10569000806403C0809102018F7B8093020180911E
:1056A000721D8C70A1F08091B81A8093CC1A8091F1
:1056B000B91A8093CB1A8091801E880F84508195EF
:1056C0008093CA1A80916F00826080936F00089562
:1056D00080916F008D7F80936F0080918100887F23
:1056E0008160809381001092B71A8091831E8F3F52
:1056F00021F490910002992349F09091721D943009
:1057000029F090E00E940A1A81E001C080E09091A7
:105710008D1E92FF02C091E08927882321F080919D
:105720000201806403C0809102018F7B809302019B
:105730000895EFE6F0E080818D7F8083E1E8F0E07E
:105740008081887F816080831092B71AE2E0F1E067
:1057500080818064808308951F920F920FB60F920C
:1057600011240BB60F922F933F934F935F936F9338
:105770007F938F939F93AF93BF93CF93DF93EF93D9
:10578000FF938091B71A8111EFC198B18091CC1A23
:10579000807E9F71892B88B982B1837E9091CB1ACC
:1057A000892B82B98091CA1A86BD82E085BD81E0CD
:1057B0008093B71A78948091DE1A9091DF1A892B22
:1057C00009F0A4C08091BC1A9091BB1A981709F4F3
:1057D00092C0E091BC1A86E0E89FF0011124E052EB
:1057E000F54EF093DF1AE093DE1A83819481909353
:1057F000890080938800808191819093DA1A809348
:10580000D91AA2818091DB1A8A1771F1A093DB1A51
:1058100081E1A89FD0011124A059B44EB093DD1AA4
:10582000A093DC1A1D968D919D910D90BC91A02D99
:10583000B695A795979587958093C51A9093C61AA4
:10584000A093C71AB093C81A8093C11A9093C21A32
:10585000A093C31AB093C41A8093BD1A9093BE1A32
:10586000A093BF1AB093C01AC091DC1AD091DD1A70
:105870008091B81A988189278093CC1A25818981D3
:105880009A81AB81BC81022E04C0B695A7959795ED
:1058900087950A94D2F78093CD1A9093CE1AA0934D
:1058A000CF1AB093D01A8D819E81AF81B885022E18
:1058B00004C0B695A795979587950A94D2F78093DB
:1058C000D11A9093D21AA093D31AB093D41A89857F
:1058D0009A85AB85BC8504C0B695A79597958795A5
:1058E0002A95D2F78093D51A9093D61AA093D71AF7
:1058F000B093D81A0BC00E94682B9FB7F894809180
:1059000001028460809301029FBF2EC10E943F204C
:105910001092CB1A8091CD1A9091CE1AA091CF1AE5
:10592000B091D01A4091BD1A5091BE1A6091BF1A21
:105930007091C01A840F951FA61FB71F8093BD1AC0
:105940009093BE1AA093BF1AB093C01AE091DC1ACC
:10595000F091DD1A45855685678570894817590786
:105960006A077B0768F524E02093CB1A45855685A6
:1059700067857089841B950BA60BB70B8093BD1AA6
:105980009093BE1AA093BF1AB093C01A2081809141
:10599000751D9091761DA091771DB091781D27FF00
:1059A00004C00197A109B10903C00196A11DB11D51
:1059B0008093751D9093761DA093771DB093781DED
:1059C0008091D11A9091D21AA091D31AB091D41A81
:1059D0004091C11A5091C21A6091C31A7091C41AB1
:1059E000840F951FA61FB71F8093C11A9093C21AE8
:1059F000A093C31AB093C41A4585568567857089EC
:105A0000481759076A077B0778F52091CB1A286059
:105A10002093CB1A4585568567857089841B950B25
:105A2000A60BB70B8093C11A9093C21AA093C31A06
:105A3000B093C41A20818091791D90917A1DA09114
:105A40007B1DB0917C1D26FF04C00197A109B109FF
:105A500003C00196A11DB11D8093791D90937A1DFD
:105A6000A0937B1DB0937C1D8091D51A9091D61A7E
:105A7000A091D71AB091D81A4091C51A5091C61A60
:105A80006091C71A7091C81A840F951FA61FB71F7F
:105A90008093C51A9093C61AA093C71AB093C81AD8
:105AA0004585568567857089481759076A077B07BA
:105AB00078F52091CB1A20612093CB1A4585568525
:105AC00067857089841B950BA60BB70B8093C51A4D
:105AD0009093C61AA093C71AB093C81A20818091D8
