:100000000C94C9050C94EA050C94EA050C94EA05D5
:100010000C94EA050C94EA050C94EA050C94EA05A4
:100020000C94EA050C9417120C94EA050C94E33432
:100030000C94EA050C94EA050C94EA050C94EA0584
:100040000C94EA050C94A02B0C94EA050C94EA0598
:100050000C94EA050C94EA050C94EA050C94BD2D69
:100060000C94EA050C945D270C941B270C94EA056C
:100070000C94EA050C94EA050C94EA050C94EA0544
:100080000C94EA050C94EA050C94EA050C94EA0534
:100090000C94EA050C94EA050C94EA050C94EA0524
:1000A0000C94EA050C94EA050C94EA050C94EA0514
:1000B0000C94EA050C94EA050C94EA050C94EA0504
:1000C0000C94EA050C94EA050C94EA050C94EA05F4
:1000D0000C94EA050C94EA050C94EA050C94EA05E4
:1000E0000C94EA050A09EE10EE10140921092E09F4
:1000F0003B09EE103F09EE104D09EE10570961095A
:100100009209EE10EE10EE106B0978098509B40F14
:10011000C50FE40FC50FE80FFB0FEE0FF40F101023
:10012000161025103C1060106A10761080102222E4
:1001300025222A222D2230223322362239223C2225
:100140003F22422251225122512251225122512238
:1001500051225122482245224B2251225122512222
:1001600051225122512251225122512251225122F7
:1001700051225122512251224E226E22712274228A
:1001800077227A227D2280229E22A122A422A722E7
:10019000AA22AD22B022B322C329C929CC29CF2952
:1001A000D429DC29E629582A582A582AEE29F12987
:1001B000FA29032A582A582A582A582A582A582AE3
:1001C0000B2A152A212A292A2C2A352A3E2A442A92
:1001D0004D2A084AD73B3BCE016E84BCBFFDC12FE0
:1001E0003D6C74319ABD56833DDA3D00C77F11BE28
:1001F000D9E4BB4C3E916BAAAABE000000803F052B
:10020000A84CCDB2D44EB93836A9020C50B991865B
:1002100088083CA6AAAA2ABE000000803F08000069
:1002200000BE922449123EABAAAA2ABECDCCCC4C29
:100230003E00000080BEABAAAAAA3E00000000BF9C
:10024000000000803F0000000000084178D3BB435D
:1002500087D1133D190E3CC3BD4282AD2B3E68ECE5
:100260008276BED98FE1A93E4C80EFFFBE01C4FF6C
:100270007F3F0000000000000C94B3220C94222267
:100280000C94AD220C94C9290C943F090C94032AB8
:100290000C9448220C9410100C9478090C94801043
:1002A0000C94292A0C949E220C9457090C940B2A26
:1002B0000C944B220C94D4290C9430220C94EE0F05
:1002C0000C943E2A0C9460100C94F40F0C94802231
:1002D0000C944E220C9425220C94152A0C94B022D6
:1002E0000C94C3290C94A1220C94A4220C942510E4
:1002F0000C943C220C942A220C9421090C94CC29B5
:100300000C94B40F0C9416100C946A100C943922AF
:100310000C94DC290C94A7220C94352A0C942D22E1
:100320000C942C2A0C944D090C9436220C94E6293A
:100330000C9445220C9485090C94EE100C946109E0
:100340000C94C50F0C94AA220C942E090C947422C0
:100350000C9471220C947D220C946B090C94442A09
:100360000C94FA290C9492090C94582A0C944D2A56
:100370000C9433220C94F1290C9414090C94E80F7A
:100380000C940A090C94212A0C9476100C946E2279
:100390000C94FB0F0C943C100C9477220C94CF29F6
:1003A0000C943F220C947A220C9451220C944222F9
:1003B0000C94E40F0C94EE290C943B093E0D0A00BA
:1003C0002C4C696D3A002C4C6173657220506F772C
:1003D00065723A002C54454D503A002C52583A0060
:1003E0002C4275663A002C002C57506F733A002C43
:1003F000002C4D506F733A003C446F6F72003C43C9
:100400006865636B003C416C61726D003C486F6DC8
:1004100065003C486F6C64003C52756E003C49645A
:100420006C65005D0D0A005B302E396A2E3230316A
:1004300036303732363A000D0A003D00244E005D5A
:100440000D0A00205300204600205400204D3800A3
:10045000204D3900204D3500204D3400204D330013
:10046000204D3200204D3100204D300020473934DE
:100470000020473933002047393100204739300008
:1004800020473230002047323100204731390020E8
:100490004731380020473137002047004733382E96
:1004A00000473830004733004732004731004730BB
:1004B000005B005D0D0A005B544C4F3A005D0D0A75
:1004C000002C005B4739323A005D0D0A002C003ADF
:1004D000003330003238005B47005D0D0A003A00FF
:1004E0002C005B5052423A00290D0A00206D6178C1
:1004F0002074726176656C2C206D6D0020616363E1
:10050000656C2C206D6D2F7365635E3200206D610C
:100510007820726174652C206D6D2F6D696E002CD2
:1005200020737465702F6D6D007A0079007800205B
:1005300028003D00240020286C6173657220706FD4
:100540007765722064697669736F722C2025292083
:100550002D2D204E4F542053415645440D0A002066
:1005600028686F6D696E672070756C6C2D6F66669C
:100570002C206D6D290D0A2432383D002028686F2B
:100580006D696E67206465626F756E63652C206DA2
:10059000736563290D0A2432373D002028686F6D8A
:1005A000696E67207365656B2C206D6D2F6D696EAC
:1005B000290D0A2432363D002028686F6D696E6768
:1005C00020666565642C206D6D2F6D696E290D0A9E
:1005D0002432353D00290D0A2432343D002028689C
:1005E0006F6D696E672064697220696E76657274DA
:1005F000206D61736B3A002028686F6D696E67200B
:100600006379636C652C20626F6F6C290D0A24324C
:10061000333D00202868617264206C696D697473D1
:100620002C20626F6F6C290D0A2432323D00202885
:10063000736F6674206C696D6974732C20626F6FC0
:100640006C290D0A2432313D0020287265706F72CA
:100650007420696E636865732C20626F6F6C290D5E
:100660000A2432303D00202861726320746F6C656B
:1006700072616E63652C206D6D290D0A2431333D46
:100680000020286A756E6374696F6E2064657669F0
:100690006174696F6E2C206D6D290D0A2431323D15
:1006A00000290D0A2431313D0020287374617475CE
:1006B00073207265706F7274206D61736B3A0020E5
:1006C0002870726F62652070696E20696E7665723F
:1006D000742C20626F6F6C290D0A2431303D00208C
:1006E000286C696D69742070696E7320696E766517
:1006F00072742C20626F6F6C290D0A24363D002025
:10070000287374657020656E61626C6520696E7611
:100710006572742C20626F6F6C290D0A24353D00C0
:10072000290D0A24343D00202864697220706F72FC
:100730007420696E76657274206D61736B3A00295E
:100740000D0A24333D0020287374657020706F7289
:100750007420696E76657274206D61736B3A002047
:1007600028737465702069646C652064656C6179B8
:100770002C206D736563290D0A24323D00202873F7
:100780007465702070756C73652C207573656329B2
:100790000D0A24313D0024303D00242420287669B0
:1007A0006577204772626C2073657474696E677335
:1007B000290D0A242320287669657720232070617B
:1007C00072616D6574657273290D0A24472028765D
:1007D00069657720706172736572207374617465E6
:1007E000290D0A2449202876696577206275696C8D
:1007F0006420696E666F290D0A244E20287669658B
:1008000077207374617274757020626C6F636B73A0
:10081000290D0A24783D76616C7565202873617610
:1008200065204772626C2073657474696E67290D68
:100830000A25783D76616C756520287365742047BC
:1008400072626C2073657474696E67202D204E4F40
:1008500054205341564544290D0A244E783D6C6975
:100860006E6520287361766520737461727475708B
:1008700020626C6F636B290D0A244320286368652E
:10088000636B2067636F6465206D6F6465290D0A73
:10089000245820286B696C6C20616C61726D206C2F
:1008A0006F636B290D0A2448202872756E20686FCB
:1008B0006D696E67206379636C65290D0A24525354
:1008C000543D782028726573746F726520783D24DA
:1008D0003A2064656661756C742076616C75657329
:1008E0002C20783D233A20706172616D65746572C9
:1008F000732C20783D2A3A20616C6C290D0A245310
:100900002028666F7263652064697361626C65207C
:1009100073746570706572290D0A7E20286379638F
:100920006C65207374617274290D0A212028666534
:10093000656420686F6C64290D0A3F202863757216
:1009400072656E7420737461747573290D0A637413
:10095000726C2D7820287265736574204772626C02
:10096000290D0A000D0A4772626C20302E396A2068
:100970005B27242720666F722068656C705D0D0A06
:10098000005D0D0A00526573746F72696E672064B2
:10099000656661756C74730050676D20456E640008
:1009A000436865636B20446F6F72004469736162D2
:1009B0006C656400456E61626C65640043617574CA
:1009C000696F6E3A20556E6C6F636B656400272407
:1009D00048277C2724582720746F20756E6C6F631E
:1009E0006B00526573657420746F20636F6E746959
:1009F0006E7565005B000D0A0054656D70206C61BA
:100A000073657220746F6F206869676800436F6F49
:100A10006C616E74204F464600486F6D696E6720AA
:100A20006661696C0050726F6265206661696C0076
:100A300041626F727420647572696E6720637963B6
:100A40006C6500536F6674206C696D697400486151
:100A50007264206C696D697400414C41524D3A20BA
:100A6000000D0A00496E76616C69642067636F64EB
:100A7000652049443A00496E76616C6964206C6176
:100A800073657220706F77657200556E6465666974
:100A90006E65642066656564207261746500556EDC
:100AA000737570706F7274656420636F6D6D616EC5
:100AB00064004D6F64616C2067726F757020766999
:100AC0006F6C6174696F6E004C696E65206F76653E
:100AD00072666C6F7700486F6D696E67206E6F7419
:100AE00020656E61626C656400416C61726D206CA2
:100AF0006F636B004E6F742069646C6500454550F0
:100B0000524F4D2072656164206661696C2E2055DC
:100B100073696E672064656661756C7473005661F5
:100B20006C7565203C2033207573656300536574D4
:100B300074696E672064697361626C6564005661F4
:100B40006C7565203C203000496E76616C696420CC
:100B500073746174656D656E7400426164206E75B6
:100B60006D62657220666F726D61740045787065A4
:100B70006374656420636F6D6D616E64206C657471
:100B8000746572006572726F723A20006F6B0D0AA5
:100B9000000011241FBECFEFD1E2DEBFCDBF00E0C9
:100BA0000CBF12E0A0E0B2E0EEEAF7E700E00BBF16
:100BB00002C007900D92A030B107D9F72EE1A0E056
:100BC000B2E001C01D92AD39B207E1F70E94901466
:100BD0000C94D53B0C940000E2E0F1E080818F7D25
:100BE0008083109203020895E1E0F1E08081806249
:100BF00080830C94EC05823049F481E080930302F9
:100C00008091020180628093020108950C94EC05AA
:100C1000CF93DF931F92CDB7DEB79091721D9230C4
:100C200049F089830E94FB2189810F90DF91CF9148
:100C30000C94FB050F90DF91CF910895F999FECFA9
:100C400092BD81BD81E08FBB80B50895F894F9997C
:100C5000FECF92BD81BD81E08FBB40B54627842F7A
:100C6000992787FD9095262F30E082239323892BA7
:100C700039F06F3F19F060BD84E006C084E104C024
:100C8000442321F060BD84E28FBBF99A78940895E3
:100C90009F92AF92BF92CF92DF92EF92FF920F930B
:100CA0001F93CF93DF938C017A016B01C40ED51E85
:100CB000EB01912C5C01A61AB70ACE018A0D9B1D8F
:100CC000CC15DD0591F0911009C0692D772767FDDE
:100CD0007095272F221F2227221F01C021E0699132
:100CE000922E960E0E942606E8CF692DC8018E0D21
:100CF0009F1DDF91CF911F910F91FF90EF90DF909B
:100D0000CF90BF90AF909F900C9426069F92AF9289
:100D1000BF92CF92DF92EF92FF920F931F93CF93E8
:100D2000DF938B017A016C01C40ED51EEC01912C6E
:100D30005B01A81AB90AC5018C0F9D1FCC15DD05F2
:100D400091F00E941E06911009C0292D332727FD1E
:100D50003095232F221F2227221F01C021E0922E2F
:100D6000980E8993E8CFC8018E0D9F1D0E941E0624
:100D700021E030E0981611F020E030E0C901DF9169
:100D8000CF911F910F91FF90EF90DF90CF90BF9088
:100D9000AF909F90089580E4E7EFFCE1DF011D92A2
:100DA0008A95E9F76BE17DE180E00E9427298111B6
:100DB00003C087E00C940C22089565E77DE18FE085
:100DC0009DE10C94E2362F923F924F925F926F9288
:100DD0007F928F929F92AF92BF92CF92DF92EF92CB
:100DE000FF920F931F93CF93DF93CDB7DEB7AC97EE
:100DF0000FB6F894DEBF0FBECDBF9EA38DA38AE3CE
:100E0000E7E3FDE1DF011D928A95E9F78BE0E7EF6B
:100E1000FCE1A8E3BDE101900D928A95E1F71D8EFA
:100E2000212C312CA12CB12C19A2512C18A26624F2
:100E30006394712C57E0952E8824839464E0462EA9
:100E40008D8DEDA1FEA1E80FF11DB081BE8FBB23FA
:100E500009F48FC29E8D91549A3110F00C94E010D9
:100E60008F5F8D8FAE01475E5F4FBE01635E7F4F28
:100E70008DA19EA10E944C19882311F40C94E210BC
:100E8000C98CDA8CEB8CFC8CC701B6010E94403B0C
:100E90000E946338162F70E080E090E00E94913845
:100EA0009B01AC01C701B6010E94153720E030E07C
:100EB00048EC52E40E94723A0E94D53A0E9463388C
:100EC000BE8DB73421F0BD3409F442C191C118324E
:100ED00009F434C1E8F4143160F4113108F0D9C0D8
:100EE000143009F45CC008F490C01A30D9F10C94A5
:100EF000EE101C31B9F128F4163108F4F9C00C9445
:100F0000EE101E3179F1163209F47FC00C94EE1008
:100F10001D3309F40DC1A8F4153309F463C040F47E
:100F20001B3209F4EEC0113309F4EBC00C94EE103F
:100F30001C3310F00C94EE10165310933E1D09E074
:100F400002C11C3540F41A3508F0B2C0103509F45E
:100F50009CC00C94EE101C3529F01F3508F4BFC05E
:100F60000C94EE106115710531F4E8A1E1110C94B7
:100F7000E410F1E0F8A31C31A9F048F4143079F042
:100F80001A3009F0DDC082E08093371DD9C01533D7
:100F900049F11C3551F11E3109F0D2C012C08092C6
:100FA000371DCEC06115710541F06A30710511F031
:100FB0000C94EE104092371D0AC023E02093371D99
:100FC00006C06115710529F485E08093371D00E0A6
:100FD000CDC06A30710511F00C94EE1096E090933C
:100FE000371DF5CF9092371DABC06115710549F0E3
:100FF0006A30710511F00C94EE10B9E0B093371D12
:10100000E6CFA8E0A093371DE2CFE8A1E1110C9450
:10101000E410F2E0F8A3123089F028F4112359F01B
:10102000113081F08FC0163281F0103571F113301C
:1010300009F088C007C01092381D84C028A12093F1
:10104000381D80C01093381D7DC06E317105A1F030
:1010500040F46431710511F00C94EE104092381D8B
:1010600012C06832710561F06233710511F00C94A1
:10107000EE109092381D07C085E08093381D03C0A4
:1010800096E09093381D01E071C0A8E0A093381D50
:1010900059C0123129F0133131F010923C1D06C0B5
:1010A00080923C1D03C082E080933C1D02E04BC057
:1010B0006115710549F41A3519F410923B1D02C0EF
:1010C00080923B1D03E052C06A30710511F00C9410
:1010D000EE101A3511F40C94EE1004E047C01D35E3
:1010E00019F48092391D02C01092391D05E02BC001
:1010F000143119F480923A1D02C010923A1D06E094
:1011000022C0B8A1B1110C94E410113331F4109243
:101110003D1D08E0E3E0E8A329C06A30710511F045
:101120000C94EE1080923D1D08E0F3E0F8A31EC081
:10113000672B11F00C94EE100AE018C007E003C012
:1011400000E001C001E0672B89F087E10C940111F8
:10115000672BD9F71A30C8F01E3141F110F40C9406
:10116000EE101456123010F00C94EE10C301002E45
:1011700002C0880F991F0A94E2F79C012A213B21A3
:10118000232B99F185E10C940111183010F51330DF
:1011900020F0163078F00C94EE10123039F01E3139
:1011A00029F0111120C080923F1D1DC082E0809364
:1011B0003F1D19C0143029F0153039F08092411DBF
:1011C00006C082E08093411D02C01092411D0CE0D8
:1011D000CDCF193021F082E08093401D02C01092E3
:1011E000401D0DE0C3CF0BE0C1CFA82AB92A28CEFD
:1011F0002E8D822F992787FD9095A92FB92FFC015D
:10120000E654F109E531F10508F0E8C7EE58FF4F63
:101210000C94A13BC092431DD092441DE092451D09
:10122000F092461D00E07FC0C092471DD092481D3D
:10123000E092491DF0924A1D89A1816089A301E0D5
:1012400072C0C0924B1DD0924C1DE0924D1DF09289
:101250004E1D99A1926099A302E065C0C0924F1DF6
:10126000D092501DE092511DF092521DA9A1A46090
:10127000A9A303E058C01093531D04E054C0C70154
:10128000B6010E945E386093541D7093551D809383
:10129000561D9093571D05E046C0C092581DD09230
:1012A000591DE0925A1DF0925B1D06E03CC0C092B1
:1012B0005C1DD0925D1DE0925E1DF0925F1D07E007
:1012C00032C0C092601DD092611DE092621DF0920A
:1012D000631D08E028C0C092651DD092661DE09293
:1012E000671DF092681DB52DB1605B2E0AE01BC032
:1012F000C092691DD0926A1DE0926B1DF0926C1D28
:10130000E52DE2605E2E0BE00EC0C0926D1DD09206
:101310006E1DE0926F1DF092701DF52DF4605F2E32
:101320000CE001C009E0C301002E02C0880F991F24
:101330000A94E2F79F8F8E8F82219321892B09F0E7
:1013400045C781E693E0002E02C0959587950A94E3
:10135000E2F780FF09C020E030E0A901C701B60133
:101360000E94EF3787FD34C7AE8DBF8D2A2A3B2AF6
:1013700067CD552029F0E8A1E11102C0F2E0F8A301
:1013800025FE0EC08091541D9091551DA091561DB3
:10139000B091571D80389649A849B1050CF01AC77D
:1013A0008091391D813031F488A18230A1F520FE71
:1013B0001BC731C08091F81C81112DC020FE1BC0BD
:1013C00080913A1D813039F523E333E34BEC51E44E
:1013D0006091431D7091441D8091451D9091461D63
:1013E0000E94723A6093431D7093441D8093451D83
:1013F0009093461D10C08091061D9091071DA091ED
:10140000081DB091091D8093431D9093441DA09326
:10141000451DB093461D30FC10C08091021D909177
:10142000031DA091041DB091051D8093601D909334
:10143000611DA093621DB093631D8091371D8130A3
:1014400031F426FC02C08CE1DCC6E89426F88091D9
:101450003C1D882341F0813061F01AA6B2E0B9A7A3
:10146000E1E0EDA30BC092E09AA7A1E0A9A71DA21D
:1014700005C0F1E0FAA719A622E02DA380913A1D3C
:10148000813021F088A1833091F52AC035E6E32E22
:101490003DE1F32E00E010E0C52CD12CC601002E5A
:1014A00002C0959587950A94E2F780FF10C023E368
:1014B00033E34BEC51E4D7016D917D918D919C917B
:1014C0000E94723AF70160837183828393830F5F76
:1014D0001F4FF4E0EF0EF11C03301105F9F6D2CFE7
:1014E00080913D1D813019F424E0521275C68CE0C4
:1014F000EBE1FDE1DE011D9601900D928A95E1F789
:10150000B1FC09C08091371D8E8F8230B9F08830D0
:1015100009F4B0C015C180913E1D873010F08DE1F7
:1015200070C69091FD1C981769F3BE01635F7F4FF1
:101530000E942729882309F461C6E4CF511002C014
:101540008AE15FC6C10180759927892B09F47BCF99
:101550006091581D7091591D80915A1D90915B1D8D
:101560000E94403B0E9463386730C8F68091531D4B
:10157000843129F0823009F031C627FC2FC69FEA5A
:101580002922662319F061506E8F03C0A0913E1D81
:10159000AE8FBE016F5F7F4F8E8D0E9427298823FB
:1015A00009F42CC64090531D6090331D7090341D7B
:1015B0008090351D9090361DFE0131967F0195E695
:1015C000C92E9DE1D92E2FE0A22E2DE1B22E00E0F2
:1015D00010E0852D90E098A78FA38FA198A5002EED
:1015E00002C0959587950A94E2F780FF33C094E195
:1015F000491226C0D50158962D913D914D915C918F
:101600005B976D917D918D919C910E941537F601AC
:1016100020813181428153810E941537D7016D931A
:101620007D938D939C9313970230A1F4A4019301B1
:101630000E941537F70160837183828393830AC008
:10164000F60180819181A281B381F701808391832A
:10165000A283B3830F5F1F4FF4E0EF0EF11C24E071
:10166000C20ED11C84E0A80EB11C0330110509F094
:10167000B4CF0FC1552009F463CF6090331D709033
:10168000341D8090351D9090361D05E61DE18FE0DC
:10169000C82E8DE1D82E5E019DE0A90EB11CE12C73
:1016A000F12CA52DB0E0BF8FAE8F8E8D9F8D0E2CAF
:1016B00002C0959587950A94E2F780FF26C0F50150
:1016C0002081318142815381D6016D917D918D912F
:1016D0009C910E941537F80120813181428153810C
:1016E0000E941537D8016D937D938D939C9313972A
:1016F000B2E0EB1214C0A40193010E941537F80167
:1017000060837183828393830AC0F601808D918DFB
:10171000A28DB38DF80180839183A283B383FFEF01
:10172000EF1AFF0A0C5F1F4F24E0C20ED11C84E0A9
:10173000A80EB11C93E0E916F10409F0B6CFA8C0D9
:10174000A8A1A33059F4BE8DB53009F48FC0B730CD
:1017500009F499C0B33009F09BC080C0552099F3BB
:1017600040903B1D8090331D9090341DA090351DFE
:10177000B090361D0FE0C02E0DE1D02E05E61DE124
:101780003E01EDE06E0E711CE12CF12C852D90E0F8
:1017900098A78FA38FA198A50E2C02C09595879529
:1017A0000A94E2F780FD0BC0F60180819181A2814D
:1017B000B381F80180839183A283B3833EC0FE8D01
:1017C000F730D9F1411028C0D60158962D913D919E
:1017D0004D915C915B97F30160817181828193816E
:1017E0000E941637D8012D913D914D915C910E9438
:1017F0001637F8016083718382839383F2E0EF12DE
:101800001CC0A50194010E941637D8016D937D93E9
:101810008D939C93139711C0F601208131814281F1
:101820005381D8016D917D918D919C910E941637C5
:10183000F8016083718382839383FFEFEF1AFF0ABD
:1018400024E0C20ED11C0C5F1F4F84E0680E711C97
:1018500093E0E916F10409F09DCF75CF511001C056
:1018600018A2BE016F5F7F4F86E007C0511001C014
:1018700018A2BE016F5F7F4F87E00E94272988234F
:1018800009F4BCC405C08091381D823008F0A8C49A
:101890001E8E1091381D183041F4552009F4B2C144
:1018A000A8A1A13009F09EC489C2B8A1B23009F044
:1018B000A9C11123D9F020E030E0A9016091431DB6
:1018C0007091441D8091451D9091461D0E94EF37F7
:1018D000882309F489C4143028F4123058F41130E4
:1018E00029F06CC2183008F44CC168C2511066C2AD
:1018F00018A28BC1552009F423CEFDA1EF2FF0E0F3
:10190000F8A7EFA399A5892F90E09CA78BA781E06A
:1019100090E03C0109A402C0660C771C0A94E2F72F
:101920000DA002C0880F991F0A94E2F7682A792A4D
:10193000852D90E086219721892B09F457C4EE0F5D
:10194000FF1FEE0FFF1FE95CF24EAFA1B8A5AA0F73
:10195000BB1FAA0FBB1FA15FB24E2D913D914D91B0
:101960005C9166A577A580A991A90E9415376B01A6
:101970007C01EBA5FCA5EE0FFF1FEE0FFF1FE95C3E
:10198000F24EABA5BCA5AA0FBB1FAA0FBB1FA15F40
:10199000B24E2D913D914D915C9166A577A580A9A0
:1019A00091A90E9415374B015C0127FE40C0E894C5
:1019B00027F82091651D3091661D4091671D50915B
:1019C000681D60910F1D7091101D8091111D9091E7
:1019D000121D0E94EF3781111CC12091691D3091A9
:1019E0006A1D40916B1D50916C1D6091131D70918B
:1019F000141D8091151D9091161D0E94EF378111C5
:101A000008C120916D1D30916E1D40916F1D509148
:101A1000701D6091171D7091181D8091191D909176
:101A20001A1D0E94EF378111F4C081E2EAC3F9A1C7
:101A30004F2E512C64207520672809F4D9C321EF5B
:101A4000222280913A1D813009F456C00BA51CA5B5
:101A5000000F111F000F111F095B124ED8012D91AD
:101A60003D914D915C91C501B4010E9415372B0148
:101A70003C01AFA0B8A4AA0CBB1CAA0CBB1CF5016E
:101A8000E95BF24E5F012081318142815381C701C0
:101A9000B6010E941537A30192010E94091A6B0139
:101AA0007C01D8012D913D914D915C91F5016081B2
:101AB0007181828193810E94091A4B015C016093BC
:101AC0005C1D70935D1D80935E1D90935F1D9B0157
:101AD000AC01C701B6010E9415376B017C01E89487
:101AE000F7F82AE037ED43EA5BE3C701B6010E944D
:101AF000F23918164CF162C187E4682E8DE1782E18
:101B000000E010E0C201002E02C0959587950A946E
:101B1000E2F780FF10C023E333E34BEC51E4D30141
:101B20006D917D918D919C910E94723AF301608339
:101B30007183828393830F5F1F4FF4E06F0E711CDC
:101B400003301105F9F682CF20E030E040E05FE39A
:101B5000C701B6010E94F23918160CF466CF2FE6C1
:101B600032E143E85AE3C501B4010E94723A9B0195
:101B7000AC01C701B6010E94F23918160CF455CF1A
:101B80001DC1552009F4DCCC2091651D3091661DE6
:101B90004091671D5091681D60910F1D7091101D3F
:101BA0008091111D9091121D0E94EF37811106C185
:101BB0002091691D30916A1D40916B1D50916C1DE3
:101BC0006091131D7091141D8091151D9091161D2B
:101BD0000E94EF378111F2C020916D1D30916E1D72
:101BE00040916F1D5091701D6091171D7091181DCF
:101BF0008091191D90911A1D0E94EF37882309F4D6
:101C000014CFDCC028A12111D9C0C1018E7D9C7FD9
:101C1000D8C080913A1D8130B1F423E333E34BEC1B
:101C200051E460915C1D70915D1D80915E1D9091ED
:101C30005F1D0E94723A60935C1D70935D1D8093DE
:101C40005E1D90935F1D40905C1D50905D1D6090E7
:101C50005E1D70905F1D20E030E040E850E4C3015D
:101C6000B2010E94723AA30192010E94723A2B01C2
:101C70003C01A7019601C701B6010E94723A9B017F
:101C8000AC01C301B2010E9415372B013C01A50133
:101C90009401C501B4010E94723A9B01AC01C301D9
:101CA000B2010E9415372B013C0120E030E0A90170
:101CB0000E94EF3787FDA4C2C301B2010E94FF3A20
:101CC0002B013C01A5019401C701B6010E94091A2C
:101CD0009B01AC01C301B20190580E94F6372B0161
:101CE0003C018091381D833021F477FA709477F8A5
:101CF000709480915C1D90915D1DA0915E1DB091CE
:101D00005F1D89A39AA3ABA3BCA320E030E0A90187
:101D1000BC01CD010E94EF3787FF11C077FA7094A4
:101D200077F8709489A19AA1ABA1BCA1B058809317
:101D30005C1D90935D1DA0935E1DB0935F1D0FA170
:101D400018A5000F111F000F111F095B124EA301F0
:101D50009201C501B4010E94723A9B01AC01C70116
:101D6000B6010E94153720E030E040E05FE30E94BA
:101D7000723AD8016D937D938D939C9313970BA525
:101D80001CA5000F111F000F111F095B124EA301AC
:101D90009201C701B6010E94723A9B01AC01C501D4
:101DA000B4010E94163720E030E040E05FE30E947B
:101DB000723AF8016083718382839383C1018E7DBF
:101DC000907E892B09F016C28091541D9091551D6B
:101DD000A091561DB091571D80930B1D90930C1D23
:101DE000A0930D1DB0930E1D8091391D8093F81C9A
:101DF0008091431D9091441DA091451DB091461DB9
:101E00008093061D9093071DA093081DB093091D94
:101E1000C090601DD090611DE090621DF090631D28
:101E2000A70196016091021D7091031D8091041D10
:101E30009091051D0E94EF378823C1F08091001D0D
:101E4000882321F0B701A6010E940E2B8091601D0E
:101E50009091611DA091621DB091631D8093021D40
:101E60009093031DA093041DB093051D8091641DE4
:101E700080930A1D8091411D9091001D981771F06B
:101E80004091021D5091031D6091041D7091051D2C
:101E90000E940E2B8091411D8093001D8091401D5A
:101EA0009091FF1C981731F00E9408068091401D08
:101EB0008093FF1C8091371D813051F46091581D33
:101EC0007091591D80915A1D90915B1D0E941318AD
:101ED00080913C1D8093FB1C80913A1D8093F91CDE
:101EE00088A18330F9F480913D1D8093FC1C8130E2
:101EF00089F480916D1D90916E1DA0916F1DB09120
:101F0000701D8093331D9093341DA093351DB093A5
:101F1000361D08C01092331D1092341D1092351DCD
:101F20001092361D80913E1D9091FD1C981759F01E
:101F30008093FD1C8CE0FE013D96ABE1BDE101907C
:101F40000D928A95E1F780913B1D8093FA1C809158
:101F5000371D90E0FC013297E830F10508F04BC0E6
:101F6000E957FF4F0C94A13BBE016F5F7F4F8E8DF1
:101F70000E94D4278091FD1C9E8D89133CC08CE06B
:101F8000FE013196ABE1BDE11AC0A8A1AA2349F038
:101F900020E040E050E060E87FEB85E69DE10E94B4
:101FA000C61420E040E050E060E87FEBCE010196EF
:101FB0000E94C6148CE0FE013196AFE0BDE10190B5
:101FC0000D928A95E1F717C06FE07DE186E003C0CE
:101FD0006FE07DE187E00E94D4270DC08CE0E5E64C
:101FE000FDE1A7E2BDE1EBCF8CE0E7E2FDE1DF013F
:101FF0001D928A95E9F78091381D8093F71C8830EF
:1020000009F498C0B8A1B23009F094C090E08830CB
:10201000910508F086C0FC01E157FF4F0C94A13BED
:1020200020E040E050E060E87FEB0AC04091061DF0
:102030005091071D6091081D7091091D2091F81C99
:1020400085E69DE10E94C6146CC0C090061DD0902C
:10205000071DE090081DF090091D00915C1D109176
:102060005D1D20915E1D30915F1D81E08F93EAA57B
:10207000EF93F9A5FF9315C0C090061DD090071DE2
:10208000E090081DF090091D00915C1D10915D1DF0
:1020900020915E1D30915F1D1F928AA58F9399A597
:1020A0009F938DA0A090F81C47E45DE165E67DE17B
:1020B0008FE09DE10E9414150F900F900F9031C09A
:1020C0004091061D5091071D6091081D7091091DDA
:1020D000E12C0AC04091061D5091071D6091081D1A
:1020E0007091091DEE24E39400E015C04091061D97
:1020F0005091071D6091081D7091091DE12C0AC0C7
:102100004091061D5091071D6091081D7091091D99
:10211000EE24E39401E02091F81C85E69DE10E9405
:1021200085188CE0E5E6FDE1AFE0BDE101900D92A0
:102130008A95E1F780913F1D8093FE1C882309F466
:102140005BC00E94FB219091FE1C8091721D91301A
:1021500069F4823091F19FB7F89480910102886010
:10216000809301029FBF0E944C2027C091E0909372
:10217000F71C1092FB1C1092FA1C1092F81C109283
:10218000FD1C1092001D1092FF1C823099F0BE01C0
:10219000635F7F4F80E00E942729882379F18CE0DC
:1021A000FE013D96ABE1BDE101900D928A95E1F70C
:1021B0000E94942A87E00E948D221092FE1C1CC06F
:1021C00081E01FC082E01DC088E11BC089E119C009
:1021D00084E017C08BE115C085E213C084E111C013
:1021E0008EE10FC08FE10DC086E10BC080E209C017
:1021F00083E207C084E205C080E003C087E001C03D
:1022000082E2AC960FB6F894DEBF0FBECDBFDF9171
:10221000CF911F910F91FF90EF90DF90CF90BF90E3
:10222000AF909F908F907F906F905F904F903F9076
:102230002F9008958091AA009091AB000895CF92BD
:10224000DF92EF92FF9280E00E94083710920A021C
:1022500010920B0210920C0210920D0210920902C1
:10226000809109028A3060F5C0900A02D0900B027A
:10227000E0900C02F0900D0280E00E940837BC0153
:10228000882777FD8095982F0E9491389B01AC019B
:10229000C701B6010E94163760930A0270930B02C1
:1022A00080930C0290930D028FE39CE90197F1F764
:1022B00000C00000809109028F5F80930902D0CF97
:1022C00020E030E040E251E460910A0270910B029C
:1022D00080910C0290910D020E94F6379B01AC0197
:1022E00060E070EC8FE794E40E94F63720E030E085
:1022F00040E85FE30E9415379B01AC0160E078E3A2
:102300008AE196E40E94F63760930A0270930B020A
:1023100080930C0290930D0220E030E44CE156E4EF
:102320000E94F6370E94023A20E030EE46E755E47C
:102330000E94F6372FE03FEC4BE55BE30E94163737
:102340009B01AC0160E070E080E89FE30E94F637FB
:1023500023E333E948E853E40E941537609305020C
:10236000709306028093070290930802FF90EF900B
:10237000DF90CF900895EBE6F0E080818F78808346
:10238000E8E6F0E080818E7F8083089584B18F78C5
:1023900084B985B1806785B980918D1E83FF0BC09C
:1023A00080916B00806780936B00809168008160F2
:1023B0008093680008950C94BB11CF92DF92FF9236
:1023C0000F931F93CF93DF931F92CDB7DEB793B1D7
:1023D000907780918D1E86FD02C080E79827992313
:1023E000D9F0C12CD12CF12C01E010E08C2D998377
:1023F0000E948A2A9981892339F098010C2C01C006
:10240000220F0A94EAF7F22A8FEFC81AD80AE3E0FB
:10241000CE16D10459F701C0F12C8F2D0F90DF910A
:10242000CF911F910F91FF90DF90CF9008951F9251
:102430000F920FB60F9211240BB60F922F933F936A
:102440004F935F936F937F938F939F93AF93BF93BC
:10245000EF93FF938091721D813071F080910002A3
:1024600081110AC00E9423199FB7F894809100023D
:102470008360809300029FBFFF91EF91BF91AF9166
:102480009F918F917F916F915F914F913F912F918C
:102490000F900BBE0F900FBE0F901F9018952F92AC
:1024A0003F924F925F926F927F928F929F92AF92E4
:1024B000BF92CF92DF92EF92FF920F931F93CF9331
:1024C000DF93CDB7DEB767970FB6F894DEBF0FBEC8
:1024D000CDBF582E8091711D8111A1C124E7A22E7C
:1024E0002EE1B22E9E01235F3F4F190100E010E064
:1024F000C12CD12C7601652C712C802F0E94762A5C
:10250000D1018D931D01C301002E02C095958795C1
:102510000A94E2F780FF1AC020E030E040EC5FEB65
:10252000F50160817181828193810E94723A688B8A
:10253000472E4C01262F372FAC01C701B6010E9450
:10254000F23918161CF0C888D42C74010F5F1F4F85
:10255000F4E0AF0EB11C0330110579F68090931EA4
:102560009090941EA090951EB090961E24E0288B0B
:1025700001E065E77DE1CE0101960E94E236209000
:102580008E1E312CFE01319685E79DE19F8B8E8B4F
:1025900080E090E0412C10E0B701A6017058930153
:1025A000082E02C0359527950A94E2F720FF28C02F
:1025B0004394AE89BF891D921D921D921C92139760
:1025C0009101082E02C0359527950A94E2F720FF65
:1025D00003C0002319F007C0002329F0C082D18274
:1025E000E282F38204C040835183628373832DE0CF
:1025F00030E02C0F3D1F280F391FD9012C91122BD1
:10260000019634962E893F892C5F3F4F3F8B2E8B4E
:102610008330910521F6642D70E080E090E00E9407
:102620008F380E94FF3A9B01AC01C501B4010E94A2
:10263000723AAB01BC0110938E1D4A8B5B8B6C8B85
:102640007D8B0E949A1E20E04A895B896C897D8976
:10265000CE0101960E94A11B0E94832E0E94362B60
:102660000023E9F00E94DD11FE013D9620E030E0FC
:1026700090E06191462F412359F0AC01022E02C037
:10268000559547950A94E2F740FF02C060951623DE
:102690002F5F3F4F2330310561F710938E1D0E944D
:1026A000832E809101028473C1F0809101028073B6
:1026B00029F00E9423190E944C20B1C00111AAC028
:1026C0000E94DD118521A9F79FB7F894809101023E
:1026D0008B7F809301029FBF04C0812F8C7109F012
:1026E000BFCF0E940F2E0E944A1B8091971E90918F
:1026F000981E0E94FE1931E00327C9F020E030E067
:1027000040EA50E46091991E70919A1E80919B1E40
:1027100090919C1E0E94723A6B017C0180908F1EEA
:102720009090901EA090911EB090921E10C0C090EC
:10273000991ED0909A1EE0909B1EF0909C1E809057
:10274000931E9090941EA090951EB090961E88891E
:102750008150888B81110DCF80918E1EA82FB0E003
:10276000B98BA88BC090991ED0909A1EE0909B1EAA
:10277000F0909C1E1601270157FA509457F8509478
:1027800080E5A82E8EE1B82E95E7892E9DE1992E41
:1027900000E010E0C301002E02C0959587950A94D1
:1027A000E2F780FF29C088899989002E02C095959B
:1027B00087950A94E2F7F50180FF0EC024A135A1A8
:1027C00046A157A1C701B6010E941637D5012D9128
:1027D0003D914D915C9106C02081318142815381B0
:1027E000C201B1010E94723A0E94423AD4016D9333
:1027F0007D938D939C9313970F5F1F4FB4E08B0EC7
:10280000911CE4E0AE0EB11C0330110519F60E94D4
:102810009A1E05C08091010282FF56CF4ACF67966B
:102820000FB6F894DEBF0FBECDBFDF91CF911F91E1
:102830000F91FF90EF90DF90CF90BF90AF909F905F
:102840008F907F906F905F904F903F902F90089562
:10285000BF92CF92DF92EF92FF920F931F93CF938D
:10286000DF938C01C4E7DEE1BB24B394F801C1908F
:10287000D190E190F1908F0120E030E0A901C701F3
:10288000B6010E94F23918164CF0288139814A812C
:102890005B81C701B6010E94EF3787FDB092741DBE
:1028A0008091741D882361F18091721D8830A9F098
:1028B0000E9423199FB7F89480910002856080934D
:1028C00000029FBFDF91CF911F910F91FF90EF907A
:1028D000DF90CF90BF900C944C209FB7F8948091DC
:1028E00001028860809301029FBF0E944C2080916A
:1028F000711D81110BC08091721D8111F6CFD8CF4F
:102900002496FEE1C038DF0709F0B0CFDF91CF9108
:102910001F910F91FF90EF90DF90CF90BF9008959F
:102920000E94E9260E94692A0E943B2E0E94CE3412
:102930008EE1E1E7FDE1DF011D928A95E9F781E093
:102940008093711D78940E94BF270E94CB060E943D
:10295000FC360E94A62A0E94F4050E94C6110E941D
:1029600010200E944A1B0E940F2E0E949A1E0E9455
:10297000DD061092711D1092010210920002109259
:10298000731D1092741D0E947821DDCFEF92FF928B
:102990001F93CF93DF9300D01F92CDB7DEB77C019A
:1029A000122F80918D1E85FF0BC0C70149835A836A
:1029B0006B837C830E9428147C816B815A814981BE
:1029C0008091721D823031F149835A836B837C83FD
:1029D0000E944C208091711D81111CC00E94991B86
:1029E00049815A816B817C81882339F00E946F2153
:1029F00049815A816B817C81E7CF212FC7010F90DC
:102A00000F900F900F90DF91CF911F91FF90EF905B
:102A10000C94A11B0F900F900F900F90DF91CF910E
:102A20001F91FF90EF9008952F923F924F925F92E7
:102A30006F927F928F929F92AF92BF92CF92DF92CE
:102A4000EF92FF920F931F93CF93DF93CDB7DEB733
:102A5000E7970FB6F894DEBF0FBECDBF9C8B8B8B74
:102A60001B013A0109871A872B873C87AF8A2E966C
:102A70001FAD2E972F962FAD2F97298B60963FADC8
:102A800060973D8B84E0889EA00111245A8349837E
:102A9000AB89BC89A40FB51FB98FA88F460D571DF0
:102AA0005B8F4A8FFA0180809180A280B3802D9144
:102AB0003D914D915C91C501B4010E9416376C8F18
:102AC0007D8F8E8F9F8FF4E01F9F800111242B89B3
:102AD0003C89200F311F39A328A3A301400F511FA8
:102AE0005BA34AA3DA014D905D906D907C90F90153
:102AF0002081318142815381C301B2010E94163786
:102B00006CA37DA38EA39FA3A501940150582D878C
:102B10003E874F87588BD301C201B0588D839E8367
:102B2000AF83B887E981FA81E20DF31D2C8D3D8DCD
:102B30004E8D5F8D60817181828193810E941537F6
:102B40002B013C01F101E00FF11F2CA13DA14EA191
:102B50005FA160817181828193810E9415374B0151
:102B60005C01A30192016D857E858F8598890E9405
:102B7000723A69837A838B839C83A50194016D816A
:102B80007E818F8198850E94723A9B01AC01698198
:102B90007A818B819C810E94163769837A838B832B
:102BA0009C83A50194016D857E858F8598890E94FF
:102BB000723A4B015C01A30192016D817E818F818C
:102BC00098850E94723A9B01AC01C501B4010E9434
:102BD000153729813A814B815C810E9489372B010D
:102BE0003C019D89992399F02DEB37E346E055EBA5
:102BF000C301B2010E94F23987FD1DC02BED3FE0F9
:102C000049EC50E4C301B2010E94153712C02DEB0C
:102C100037E346E055E3C301B2010E94EF371816CF
:102C200054F02BED3FE049EC50E4C301B2010E94A7
:102C300016372B013C018090891E90908A1EA0902F
:102C40008B1EB0908C1E29853A854B855C85CA0108
:102C5000B9010E941637A50194010E9415379B0106
:102C6000AC01C501B4010E94723A0E94FF3A4B01C7
:102C70005C0120E030E040E05FE3C301B2010E946C
:102C8000723A29853A854B855C850E94723A9F7716
:102C9000A50194010E94F6370E94CC380E94633847
:102CA0007E8B6D8BDB01AB2B09F486C14B01A12C14
:102CB000B12CBF89BB2361F0C501B4010E948F38DC
:102CC0009B01AC01C701B6010E94723A6B017C0105
:102CD000C501B4010E948F384B015C019B01AC011E
:102CE000C301B2010E94F63769877A878B879C8778
:102CF000F989E4E0FE9FC00111242B893C89280F4B
:102D0000391F3A8B298BF101E80FF91FD9012D9159
:102D10003D914D915C9160817181828193810E948E
:102D20001537A50194010E94F6376CAB7DAB8EABD5
:102D30009FAB29853A854B855C85CA01B9010E9404
:102D4000723A9B01AC0160E070E080E090E40E9488
:102D500015374B015C012BEA3AEA4AE25EE36985EA
:102D60007A858B859C850E94723A2B013C0120E07C
:102D700030E040E850E4C501B4010E9416379B01E1
:102D8000AC01C301B2010E94723A68A779A78AA771
:102D90009BA720E030E040E05FE3C501B4010E9462
:102DA000723A6CA77DA78EA79FA7198201E010E059
:102DB000ED89FE890E171F0709F4FEC0B981BC30EA
:102DC00008F04AC02CA53DA54EA55FA56D817E816A
:102DD0008F8198850E94723A4B015C0128A539A524
:102DE0004AA55BA56D857E858F8598890E94723A7C
:102DF000A50194010E941637B62EA72E982E892E73
:102E00002CA53DA54EA55FA56D857E858F859889EE
:102E10000E94723A2B013C0128A539A54AA55BA561
:102E20006D817E818F8198850E94723A9B01AC01F1
:102E3000C301B2010E9415376D877E878F87988BFB
:102E4000E981EF5FE9838B2D9A2DA92DB82D8D8314
:102E50009E83AF83B8876EC0B80180E090E00E9487
:102E60008F3829853A854B855C850E94723A4B01E3
:102E70005C010E94F3376D837E838F839887C50141
:102E8000B4010E94F53A4B015C01EA8DFB8D808113
:102E90009181A281B3819C01AD01505829833A836D
:102EA0004B835C83AAA1BBA18D919D910D90BC9198
:102EB000A02D88AB99ABAAABBBAB2D813E814F81D6
:102EC000588569817A818B819C810E94723A2B019D
:102ED0003C01A501940168A979A98AA99BA90E942E
:102EE000723A9B01AC01C301B2010E9416376D8793
:102EF0007E878F87988BA501940169817A818B8168
:102F00009C810E94723A4B015C012D813E814F8170
:102F1000588568A979A98AA99BA90E94723A9B0140
:102F2000AC01C501B4010E9415376D837E838F8388
:102F3000988719822D853E854F8558896C8D7D8DAA
:102F40008E8D9F8D0E941637E88DF98D6083718379
:102F5000828393832D813E814F8158856CA17DA111
:102F60008EA19FA10E941637A8A1B9A16D937D9350
:102F70008D939C9313972CA93DA94EA95FA9E9892C
:102F8000FA8960817181828193810E941637A989B3
:102F9000BA896D937D938D939C9313972F89B70175
:102FA000A6018B899C890E94C6148091711D811194
:102FB00021C00F5F1F4FFCCE2F89B701A601C101B1
:102FC000E7960FB6F894DEBF0FBECDBFDF91CF916D
:102FD0001F910F91FF90EF90DF90CF90BF90AF9037
:102FE0009F908F907F906F905F904F903F902F9029
:102FF0000C94C614E7960FB6F894DEBF0FBECDBF93
:10300000DF91CF911F910F91FF90EF90DF90CF90C4
:10301000BF90AF909F908F907F906F905F904F90F8
:103020003F902F9008958F929F92AF92BF92CF9230
:10303000DF92EF92FF924B015C018091721D823012
:1030400009F447C020E030E040EA51E4C501B40192
:103050000E94723A0E94CC380E9463386B017C0156
:103060000E94FB2120E030E04AE754E4C501B401AE
:103070000E94723A4B015C0182E38C9DB0018D9DF0
:10308000700D112480E090E00E948F389B01AC010C
:10309000C501B4010E9415370E94CC380E946338E4
:1030A000CB010E94FE19C114D10499F00E944C205A
:1030B00021E0C21AD1088091711D81110AC08FEFE1
:1030C00090E722E0815090402040E1F700C00000EE
:1030D000EACFFF90EF90DF90CF90BF90AF909F909E
:1030E0008F9008950E94BB1184E00E944F1283E0EC
:1030F0000E944F120E944C208091711D811104C0CA
:103100000E94DD060C94C6110895CF92DF92EF92D3
:103110000F93CF93DF9300D01F921F92CDB7DEB7EE
:103120006C018091721D823009F481C02D83498326
:103130005A836B837C830E94FB2110928D1D802F0C
:103140000E941B200E942C202D8149815A816B8175
:103150007C818823A1F09FB7F89480910002806160
:10316000809300029FBF2D8349835A836B837C83A6
:103170000E944C207C816B815A8149812D818091F4
:10318000711D811154C0C6010E94C61481E0809354
:1031900002029FB7F894809101028260809301023D
:1031A0009FBF0E944C208091711D811140C0809171
:1031B000721D8111F6CF809102028130A9F4EE20B8
:1031C00051F08CE0E5E7FDE1A1E8BDE101900D9251
:1031D0008A95E1F70CC09FB7F89480910002806156
:1031E000809300029FBF03C081E080938D1D1092E9
:1031F00002020E944C208091711D811118C00E9412
:103200000F2E0E944A1B0E949A1E65E77DE1C601AF
:103210000E94E2360F900F900F900F900F90DF9169
:10322000CF910F91EF90DF90CF900C942D240F90C1
:103230000F900F900F900F90DF91CF910F91EF9023
:10324000DF90CF9008958091010284FD24C09FB744
:10325000F894809101028061809301029FBF0E94D7
:10326000942A8091721D982F9C7021F49091731D67
:10327000913089F49FB7843029F4F894809100024A
:10328000806204C0F89480910002886080930002FC
:103290009FBF0C945C2B08956F927F928F929F92A8
:1032A000AF92BF92CF92DF92EF92FF920F931F9354
:1032B000CF93DF937C018B016A01FB018081F701D1
:1032C000E80FF11D2081EF012D3229F42296218192
:1032D0006624639407C02B3211F0219602C0229617
:1032E0002181612CA12CB12C712C60E070E0CB010C
:1032F000FE0130ED932E920E29E02915C8F0B3940B
:1033000028E02B1588F0A1107A94A5E0B0E09B018D
:10331000AC010E94A73B660F771F881F991F690D9C
:10332000711D811D911D0BC0A11009C0739407C0B0
:103330002EEF921207C0A11005C0AA24A3942196D3
:103340002081D6CFBB2009F449C00E948F384B01A1
:103350005C0120E030E0A9010E94EF37882361F191
:103360008FEF78166CF42AE037ED43E25CE3C50199
:10337000B4010E94723A4B015C0173947394F0CFD4
:1033800078120BC02DEC3CEC4CEC5DE3C501B401B4
:103390000E94723A4B015C010FC0772069F020E077
:1033A00030E040E251E4C501B4010E94723A4B01A1
:1033B0005C017A9417149CF3662021F0B7FAB0945C
:1033C000B7F8B094F60180829182A282B382CE19BE
:1033D000DF09C150F801C08381E001C080E0DF91C6
:1033E000CF911F910F91FF90EF90DF90CF90BF9002
:1033F000AF909F908F907F906F900895009741F0CD
:10340000EFE9FFE03197F1F700C000000197F6CF38
:1034100008958F929F92AF92BF92CF92DF92EF92D8
:10342000FF9269017A019B01AC010E94723A4B0143
:103430005C01A7019601C701B6010E94723A9B0187
:10344000AC01C501B4010E941637FF90EF90DF90E8
:10345000CF90BF90AF909F908F900C94FF3A4F9277
:103460005F926F927F928F929F92AF92BF92CF9214
:10347000DF92EF92FF920F931F93CF93DF93109100
:103480002C02111101C016E9115000912A021017E7
:1034900009F4EFC089E2189FE0011124C25DDD4FFD
:1034A0008D889E88AF88B88C69A17AA18BA19CA1D8
:1034B0009B01AC010E9416372DA13EA14FA158A53A
:1034C0000E94723A6B017C019B01AC01B401C50101
:1034D0000E94EF3787FF02C064017501A601B701A2
:1034E000498B5A8B6B8B7C8B111101C016E97724A9
:1034F0007A94710E701619F029E2622E27C080911D
:103500002D02081351C00E94612E4EC0679C80019D
:103510001124025D1D4F711002C096E9792E7A9434
:1035200080912D02781202C00E94612EF801C58898
:10353000D688E788F08CA701960161897289838912
:1035400094890E94EF37811106C0E80180912A0218
:103550007812DCCF29C0F80161A172A183A194A1E6
:103560009B01AC010E941637F80125A136A147A1A5
:1035700050A50E94723A29893A894B895C890E9438
:1035800016374B015C01A70196010E94EF37F80145
:1035900087FF05C0818A928AA38AB48AD6CFC18A5E
:1035A000D28AE38AF48AD1CF60902A02F9E26F9E30
:1035B00080011124025D1D4F77247394760C86E9F7
:1035C000781201C0712C50902C0289E2482E75149B
:1035D00009F44DC0479CE0011124C25DDD4FF801A4
:1035E00081889288A388B488C988DA88EB88FC88A7
:1035F000A7019601C501B4010E94EF3787FF23C0E0
:10360000F80161A172A183A194A19B01AC010E9468
:103610001637F80125A136A147A150A50E94723A9C
:103620009B01AC01C501B4010E9416374B015C013E
:10363000A70196010E94EF3787FF05C0898A9A8A01
:10364000AB8ABC8A672C2D893E894F89588D698940
:103650007A898B899C890E94EF37811101C0672C80
:103660007394F6E97F1201C0712C8E01B0CF609285
:103670002A02DF91CF911F910F91FF90EF90DF9081
:10368000CF90BF90AF909F908F907F906F905F9002
:103690004F9008958CE1EEE0F2E0DF011D928A95F3
:1036A000E9F710922D0210922C0281E080932B02F8
:1036B00010922A02089590912D0280912C02891770
:1036C00069F081E0890F863909F480E020912A02AF
:1036D000921302C080932A0280932D020895809154
:1036E0002D0290912C02981739F029E2829FC00197
:1036F0001124825D9D4F089580E090E00895E0914F
:103700002D02EF5FE63909F4E0E080912C02E81722
:1037100061F089E2E89FF0011124E25DFD4F6189CB
:103720007289838994890C94FF3A60E070E0CB0140
:10373000089581E020912D0290912B02291380E0C1
:1037400008952F923F924F925F926F927F928F9245
:103750009F92AF92BF92CF92DF92EF92FF920F9320
:103760001F93CF93DF93CDB7DEB7AD970FB6F89425
:10377000DEBF0FBECDBF142F052F6B8F7C8F822E27
:1037800020912C0239E2239F10011124F101E25D06
:10379000FD4F1F01158616861786108A15A216A2E0
:1037A00017A210A6108249E956E766E97EE741A311
:1037B00052A363A374A35C0140E5E42E4EE1F42E12
:1037C0009E01235F3F4F38A32F8F8EE092E09E8FA4
:1037D0008D8F6F01FE013196FAA3E9A3912CF501BB
:1037E00061917191819191915F01F7012081318106
:1037F000428153810E94723A0E94423AEF8DF8A1B1
:103800006193719381939193F8A3EF8FED8DFE8D6A
:103810004190519061907190FE8FED8F6419750900
:10382000860997092B013C0197FF07C044245524C2
:103830003201461A570A680A790AF6014182528211
:1038400063827482F1012585368547855089421649
:1038500053066406750610F429013A01F101458604
:1038600056866786708A0E949138F70120813181DF
:10387000428153810E94F6372B013C01E9A1FAA154
:103880006193719381939193FAA3E9A320E030E0CF
:10389000A9010E94EF3787FF0AC0F1019081892DAD
:1038A0009DA70E94802A9DA5892BF1018083A301F9
:1038B0009201C301B2010E94723AF10125A136A121
:1038C00047A150A50E941637F10165A376A387A3EF
:1038D00090A79394F4E0EF0EF11C24E0C20ED11CEB
:1038E00033E093127CCF0E94FF3A6B017C01F1011F
:1038F00065A376A387A390A785859685A785B089BC
:10390000892B8A2B8B2B09F4FCC120E030E0A90124
:10391000612F702F8B8D9C8D0E94EF3787FD21C00A
:10392000882061F0A7019601612F702F8B8D9C8DEF
:103930000E94723A162F072F8B8F9C8F20E030E069
:1039400040E85FE3612F702F8B8D9C8D0E94EF37D5
:1039500087FF0DC010E000E030E83B8F8FE38C8FD5
:1039600006C019E906E7F6E9FB8F2EE72C8FA701C1
:10397000960160E070E080E89FE30E94F63769A757
:103980007AA78BA79CA7EAE1F2E0FAA3E9A32CE5CA
:103990003EE138A32F8FCE010D969A8F898FFE01BD
:1039A0003196FE8FED8FC12CD12C7601ED8DFE8DE1
:1039B00080809180A280B38020E030E0A901C50121
:1039C000B4010E94EF37882309F47FC029A53AA5E6
:1039D0004BA55CA5C501B4010E94723A4B015C0184
:1039E000ED8DFE8D60837183828393839B01AC0197
:1039F00060E070E080E89FE30E94F6372B013C0115
:103A0000E89477F8EF8DF8A12081318142815381CC
:103A1000C301B2010E94723A6BA37CA38DA39EA343
:103A20009B01AC01612F702F8B8D9C8D0E94EF3715
:103A300087FF06C01BA30CA3FB8DFDA32C8D2EA31B
:103A4000F101F1A1FB8FF101F2A1FC8FF101F3A1D2
:103A5000FFA3F101F4A1F8A7EF8DF8A12485358526
:103A600046855785C301B2010E94723A3B018C0121
:103A70009B01AC016B8D7C8D8FA198A50E94EF37C7
:103A800087FF04C06B8C7C8C0FA118A5C301D801E3
:103A9000F10181A392A3A3A3B4A3E9A1FAA1208178
:103AA000318142815381C501B4010E94723A9B0168
:103AB000AC01C701B6010E9415376B017C011BA147
:103AC0000CA1FDA1FB8F2EA12C8F8D8D9E8D0496B8
:103AD0009E8F8D8FE9A1FAA13496FAA3E9A32F8DC9
:103AE00038A12C5F3F4F38A32F8FE98DFA8D8E17A9
:103AF0009F0709F05BCF90912C0280912D029813C3
:103B000006C0F101118A128A138A148A0BC02FEEA3
:103B10003FEF4FE75FE3C701B6010E94F239181685
:103B200034F4F101118E128E138E148E5BC02FEEC1
:103B30003FEF4FE75FEBC701B6010E94F23918165D
:103B400044F03FEEC32EDD24DA943FE7E32E3FEB53
:103B5000F32EA701960160E070E080E89FE30E94E9
:103B6000153720E030E040E05FE30E94723A0E94A7
:103B7000FF3A6B017C012091851E3091861E409199
:103B8000871E5091881EF10161A172A183A194A1A9
:103B90000E94723AA70196010E94723A4B015C01A1
:103BA000A701960160E070E080E89FE30E9415376E
:103BB0009B01AC01C501B4010E94F6376B017C0189
:103BC00020E030E0A9010E94EF3787FF04C0C12C3C
:103BD000D12CE12CF12CA601B701F101418F528FBC
:103BE000638F748F212F302F4B8D5C8D612F702F41
:103BF0008B8D9C8D0E94723A162F072FF82EE92E7E
:103C0000862F902FAF2DBE2DF101858F968FA78F18
:103C1000B0A3A18CB28CC38CD48C6090260270901F
:103C2000270280902802909029029301A401612F1D
:103C3000702F8F2D9E2D0E94EF3787FD0BC09301B3
:103C4000A401B501C6010E94EF3787FD11C05301E1
:103C500064010EC0212F302F4F2D5E2DB501C601FE
:103C60000E94EF3787FD04C0A12EB02ECF2CDE2C92
:103C7000C501D601F101858B968BA78BB08F8CE0A7
:103C8000FE013196AAE1B2E001900D928A95E1F72A
:103C9000812F902FAF2DBE2D809326029093270267
:103CA000A0932802B09329028CE0FE013D96AEE07D
:103CB000B2E001900D928A95E1F780912B028093FA
:103CC0002C028F5F863909F480E080932B02AD9639
:103CD0000FB6F894DEBF0FBECDBFDF91CF911F911D
:103CE0000F91FF90EF90DF90CF90BF90AF909F909B
:103CF0008F907F906F905F904F903F902F900C949B
:103D00002F1AAD960FB6F894DEBF0FBECDBFDF9170
:103D1000CF911F910F91FF90EF90DF90CF90BF90C8
:103D2000AF909F908F907F906F905F904F903F905B
:103D30002F9008958091751D9091761DA091771D0B
:103D4000B091781D80930E0290930F02A093100201
:103D5000B09311028091791D90917A1DA0917B1DE5
:103D6000B0917C1D8093120290931302A0931402D1
:103D7000B093150280917D1D90917E1DA0917F1DB5
:103D8000B091801D8093160290931702A0931802A1
:103D9000B0931902089580912C0290912D028917F9
:103DA00008F48A56891B08950E94612E80912D0285
:103DB00080932A020C942F1ACF93DF93EC01899100
:103DC000882319F00E94FF26FACFDF91CF91089542
:103DD000CF93DF93FC018491EF012196882321F09A
:103DE0000E94FF26FE01F7CFDF91CF910895EF9259
:103DF000FF920F931F93CF93DF931F92CDB7DEB740
:103E0000262FEDB6FEB66DB77EB7641B71090FB6EF
:103E1000F8947EBF0FBE6DBF0DB71EB70F5F1F4F6B
:103E2000302FF8019E2F931B941728F4622F0E94C5
:103E30005F3B9193F7CF442361F0F801E40FF11D4C
:103E400031978081805D49830E94FF2649814150DE
:103E5000F2CF0FB6F894FEBE0FBEEDBE0F90DF910D
:103E6000CF911F910F91FF90EF90089548E062E08D
:103E70000C94F71E8A3020F0843620F442E003C010
:103E800041E001C043E06AE00C94F71E8F929F92DC
:103E9000AF92BF92CF92DF92EF92FF920F931F9358
:103EA000CF93DF93CDB7DEB72A970FB6F894DEBF76
:103EB0000FBECDBF6B017C01142F20E030E0A901C3
:103EC0000E94EF3787FF07C08DE20E94FF26F7FAB6
:103ED000F094F7F8F094012F023060F020E030E029
:103EE00048EC52E4C701B6010E94723A6B017C01B2
:103EF0000250F2CF10FF0AC020E030E040E251E46F
:103F0000C701B6010E94723A6B017C0120E030E0EB
:103F100040E05FE3C701B6010E9416370E945E3899
:103F2000E1E0F0E0EC0FFD1FE10FF11D2EE2208338
:103F3000D12C5AE0852E912CA12CB12C6115710544
:103F400081059105A9F0D11201C0D394EE24E39428
:103F5000F12CEC0EFD1EED0CF11CA50194010E944C
:103F60007F3B605DF7016083B901CA01D394E6CF5E
:103F700080E3D11648F4E1E0F0E0EC0FFD1FED0D19
:103F8000F11D8083D394F5CF8D2DD1120BC0D39426
:103F9000D3948F5FE1E0F0E0EC0FFD1FE80FF11D1F
:103FA00080E38083DD2041F0FE01ED0DF11D808175
:103FB0000E94FF26DA94F6CF2A960FB6F894DEBF59
:103FC0000FBECDBFDF91CF911F910F91FF90EF906A
:103FD000DF90CF90BF90AF909F908F9008952091E9
:103FE0008D1E20FF08C02BE832E441E25DE30E9411
:103FF000723A44E001C043E00C94461F20918D1EAC
:1040000020FF08C02BE832E441E25DE30E94723AEF
:1040100041E001C040E00C94461F43E00C94461F71
:10402000E7E0F1E080818F778083E8E0F1E0808154
:1040300080688083089510928F1D90918D1E97FD4A
:1040400003C090E890938F1D882329F080918F1DE5
:10405000805880938F1D08958091060180789091FB
:104060008F1D89270895809102028130A1F40E945A
:104070002C20882381F0109202028CE0E5E7FDE11C
:10408000A1E8BDE101900D928A95E1F780910102CE
:104090008064809301020895EF92FF920F931F9323
:1040A000CF93DF93D1E008E080E2F82E10E190E4B6
:1040B000E92EC0910002CC2389F1D093721DC1FF7B
:1040C00002C081E00FC0C2FF02C082E00BC0C3FF8C
:1040D00002C083E007C0C4FF02C084E003C0C5FF84
:1040E00003C085E00E945D22C0FD08C08FB7F89430
:1040F00090910002109200028FBF10C081E00E94D8
:104100008D229FB7F894809101028F7E80930102E7
:104110009FBF8091010284FFFCCFE8CFC0910102D4
:10412000CC2309F4BDC0C4FF04C081E08093711D9D
:10413000CFC0C0FF0AC00E94C8259FB7F8948091E5
:1041400001028E7F809301029FBF8C2F887609F435
:104150003CC08091721D882349F0982F9C7769F1AB
:10416000883021F40E94612ED093731D8091721DBE
:10417000811103C092E09093731DC6FF09C088307F
:1041800011F4E092721D8091731D88608093731DFD
:10419000C3FF05C08091721D85FF1093721DC5FF7E
:1041A0000CC086E00E948D228091731D81FDC46049
:1041B00084608093731DF092721D9FB7F894809174
:1041C00001028779809301029FBFC1FF48C08C2FF5
:1041D0008876E9F58091721D882331F08075B9F1F8
:1041E0008091731D81FF33C08091731D82FF1CC0BD
:1041F0008091001D882371F04091021D5091031D94
:104200006091041D7091051D0E94B32A80EA9FE011
:104210000E94FE198091FF1C882331F00E94FB054B
:1042200088EE93E00E94FE190E946F1B892B59F0C3
:104230008091731D83FD07C00093721D0E94832E21
:104240000E94362B02C01092721D1092731D9FB7F0
:10425000F894809101028D7F809301029FBFC2FF7D
:104260001FC08091721D807379F08091741D81113F
:104270000BC08091731D82FD0E94942A8091731D52
:1042800082608093731D04C01092731D1092721D82
:104290009FB7F894809101028B7F809301029FBFAA
:1042A0008091721D8C7711F00E94832E8091721D77
:1042B000803251F48091731D81FF06C00E94203529
:1042C000811102C01093721D8091731D8111F1CE76
:1042D000DF91CF911F910F91FF90EF9008959FB7BD
:1042E000F894809101028260809301029FBF08953B
:1042F000CF93DF930E94BC228091721D813021F404
:1043000082E00E948D222FC00E942035882341F038
:10431000809101028062809301020E944C2002C0C1
:104320001092721D84E39AE10E9422351CC08D30E8
:1043300079F0DD23A1F1893221F4D13009F04DC0AB
:10434000D0E00E9449278F3F09F449C08A3079F7AD
:10435000EC2FF0E0EC5CF54E10820E944C20809136
:10436000711D882311F0C0E0EBCF8091341A8111C8
:1043700003C00E940C22F7CF8452823028F484E3D9
:104380009AE10E944135F5CF8091721D813011F480
:1043900089E0EFCF84E39AE10E94E306EACF81321D
:1043A00080F28F3271F28832B1F08B33B1F0CF34BA
:1043B00028F08BE00E940C22C0E0C3CF2C2F30E00D
:1043C000CF5F9FE9980FF901EC5CF54E9A3108F444
:1043D00080528083B6CFD1E0B4CFD2E0B2CF0E947A
:1043E0006F210E944C208091711D882309F4A9CF70
:1043F000DF91CF9108950E946F210E944C208091FF
:10440000711D811108C00E946F1B892BB1F780912B
:10441000721D883091F30895CF93C82F811103C086
:104420008CE89BE047C084E89BE00E94E81E4C2F8C
:1044300050E0FA013197E632F10598F5E956FF4F61
:104440000C94A13B8CE69BE002C08AE59BE00E94B5
:10445000E81E2EC088E49BE0FACF8EE39BE0F7CF06
:104460008DE29BE0F4CF8EE19BE0F1CF8DEF9AE0FF
:10447000EECF84EF9AE0EBCF89EE9AE0E8CF86EDBD
:104480009AE0E5CF88EC9AE0E2CF82EB9AE0DFCFCA
:104490008EE99AE0DCCF8AE89AE0D9CF86E79AE005
:1044A000D6CF84E69AE00E94E81E8C2F0E943A1F25
:1044B00081E69AE0CF910C94E81ECF93C82F89E54E
:1044C0009AE00E94E81E8C2F90E0FC013197E730C3
:1044D000F105D0F4E354FF4F0C94A13B8EE49AE035
:1044E00011C083E49AE00EC080E39AE00BC085E23D
:1044F0009AE008C089E19AE005C08DE09AE002C028
:1045000089EF99E00E94E81E86EF99E00E94E81E7C
:1045100084EF91E0CF910C94FE19CF93C82F84EFD4
:1045200099E00E94E81E8C2F90E0FC013197E83062
:10453000F105E8F4EC53FF4F0C94A13B82EE99E0B7
:1045400014C08EEC99E011C08CEB99E00EC084EBA6
:1045500099E00BC08BEA99E008C080EA99E005C0B9
:1045600088E999E002C085E899E00E94E81E81E8A8
:1045700099E0CF910C94E81E84E699E00C94E81E33
:104580008AE997E00C94E81EFF920F931F93CF9354
:10459000DF9386E997E00E94E81E8091801E0E94CA
:1045A0003A1F8DE797E00E94E81E8091831E0E94CB
:1045B0003A1F8FE597E00E94E81E8091811E0E94BD
:1045C0003A1F86E497E00E94E81E8091811E0E94B7
:1045D000361F8FE397E00E94E81E8091821E0E94A2
:1045E0003A1F87E297E00E94E81E8091821E0E9497
:1045F000361F80E297E00E94E81E80918D1E82FBAC
:10460000882780F90E943A1F8FEF96E00E94E81EEB
:1046100080918D1E86FB882780F90E943A1F8FEDBE
:1046200096E00E94E81E80918D1E881F8827881FB3
:104630000E943A1F8FEB96E00E94E81E8091841E34
:104640000E943A1F89EA96E00E94E81E8091841E2B
:104650000E94361F81EA96E00E94E81E6091851E46
:104660007091861E8091871E9091881E0E940D2059
:1046700081E896E00E94E81E6091891E70918A1E72
:1046800080918B1E90918C1E0E940D2086E696E0F4
:104690000E94E81E80918D1E81700E943A1F89E45D
:1046A00096E00E94E81E80918D1E85FB882780F988
:1046B0000E943A1F8EE296E00E94E81E80918D1EB5
:1046C00083FB882780F90E943A1F83E196E00E94CD
:1046D000E81E80918D1E829581700E943A1F87EF9F
:1046E00095E00E94E81E80918E1E0E943A1F8DED7B
:1046F00095E00E94E81E80918E1E0E94361F85ED77
:1047000095E00E94E81E60918F1E7091901E80912E
:10471000911E9091921E0E940D2088EB95E00E94C0
:10472000E81E6091931E7091941E8091951E909149
:10473000961E0E940D208BE995E00E94E81E809154
:10474000971E0E943A1F8CE795E00E94E81E609138
:10475000991E70919A1E80919B1E90919C1E0E94A2
:104760000D208FE595E00E94E81E809104020E94D2
:104770003A1F86E395E00E94E81E84E6F82E10E0DA
:10478000C0E5DEE100E084E395E00E94E81E802FB2
:104790008F0D0E943A1F82E395E00E94E81E1230BE
:1047A00071F01330B9F0113029F0688179818A8174
:1047B0009B8117C06C857D858E859F8512C020E00A
:1047C00030E041E655E4688D798D8A8D9B8D0E949D
:1047D000F63707C08CA19DA1AEA1BFA1BC01CD0140
:1047E00090580E940D208FE295E00E94E81E013053
:1047F00029F0023031F08DE295E005C08BE295E0C2
:1048000002C089E295E00E94E81E123051F0133098
:1048100059F0113019F08FE195E008C08DE095E076
:1048200005C08CEF94E002C08CEE94E00E94E81E7C
:1048300088EE94E00E94E81E0F5F2496033009F092
:10484000A2CF8AE0F80E1F5F8CE8F81299CFDF91B3
:10485000CF911F910F91FF900895CF9382EE94E036
:104860000E94E81EC0E06C2F81E89DE10E94C836DE
:104870000E94EF1FC23021F080EE94E00E94E81EFB
:10488000CF5FC33081F78EED94E00E94E81E8091E7
:104890008D1D0E943A1F8AED94E0CF910C94E81E82
:1048A000EF92FF920F931F93CF93DF93CDB7DEB7B5
:1048B0002C970FB6F894DEBF0FBECDBFF12CBE0112
:1048C0006F5F7F4F8F2D0E942729811104C087E0E1
:1048D0000E940C2269C087ED94E00E94E81E86E0E9
:1048E000F81631F0E7E0FE1208C081ED94E002C056
:1048F00084ED94E00E94E81E04C086E38F0D0E94C0
:104900003A1F8FEC94E00E94E81E8E010F5F1F4F4C
:10491000E12CF80161917191819191918F010E9437
:10492000EF1FF2E0EF1619F08DEC94E002C089EC75
:1049300094E00E94E81EE39483E0E812EACFF39447
:10494000E8E0FE12BCCF83EC94E00E94E81E07E290
:104950001DE1F12CF80161917191819191918F018B
:104960000E94EF1FF2E0FF1619F081EC94E002C004
:104970008DEB94E00E94E81EF39483E0F812EACFF6
:1049800087EB94E00E94E81E6091331D7091341D06
:104990008091351D9091361D0E94EF1F83EB94E0AE
:1049A0000E94E81E0E942D242C960FB6F894DEBFBC
:1049B0000FBECDBFDF91CF911F910F91FF90EF9070
:1049C000089581EB94E00E94E81E8091F71C8230EC
:1049D00091F038F4882361F08130A9F48BEA94E0F7
:1049E0000CC0833069F0883071F481EA94E005C02E
:1049F0008EEA94E002C088EA94E00E94E81E0CC0AF
:104A000085EA94E0FACF8CE994E00E94E81E809158
:104A1000F71C82500E943A1F89E994E00E94E81E28
:104A20008091FD1C8A5C0E943A1F8091FB1C8130A2
:104A300049F028F0823051F48AE894E005C084E916
:104A400094E002C08FE894E00E94E81E8091F91C77
:104A5000811103C085E894E002C080E894E00E94E0
:104A6000E81E8091FA1C811103C08BE794E002C01C
:104A700086E794E00E94E81E8091F81C813019F4CA
:104A800081E794E002C08CE694E00E94E81E8091E9
:104A9000FE1C813049F028F0823051F480E694E029
:104AA00005C088E694E002C084E694E00E94E81E17
:104AB0008091001D813031F040F0823051F488E562
:104AC00094E005C08CE594E002C084E594E00E9487
:104AD000E81E8091FF1C882329F0823039F48CE491
:104AE00094E002C080E594E00E94E81E89E494E02E
:104AF0000E94E81E80910A1D0E943A1F86E494E0FD
:104B00000E94E81E6091061D7091071D8091081D8E
:104B10009091091D0E94FE1F83E494E00E94E81E0C
:104B20006091021D7091031D8091041D9091051DDF
:104B30000E94FE1F8FE394E00C94E81E1F93CF9316
:104B4000DF93182FEB018CE394E00E94E81E812F85
:104B50000E943A1F8AE394E00E94E81ECE010E9460
:104B6000DC1E87E394E0DF91CF911F910C94E81E47
:104B7000CF93DF93EC0187E294E00E94E81ECE0120
:104B80000E94DC1E83E294E0DF91CF910C94E81E3A
:104B9000BF92CF92DF92EF92FF920F931F93CF932A
:104BA000DF93CDB7DEB768970FB6F894DEBF0FBEC0
:104BB000CDBF8CE0E5E7FDE1DE011D9601900D9291
:104BC0008A95E1F78091721D8430E9F040F48130DC
:104BD000E9F080F0823009F58EEF93E01CC080315F
:104BE00079F018F4883049F018C0803291F08034A0
:104BF00021F013C08DE194E00EC088E194E00BC079
:104C000082E194E008C08CE094E005C085E094E087
:104C100002C088EF93E00E94E81E8091841E83709A
:104C200039F0BE01635F7F4FCE0101960E94E236EC
:104C30008091841E80FD05C08091841E81FF6DC01F
:104C40001FC081EF93E00E94E81E69817A818B8109
:104C50009C810E94EF1F8FEE93E00E94E81E6D8101
:104C60007E818F8198850E94EF1F8FEE93E00E94D6
:104C7000E81E69857A858B859C850E94EF1FDCCFB5
:104C800088EE93E00E94E81E9BE1E92E9DE1F92E5B
:104C90008E010F5F1F4FB12C6801F7016191719177
:104CA000819191917F0120853185428553850E94B4
:104CB00016379B01AC01F80160817181828193817B
:104CC0000E941537F8016083718382839383F2E039
:104CD000BF120FC02091331D3091341D4091351DFE
:104CE0005091361D0E941537F801608371838283CD
:104CF00093830C5F1F4FF6016081718182819381E4
:104D00000E94EF1FF2E0BF1621F086EE93E00E94B2
:104D1000E81EB39423E0B212BFCF8091841E82FFBD
:104D200008C080EE93E00E94E81E0E94CB1E0E9405
:104D30003A1F8091841E83FF08C08BED93E00E9490
:104D4000E81E0E94E0260E943A1F8091841E85FF83
:104D500009C084ED93E00E94E81E0E941F1141E00B
:104D60000E94461F8091841E85FF08C086EC93E058
:104D70000E94E81E0E941A110E943A1F8091841E10
:104D800084FF0AC080EC93E00E94E81E0E94DD11BF
:104D900043E062E00E94F71E8CEB93E00E94E81E65
:104DA00068960FB6F894DEBF0FBECDBFDF91CF91EE
:104DB0001F910F91FF90EF90DF90CF90BF900895DB
:104DC0009091861A8091871A891708F48058891B58
:104DD0000895E0ECF0E08081826080831092C5004D
:104DE00080E18093C400E1ECF0E080818061808309
:104DF0008081886080838081806880830895E091CD
:104E0000851A91E09E0F903409F490E02091841A65
:104E1000921305C02091010224FFF8CF0895F0E01D
:104E2000E057F24E80839093851A8091C100806292
:104E30008093C10008951F920F920FB60F92112414
:104E40000BB60F928F939F93EF93FF938091841AE9
:104E5000E82FF0E0E057F24E90819093C6008F5F0C
:104E6000803409F480E08093841A9091851A891324
:104E700005C08091C1008F7D8093C100FF91EF91AB
:104E80009F918F910F900BBE0F900FBE0F901F90B0
:104E900018959091861A8091871A891761F0E92FE9
:104EA000F0E0E053F24E80819F5F903809F490E08B
:104EB0009093861A08958FEF08951F920F920FB660
:104EC0000F9211240BB60F922F933F934F935F9342
:104ED0006F937F938F939F93AF93BF93EF93FF93C2
:104EE0008091C6008F33A9F050F4883109F18132E6
:104EF00011F59FB7F89480910102886015C0803445
:104F000071F08E37C1F49FB7F894809101028260EE
:104F10000BC09FB7F89480910102816005C09FB7D4
:104F2000F894809101028062809301029FBF14C0B7
:104F30000E94231911C0E091871A91E09E0F9038CA
:104F400009F490E02091861A921731F0F0E0E053D6
:104F5000F24E80839093871AFF91EF91BF91AF91AA
:104F60009F918F917F916F915F914F913F912F9181
:104F70000F900BBE0F900FBE0F901F901895809151
:104F8000871A8093861A089521E5829FC001112413
:104F900040E550E09D5F0C94480640E550E0BC01C0
:104FA0008EEA93E00C9448062DE0829FC001112404
:104FB0004CE050E09E5F0C94480669E080E090E091
:104FC0000E9426064DE450E060E57EE181E090E03D
:104FD0000C944806EF92FF920F931F93CF93DF93A9
:104FE000CDB7DEB72C970FB6F894DEBF0FBECDBF9E
:104FF000182F80FFC8C08AE08093801E8FEF8093B7
:10500000831E1092811E1092821E83E28093841E62
:105010008AE097EDA3E2BCE38093851E9093861E01
:10502000A093871EB093881E8FE692E1A3E0BBE3B6
:105030008093891E90938A1EA0938B1EB0938C1E22
:1050400010928E1E80E090E0A8E4B3E480938F1E5F
:105050009093901EA093911EB093921E80E090E0DA
:10506000AAE7B5E48093931E9093941EA093951E97
:10507000B093961E8AEF90E09093981E8093971EAF
:1050800080E090E0A0E8BFE38093991E90939A1E81
:10509000A0939B1EB0939C1E81E08093040210920B
:1050A0008D1E81E79DEBA6E0B3E48093501E9093A4
:1050B000511EA093521EB093531E8093541E909382
:1050C000551EA093561EB093571E8093581E909362
:1050D000591EA0935A1EB0935B1E40E050E066E15B
:1050E00074E440935C1E50935D1E60935E1E70934B
:1050F0005F1E4093601E5093611E6093621E70930A
:10510000631E4093641E5093651E6093661E7093E9
:10511000671E40E050E86BEB75E44093681E5093C7
:10512000691E60936A1E70936B1E40936C1E5093B1
:105130006D1E60936E1E70936F1E4093701E509391
:10514000711E6093721E7093731E40E050E068E41D
:1051500073EC4093741E5093751E6093761E70938B
:10516000771E4093781E5093791E60937A1E709339
:105170007B1E40937C1E50937D1E60937E1E709319
:105180007F1E0E94DD2711FF10C0CE0101967C0119
:105190008CE0F70111928A95E9F700E0B701802FC2
:1051A0000E94D4270F5F0830C9F712FF0AC060E0E1
:1051B00080E093E00E94260660E081E593E00E9493
:1051C000260613FF05C060E08EEA93E00E942606E3
:1051D0002C960FB6F894DEBF0FBECDBFDF91CF91F6
:1051E0001F910F91FF90EF9008951F93CF93DF933E
:1051F000182FEB0181E5189FB00111247D5F40E578
:1052000050E0CE010E948606892B39F41882BE0137
:10521000812F0E94C42780E001C081E0DF91CF91FF
:105220001F910895CF93DF93EC0140E550E06EEAC3
:1052300073E00E948606892B31F41882CE010E9409
:10524000CD2780E001C081E0DF91CF9108951F93C9
:10525000CF93DF93182FEB018DE0189FB00111243D
:105260007E5F4CE050E0CE010E948606892B59F407
:105270008CE0FE0111928A95E9F7BE01812F0E9410
:10528000D42780E001C081E0DF91CF911F91089584
:1052900080E090E00E941E06893011F080E00895C1
:1052A0004DE450E061E070E080E59EE10E948606FA
:1052B000892BA1F381E0809304020895CF92DF92BD
:1052C000EF92FF921F93CF93DF93C82F6A017B0168
:1052D000122F20E030E0A901C701B6010E94EF378C
:1052E00087FDE4C0C436F0F1C45680E0C33088F5D1
:1052F000D0E0CC0FDD1FCC0FDD1F823051F08330AA
:10530000E9F0813019F0C05BD14E1EC0C45AD14EB5
:105310001BC0C859D14E20E030E040E752E4C7013D
:10532000B6010E94723A20E030E040E752E40E9469
:10533000723A688379838A839B83B3C0CC58D14EF9
:10534000F7FAF094F7F8F094C882D982EA82FB82E7
:10535000A8C08F5FCA3008F4ABC0843009F4A8C07D
:10536000CA50C4CFC701B6010E94403B0E946338B7
:105370008C2F90E08D31910508F09AC0FC01E45328
:10538000FF4F0C94A13B633008F494C06093801EDF
:1053900088C06093831E85C06093811E02C06093A5
:1053A000821E0E94D32D7DC080918D1E662311F038
:1053B000846007C08B7F05C080918D1E662321F01D
:1053C000806480938D1E6DC08F7BFBCF80918D1E7E
:1053D000662311F08068F5CF8F77F3CF6093841E3A
:1053E00060C0C092851ED092861EE092871EF09209
:1053F000881E57C0C092891ED0928A1EE0928B1ED2
:10540000F0928C1E4EC080918D1E662311F081603B
:10541000D8CF8E7FD6CF80918D1E662321F084FF5A
:105420004BC08062CECF8F7DCCCF80918D1E662306
:1054300011F0886001C0877F80938D1E0E94C61185
:1054400030C080918D1E662311F08061BACF8F7CB1
:10545000B8CF60938E1E25C0C0928F1ED092901E32
:10546000E092911EF092921E1CC0C092931ED092A8
:10547000941EE092951EF092961E13C070E07093F9
:10548000981E6093971E0DC0C092991ED0929A1ECE
:10549000E0929B1EF0929C1E04C0653678F46093E7
:1054A0000402113069F40E94DD270AC084E009C0BB
:1054B00083E007C086E005C08AE003C086E201C041
:1054C00080E0DF91CF911F91FF90EF90DF90CF9020
:1054D00008950E944829811108C087E00E940C228B
:1054E0008FEF0E94EA270C94C4220895882321F0AC
:1054F000813021F488E0089584E0089580E10895E2
:10550000882321F0813021F480E4089580E8089513
:1055100080E20895882321F0813021F480E208950B
:1055200080E1089580E40895E0EAF0E080818F7DD5
:1055300080831092AB001092AA00E2E0F1E080813B
:1055400088608083109203022F980895279A2F98DD
:10555000E1E0F1E0808180618083808188608083E8
:105560006B9A0C94942ACF92DF92EF92FF926A0189
:105570007B01811106C0FF90EF90DF90CF900C94DB
:10558000942A8091030281111CC081E08093030260
:105590002F9A1092AB001092AA0083E08093A00093
:1055A0008091A100807E89618093A10089EF96E0BF
:1055B0009093A9008093A80080910201877F809337
:1055C000020120E030E0A901C701B6010E94F239D2
:1055D0001816D4F48091A00080628093A000C701C7
:1055E000B6010E945E3847E0469F9001479F300D0C
:1055F00011246091040270E0C9010E946B3B70931A
:10560000AB006093AA0005C08091A0008F7D8093BD
:10561000A000FF90EF90DF90CF900895CF93DF939D
:1056200000D01F921F92CDB7DEB79091721D9230BD
:10563000A9F04A835B836C837D8389830E94FB216D
:105640004A815B816C817D8189810F900F900F90E1
:105650000F900F90DF91CF910C94B32A0F900F9081
:105660000F900F900F90DF91CF91089580918D1E34
:1056700082FF04C080910201806403C08091020116
:105680008F7B809302018091721D8C70A1F08091BC
:10569000B81A8093CC1A8091B91A8093CB1A809152
:1056A000801E880F845081958093CA1A80916F0064
:1056B000826080936F00089580916F008D7F80934A
:1056C0006F0080918100887F8160809381001092BB
:1056D000B71A8091831E8F3F21F490910002992385
:1056E00049F09091721D943029F090E00E94FE19CB
:1056F00081E001C080E090918D1E92FF02C091E098
:105700008927882321F080910201806403C0809161
:1057100002018F7B809302010895EFE6F0E0808123
:105720008D7F8083E1E8F0E08081887F81608083E5
:105730001092B71AE2E0F1E08081806480830895DE
:105740001F920F920FB60F9211240BB60F922F9348
:105750003F934F935F936F937F938F939F93AF93F9
:10576000BF93CF93DF93EF93FF938091B71A81118B
:10577000EFC198B18091CC1A807E9F71892B88B936
:1057800082B1837E9091CB1A892B82B98091CA1AFB
:1057900086BD82E085BD81E08093B71A78948091C0
:1057A000DE1A9091DF1A892B09F0A4C08091BC1AEF
:1057B0009091BB1A981709F492C0E091BC1A86E048
:1057C000E89FF0011124E052F54EF093DF1AE093C8
:1057D000DE1A838194819093890080938800808170
:1057E00091819093DA1A8093D91AA2818091DB1A61
:1057F0008A1771F1A093DB1A81E1A89FD0011124CF
:10580000A059B44EB093DD1AA093DC1A1D968D9169
:105810009D910D90BC91A02DB695A79597958795D4
:105820008093C51A9093C61AA093C71AB093C81A4A
:105830008093C11A9093C21AA093C31AB093C41A4A
:105840008093BD1A9093BE1AA093BF1AB093C01A4A
:10585000C091DC1AD091DD1A8091B81A98818927FD
:105860008093CC1A258189819A81AB81BC81022EDB
:1058700004C0B695A795979587950A94D2F780931B
:10588000CD1A9093CE1AA093CF1AB093D01A8D81CF
:105890009E81AF81B885022E04C0B695A7959795D5
:1058A00087950A94D2F78093D11A9093D21AA09335
:1058B000D31AB093D41A89859A85AB85BC8504C068
:1058C000B695A795979587952A95D2F78093D51A7F
:1058D0009093D61AA093D71AB093D81A0BC00E94EF
:1058E0005C2B9FB7F8948091010284608093010241
:1058F0009FBF2EC10E9433201092CB1A8091CD1AE7
:105900009091CE1AA091CF1AB091D01A4091BD1AA1
:105910005091BE1A6091BF1A7091C01A840F951FE2
:10592000A61FB71F8093BD1A9093BE1AA093BF1AEB
:10593000B093C01AE091DC1AF091DD1A45855685C6
:1059400067857089481759076A077B0768F524E05F
:105950002093CB1A4585568567857089841B950BE6
:10596000A60BB70B8093BD1A9093BE1AA093BF1AD3
:10597000B093C01A20818091751D9091761DA091E1
:10598000771DB091781D27FF04C00197A109B109C7
:1059900003C00196A11DB11D8093751D9093761DC6
:1059A000A093771DB093781D8091D11A9091D21A4F
:1059B000A091D31AB091D41A4091C11A5091C21A31
:1059C0006091C31A7091C41A840F951FA61FB71F48
:1059D0008093C11A9093C21AA093C31AB093C41AA9
:1059E0004585568567857089481759076A077B077B
:1059F00078F52091CB1A28602093CB1A45855685DF
:105A000067857089841B950BA60BB70B8093C11A11
:105A10009093C21AA093C31AB093C41A20818091A4
:105A2000791D90917A1DA0917B1DB0917C1D26FF60
:105A300004C00197A109B10903C00196A11DB11DC0
:105A40008093791D90937A1DA0937B1DB0937C1D4C
:105A50008091D51A9091D61AA091D71AB091D81AE0
:105A60004091C51A5091C61A6091C71A7091C81A10
:105A7000840F951FA61FB71F8093C51A9093C61A4F
:105A8000A093C71AB093C81A458556856785708953
:105A9000481759076A077B0778F52091CB1A2061D0
:105AA0002093CB1A4585568567857089841B950B95
:105AB000A60BB70B8093C51A9093C61AA093C71A6A
:105AC000B093C81A208180917D1D90917E1DA09178
:105AD0007F1DB091801D25FF04C00197A109B10968
